{
  "_format": "hh-sol-artifact-1",
  "contractName": "OpenField",
  "sourceName": "contracts/OpenField.sol",
  "abi": [
    {
      "inputs": [],
      "stateMutability": "nonpayable",
      "type": "constructor"
    },
    {
      "anonymous": false,
      "inputs": [
        {
          "components": [
            {
              "internalType": "uint256",
              "name": "id",
              "type": "uint256"
            },
            {
              "internalType": "string",
              "name": "name",
              "type": "string"
            },
            {
              "internalType": "string",
              "name": "location",
              "type": "string"
            },
            {
              "internalType": "string",
              "name": "longitude",
              "type": "string"
            },
            {
              "internalType": "string",
              "name": "latitude",
              "type": "string"
            },
            {
              "internalType": "string",
              "name": "mobile",
              "type": "string"
            }
          ],
          "indexed": false,
          "internalType": "struct OpenField.Farmer",
          "name": "",
          "type": "tuple"
        }
      ],
      "name": "NewFarmer",
      "type": "event"
    },
    {
      "anonymous": false,
      "inputs": [
        {
          "components": [
            {
              "internalType": "uint256",
              "name": "id",
              "type": "uint256"
            },
            {
              "internalType": "uint256",
              "name": "producer_id",
              "type": "uint256"
            },
            {
              "internalType": "string",
              "name": "producer_name",
              "type": "string"
            },
            {
              "internalType": "string",
              "name": "name",
              "type": "string"
            },
            {
              "internalType": "uint256",
              "name": "quantity",
              "type": "uint256"
            },
            {
              "internalType": "string",
              "name": "ingredient",
              "type": "string"
            },
            {
              "internalType": "string",
              "name": "batchno",
              "type": "string"
            },
            {
              "internalType": "string",
              "name": "manufacture_date",
              "type": "string"
            },
            {
              "internalType": "string",
              "name": "expiry_date",
              "type": "string"
            }
          ],
          "indexed": false,
          "internalType": "struct OpenField.Pesticide",
          "name": "",
          "type": "tuple"
        }
      ],
      "name": "NewPesticide",
      "type": "event"
    },
    {
      "inputs": [
        {
          "internalType": "string",
          "name": "_name",
          "type": "string"
        },
        {
          "internalType": "string",
          "name": "_mob",
          "type": "string"
        },
        {
          "internalType": "string",
          "name": "_location",
          "type": "string"
        },
        {
          "internalType": "string",
          "name": "_longitude",
          "type": "string"
        },
        {
          "internalType": "string",
          "name": "_latitude",
          "type": "string"
        }
      ],
      "name": "addFarmer",
      "outputs": [],
      "stateMutability": "nonpayable",
      "type": "function"
    },
    {
      "inputs": [
        {
          "internalType": "uint256",
          "name": "_producer_id",
          "type": "uint256"
        },
        {
          "internalType": "uint256",
          "name": "_quantity",
          "type": "uint256"
        },
        {
          "internalType": "string",
          "name": "_name",
          "type": "string"
        },
        {
          "internalType": "string",
          "name": "_producer_name",
          "type": "string"
        },
        {
          "internalType": "string",
          "name": "_ingredient",
          "type": "string"
        },
        {
          "internalType": "string",
          "name": "_batchno",
          "type": "string"
        },
        {
          "internalType": "string",
          "name": "_manufacture_date",
          "type": "string"
        },
        {
          "internalType": "string",
          "name": "_expiry_date",
          "type": "string"
        }
      ],
      "name": "addPesticide",
      "outputs": [],
      "stateMutability": "nonpayable",
      "type": "function"
    },
    {
      "inputs": [
        {
          "internalType": "uint256",
          "name": "_pest_id",
          "type": "uint256"
        },
        {
          "internalType": "uint256",
          "name": "_farmer_id",
          "type": "uint256"
        },
        {
          "internalType": "uint256",
          "name": "_qtd",
          "type": "uint256"
        }
      ],
      "name": "addPesticideFarmer",
      "outputs": [],
      "stateMutability": "nonpayable",
      "type": "function"
    },
    {
      "inputs": [],
      "name": "cropCount",
      "outputs": [
        {
          "internalType": "uint256",
          "name": "",
          "type": "uint256"
        }
      ],
      "stateMutability": "view",
      "type": "function"
    },
    {
      "inputs": [
        {
          "internalType": "uint256",
          "name": "",
          "type": "uint256"
        }
      ],
      "name": "crops",
      "outputs": [
        {
          "internalType": "uint256",
          "name": "id",
          "type": "uint256"
        },
        {
          "internalType": "uint256",
          "name": "farmer_id",
          "type": "uint256"
        },
        {
          "internalType": "string",
          "name": "name",
          "type": "string"
        }
      ],
      "stateMutability": "view",
      "type": "function"
    },
    {
      "inputs": [
        {
          "internalType": "uint256",
          "name": "",
          "type": "uint256"
        }
      ],
      "name": "distributors",
      "outputs": [
        {
          "internalType": "uint256",
          "name": "id",
          "type": "uint256"
        },
        {
          "internalType": "string",
          "name": "name",
          "type": "string"
        },
        {
          "internalType": "string",
          "name": "location",
          "type": "string"
        },
        {
          "internalType": "string",
          "name": "longitude",
          "type": "string"
        },
        {
          "internalType": "string",
          "name": "latitude",
          "type": "string"
        }
      ],
      "stateMutability": "view",
      "type": "function"
    },
    {
      "inputs": [],
      "name": "farmerCount",
      "outputs": [
        {
          "internalType": "uint256",
          "name": "",
          "type": "uint256"
        }
      ],
      "stateMutability": "view",
      "type": "function"
    },
    {
      "inputs": [
        {
          "internalType": "uint256",
          "name": "",
          "type": "uint256"
        }
      ],
      "name": "farmers",
      "outputs": [
        {
          "internalType": "uint256",
          "name": "id",
          "type": "uint256"
        },
        {
          "internalType": "string",
          "name": "name",
          "type": "string"
        },
        {
          "internalType": "string",
          "name": "location",
          "type": "string"
        },
        {
          "internalType": "string",
          "name": "longitude",
          "type": "string"
        },
        {
          "internalType": "string",
          "name": "latitude",
          "type": "string"
        },
        {
          "internalType": "string",
          "name": "mobile",
          "type": "string"
        }
      ],
      "stateMutability": "view",
      "type": "function"
    },
    {
      "inputs": [],
      "name": "getAllFarmers",
      "outputs": [
        {
          "components": [
            {
              "internalType": "uint256",
              "name": "id",
              "type": "uint256"
            },
            {
              "internalType": "string",
              "name": "name",
              "type": "string"
            },
            {
              "internalType": "string",
              "name": "location",
              "type": "string"
            },
            {
              "internalType": "string",
              "name": "longitude",
              "type": "string"
            },
            {
              "internalType": "string",
              "name": "latitude",
              "type": "string"
            },
            {
              "internalType": "string",
              "name": "mobile",
              "type": "string"
            }
          ],
          "internalType": "struct OpenField.Farmer[]",
          "name": "",
          "type": "tuple[]"
        }
      ],
      "stateMutability": "view",
      "type": "function"
    },
    {
      "inputs": [
        {
          "internalType": "uint256",
          "name": "_id",
          "type": "uint256"
        }
      ],
      "name": "getFarmersPesticidesById",
      "outputs": [
        {
          "components": [
            {
              "internalType": "uint256",
              "name": "id",
              "type": "uint256"
            },
            {
              "internalType": "uint256",
              "name": "producer_id",
              "type": "uint256"
            },
            {
              "internalType": "string",
              "name": "producer_name",
              "type": "string"
            },
            {
              "internalType": "string",
              "name": "name",
              "type": "string"
            },
            {
              "internalType": "uint256",
              "name": "quantity",
              "type": "uint256"
            },
            {
              "internalType": "string",
              "name": "ingredient",
              "type": "string"
            },
            {
              "internalType": "string",
              "name": "batchno",
              "type": "string"
            },
            {
              "internalType": "string",
              "name": "manufacture_date",
              "type": "string"
            },
            {
              "internalType": "string",
              "name": "expiry_date",
              "type": "string"
            }
          ],
          "internalType": "struct OpenField.Pesticide[]",
          "name": "",
          "type": "tuple[]"
        }
      ],
      "stateMutability": "view",
      "type": "function"
    },
    {
      "inputs": [],
      "name": "getPesticides",
      "outputs": [
        {
          "components": [
            {
              "internalType": "uint256",
              "name": "id",
              "type": "uint256"
            },
            {
              "internalType": "uint256",
              "name": "producer_id",
              "type": "uint256"
            },
            {
              "internalType": "string",
              "name": "producer_name",
              "type": "string"
            },
            {
              "internalType": "string",
              "name": "name",
              "type": "string"
            },
            {
              "internalType": "uint256",
              "name": "quantity",
              "type": "uint256"
            },
            {
              "internalType": "string",
              "name": "ingredient",
              "type": "string"
            },
            {
              "internalType": "string",
              "name": "batchno",
              "type": "string"
            },
            {
              "internalType": "string",
              "name": "manufacture_date",
              "type": "string"
            },
            {
              "internalType": "string",
              "name": "expiry_date",
              "type": "string"
            }
          ],
          "internalType": "struct OpenField.Pesticide[]",
          "name": "",
          "type": "tuple[]"
        }
      ],
      "stateMutability": "view",
      "type": "function"
    },
    {
      "inputs": [
        {
          "internalType": "uint256",
          "name": "_id",
          "type": "uint256"
        }
      ],
      "name": "getProcudersPesticides",
      "outputs": [
        {
          "components": [
            {
              "internalType": "uint256",
              "name": "id",
              "type": "uint256"
            },
            {
              "internalType": "uint256",
              "name": "producer_id",
              "type": "uint256"
            },
            {
              "internalType": "string",
              "name": "producer_name",
              "type": "string"
            },
            {
              "internalType": "string",
              "name": "name",
              "type": "string"
            },
            {
              "internalType": "uint256",
              "name": "quantity",
              "type": "uint256"
            },
            {
              "internalType": "string",
              "name": "ingredient",
              "type": "string"
            },
            {
              "internalType": "string",
              "name": "batchno",
              "type": "string"
            },
            {
              "internalType": "string",
              "name": "manufacture_date",
              "type": "string"
            },
            {
              "internalType": "string",
              "name": "expiry_date",
              "type": "string"
            }
          ],
          "internalType": "struct OpenField.Pesticide[]",
          "name": "",
          "type": "tuple[]"
        }
      ],
      "stateMutability": "view",
      "type": "function"
    },
    {
      "inputs": [],
      "name": "getProducers",
      "outputs": [
        {
          "components": [
            {
              "internalType": "uint256",
              "name": "id",
              "type": "uint256"
            },
            {
              "internalType": "string",
              "name": "name",
              "type": "string"
            },
            {
              "internalType": "string",
              "name": "dealer_name",
              "type": "string"
            }
          ],
          "internalType": "struct OpenField.Producer[]",
          "name": "",
          "type": "tuple[]"
        }
      ],
      "stateMutability": "view",
      "type": "function"
    },
    {
      "inputs": [],
      "name": "name",
      "outputs": [
        {
          "internalType": "string",
          "name": "",
          "type": "string"
        }
      ],
      "stateMutability": "view",
      "type": "function"
    },
    {
      "inputs": [],
      "name": "pesticideCount",
      "outputs": [
        {
          "internalType": "uint256",
          "name": "",
          "type": "uint256"
        }
      ],
      "stateMutability": "view",
      "type": "function"
    },
    {
      "inputs": [],
      "name": "pesticideFarmerCount",
      "outputs": [
        {
          "internalType": "uint256",
          "name": "",
          "type": "uint256"
        }
      ],
      "stateMutability": "view",
      "type": "function"
    },
    {
      "inputs": [
        {
          "internalType": "uint256",
          "name": "",
          "type": "uint256"
        }
      ],
      "name": "pesticides",
      "outputs": [
        {
          "internalType": "uint256",
          "name": "id",
          "type": "uint256"
        },
        {
          "internalType": "uint256",
          "name": "producer_id",
          "type": "uint256"
        },
        {
          "internalType": "string",
          "name": "producer_name",
          "type": "string"
        },
        {
          "internalType": "string",
          "name": "name",
          "type": "string"
        },
        {
          "internalType": "uint256",
          "name": "quantity",
          "type": "uint256"
        },
        {
          "internalType": "string",
          "name": "ingredient",
          "type": "string"
        },
        {
          "internalType": "string",
          "name": "batchno",
          "type": "string"
        },
        {
          "internalType": "string",
          "name": "manufacture_date",
          "type": "string"
        },
        {
          "internalType": "string",
          "name": "expiry_date",
          "type": "string"
        }
      ],
      "stateMutability": "view",
      "type": "function"
    },
    {
      "inputs": [
        {
          "internalType": "uint256",
          "name": "",
          "type": "uint256"
        }
      ],
      "name": "pesticidesDistributor",
      "outputs": [
        {
          "internalType": "uint256",
          "name": "id",
          "type": "uint256"
        },
        {
          "internalType": "uint256",
          "name": "distributor_id",
          "type": "uint256"
        },
        {
          "internalType": "uint256",
          "name": "pesticide_id",
          "type": "uint256"
        }
      ],
      "stateMutability": "view",
      "type": "function"
    },
    {
      "inputs": [
        {
          "internalType": "uint256",
          "name": "",
          "type": "uint256"
        }
      ],
      "name": "pesticidesFarmer",
      "outputs": [
        {
          "internalType": "uint256",
          "name": "id",
          "type": "uint256"
        },
        {
          "internalType": "uint256",
          "name": "farmer_id",
          "type": "uint256"
        },
        {
          "internalType": "uint256",
          "name": "qtd",
          "type": "uint256"
        },
        {
          "internalType": "uint256",
          "name": "pesticide_id",
          "type": "uint256"
        }
      ],
      "stateMutability": "view",
      "type": "function"
    },
    {
      "inputs": [],
      "name": "producerCount",
      "outputs": [
        {
          "internalType": "uint256",
          "name": "",
          "type": "uint256"
        }
      ],
      "stateMutability": "view",
      "type": "function"
    },
    {
      "inputs": [
        {
          "internalType": "uint256",
          "name": "",
          "type": "uint256"
        }
      ],
      "name": "producers",
      "outputs": [
        {
          "internalType": "uint256",
          "name": "id",
          "type": "uint256"
        },
        {
          "internalType": "string",
          "name": "name",
          "type": "string"
        },
        {
          "internalType": "string",
          "name": "dealer_name",
          "type": "string"
        }
      ],
      "stateMutability": "view",
      "type": "function"
    }
  ],
  "bytecode": "0x6080604052600060085560006009556000600a556000600b556000600c553480156200002a57600080fd5b506040518060400160405280600981526020017f4f70656e4669656c6400000000000000000000000000000000000000000000008152506000908162000071919062000faa565b50600160096000828254620000879190620010c0565b9250508190555060006002600060095481526020019081526020016000209050600181600001819055506040518060400160405280600881526020017f534f6d6520504c54000000000000000000000000000000000000000000000000815250816001019081620000f9919062000faa565b506040518060400160405280600e81526020017f4465616c6572206e616d6565656500000000000000000000000000000000000081525081600201908162000142919062000faa565b50600160096000828254620001589190620010c0565b9250508190555060006002600060095481526020019081526020016000209050600281600001819055506040518060400160405280600381526020017f504c540000000000000000000000000000000000000000000000000000000000815250816001019081620001ca919062000faa565b506040518060400160405280600881526020017f206e616d6565656500000000000000000000000000000000000000000000000081525081600201908162000213919062000faa565b506200036c600160646040518060400160405280601181526020017f46657274696c697a6572206e616d6520310000000000000000000000000000008152506040518060400160405280600981526020017f70726f64756365723100000000000000000000000000000000000000000000008152506040518060400160405280600481526020017f41424344000000000000000000000000000000000000000000000000000000008152506040518060400160405280600481526020017f42303031000000000000000000000000000000000000000000000000000000008152506040518060400160405280600a81526020017f31362f31322f32303032000000000000000000000000000000000000000000008152506040518060400160405280600981526020017f372f30332f32303033000000000000000000000000000000000000000000000081525062000a9c60201b60201c565b620004c4600160646040518060400160405280601181526020017f46657274696c697a6572206e616d6520310000000000000000000000000000008152506040518060400160405280600981526020017f70726f64756365723100000000000000000000000000000000000000000000008152506040518060400160405280600281526020017f63640000000000000000000000000000000000000000000000000000000000008152506040518060400160405280600481526020017f42303031000000000000000000000000000000000000000000000000000000008152506040518060400160405280600a81526020017f31362f31322f32303032000000000000000000000000000000000000000000008152506040518060400160405280600981526020017f372f30332f32303033000000000000000000000000000000000000000000000081525062000a9c60201b60201c565b6200061c600560646040518060400160405280601181526020017f46657274696c697a6572206e616d6520310000000000000000000000000000008152506040518060400160405280600981526020017f70726f64756365723100000000000000000000000000000000000000000000008152506040518060400160405280600481526020017f41424344000000000000000000000000000000000000000000000000000000008152506040518060400160405280600481526020017f42303031000000000000000000000000000000000000000000000000000000008152506040518060400160405280600a81526020017f31362f31322f32303032000000000000000000000000000000000000000000008152506040518060400160405280600981526020017f372f30332f32303033000000000000000000000000000000000000000000000081525062000a9c60201b60201c565b6200073a6040518060400160405280600881526020017f53726565686172690000000000000000000000000000000000000000000000008152506040518060400160405280600a81526020017f39393939393939393939000000000000000000000000000000000000000000008152506040518060400160405280600681526020017f6b616e6e757200000000000000000000000000000000000000000000000000008152506040518060400160405280600381526020017f34352500000000000000000000000000000000000000000000000000000000008152506040518060400160405280600381526020017f323025000000000000000000000000000000000000000000000000000000000081525062000c0260201b60201c565b620008586040518060400160405280600681526020017f41736877696e00000000000000000000000000000000000000000000000000008152506040518060400160405280600a81526020017f39393939393939393939000000000000000000000000000000000000000000008152506040518060400160405280600681526020017f6b6f6c6c616d00000000000000000000000000000000000000000000000000008152506040518060400160405280600381526020017f34352500000000000000000000000000000000000000000000000000000000008152506040518060400160405280600381526020017f353025000000000000000000000000000000000000000000000000000000000081525062000c0260201b60201c565b620009766040518060400160405280600581526020017f41736865720000000000000000000000000000000000000000000000000000008152506040518060400160405280600a81526020017f39393939393939393939000000000000000000000000000000000000000000008152506040518060400160405280600381526020017f69646b00000000000000000000000000000000000000000000000000000000008152506040518060400160405280600381526020017f34352500000000000000000000000000000000000000000000000000000000008152506040518060400160405280600381526020017f313025000000000000000000000000000000000000000000000000000000000081525062000c0260201b60201c565b62000a946040518060400160405280600581526020017f4e6f6f68610000000000000000000000000000000000000000000000000000008152506040518060400160405280600a81526020017f39393939393939393939000000000000000000000000000000000000000000008152506040518060400160405280600481526020017f536f6d65000000000000000000000000000000000000000000000000000000008152506040518060400160405280600381526020017f34352500000000000000000000000000000000000000000000000000000000008152506040518060400160405280600381526020017f333025000000000000000000000000000000000000000000000000000000000081525062000c0260201b60201c565b50506200144e565b600086511162000aab57600080fd5b600085511162000aba57600080fd5b600084511162000ac957600080fd5b600083511162000ad857600080fd5b600082511162000ae757600080fd5b600081511162000af657600080fd5b600c600081548092919062000b0b90620010fb565b9190505550600060066000600c5481526020019081526020016000209050600c5481600001819055508881600101819055508681600301908162000b50919062000faa565b508581600201908162000b64919062000faa565b508781600401819055508481600501908162000b81919062000faa565b508381600601908162000b95919062000faa565b508281600701908162000ba9919062000faa565b508181600801908162000bbd919062000faa565b507fedde1f77670c495bdd95aa0a5818afb5b25c0110fec0cf231934b4069dbef6a18160405162000bef91906200134b565b60405180910390a1505050505050505050565b600085511162000c1157600080fd5b600084511162000c2057600080fd5b600083511162000c2f57600080fd5b600082511162000c3e57600080fd5b600081511162000c4d57600080fd5b6008600081548092919062000c6290620010fb565b91905055506000600160006008548152602001908152602001600020905060085481600001819055508581600101908162000c9e919062000faa565b508481600501908162000cb2919062000faa565b508381600201908162000cc6919062000faa565b508281600301908162000cda919062000faa565b508181600401908162000cee919062000faa565b507f8a393f24b50f96cb78dcfb57a53c4c8979f03a0c93941ff9576c05c14a9465cf8160405162000d2091906200142a565b60405180910390a1505050505050565b600081519050919050565b7f4e487b7100000000000000000000000000000000000000000000000000000000600052604160045260246000fd5b7f4e487b7100000000000000000000000000000000000000000000000000000000600052602260045260246000fd5b6000600282049050600182168062000db257607f821691505b60208210810362000dc85762000dc762000d6a565b5b50919050565b60008190508160005260206000209050919050565b60006020601f8301049050919050565b600082821b905092915050565b60006008830262000e327fffffffffffffffffffffffffffffffffffffffffffffffffffffffffffffffff8262000df3565b62000e3e868362000df3565b95508019841693508086168417925050509392505050565b6000819050919050565b6000819050919050565b600062000e8b62000e8562000e7f8462000e56565b62000e60565b62000e56565b9050919050565b6000819050919050565b62000ea78362000e6a565b62000ebf62000eb68262000e92565b84845462000e00565b825550505050565b600090565b62000ed662000ec7565b62000ee381848462000e9c565b505050565b5b8181101562000f0b5762000eff60008262000ecc565b60018101905062000ee9565b5050565b601f82111562000f5a5762000f248162000dce565b62000f2f8462000de3565b8101602085101562000f3f578190505b62000f5762000f4e8562000de3565b83018262000ee8565b50505b505050565b600082821c905092915050565b600062000f7f6000198460080262000f5f565b1980831691505092915050565b600062000f9a838362000f6c565b9150826002028217905092915050565b62000fb58262000d30565b67ffffffffffffffff81111562000fd15762000fd062000d3b565b5b62000fdd825462000d99565b62000fea82828562000f0f565b600060209050601f8311600181146200102257600084156200100d578287015190505b62001019858262000f8c565b86555062001089565b601f198416620010328662000dce565b60005b828110156200105c5784890151825560018201915060208501945060208101905062001035565b868310156200107c578489015162001078601f89168262000f6c565b8355505b6001600288020188555050505b505050505050565b7f4e487b7100000000000000000000000000000000000000000000000000000000600052601160045260246000fd5b6000620010cd8262000e56565b9150620010da8362000e56565b9250828201905080821115620010f557620010f462001091565b5b92915050565b6000620011088262000e56565b91507fffffffffffffffffffffffffffffffffffffffffffffffffffffffffffffffff82036200113d576200113c62001091565b5b600182019050919050565b60008160001c9050919050565b6000819050919050565b600062001176620011708362001148565b62001155565b9050919050565b620011888162000e56565b82525050565b600082825260208201905092915050565b60008154620011ae8162000d99565b620011ba81866200118e565b94506001821660008114620011d85760018114620011ef5762001226565b60ff19831686528115156020028601935062001226565b620011fa8562000dce565b60005b838110156200121e57815481890152600182019150602081019050620011fd565b808801955050505b50505092915050565b60006101208301600080840154905062001249816200115f565b6200125860008701826200117d565b50600184015490506200126b816200115f565b6200127a60208701826200117d565b506002840185830360408701526200129383826200119f565b925050600384018583036060870152620012ae83826200119f565b92505060048401549050620012c3816200115f565b620012d260808701826200117d565b506005840185830360a0870152620012eb83826200119f565b9250506006840185830360c08701526200130683826200119f565b9250506007840185830360e08701526200132183826200119f565b925050600884018583036101008701526200133d83826200119f565b925050819250505092915050565b600060208201905081810360008301526200136781846200122f565b905092915050565b600060c08301600080840154905062001388816200115f565b6200139760008701826200117d565b50600184018583036020870152620013b083826200119f565b925050600284018583036040870152620013cb83826200119f565b925050600384018583036060870152620013e683826200119f565b9250506004840185830360808701526200140183826200119f565b9250506005840185830360a08701526200141c83826200119f565b925050819250505092915050565b600060208201905081810360008301526200144681846200136f565b905092915050565b613b52806200145e6000396000f3fe608060405234801561001057600080fd5b50600436106101375760003560e01c80638afdd669116100b8578063d708fe5b1161007c578063d708fe5b1461038d578063dc1e392c146103ab578063dfd55a2c146103de578063e80a7eb9146103fc578063ecb22baa1461041a578063f71afe331461043857610137565b80638afdd669146102bc578063961e89b8146102f15780639b68ade71461030d578063bd45b3971461033f578063c5779fd11461035d57610137565b8063536954e4116100ff578063536954e4146101fc5780635446032d1461021a57806370c9f1a5146102365780637ee49d911461026857806380507b2a146102a057610137565b806306fdde031461013c57806318c7833f1461015a578063279115ea1461018c578063458a1308146101aa57806350b492ba146101c8575b600080fd5b610144610468565b6040516101519190612878565b60405180910390f35b610174600480360381019061016f91906128e4565b6104f6565b60405161018393929190612920565b60405180910390f35b610194610520565b6040516101a19190612b5a565b60405180910390f35b6101b261098e565b6040516101bf9190612b7c565b60405180910390f35b6101e260048036038101906101dd91906128e4565b610994565b6040516101f3959493929190612b97565b60405180910390f35b610204610bea565b6040516102119190612d6d565b60405180910390f35b610234600480360381019061022f9190612d8f565b610fb1565b005b610250600480360381019061024b91906128e4565b61100e565b60405161025f93929190612de2565b60405180910390f35b610282600480360381019061027d91906128e4565b6110c0565b60405161029799989796959493929190612e20565b60405180910390f35b6102ba60048036038101906102b5919061300c565b61143e565b005b6102d660048036038101906102d191906128e4565b61158e565b6040516102e89695949392919061316a565b60405180910390f35b61030b600480360381019061030691906131ee565b611872565b005b610327600480360381019061032291906128e4565b61198d565b604051610336939291906132f5565b60405180910390f35b610347611ac7565b6040516103549190612b7c565b60405180910390f35b610377600480360381019061037291906128e4565b611acd565b6040516103849190612b5a565b60405180910390f35b610395612015565b6040516103a29190612b7c565b60405180910390f35b6103c560048036038101906103c091906128e4565b61201b565b6040516103d5949392919061333a565b60405180910390f35b6103e661204b565b6040516103f39190612b7c565b60405180910390f35b610404612051565b6040516104119190613498565b60405180910390f35b610422612262565b60405161042f9190612b7c565b60405180910390f35b610452600480360381019061044d91906128e4565b612268565b60405161045f9190612b5a565b60405180910390f35b60008054610475906134e9565b80601f01602080910402602001604051908101604052809291908181526020018280546104a1906134e9565b80156104ee5780601f106104c3576101008083540402835291602001916104ee565b820191906000526020600020905b8154815290600101906020018083116104d157829003601f168201915b505050505081565b60076020528060005260406000206000915090508060000154908060010154908060020154905083565b6060600080600c5467ffffffffffffffff81111561054157610540612ee1565b5b60405190808252806020026020018201604052801561057a57816020015b610567612745565b81526020019060019003908161055f5790505b50905060005b600c548110156109855760006001826105999190613549565b90506000600660008381526020019081526020016000209050806040518061012001604052908160008201548152602001600182015481526020016002820180546105e3906134e9565b80601f016020809104026020016040519081016040528092919081815260200182805461060f906134e9565b801561065c5780601f106106315761010080835404028352916020019161065c565b820191906000526020600020905b81548152906001019060200180831161063f57829003601f168201915b50505050508152602001600382018054610675906134e9565b80601f01602080910402602001604051908101604052809291908181526020018280546106a1906134e9565b80156106ee5780601f106106c3576101008083540402835291602001916106ee565b820191906000526020600020905b8154815290600101906020018083116106d157829003601f168201915b5050505050815260200160048201548152602001600582018054610711906134e9565b80601f016020809104026020016040519081016040528092919081815260200182805461073d906134e9565b801561078a5780601f1061075f5761010080835404028352916020019161078a565b820191906000526020600020905b81548152906001019060200180831161076d57829003601f168201915b505050505081526020016006820180546107a3906134e9565b80601f01602080910402602001604051908101604052809291908181526020018280546107cf906134e9565b801561081c5780601f106107f15761010080835404028352916020019161081c565b820191906000526020600020905b8154815290600101906020018083116107ff57829003601f168201915b50505050508152602001600782018054610835906134e9565b80601f0160208091040260200160405190810160405280929190818152602001828054610861906134e9565b80156108ae5780601f10610883576101008083540402835291602001916108ae565b820191906000526020600020905b81548152906001019060200180831161089157829003601f168201915b505050505081526020016008820180546108c7906134e9565b80601f01602080910402602001604051908101604052809291908181526020018280546108f3906134e9565b80156109405780601f1061091557610100808354040283529160200191610940565b820191906000526020600020905b81548152906001019060200180831161092357829003601f168201915b50505050508152505084868151811061095c5761095b61357d565b5b60200260200101819052506001856109749190613549565b945050508080600101915050610580565b50809250505090565b600b5481565b60036020528060005260406000206000915090508060000154908060010180546109bd906134e9565b80601f01602080910402602001604051908101604052809291908181526020018280546109e9906134e9565b8015610a365780601f10610a0b57610100808354040283529160200191610a36565b820191906000526020600020905b815481529060010190602001808311610a1957829003601f168201915b505050505090806002018054610a4b906134e9565b80601f0160208091040260200160405190810160405280929190818152602001828054610a77906134e9565b8015610ac45780601f10610a9957610100808354040283529160200191610ac4565b820191906000526020600020905b815481529060010190602001808311610aa757829003601f168201915b505050505090806003018054610ad9906134e9565b80601f0160208091040260200160405190810160405280929190818152602001828054610b05906134e9565b8015610b525780601f10610b2757610100808354040283529160200191610b52565b820191906000526020600020905b815481529060010190602001808311610b3557829003601f168201915b505050505090806004018054610b67906134e9565b80601f0160208091040260200160405190810160405280929190818152602001828054610b93906134e9565b8015610be05780601f10610bb557610100808354040283529160200191610be0565b820191906000526020600020905b815481529060010190602001808311610bc357829003601f168201915b5050505050905085565b606060008060085467ffffffffffffffff811115610c0b57610c0a612ee1565b5b604051908082528060200260200182016040528015610c4457816020015b610c31612791565b815260200190600190039081610c295790505b50905060005b600854811015610fa8576000600182610c639190613549565b90506000600160008381526020019081526020016000209050806040518060c001604052908160008201548152602001600182018054610ca2906134e9565b80601f0160208091040260200160405190810160405280929190818152602001828054610cce906134e9565b8015610d1b5780601f10610cf057610100808354040283529160200191610d1b565b820191906000526020600020905b815481529060010190602001808311610cfe57829003601f168201915b50505050508152602001600282018054610d34906134e9565b80601f0160208091040260200160405190810160405280929190818152602001828054610d60906134e9565b8015610dad5780601f10610d8257610100808354040283529160200191610dad565b820191906000526020600020905b815481529060010190602001808311610d9057829003601f168201915b50505050508152602001600382018054610dc6906134e9565b80601f0160208091040260200160405190810160405280929190818152602001828054610df2906134e9565b8015610e3f5780601f10610e1457610100808354040283529160200191610e3f565b820191906000526020600020905b815481529060010190602001808311610e2257829003601f168201915b50505050508152602001600482018054610e58906134e9565b80601f0160208091040260200160405190810160405280929190818152602001828054610e84906134e9565b8015610ed15780601f10610ea657610100808354040283529160200191610ed1565b820191906000526020600020905b815481529060010190602001808311610eb457829003601f168201915b50505050508152602001600582018054610eea906134e9565b80601f0160208091040260200160405190810160405280929190818152602001828054610f16906134e9565b8015610f635780601f10610f3857610100808354040283529160200191610f63565b820191906000526020600020905b815481529060010190602001808311610f4657829003601f168201915b505050505081525050848681518110610f7f57610f7e61357d565b5b6020026020010181905250600185610f979190613549565b945050508080600101915050610c4a565b50809250505090565b600b6000815480929190610fc4906135ac565b9190505550600060056000600b5481526020019081526020016000209050600c54816000018190555083816003018190555082816001018190555081816002018190555050505050565b600460205280600052604060002060009150905080600001549080600101549080600201805461103d906134e9565b80601f0160208091040260200160405190810160405280929190818152602001828054611069906134e9565b80156110b65780601f1061108b576101008083540402835291602001916110b6565b820191906000526020600020905b81548152906001019060200180831161109957829003601f168201915b5050505050905083565b60066020528060005260406000206000915090508060000154908060010154908060020180546110ef906134e9565b80601f016020809104026020016040519081016040528092919081815260200182805461111b906134e9565b80156111685780601f1061113d57610100808354040283529160200191611168565b820191906000526020600020905b81548152906001019060200180831161114b57829003601f168201915b50505050509080600301805461117d906134e9565b80601f01602080910402602001604051908101604052809291908181526020018280546111a9906134e9565b80156111f65780601f106111cb576101008083540402835291602001916111f6565b820191906000526020600020905b8154815290600101906020018083116111d957829003601f168201915b505050505090806004015490806005018054611211906134e9565b80601f016020809104026020016040519081016040528092919081815260200182805461123d906134e9565b801561128a5780601f1061125f5761010080835404028352916020019161128a565b820191906000526020600020905b81548152906001019060200180831161126d57829003601f168201915b50505050509080600601805461129f906134e9565b80601f01602080910402602001604051908101604052809291908181526020018280546112cb906134e9565b80156113185780601f106112ed57610100808354040283529160200191611318565b820191906000526020600020905b8154815290600101906020018083116112fb57829003601f168201915b50505050509080600701805461132d906134e9565b80601f0160208091040260200160405190810160405280929190818152602001828054611359906134e9565b80156113a65780601f1061137b576101008083540402835291602001916113a6565b820191906000526020600020905b81548152906001019060200180831161138957829003601f168201915b5050505050908060080180546113bb906134e9565b80601f01602080910402602001604051908101604052809291908181526020018280546113e7906134e9565b80156114345780601f1061140957610100808354040283529160200191611434565b820191906000526020600020905b81548152906001019060200180831161141757829003601f168201915b5050505050905089565b600086511161144c57600080fd5b600085511161145a57600080fd5b600084511161146857600080fd5b600083511161147657600080fd5b600082511161148457600080fd5b600081511161149257600080fd5b600c60008154809291906114a5906135ac565b9190505550600060066000600c5481526020019081526020016000209050600c548160000181905550888160010181905550868160030190816114e891906137a0565b50858160020190816114fa91906137a0565b508781600401819055508481600501908161151591906137a0565b508381600601908161152791906137a0565b508281600701908161153991906137a0565b508181600801908161154b91906137a0565b507fedde1f77670c495bdd95aa0a5818afb5b25c0110fec0cf231934b4069dbef6a18160405161157b9190613a2b565b60405180910390a1505050505050505050565b60016020528060005260406000206000915090508060000154908060010180546115b7906134e9565b80601f01602080910402602001604051908101604052809291908181526020018280546115e3906134e9565b80156116305780601f1061160557610100808354040283529160200191611630565b820191906000526020600020905b81548152906001019060200180831161161357829003601f168201915b505050505090806002018054611645906134e9565b80601f0160208091040260200160405190810160405280929190818152602001828054611671906134e9565b80156116be5780601f10611693576101008083540402835291602001916116be565b820191906000526020600020905b8154815290600101906020018083116116a157829003601f168201915b5050505050908060030180546116d3906134e9565b80601f01602080910402602001604051908101604052809291908181526020018280546116ff906134e9565b801561174c5780601f106117215761010080835404028352916020019161174c565b820191906000526020600020905b81548152906001019060200180831161172f57829003601f168201915b505050505090806004018054611761906134e9565b80601f016020809104026020016040519081016040528092919081815260200182805461178d906134e9565b80156117da5780601f106117af576101008083540402835291602001916117da565b820191906000526020600020905b8154815290600101906020018083116117bd57829003601f168201915b5050505050908060050180546117ef906134e9565b80601f016020809104026020016040519081016040528092919081815260200182805461181b906134e9565b80156118685780601f1061183d57610100808354040283529160200191611868565b820191906000526020600020905b81548152906001019060200180831161184b57829003601f168201915b5050505050905086565b600085511161188057600080fd5b600084511161188e57600080fd5b600083511161189c57600080fd5b60008251116118aa57600080fd5b60008151116118b857600080fd5b600860008154809291906118cb906135ac565b91905055506000600160006008548152602001908152602001600020905060085481600001819055508581600101908161190591906137a0565b508481600501908161191791906137a0565b508381600201908161192991906137a0565b508281600301908161193b91906137a0565b508181600401908161194d91906137a0565b507f8a393f24b50f96cb78dcfb57a53c4c8979f03a0c93941ff9576c05c14a9465cf8160405161197d9190613afa565b60405180910390a1505050505050565b60026020528060005260406000206000915090508060000154908060010180546119b6906134e9565b80601f01602080910402602001604051908101604052809291908181526020018280546119e2906134e9565b8015611a2f5780601f10611a0457610100808354040283529160200191611a2f565b820191906000526020600020905b815481529060010190602001808311611a1257829003601f168201915b505050505090806002018054611a44906134e9565b80601f0160208091040260200160405190810160405280929190818152602001828054611a70906134e9565b8015611abd5780601f10611a9257610100808354040283529160200191611abd565b820191906000526020600020905b815481529060010190602001808311611aa057829003601f168201915b5050505050905083565b60085481565b606060008060005b600c54811015611b31576000600182611aee9190613549565b9050600060056000838152602001908152602001600020905086816001015403611b2257600184611b1f9190613549565b93505b50508080600101915050611ad5565b5060008167ffffffffffffffff811115611b4e57611b4d612ee1565b5b604051908082528060200260200182016040528015611b8757816020015b611b74612745565b815260200190600190039081611b6c5790505b50905060005b600b54811015612009576000600182611ba69190613549565b9050600060056000838152602001908152602001600020905087816001015403611ffa5760005b600c54811015611ff857600060066000600184611bea9190613549565b815260200190815260200160002090508260030154816000015403611fea57611c11612745565b81600001548160000181815250508160010154816020018181525050816003018054611c3c906134e9565b80601f0160208091040260200160405190810160405280929190818152602001828054611c68906134e9565b8015611cb55780601f10611c8a57610100808354040283529160200191611cb5565b820191906000526020600020905b815481529060010190602001808311611c9857829003601f168201915b50505050508160600181905250816002018054611cd1906134e9565b80601f0160208091040260200160405190810160405280929190818152602001828054611cfd906134e9565b8015611d4a5780601f10611d1f57610100808354040283529160200191611d4a565b820191906000526020600020905b815481529060010190602001808311611d2d57829003601f168201915b505050505081604001819052508360020154816080018181525050816005018054611d74906134e9565b80601f0160208091040260200160405190810160405280929190818152602001828054611da0906134e9565b8015611ded5780601f10611dc257610100808354040283529160200191611ded565b820191906000526020600020905b815481529060010190602001808311611dd057829003601f168201915b50505050508160a00181905250816006018054611e09906134e9565b80601f0160208091040260200160405190810160405280929190818152602001828054611e35906134e9565b8015611e825780601f10611e5757610100808354040283529160200191611e82565b820191906000526020600020905b815481529060010190602001808311611e6557829003601f168201915b50505050508160c00181905250816007018054611e9e906134e9565b80601f0160208091040260200160405190810160405280929190818152602001828054611eca906134e9565b8015611f175780601f10611eec57610100808354040283529160200191611f17565b820191906000526020600020905b815481529060010190602001808311611efa57829003601f168201915b50505050508160e00181905250816008018054611f33906134e9565b80601f0160208091040260200160405190810160405280929190818152602001828054611f5f906134e9565b8015611fac5780601f10611f8157610100808354040283529160200191611fac565b820191906000526020600020905b815481529060010190602001808311611f8f57829003601f168201915b505050505081610100018190525080878a81518110611fce57611fcd61357d565b5b6020026020010181905250600189611fe69190613549565b9850505b508080600101915050611bcd565b505b50508080600101915050611b8d565b50809350505050919050565b60095481565b60056020528060005260406000206000915090508060000154908060010154908060020154908060030154905084565b600a5481565b606060008060095467ffffffffffffffff81111561207257612071612ee1565b5b6040519080825280602002602001820160405280156120ab57816020015b6120986127c7565b8152602001906001900390816120905790505b50905060005b6009548110156122595760006001826120ca9190613549565b905060006002600083815260200190815260200160002090508060405180606001604052908160008201548152602001600182018054612109906134e9565b80601f0160208091040260200160405190810160405280929190818152602001828054612135906134e9565b80156121825780601f1061215757610100808354040283529160200191612182565b820191906000526020600020905b81548152906001019060200180831161216557829003601f168201915b5050505050815260200160028201805461219b906134e9565b80601f01602080910402602001604051908101604052809291908181526020018280546121c7906134e9565b80156122145780601f106121e957610100808354040283529160200191612214565b820191906000526020600020905b8154815290600101906020018083116121f757829003601f168201915b5050505050815250508486815181106122305761222f61357d565b5b60200260200101819052506001856122489190613549565b9450505080806001019150506120b1565b50809250505090565b600c5481565b606060008060005b600c548110156122cc5760006001826122899190613549565b90506000600660008381526020019081526020016000209050868160010154036122bd576001846122ba9190613549565b93505b50508080600101915050612270565b5060008167ffffffffffffffff8111156122e9576122e8612ee1565b5b60405190808252806020026020018201604052801561232257816020015b61230f612745565b8152602001906001900390816123075790505b50905060005b600c548110156127395760006001826123419190613549565b905060006006600083815260200190815260200160002090508781600101540361272a5780604051806101200160405290816000820154815260200160018201548152602001600282018054612396906134e9565b80601f01602080910402602001604051908101604052809291908181526020018280546123c2906134e9565b801561240f5780601f106123e45761010080835404028352916020019161240f565b820191906000526020600020905b8154815290600101906020018083116123f257829003601f168201915b50505050508152602001600382018054612428906134e9565b80601f0160208091040260200160405190810160405280929190818152602001828054612454906134e9565b80156124a15780601f10612476576101008083540402835291602001916124a1565b820191906000526020600020905b81548152906001019060200180831161248457829003601f168201915b50505050508152602001600482015481526020016005820180546124c4906134e9565b80601f01602080910402602001604051908101604052809291908181526020018280546124f0906134e9565b801561253d5780601f106125125761010080835404028352916020019161253d565b820191906000526020600020905b81548152906001019060200180831161252057829003601f168201915b50505050508152602001600682018054612556906134e9565b80601f0160208091040260200160405190810160405280929190818152602001828054612582906134e9565b80156125cf5780601f106125a4576101008083540402835291602001916125cf565b820191906000526020600020905b8154815290600101906020018083116125b257829003601f168201915b505050505081526020016007820180546125e8906134e9565b80601f0160208091040260200160405190810160405280929190818152602001828054612614906134e9565b80156126615780601f1061263657610100808354040283529160200191612661565b820191906000526020600020905b81548152906001019060200180831161264457829003601f168201915b5050505050815260200160088201805461267a906134e9565b80601f01602080910402602001604051908101604052809291908181526020018280546126a6906134e9565b80156126f35780601f106126c8576101008083540402835291602001916126f3565b820191906000526020600020905b8154815290600101906020018083116126d657829003601f168201915b50505050508152505084878151811061270f5761270e61357d565b5b60200260200101819052506001866127279190613549565b95505b50508080600101915050612328565b50809350505050919050565b6040518061012001604052806000815260200160008152602001606081526020016060815260200160008152602001606081526020016060815260200160608152602001606081525090565b6040518060c001604052806000815260200160608152602001606081526020016060815260200160608152602001606081525090565b60405180606001604052806000815260200160608152602001606081525090565b600081519050919050565b600082825260208201905092915050565b60005b83811015612822578082015181840152602081019050612807565b60008484015250505050565b6000601f19601f8301169050919050565b600061284a826127e8565b61285481856127f3565b9350612864818560208601612804565b61286d8161282e565b840191505092915050565b60006020820190508181036000830152612892818461283f565b905092915050565b6000604051905090565b600080fd5b600080fd5b6000819050919050565b6128c1816128ae565b81146128cc57600080fd5b50565b6000813590506128de816128b8565b92915050565b6000602082840312156128fa576128f96128a4565b5b6000612908848285016128cf565b91505092915050565b61291a816128ae565b82525050565b60006060820190506129356000830186612911565b6129426020830185612911565b61294f6040830184612911565b949350505050565b600081519050919050565b600082825260208201905092915050565b6000819050602082019050919050565b61298c816128ae565b82525050565b600082825260208201905092915050565b60006129ae826127e8565b6129b88185612992565b93506129c8818560208601612804565b6129d18161282e565b840191505092915050565b6000610120830160008301516129f56000860182612983565b506020830151612a086020860182612983565b5060408301518482036040860152612a2082826129a3565b91505060608301518482036060860152612a3a82826129a3565b9150506080830151612a4f6080860182612983565b5060a083015184820360a0860152612a6782826129a3565b91505060c083015184820360c0860152612a8182826129a3565b91505060e083015184820360e0860152612a9b82826129a3565b915050610100830151848203610100860152612ab782826129a3565b9150508091505092915050565b6000612ad083836129dc565b905092915050565b6000602082019050919050565b6000612af082612957565b612afa8185612962565b935083602082028501612b0c85612973565b8060005b85811015612b485784840389528151612b298582612ac4565b9450612b3483612ad8565b925060208a01995050600181019050612b10565b50829750879550505050505092915050565b60006020820190508181036000830152612b748184612ae5565b905092915050565b6000602082019050612b916000830184612911565b92915050565b600060a082019050612bac6000830188612911565b8181036020830152612bbe818761283f565b90508181036040830152612bd2818661283f565b90508181036060830152612be6818561283f565b90508181036080830152612bfa818461283f565b90509695505050505050565b600081519050919050565b600082825260208201905092915050565b6000819050602082019050919050565b600060c083016000830151612c4a6000860182612983565b5060208301518482036020860152612c6282826129a3565b91505060408301518482036040860152612c7c82826129a3565b91505060608301518482036060860152612c9682826129a3565b91505060808301518482036080860152612cb082826129a3565b91505060a083015184820360a0860152612cca82826129a3565b9150508091505092915050565b6000612ce38383612c32565b905092915050565b6000602082019050919050565b6000612d0382612c06565b612d0d8185612c11565b935083602082028501612d1f85612c22565b8060005b85811015612d5b5784840389528151612d3c8582612cd7565b9450612d4783612ceb565b925060208a01995050600181019050612d23565b50829750879550505050505092915050565b60006020820190508181036000830152612d878184612cf8565b905092915050565b600080600060608486031215612da857612da76128a4565b5b6000612db6868287016128cf565b9350506020612dc7868287016128cf565b9250506040612dd8868287016128cf565b9150509250925092565b6000606082019050612df76000830186612911565b612e046020830185612911565b8181036040830152612e16818461283f565b9050949350505050565b600061012082019050612e36600083018c612911565b612e43602083018b612911565b8181036040830152612e55818a61283f565b90508181036060830152612e69818961283f565b9050612e786080830188612911565b81810360a0830152612e8a818761283f565b905081810360c0830152612e9e818661283f565b905081810360e0830152612eb2818561283f565b9050818103610100830152612ec7818461283f565b90509a9950505050505050505050565b600080fd5b600080fd5b7f4e487b7100000000000000000000000000000000000000000000000000000000600052604160045260246000fd5b612f198261282e565b810181811067ffffffffffffffff82111715612f3857612f37612ee1565b5b80604052505050565b6000612f4b61289a565b9050612f578282612f10565b919050565b600067ffffffffffffffff821115612f7757612f76612ee1565b5b612f808261282e565b9050602081019050919050565b82818337600083830152505050565b6000612faf612faa84612f5c565b612f41565b905082815260208101848484011115612fcb57612fca612edc565b5b612fd6848285612f8d565b509392505050565b600082601f830112612ff357612ff2612ed7565b5b8135613003848260208601612f9c565b91505092915050565b600080600080600080600080610100898b03121561302d5761302c6128a4565b5b600061303b8b828c016128cf565b985050602061304c8b828c016128cf565b975050604089013567ffffffffffffffff81111561306d5761306c6128a9565b5b6130798b828c01612fde565b965050606089013567ffffffffffffffff81111561309a576130996128a9565b5b6130a68b828c01612fde565b955050608089013567ffffffffffffffff8111156130c7576130c66128a9565b5b6130d38b828c01612fde565b94505060a089013567ffffffffffffffff8111156130f4576130f36128a9565b5b6131008b828c01612fde565b93505060c089013567ffffffffffffffff811115613121576131206128a9565b5b61312d8b828c01612fde565b92505060e089013567ffffffffffffffff81111561314e5761314d6128a9565b5b61315a8b828c01612fde565b9150509295985092959890939650565b600060c08201905061317f6000830189612911565b8181036020830152613191818861283f565b905081810360408301526131a5818761283f565b905081810360608301526131b9818661283f565b905081810360808301526131cd818561283f565b905081810360a08301526131e1818461283f565b9050979650505050505050565b600080600080600060a0868803121561320a576132096128a4565b5b600086013567ffffffffffffffff811115613228576132276128a9565b5b61323488828901612fde565b955050602086013567ffffffffffffffff811115613255576132546128a9565b5b61326188828901612fde565b945050604086013567ffffffffffffffff811115613282576132816128a9565b5b61328e88828901612fde565b935050606086013567ffffffffffffffff8111156132af576132ae6128a9565b5b6132bb88828901612fde565b925050608086013567ffffffffffffffff8111156132dc576132db6128a9565b5b6132e888828901612fde565b9150509295509295909350565b600060608201905061330a6000830186612911565b818103602083015261331c818561283f565b90508181036040830152613330818461283f565b9050949350505050565b600060808201905061334f6000830187612911565b61335c6020830186612911565b6133696040830185612911565b6133766060830184612911565b95945050505050565b600081519050919050565b600082825260208201905092915050565b6000819050602082019050919050565b60006060830160008301516133c36000860182612983565b50602083015184820360208601526133db82826129a3565b915050604083015184820360408601526133f582826129a3565b9150508091505092915050565b600061340e83836133ab565b905092915050565b6000602082019050919050565b600061342e8261337f565b613438818561338a565b93508360208202850161344a8561339b565b8060005b8581101561348657848403895281516134678582613402565b945061347283613416565b925060208a0199505060018101905061344e565b50829750879550505050505092915050565b600060208201905081810360008301526134b28184613423565b905092915050565b7f4e487b7100000000000000000000000000000000000000000000000000000000600052602260045260246000fd5b6000600282049050600182168061350157607f821691505b602082108103613514576135136134ba565b5b50919050565b7f4e487b7100000000000000000000000000000000000000000000000000000000600052601160045260246000fd5b6000613554826128ae565b915061355f836128ae565b92508282019050808211156135775761357661351a565b5b92915050565b7f4e487b7100000000000000000000000000000000000000000000000000000000600052603260045260246000fd5b60006135b7826128ae565b91507fffffffffffffffffffffffffffffffffffffffffffffffffffffffffffffffff82036135e9576135e861351a565b5b600182019050919050565b60008190508160005260206000209050919050565b60006020601f8301049050919050565b600082821b905092915050565b6000600883026136567fffffffffffffffffffffffffffffffffffffffffffffffffffffffffffffffff82613619565b6136608683613619565b95508019841693508086168417925050509392505050565b6000819050919050565b600061369d613698613693846128ae565b613678565b6128ae565b9050919050565b6000819050919050565b6136b783613682565b6136cb6136c3826136a4565b848454613626565b825550505050565b600090565b6136e06136d3565b6136eb8184846136ae565b505050565b5b8181101561370f576137046000826136d8565b6001810190506136f1565b5050565b601f82111561375457613725816135f4565b61372e84613609565b8101602085101561373d578190505b61375161374985613609565b8301826136f0565b50505b505050565b600082821c905092915050565b600061377760001984600802613759565b1980831691505092915050565b60006137908383613766565b9150826002028217905092915050565b6137a9826127e8565b67ffffffffffffffff8111156137c2576137c1612ee1565b5b6137cc82546134e9565b6137d7828285613713565b600060209050601f83116001811461380a57600084156137f8578287015190505b6138028582613784565b86555061386a565b601f198416613818866135f4565b60005b828110156138405784890151825560018201915060208501945060208101905061381b565b8683101561385d5784890151613859601f891682613766565b8355505b6001600288020188555050505b505050505050565b60008160001c9050919050565b6000819050919050565b600061389c61389783613872565b61387f565b9050919050565b600081546138b0816134e9565b6138ba8186612992565b945060018216600081146138d557600181146138eb5761391e565b60ff19831686528115156020028601935061391e565b6138f4856135f4565b60005b83811015613916578154818901526001820191506020810190506138f7565b808801955050505b50505092915050565b60006101208301600080840154905061393f81613889565b61394c6000870182612983565b506001840154905061395d81613889565b61396a6020870182612983565b5060028401858303604087015261398183826138a3565b92505060038401858303606087015261399a83826138a3565b925050600484015490506139ad81613889565b6139ba6080870182612983565b506005840185830360a08701526139d183826138a3565b9250506006840185830360c08701526139ea83826138a3565b9250506007840185830360e0870152613a0383826138a3565b92505060088401858303610100870152613a1d83826138a3565b925050819250505092915050565b60006020820190508181036000830152613a458184613927565b905092915050565b600060c083016000808401549050613a6481613889565b613a716000870182612983565b50600184018583036020870152613a8883826138a3565b925050600284018583036040870152613aa183826138a3565b925050600384018583036060870152613aba83826138a3565b925050600484018583036080870152613ad383826138a3565b9250506005840185830360a0870152613aec83826138a3565b925050819250505092915050565b60006020820190508181036000830152613b148184613a4d565b90509291505056fea264697066735822122066152caab956e1bc871d81723076d99643f940c6cd6f3cf4a3393cc62da7203564736f6c63430008180033",
  "linkReferences": {},
  "deployedLinkReferences": {}
}