{
  "_format": "hh-sol-artifact-1",
  "contractName": "OpenField",
  "sourceName": "contracts/OpenField.sol",
  "abi": [
    {
      "inputs": [],
      "stateMutability": "nonpayable",
      "type": "constructor"
    },
    {
      "anonymous": false,
      "inputs": [
        {
          "components": [
            {
              "internalType": "uint256",
              "name": "id",
              "type": "uint256"
            },
            {
              "internalType": "string",
              "name": "name",
              "type": "string"
            },
            {
              "internalType": "string",
              "name": "location",
              "type": "string"
            },
            {
              "internalType": "string",
              "name": "longitude",
              "type": "string"
            },
            {
              "internalType": "string",
              "name": "latitude",
              "type": "string"
            }
          ],
          "indexed": false,
          "internalType": "struct OpenField.Farmer",
          "name": "",
          "type": "tuple"
        }
      ],
      "name": "NewFarmer",
      "type": "event"
    },
    {
      "anonymous": false,
      "inputs": [
        {
          "components": [
            {
              "internalType": "uint256",
              "name": "id",
              "type": "uint256"
            },
            {
              "internalType": "uint256",
              "name": "producer_id",
              "type": "uint256"
            },
            {
              "internalType": "string",
              "name": "name",
              "type": "string"
            },
            {
              "internalType": "uint256",
              "name": "quantity",
              "type": "uint256"
            },
            {
              "internalType": "string",
              "name": "ingredient",
              "type": "string"
            },
            {
              "internalType": "string",
              "name": "batchno",
              "type": "string"
            },
            {
              "internalType": "string",
              "name": "manufacture_date",
              "type": "string"
            },
            {
              "internalType": "string",
              "name": "expiry_date",
              "type": "string"
            }
          ],
          "indexed": false,
          "internalType": "struct OpenField.Pesticide",
          "name": "",
          "type": "tuple"
        }
      ],
      "name": "NewPesticide",
      "type": "event"
    },
    {
      "inputs": [
        {
          "internalType": "uint256",
          "name": "_producer_id",
          "type": "uint256"
        },
        {
          "internalType": "uint256",
          "name": "_quantity",
          "type": "uint256"
        },
        {
          "internalType": "string",
          "name": "_ingredient",
          "type": "string"
        },
        {
          "internalType": "string",
          "name": "_batchno",
          "type": "string"
        },
        {
          "internalType": "string",
          "name": "_manufacture_date",
          "type": "string"
        },
        {
          "internalType": "string",
          "name": "_expiry_date",
          "type": "string"
        }
      ],
      "name": "addPesticide",
      "outputs": [],
      "stateMutability": "nonpayable",
      "type": "function"
    },
    {
      "inputs": [],
      "name": "cropCount",
      "outputs": [
        {
          "internalType": "uint256",
          "name": "",
          "type": "uint256"
        }
      ],
      "stateMutability": "view",
      "type": "function"
    },
    {
      "inputs": [
        {
          "internalType": "uint256",
          "name": "",
          "type": "uint256"
        }
      ],
      "name": "crops",
      "outputs": [
        {
          "internalType": "uint256",
          "name": "id",
          "type": "uint256"
        },
        {
          "internalType": "uint256",
          "name": "farmer_id",
          "type": "uint256"
        },
        {
          "internalType": "string",
          "name": "name",
          "type": "string"
        }
      ],
      "stateMutability": "view",
      "type": "function"
    },
    {
      "inputs": [
        {
          "internalType": "uint256",
          "name": "",
          "type": "uint256"
        }
      ],
      "name": "distributors",
      "outputs": [
        {
          "internalType": "uint256",
          "name": "id",
          "type": "uint256"
        },
        {
          "internalType": "string",
          "name": "name",
          "type": "string"
        },
        {
          "internalType": "string",
          "name": "location",
          "type": "string"
        },
        {
          "internalType": "string",
          "name": "longitude",
          "type": "string"
        },
        {
          "internalType": "string",
          "name": "latitude",
          "type": "string"
        }
      ],
      "stateMutability": "view",
      "type": "function"
    },
    {
      "inputs": [],
      "name": "farmerCount",
      "outputs": [
        {
          "internalType": "uint256",
          "name": "",
          "type": "uint256"
        }
      ],
      "stateMutability": "view",
      "type": "function"
    },
    {
      "inputs": [
        {
          "internalType": "uint256",
          "name": "",
          "type": "uint256"
        }
      ],
      "name": "farmers",
      "outputs": [
        {
          "internalType": "uint256",
          "name": "id",
          "type": "uint256"
        },
        {
          "internalType": "string",
          "name": "name",
          "type": "string"
        },
        {
          "internalType": "string",
          "name": "location",
          "type": "string"
        },
        {
          "internalType": "string",
          "name": "longitude",
          "type": "string"
        },
        {
          "internalType": "string",
          "name": "latitude",
          "type": "string"
        }
      ],
      "stateMutability": "view",
      "type": "function"
    },
    {
      "inputs": [
        {
          "internalType": "uint256",
          "name": "_id",
          "type": "uint256"
        }
      ],
      "name": "getProcudersPesticides",
      "outputs": [
        {
          "components": [
            {
              "internalType": "uint256",
              "name": "id",
              "type": "uint256"
            },
            {
              "internalType": "uint256",
              "name": "producer_id",
              "type": "uint256"
            },
            {
              "internalType": "string",
              "name": "name",
              "type": "string"
            },
            {
              "internalType": "uint256",
              "name": "quantity",
              "type": "uint256"
            },
            {
              "internalType": "string",
              "name": "ingredient",
              "type": "string"
            },
            {
              "internalType": "string",
              "name": "batchno",
              "type": "string"
            },
            {
              "internalType": "string",
              "name": "manufacture_date",
              "type": "string"
            },
            {
              "internalType": "string",
              "name": "expiry_date",
              "type": "string"
            }
          ],
          "internalType": "struct OpenField.Pesticide[]",
          "name": "",
          "type": "tuple[]"
        }
      ],
      "stateMutability": "view",
      "type": "function"
    },
    {
      "inputs": [],
      "name": "name",
      "outputs": [
        {
          "internalType": "string",
          "name": "",
          "type": "string"
        }
      ],
      "stateMutability": "view",
      "type": "function"
    },
    {
      "inputs": [],
      "name": "pesticideCount",
      "outputs": [
        {
          "internalType": "uint256",
          "name": "",
          "type": "uint256"
        }
      ],
      "stateMutability": "view",
      "type": "function"
    },
    {
      "inputs": [],
      "name": "pesticideFarmerCount",
      "outputs": [
        {
          "internalType": "uint256",
          "name": "",
          "type": "uint256"
        }
      ],
      "stateMutability": "view",
      "type": "function"
    },
    {
      "inputs": [
        {
          "internalType": "uint256",
          "name": "",
          "type": "uint256"
        }
      ],
      "name": "pesticides",
      "outputs": [
        {
          "internalType": "uint256",
          "name": "id",
          "type": "uint256"
        },
        {
          "internalType": "uint256",
          "name": "producer_id",
          "type": "uint256"
        },
        {
          "internalType": "string",
          "name": "name",
          "type": "string"
        },
        {
          "internalType": "uint256",
          "name": "quantity",
          "type": "uint256"
        },
        {
          "internalType": "string",
          "name": "ingredient",
          "type": "string"
        },
        {
          "internalType": "string",
          "name": "batchno",
          "type": "string"
        },
        {
          "internalType": "string",
          "name": "manufacture_date",
          "type": "string"
        },
        {
          "internalType": "string",
          "name": "expiry_date",
          "type": "string"
        }
      ],
      "stateMutability": "view",
      "type": "function"
    },
    {
      "inputs": [
        {
          "internalType": "uint256",
          "name": "",
          "type": "uint256"
        }
      ],
      "name": "pesticidesDistributor",
      "outputs": [
        {
          "internalType": "uint256",
          "name": "id",
          "type": "uint256"
        },
        {
          "internalType": "uint256",
          "name": "distributor_id",
          "type": "uint256"
        },
        {
          "internalType": "uint256",
          "name": "pesticide_id",
          "type": "uint256"
        }
      ],
      "stateMutability": "view",
      "type": "function"
    },
    {
      "inputs": [
        {
          "internalType": "uint256",
          "name": "",
          "type": "uint256"
        }
      ],
      "name": "pesticidesFarmer",
      "outputs": [
        {
          "internalType": "uint256",
          "name": "id",
          "type": "uint256"
        },
        {
          "internalType": "uint256",
          "name": "farmer_id",
          "type": "uint256"
        },
        {
          "internalType": "uint256",
          "name": "pesticide_id",
          "type": "uint256"
        }
      ],
      "stateMutability": "view",
      "type": "function"
    },
    {
      "inputs": [],
      "name": "producerCount",
      "outputs": [
        {
          "internalType": "uint256",
          "name": "",
          "type": "uint256"
        }
      ],
      "stateMutability": "view",
      "type": "function"
    },
    {
      "inputs": [
        {
          "internalType": "uint256",
          "name": "",
          "type": "uint256"
        }
      ],
      "name": "producers",
      "outputs": [
        {
          "internalType": "uint256",
          "name": "id",
          "type": "uint256"
        },
        {
          "internalType": "string",
          "name": "name",
          "type": "string"
        },
        {
          "internalType": "string",
          "name": "dealer_name",
          "type": "string"
        }
      ],
      "stateMutability": "view",
      "type": "function"
    }
  ],
  "bytecode": "0x6080604052600060085560006009556000600a556000600b556000600c553480156200002a57600080fd5b506040518060400160405280600981526020017f4f70656e4669656c6400000000000000000000000000000000000000000000008152506000908162000071919062000878565b506001600960008282546200008791906200098e565b9250508190555060006002600060095481526020019081526020016000209050600181600001819055506040518060400160405280600881526020017f534f6d6520504c54000000000000000000000000000000000000000000000000815250816001019081620000f9919062000878565b506040518060400160405280600e81526020017f4465616c6572206e616d6565656500000000000000000000000000000000000081525081600201908162000142919062000878565b506001600960008282546200015891906200098e565b9250508190555060006002600060095481526020019081526020016000209050600281600001819055506040518060400160405280600381526020017f504c540000000000000000000000000000000000000000000000000000000000815250816001019081620001ca919062000878565b506040518060400160405280600881526020017f206e616d6565656500000000000000000000000000000000000000000000000081525081600201908162000213919062000878565b5062000300600160646040518060400160405280600481526020017f41424344000000000000000000000000000000000000000000000000000000008152506040518060400160405280600481526020017f42303031000000000000000000000000000000000000000000000000000000008152506040518060400160405280600a81526020017f31362f31322f32303032000000000000000000000000000000000000000000008152506040518060400160405280600981526020017f372f30332f323030330000000000000000000000000000000000000000000000815250620004e060201b60201c565b620003ec600160646040518060400160405280600281526020017f63640000000000000000000000000000000000000000000000000000000000008152506040518060400160405280600481526020017f42303031000000000000000000000000000000000000000000000000000000008152506040518060400160405280600a81526020017f31362f31322f32303032000000000000000000000000000000000000000000008152506040518060400160405280600981526020017f372f30332f323030330000000000000000000000000000000000000000000000815250620004e060201b60201c565b620004d8600560646040518060400160405280600481526020017f41424344000000000000000000000000000000000000000000000000000000008152506040518060400160405280600481526020017f42303031000000000000000000000000000000000000000000000000000000008152506040518060400160405280600a81526020017f31362f31322f32303032000000000000000000000000000000000000000000008152506040518060400160405280600981526020017f372f30332f323030330000000000000000000000000000000000000000000000815250620004e060201b60201c565b505062000c21565b6000845111620004ef57600080fd5b6000835111620004fe57600080fd5b60008251116200050d57600080fd5b60008151116200051c57600080fd5b600c60008154809291906200053190620009c9565b9190505550600060066000600c5481526020019081526020016000209050600c548160000181905550868160010181905550858160030181905550848160040190816200057f919062000878565b508381600501908162000593919062000878565b5082816006019081620005a7919062000878565b5081816007019081620005bb919062000878565b507f10f4fa217811e3cdad0163b64fce5b18c648b3d3eaef89afbdbce3f2c28d25ab81604051620005ed919062000bfd565b60405180910390a150505050505050565b600081519050919050565b7f4e487b7100000000000000000000000000000000000000000000000000000000600052604160045260246000fd5b7f4e487b7100000000000000000000000000000000000000000000000000000000600052602260045260246000fd5b600060028204905060018216806200068057607f821691505b60208210810362000696576200069562000638565b5b50919050565b60008190508160005260206000209050919050565b60006020601f8301049050919050565b600082821b905092915050565b600060088302620007007fffffffffffffffffffffffffffffffffffffffffffffffffffffffffffffffff82620006c1565b6200070c8683620006c1565b95508019841693508086168417925050509392505050565b6000819050919050565b6000819050919050565b600062000759620007536200074d8462000724565b6200072e565b62000724565b9050919050565b6000819050919050565b620007758362000738565b6200078d620007848262000760565b848454620006ce565b825550505050565b600090565b620007a462000795565b620007b18184846200076a565b505050565b5b81811015620007d957620007cd6000826200079a565b600181019050620007b7565b5050565b601f8211156200082857620007f2816200069c565b620007fd84620006b1565b810160208510156200080d578190505b620008256200081c85620006b1565b830182620007b6565b50505b505050565b600082821c905092915050565b60006200084d600019846008026200082d565b1980831691505092915050565b60006200086883836200083a565b9150826002028217905092915050565b6200088382620005fe565b67ffffffffffffffff8111156200089f576200089e62000609565b5b620008ab825462000667565b620008b8828285620007dd565b600060209050601f831160018114620008f05760008415620008db578287015190505b620008e785826200085a565b86555062000957565b601f19841662000900866200069c565b60005b828110156200092a5784890151825560018201915060208501945060208101905062000903565b868310156200094a578489015162000946601f8916826200083a565b8355505b6001600288020188555050505b505050505050565b7f4e487b7100000000000000000000000000000000000000000000000000000000600052601160045260246000fd5b60006200099b8262000724565b9150620009a88362000724565b9250828201905080821115620009c357620009c26200095f565b5b92915050565b6000620009d68262000724565b91507fffffffffffffffffffffffffffffffffffffffffffffffffffffffffffffffff820362000a0b5762000a0a6200095f565b5b600182019050919050565b60008160001c9050919050565b6000819050919050565b600062000a4462000a3e8362000a16565b62000a23565b9050919050565b62000a568162000724565b82525050565b600082825260208201905092915050565b6000815462000a7c8162000667565b62000a88818662000a5c565b9450600182166000811462000aa6576001811462000abd5762000af4565b60ff19831686528115156020028601935062000af4565b62000ac8856200069c565b60005b8381101562000aec5781548189015260018201915060208101905062000acb565b808801955050505b50505092915050565b60006101008301600080840154905062000b178162000a2d565b62000b26600087018262000a4b565b506001840154905062000b398162000a2d565b62000b48602087018262000a4b565b5060028401858303604087015262000b61838262000a6d565b9250506003840154905062000b768162000a2d565b62000b85606087018262000a4b565b5060048401858303608087015262000b9e838262000a6d565b9250506005840185830360a087015262000bb9838262000a6d565b9250506006840185830360c087015262000bd4838262000a6d565b9250506007840185830360e087015262000bef838262000a6d565b925050819250505092915050565b6000602082019050818103600083015262000c19818462000afd565b905092915050565b61208e8062000c316000396000f3fe608060405234801561001057600080fd5b50600436106100f55760003560e01c80638afdd66911610097578063dc1e392c11610066578063dc1e392c146102c3578063dfd55a2c146102f5578063ecb22baa14610313578063f71afe3314610331576100f5565b80638afdd669146102215780639b68ade714610255578063bd45b39714610287578063d708fe5b146102a5576100f5565b806350b492ba116100d357806350b492ba1461016857806370c9f1a51461019c5780637ee49d91146101ce578063875f99ac14610205576100f5565b806306fdde03146100fa57806318c7833f14610118578063458a13081461014a575b600080fd5b610102610361565b60405161010f9190611417565b60405180910390f35b610132600480360381019061012d9190611483565b6103ef565b604051610141939291906114bf565b60405180910390f35b610152610419565b60405161015f91906114f6565b60405180910390f35b610182600480360381019061017d9190611483565b61041f565b604051610193959493929190611511565b60405180910390f35b6101b660048036038101906101b19190611483565b610675565b6040516101c593929190611580565b60405180910390f35b6101e860048036038101906101e39190611483565b610727565b6040516101fc9897969594939291906115be565b60405180910390f35b61021f600480360381019061021a9190611794565b610a17565b005b61023b60048036038101906102369190611483565b610b25565b60405161024c959493929190611511565b60405180910390f35b61026f600480360381019061026a9190611483565b610d7b565b60405161027e93929190611891565b60405180910390f35b61028f610eb5565b60405161029c91906114f6565b60405180910390f35b6102ad610ebb565b6040516102ba91906114f6565b60405180910390f35b6102dd60048036038101906102d89190611483565b610ec1565b6040516102ec939291906114bf565b60405180910390f35b6102fd610eeb565b60405161030a91906114f6565b60405180910390f35b61031b610ef1565b60405161032891906114f6565b60405180910390f35b61034b60048036038101906103469190611483565b610ef7565b6040516103589190611abd565b60405180910390f35b6000805461036e90611b0e565b80601f016020809104026020016040519081016040528092919081815260200182805461039a90611b0e565b80156103e75780601f106103bc576101008083540402835291602001916103e7565b820191906000526020600020905b8154815290600101906020018083116103ca57829003601f168201915b505050505081565b60076020528060005260406000206000915090508060000154908060010154908060020154905083565b600b5481565b600360205280600052604060002060009150905080600001549080600101805461044890611b0e565b80601f016020809104026020016040519081016040528092919081815260200182805461047490611b0e565b80156104c15780601f10610496576101008083540402835291602001916104c1565b820191906000526020600020905b8154815290600101906020018083116104a457829003601f168201915b5050505050908060020180546104d690611b0e565b80601f016020809104026020016040519081016040528092919081815260200182805461050290611b0e565b801561054f5780601f106105245761010080835404028352916020019161054f565b820191906000526020600020905b81548152906001019060200180831161053257829003601f168201915b50505050509080600301805461056490611b0e565b80601f016020809104026020016040519081016040528092919081815260200182805461059090611b0e565b80156105dd5780601f106105b2576101008083540402835291602001916105dd565b820191906000526020600020905b8154815290600101906020018083116105c057829003601f168201915b5050505050908060040180546105f290611b0e565b80601f016020809104026020016040519081016040528092919081815260200182805461061e90611b0e565b801561066b5780601f106106405761010080835404028352916020019161066b565b820191906000526020600020905b81548152906001019060200180831161064e57829003601f168201915b5050505050905085565b60046020528060005260406000206000915090508060000154908060010154908060020180546106a490611b0e565b80601f01602080910402602001604051908101604052809291908181526020018280546106d090611b0e565b801561071d5780601f106106f25761010080835404028352916020019161071d565b820191906000526020600020905b81548152906001019060200180831161070057829003601f168201915b5050505050905083565b600660205280600052604060002060009150905080600001549080600101549080600201805461075690611b0e565b80601f016020809104026020016040519081016040528092919081815260200182805461078290611b0e565b80156107cf5780601f106107a4576101008083540402835291602001916107cf565b820191906000526020600020905b8154815290600101906020018083116107b257829003601f168201915b5050505050908060030154908060040180546107ea90611b0e565b80601f016020809104026020016040519081016040528092919081815260200182805461081690611b0e565b80156108635780601f1061083857610100808354040283529160200191610863565b820191906000526020600020905b81548152906001019060200180831161084657829003601f168201915b50505050509080600501805461087890611b0e565b80601f01602080910402602001604051908101604052809291908181526020018280546108a490611b0e565b80156108f15780601f106108c6576101008083540402835291602001916108f1565b820191906000526020600020905b8154815290600101906020018083116108d457829003601f168201915b50505050509080600601805461090690611b0e565b80601f016020809104026020016040519081016040528092919081815260200182805461093290611b0e565b801561097f5780601f106109545761010080835404028352916020019161097f565b820191906000526020600020905b81548152906001019060200180831161096257829003601f168201915b50505050509080600701805461099490611b0e565b80601f01602080910402602001604051908101604052809291908181526020018280546109c090611b0e565b8015610a0d5780601f106109e257610100808354040283529160200191610a0d565b820191906000526020600020905b8154815290600101906020018083116109f057829003601f168201915b5050505050905088565b6000845111610a2557600080fd5b6000835111610a3357600080fd5b6000825111610a4157600080fd5b6000815111610a4f57600080fd5b600c6000815480929190610a6290611b6e565b9190505550600060066000600c5481526020019081526020016000209050600c54816000018190555086816001018190555085816003018190555084816004019081610aae9190611d62565b5083816005019081610ac09190611d62565b5082816006019081610ad29190611d62565b5081816007019081610ae49190611d62565b507f10f4fa217811e3cdad0163b64fce5b18c648b3d3eaef89afbdbce3f2c28d25ab81604051610b149190611fd3565b60405180910390a150505050505050565b6001602052806000526040600020600091509050806000015490806001018054610b4e90611b0e565b80601f0160208091040260200160405190810160405280929190818152602001828054610b7a90611b0e565b8015610bc75780601f10610b9c57610100808354040283529160200191610bc7565b820191906000526020600020905b815481529060010190602001808311610baa57829003601f168201915b505050505090806002018054610bdc90611b0e565b80601f0160208091040260200160405190810160405280929190818152602001828054610c0890611b0e565b8015610c555780601f10610c2a57610100808354040283529160200191610c55565b820191906000526020600020905b815481529060010190602001808311610c3857829003601f168201915b505050505090806003018054610c6a90611b0e565b80601f0160208091040260200160405190810160405280929190818152602001828054610c9690611b0e565b8015610ce35780601f10610cb857610100808354040283529160200191610ce3565b820191906000526020600020905b815481529060010190602001808311610cc657829003601f168201915b505050505090806004018054610cf890611b0e565b80601f0160208091040260200160405190810160405280929190818152602001828054610d2490611b0e565b8015610d715780601f10610d4657610100808354040283529160200191610d71565b820191906000526020600020905b815481529060010190602001808311610d5457829003601f168201915b5050505050905085565b6002602052806000526040600020600091509050806000015490806001018054610da490611b0e565b80601f0160208091040260200160405190810160405280929190818152602001828054610dd090611b0e565b8015610e1d5780601f10610df257610100808354040283529160200191610e1d565b820191906000526020600020905b815481529060010190602001808311610e0057829003601f168201915b505050505090806002018054610e3290611b0e565b80601f0160208091040260200160405190810160405280929190818152602001828054610e5e90611b0e565b8015610eab5780601f10610e8057610100808354040283529160200191610eab565b820191906000526020600020905b815481529060010190602001808311610e8e57829003601f168201915b5050505050905083565b60085481565b60095481565b60056020528060005260406000206000915090508060000154908060010154908060020154905083565b600a5481565b600c5481565b606060008060005b600c54811015610f5b576000600182610f189190611ff5565b9050600060066000838152602001908152602001600020905086816001015403610f4c57600184610f499190611ff5565b93505b50508080600101915050610eff565b5060008167ffffffffffffffff811115610f7857610f77611669565b5b604051908082528060200260200182016040528015610fb157816020015b610f9e611342565b815260200190600190039081610f965790505b50905060005b600c54811015611336576000600182610fd09190611ff5565b9050600060066000838152602001908152602001600020905087816001015403611327578060405180610100016040529081600082015481526020016001820154815260200160028201805461102590611b0e565b80601f016020809104026020016040519081016040528092919081815260200182805461105190611b0e565b801561109e5780601f106110735761010080835404028352916020019161109e565b820191906000526020600020905b81548152906001019060200180831161108157829003601f168201915b50505050508152602001600382015481526020016004820180546110c190611b0e565b80601f01602080910402602001604051908101604052809291908181526020018280546110ed90611b0e565b801561113a5780601f1061110f5761010080835404028352916020019161113a565b820191906000526020600020905b81548152906001019060200180831161111d57829003601f168201915b5050505050815260200160058201805461115390611b0e565b80601f016020809104026020016040519081016040528092919081815260200182805461117f90611b0e565b80156111cc5780601f106111a1576101008083540402835291602001916111cc565b820191906000526020600020905b8154815290600101906020018083116111af57829003601f168201915b505050505081526020016006820180546111e590611b0e565b80601f016020809104026020016040519081016040528092919081815260200182805461121190611b0e565b801561125e5780601f106112335761010080835404028352916020019161125e565b820191906000526020600020905b81548152906001019060200180831161124157829003601f168201915b5050505050815260200160078201805461127790611b0e565b80601f01602080910402602001604051908101604052809291908181526020018280546112a390611b0e565b80156112f05780601f106112c5576101008083540402835291602001916112f0565b820191906000526020600020905b8154815290600101906020018083116112d357829003601f168201915b50505050508152505084878151811061130c5761130b612029565b5b60200260200101819052506001866113249190611ff5565b95505b50508080600101915050610fb7565b50809350505050919050565b60405180610100016040528060008152602001600081526020016060815260200160008152602001606081526020016060815260200160608152602001606081525090565b600081519050919050565b600082825260208201905092915050565b60005b838110156113c15780820151818401526020810190506113a6565b60008484015250505050565b6000601f19601f8301169050919050565b60006113e982611387565b6113f38185611392565b93506114038185602086016113a3565b61140c816113cd565b840191505092915050565b6000602082019050818103600083015261143181846113de565b905092915050565b6000604051905090565b600080fd5b600080fd5b6000819050919050565b6114608161144d565b811461146b57600080fd5b50565b60008135905061147d81611457565b92915050565b60006020828403121561149957611498611443565b5b60006114a78482850161146e565b91505092915050565b6114b98161144d565b82525050565b60006060820190506114d460008301866114b0565b6114e160208301856114b0565b6114ee60408301846114b0565b949350505050565b600060208201905061150b60008301846114b0565b92915050565b600060a08201905061152660008301886114b0565b818103602083015261153881876113de565b9050818103604083015261154c81866113de565b9050818103606083015261156081856113de565b9050818103608083015261157481846113de565b90509695505050505050565b600060608201905061159560008301866114b0565b6115a260208301856114b0565b81810360408301526115b481846113de565b9050949350505050565b6000610100820190506115d4600083018b6114b0565b6115e1602083018a6114b0565b81810360408301526115f381896113de565b905061160260608301886114b0565b818103608083015261161481876113de565b905081810360a083015261162881866113de565b905081810360c083015261163c81856113de565b905081810360e083015261165081846113de565b90509998505050505050505050565b600080fd5b600080fd5b7f4e487b7100000000000000000000000000000000000000000000000000000000600052604160045260246000fd5b6116a1826113cd565b810181811067ffffffffffffffff821117156116c0576116bf611669565b5b80604052505050565b60006116d3611439565b90506116df8282611698565b919050565b600067ffffffffffffffff8211156116ff576116fe611669565b5b611708826113cd565b9050602081019050919050565b82818337600083830152505050565b6000611737611732846116e4565b6116c9565b90508281526020810184848401111561175357611752611664565b5b61175e848285611715565b509392505050565b600082601f83011261177b5761177a61165f565b5b813561178b848260208601611724565b91505092915050565b60008060008060008060c087890312156117b1576117b0611443565b5b60006117bf89828a0161146e565b96505060206117d089828a0161146e565b955050604087013567ffffffffffffffff8111156117f1576117f0611448565b5b6117fd89828a01611766565b945050606087013567ffffffffffffffff81111561181e5761181d611448565b5b61182a89828a01611766565b935050608087013567ffffffffffffffff81111561184b5761184a611448565b5b61185789828a01611766565b92505060a087013567ffffffffffffffff81111561187857611877611448565b5b61188489828a01611766565b9150509295509295509295565b60006060820190506118a660008301866114b0565b81810360208301526118b881856113de565b905081810360408301526118cc81846113de565b9050949350505050565b600081519050919050565b600082825260208201905092915050565b6000819050602082019050919050565b61190b8161144d565b82525050565b600082825260208201905092915050565b600061192d82611387565b6119378185611911565b93506119478185602086016113a3565b611950816113cd565b840191505092915050565b6000610100830160008301516119746000860182611902565b5060208301516119876020860182611902565b506040830151848203604086015261199f8282611922565b91505060608301516119b46060860182611902565b50608083015184820360808601526119cc8282611922565b91505060a083015184820360a08601526119e68282611922565b91505060c083015184820360c0860152611a008282611922565b91505060e083015184820360e0860152611a1a8282611922565b9150508091505092915050565b6000611a33838361195b565b905092915050565b6000602082019050919050565b6000611a53826118d6565b611a5d81856118e1565b935083602082028501611a6f856118f2565b8060005b85811015611aab5784840389528151611a8c8582611a27565b9450611a9783611a3b565b925060208a01995050600181019050611a73565b50829750879550505050505092915050565b60006020820190508181036000830152611ad78184611a48565b905092915050565b7f4e487b7100000000000000000000000000000000000000000000000000000000600052602260045260246000fd5b60006002820490506001821680611b2657607f821691505b602082108103611b3957611b38611adf565b5b50919050565b7f4e487b7100000000000000000000000000000000000000000000000000000000600052601160045260246000fd5b6000611b798261144d565b91507fffffffffffffffffffffffffffffffffffffffffffffffffffffffffffffffff8203611bab57611baa611b3f565b5b600182019050919050565b60008190508160005260206000209050919050565b60006020601f8301049050919050565b600082821b905092915050565b600060088302611c187fffffffffffffffffffffffffffffffffffffffffffffffffffffffffffffffff82611bdb565b611c228683611bdb565b95508019841693508086168417925050509392505050565b6000819050919050565b6000611c5f611c5a611c558461144d565b611c3a565b61144d565b9050919050565b6000819050919050565b611c7983611c44565b611c8d611c8582611c66565b848454611be8565b825550505050565b600090565b611ca2611c95565b611cad818484611c70565b505050565b5b81811015611cd157611cc6600082611c9a565b600181019050611cb3565b5050565b601f821115611d1657611ce781611bb6565b611cf084611bcb565b81016020851015611cff578190505b611d13611d0b85611bcb565b830182611cb2565b50505b505050565b600082821c905092915050565b6000611d3960001984600802611d1b565b1980831691505092915050565b6000611d528383611d28565b9150826002028217905092915050565b611d6b82611387565b67ffffffffffffffff811115611d8457611d83611669565b5b611d8e8254611b0e565b611d99828285611cd5565b600060209050601f831160018114611dcc5760008415611dba578287015190505b611dc48582611d46565b865550611e2c565b601f198416611dda86611bb6565b60005b82811015611e0257848901518255600182019150602085019450602081019050611ddd565b86831015611e1f5784890151611e1b601f891682611d28565b8355505b6001600288020188555050505b505050505050565b60008160001c9050919050565b6000819050919050565b6000611e5e611e5983611e34565b611e41565b9050919050565b60008154611e7281611b0e565b611e7c8186611911565b94506001821660008114611e975760018114611ead57611ee0565b60ff198316865281151560200286019350611ee0565b611eb685611bb6565b60005b83811015611ed857815481890152600182019150602081019050611eb9565b808801955050505b50505092915050565b600061010083016000808401549050611f0181611e4b565b611f0e6000870182611902565b5060018401549050611f1f81611e4b565b611f2c6020870182611902565b50600284018583036040870152611f438382611e65565b92505060038401549050611f5681611e4b565b611f636060870182611902565b50600484018583036080870152611f7a8382611e65565b9250506005840185830360a0870152611f938382611e65565b9250506006840185830360c0870152611fac8382611e65565b9250506007840185830360e0870152611fc58382611e65565b925050819250505092915050565b60006020820190508181036000830152611fed8184611ee9565b905092915050565b60006120008261144d565b915061200b8361144d565b925082820190508082111561202357612022611b3f565b5b92915050565b7f4e487b7100000000000000000000000000000000000000000000000000000000600052603260045260246000fdfea264697066735822122014e3e3c812ebece60101958dc8998fc1adf199b5cebfc3cae060087ce9643d1764736f6c63430008180033",
  "linkReferences": {},
  "deployedLinkReferences": {}
}