{
  "_format": "hh-sol-artifact-1",
  "contractName": "OpenField",
  "sourceName": "contracts/OpenField.sol",
  "abi": [
    {
      "inputs": [],
      "stateMutability": "nonpayable",
      "type": "constructor"
    },
    {
      "anonymous": false,
      "inputs": [
        {
          "components": [
            {
              "internalType": "uint256",
              "name": "id",
              "type": "uint256"
            },
            {
              "internalType": "string",
              "name": "name",
              "type": "string"
            },
            {
              "internalType": "string",
              "name": "location",
              "type": "string"
            },
            {
              "internalType": "string",
              "name": "longitude",
              "type": "string"
            },
            {
              "internalType": "string",
              "name": "latitude",
              "type": "string"
            },
            {
              "internalType": "string",
              "name": "mobile",
              "type": "string"
            }
          ],
          "indexed": false,
          "internalType": "struct OpenField.Farmer",
          "name": "",
          "type": "tuple"
        }
      ],
      "name": "NewFarmer",
      "type": "event"
    },
    {
      "anonymous": false,
      "inputs": [
        {
          "components": [
            {
              "internalType": "uint256",
              "name": "id",
              "type": "uint256"
            },
            {
              "internalType": "uint256",
              "name": "producer_id",
              "type": "uint256"
            },
            {
              "internalType": "string",
              "name": "producer_name",
              "type": "string"
            },
            {
              "internalType": "string",
              "name": "name",
              "type": "string"
            },
            {
              "internalType": "uint256",
              "name": "quantity",
              "type": "uint256"
            },
            {
              "internalType": "string",
              "name": "ingredient",
              "type": "string"
            },
            {
              "internalType": "string",
              "name": "batchno",
              "type": "string"
            },
            {
              "internalType": "string",
              "name": "manufacture_date",
              "type": "string"
            },
            {
              "internalType": "string",
              "name": "expiry_date",
              "type": "string"
            }
          ],
          "indexed": false,
          "internalType": "struct OpenField.Pesticide",
          "name": "",
          "type": "tuple"
        }
      ],
      "name": "NewPesticide",
      "type": "event"
    },
    {
      "inputs": [
        {
          "internalType": "string",
          "name": "_name",
          "type": "string"
        },
        {
          "internalType": "string",
          "name": "_mob",
          "type": "string"
        },
        {
          "internalType": "string",
          "name": "_location",
          "type": "string"
        },
        {
          "internalType": "string",
          "name": "_longitude",
          "type": "string"
        },
        {
          "internalType": "string",
          "name": "_latitude",
          "type": "string"
        }
      ],
      "name": "addFarmer",
      "outputs": [],
      "stateMutability": "nonpayable",
      "type": "function"
    },
    {
      "inputs": [
        {
          "internalType": "uint256",
          "name": "_producer_id",
          "type": "uint256"
        },
        {
          "internalType": "uint256",
          "name": "_quantity",
          "type": "uint256"
        },
        {
          "internalType": "string",
          "name": "_name",
          "type": "string"
        },
        {
          "internalType": "string",
          "name": "_producer_name",
          "type": "string"
        },
        {
          "internalType": "string",
          "name": "_ingredient",
          "type": "string"
        },
        {
          "internalType": "string",
          "name": "_batchno",
          "type": "string"
        },
        {
          "internalType": "string",
          "name": "_manufacture_date",
          "type": "string"
        },
        {
          "internalType": "string",
          "name": "_expiry_date",
          "type": "string"
        }
      ],
      "name": "addPesticide",
      "outputs": [],
      "stateMutability": "nonpayable",
      "type": "function"
    },
    {
      "inputs": [],
      "name": "cropCount",
      "outputs": [
        {
          "internalType": "uint256",
          "name": "",
          "type": "uint256"
        }
      ],
      "stateMutability": "view",
      "type": "function"
    },
    {
      "inputs": [
        {
          "internalType": "uint256",
          "name": "",
          "type": "uint256"
        }
      ],
      "name": "crops",
      "outputs": [
        {
          "internalType": "uint256",
          "name": "id",
          "type": "uint256"
        },
        {
          "internalType": "uint256",
          "name": "farmer_id",
          "type": "uint256"
        },
        {
          "internalType": "string",
          "name": "name",
          "type": "string"
        }
      ],
      "stateMutability": "view",
      "type": "function"
    },
    {
      "inputs": [
        {
          "internalType": "uint256",
          "name": "",
          "type": "uint256"
        }
      ],
      "name": "distributors",
      "outputs": [
        {
          "internalType": "uint256",
          "name": "id",
          "type": "uint256"
        },
        {
          "internalType": "string",
          "name": "name",
          "type": "string"
        },
        {
          "internalType": "string",
          "name": "location",
          "type": "string"
        },
        {
          "internalType": "string",
          "name": "longitude",
          "type": "string"
        },
        {
          "internalType": "string",
          "name": "latitude",
          "type": "string"
        }
      ],
      "stateMutability": "view",
      "type": "function"
    },
    {
      "inputs": [],
      "name": "farmerCount",
      "outputs": [
        {
          "internalType": "uint256",
          "name": "",
          "type": "uint256"
        }
      ],
      "stateMutability": "view",
      "type": "function"
    },
    {
      "inputs": [
        {
          "internalType": "uint256",
          "name": "",
          "type": "uint256"
        }
      ],
      "name": "farmers",
      "outputs": [
        {
          "internalType": "uint256",
          "name": "id",
          "type": "uint256"
        },
        {
          "internalType": "string",
          "name": "name",
          "type": "string"
        },
        {
          "internalType": "string",
          "name": "location",
          "type": "string"
        },
        {
          "internalType": "string",
          "name": "longitude",
          "type": "string"
        },
        {
          "internalType": "string",
          "name": "latitude",
          "type": "string"
        },
        {
          "internalType": "string",
          "name": "mobile",
          "type": "string"
        }
      ],
      "stateMutability": "view",
      "type": "function"
    },
    {
      "inputs": [],
      "name": "getAllFarmers",
      "outputs": [
        {
          "components": [
            {
              "internalType": "uint256",
              "name": "id",
              "type": "uint256"
            },
            {
              "internalType": "string",
              "name": "name",
              "type": "string"
            },
            {
              "internalType": "string",
              "name": "location",
              "type": "string"
            },
            {
              "internalType": "string",
              "name": "longitude",
              "type": "string"
            },
            {
              "internalType": "string",
              "name": "latitude",
              "type": "string"
            },
            {
              "internalType": "string",
              "name": "mobile",
              "type": "string"
            }
          ],
          "internalType": "struct OpenField.Farmer[]",
          "name": "",
          "type": "tuple[]"
        }
      ],
      "stateMutability": "view",
      "type": "function"
    },
    {
      "inputs": [],
      "name": "getPesticides",
      "outputs": [
        {
          "components": [
            {
              "internalType": "uint256",
              "name": "id",
              "type": "uint256"
            },
            {
              "internalType": "uint256",
              "name": "producer_id",
              "type": "uint256"
            },
            {
              "internalType": "string",
              "name": "producer_name",
              "type": "string"
            },
            {
              "internalType": "string",
              "name": "name",
              "type": "string"
            },
            {
              "internalType": "uint256",
              "name": "quantity",
              "type": "uint256"
            },
            {
              "internalType": "string",
              "name": "ingredient",
              "type": "string"
            },
            {
              "internalType": "string",
              "name": "batchno",
              "type": "string"
            },
            {
              "internalType": "string",
              "name": "manufacture_date",
              "type": "string"
            },
            {
              "internalType": "string",
              "name": "expiry_date",
              "type": "string"
            }
          ],
          "internalType": "struct OpenField.Pesticide[]",
          "name": "",
          "type": "tuple[]"
        }
      ],
      "stateMutability": "view",
      "type": "function"
    },
    {
      "inputs": [
        {
          "internalType": "uint256",
          "name": "_id",
          "type": "uint256"
        }
      ],
      "name": "getProcudersPesticides",
      "outputs": [
        {
          "components": [
            {
              "internalType": "uint256",
              "name": "id",
              "type": "uint256"
            },
            {
              "internalType": "uint256",
              "name": "producer_id",
              "type": "uint256"
            },
            {
              "internalType": "string",
              "name": "producer_name",
              "type": "string"
            },
            {
              "internalType": "string",
              "name": "name",
              "type": "string"
            },
            {
              "internalType": "uint256",
              "name": "quantity",
              "type": "uint256"
            },
            {
              "internalType": "string",
              "name": "ingredient",
              "type": "string"
            },
            {
              "internalType": "string",
              "name": "batchno",
              "type": "string"
            },
            {
              "internalType": "string",
              "name": "manufacture_date",
              "type": "string"
            },
            {
              "internalType": "string",
              "name": "expiry_date",
              "type": "string"
            }
          ],
          "internalType": "struct OpenField.Pesticide[]",
          "name": "",
          "type": "tuple[]"
        }
      ],
      "stateMutability": "view",
      "type": "function"
    },
    {
      "inputs": [],
      "name": "getProducers",
      "outputs": [
        {
          "components": [
            {
              "internalType": "uint256",
              "name": "id",
              "type": "uint256"
            },
            {
              "internalType": "string",
              "name": "name",
              "type": "string"
            },
            {
              "internalType": "string",
              "name": "dealer_name",
              "type": "string"
            },
            {
              "internalType": "string",
              "name": "location",
              "type": "string"
            },
            {
              "internalType": "string",
              "name": "longitude",
              "type": "string"
            },
            {
              "internalType": "string",
              "name": "latitude",
              "type": "string"
            }
          ],
          "internalType": "struct OpenField.Producer[]",
          "name": "",
          "type": "tuple[]"
        }
      ],
      "stateMutability": "view",
      "type": "function"
    },
    {
      "inputs": [],
      "name": "name",
      "outputs": [
        {
          "internalType": "string",
          "name": "",
          "type": "string"
        }
      ],
      "stateMutability": "view",
      "type": "function"
    },
    {
      "inputs": [],
      "name": "pesticideCount",
      "outputs": [
        {
          "internalType": "uint256",
          "name": "",
          "type": "uint256"
        }
      ],
      "stateMutability": "view",
      "type": "function"
    },
    {
      "inputs": [],
      "name": "pesticideFarmerCount",
      "outputs": [
        {
          "internalType": "uint256",
          "name": "",
          "type": "uint256"
        }
      ],
      "stateMutability": "view",
      "type": "function"
    },
    {
      "inputs": [
        {
          "internalType": "uint256",
          "name": "",
          "type": "uint256"
        }
      ],
      "name": "pesticides",
      "outputs": [
        {
          "internalType": "uint256",
          "name": "id",
          "type": "uint256"
        },
        {
          "internalType": "uint256",
          "name": "producer_id",
          "type": "uint256"
        },
        {
          "internalType": "string",
          "name": "producer_name",
          "type": "string"
        },
        {
          "internalType": "string",
          "name": "name",
          "type": "string"
        },
        {
          "internalType": "uint256",
          "name": "quantity",
          "type": "uint256"
        },
        {
          "internalType": "string",
          "name": "ingredient",
          "type": "string"
        },
        {
          "internalType": "string",
          "name": "batchno",
          "type": "string"
        },
        {
          "internalType": "string",
          "name": "manufacture_date",
          "type": "string"
        },
        {
          "internalType": "string",
          "name": "expiry_date",
          "type": "string"
        }
      ],
      "stateMutability": "view",
      "type": "function"
    },
    {
      "inputs": [
        {
          "internalType": "uint256",
          "name": "",
          "type": "uint256"
        }
      ],
      "name": "pesticidesDistributor",
      "outputs": [
        {
          "internalType": "uint256",
          "name": "id",
          "type": "uint256"
        },
        {
          "internalType": "uint256",
          "name": "distributor_id",
          "type": "uint256"
        },
        {
          "internalType": "uint256",
          "name": "pesticide_id",
          "type": "uint256"
        }
      ],
      "stateMutability": "view",
      "type": "function"
    },
    {
      "inputs": [
        {
          "internalType": "uint256",
          "name": "",
          "type": "uint256"
        }
      ],
      "name": "pesticidesFarmer",
      "outputs": [
        {
          "internalType": "uint256",
          "name": "id",
          "type": "uint256"
        },
        {
          "internalType": "uint256",
          "name": "farmer_id",
          "type": "uint256"
        },
        {
          "internalType": "uint256",
          "name": "pesticide_id",
          "type": "uint256"
        }
      ],
      "stateMutability": "view",
      "type": "function"
    },
    {
      "inputs": [],
      "name": "producerCount",
      "outputs": [
        {
          "internalType": "uint256",
          "name": "",
          "type": "uint256"
        }
      ],
      "stateMutability": "view",
      "type": "function"
    },
    {
      "inputs": [
        {
          "internalType": "uint256",
          "name": "",
          "type": "uint256"
        }
      ],
      "name": "producers",
      "outputs": [
        {
          "internalType": "uint256",
          "name": "id",
          "type": "uint256"
        },
        {
          "internalType": "string",
          "name": "name",
          "type": "string"
        },
        {
          "internalType": "string",
          "name": "dealer_name",
          "type": "string"
        },
        {
          "internalType": "string",
          "name": "location",
          "type": "string"
        },
        {
          "internalType": "string",
          "name": "longitude",
          "type": "string"
        },
        {
          "internalType": "string",
          "name": "latitude",
          "type": "string"
        }
      ],
      "stateMutability": "view",
      "type": "function"
    }
  ],
  "bytecode": "0x6080604052600060085560006009556000600a556000600b556000600c553480156200002a57600080fd5b506040518060400160405280600981526020017f4f70656e4669656c6400000000000000000000000000000000000000000000008152506000908162000071919062001160565b5060016009600082825462000087919062001276565b9250508190555060006002600060095481526020019081526020016000209050600181600001819055506040518060400160405280600881526020017f534f6d6520504c54000000000000000000000000000000000000000000000000815250816001019081620000f9919062001160565b506040518060400160405280600e81526020017f4465616c6572206e616d6565656500000000000000000000000000000000000081525081600201908162000142919062001160565b506040518060400160405280600581526020017f64656c68690000000000000000000000000000000000000000000000000000008152508160030190816200018b919062001160565b506040518060400160405280600381526020017f3436250000000000000000000000000000000000000000000000000000000000815250816004019081620001d4919062001160565b506040518060400160405280600381526020017f33362500000000000000000000000000000000000000000000000000000000008152508160050190816200021d919062001160565b5060016009600082825462000233919062001276565b9250508190555060006002600060095481526020019081526020016000209050600281600001819055506040518060400160405280600381526020017f504c540000000000000000000000000000000000000000000000000000000000815250816001019081620002a5919062001160565b506040518060400160405280600881526020017f206e616d65656565000000000000000000000000000000000000000000000000815250816002019081620002ee919062001160565b506040518060400160405280600581526020017f64656c686900000000000000000000000000000000000000000000000000000081525081600301908162000337919062001160565b506040518060400160405280600381526020017f353025000000000000000000000000000000000000000000000000000000000081525081600401908162000380919062001160565b506040518060400160405280600381526020017f3238250000000000000000000000000000000000000000000000000000000000815250816005019081620003c9919062001160565b5062000522600160646040518060400160405280601181526020017f46657274696c697a6572206e616d6520310000000000000000000000000000008152506040518060400160405280600981526020017f70726f64756365723100000000000000000000000000000000000000000000008152506040518060400160405280600481526020017f41424344000000000000000000000000000000000000000000000000000000008152506040518060400160405280600481526020017f42303031000000000000000000000000000000000000000000000000000000008152506040518060400160405280600a81526020017f31362f31322f32303032000000000000000000000000000000000000000000008152506040518060400160405280600981526020017f372f30332f32303033000000000000000000000000000000000000000000000081525062000c5260201b60201c565b6200067a600160646040518060400160405280601181526020017f46657274696c697a6572206e616d6520310000000000000000000000000000008152506040518060400160405280600981526020017f70726f64756365723100000000000000000000000000000000000000000000008152506040518060400160405280600281526020017f63640000000000000000000000000000000000000000000000000000000000008152506040518060400160405280600481526020017f42303031000000000000000000000000000000000000000000000000000000008152506040518060400160405280600a81526020017f31362f31322f32303032000000000000000000000000000000000000000000008152506040518060400160405280600981526020017f372f30332f32303033000000000000000000000000000000000000000000000081525062000c5260201b60201c565b620007d2600560646040518060400160405280601181526020017f46657274696c697a6572206e616d6520310000000000000000000000000000008152506040518060400160405280600981526020017f70726f64756365723100000000000000000000000000000000000000000000008152506040518060400160405280600481526020017f41424344000000000000000000000000000000000000000000000000000000008152506040518060400160405280600481526020017f42303031000000000000000000000000000000000000000000000000000000008152506040518060400160405280600a81526020017f31362f31322f32303032000000000000000000000000000000000000000000008152506040518060400160405280600981526020017f372f30332f32303033000000000000000000000000000000000000000000000081525062000c5260201b60201c565b620008f06040518060400160405280600881526020017f53726565686172690000000000000000000000000000000000000000000000008152506040518060400160405280600a81526020017f39393939393939393939000000000000000000000000000000000000000000008152506040518060400160405280600681526020017f6b616e6e757200000000000000000000000000000000000000000000000000008152506040518060400160405280600381526020017f34352500000000000000000000000000000000000000000000000000000000008152506040518060400160405280600381526020017f323025000000000000000000000000000000000000000000000000000000000081525062000db860201b60201c565b62000a0e6040518060400160405280600681526020017f41736877696e00000000000000000000000000000000000000000000000000008152506040518060400160405280600a81526020017f39393939393939393939000000000000000000000000000000000000000000008152506040518060400160405280600681526020017f6b6f6c6c616d00000000000000000000000000000000000000000000000000008152506040518060400160405280600381526020017f34352500000000000000000000000000000000000000000000000000000000008152506040518060400160405280600381526020017f353025000000000000000000000000000000000000000000000000000000000081525062000db860201b60201c565b62000b2c6040518060400160405280600581526020017f41736865720000000000000000000000000000000000000000000000000000008152506040518060400160405280600a81526020017f39393939393939393939000000000000000000000000000000000000000000008152506040518060400160405280600381526020017f69646b00000000000000000000000000000000000000000000000000000000008152506040518060400160405280600381526020017f34352500000000000000000000000000000000000000000000000000000000008152506040518060400160405280600381526020017f313025000000000000000000000000000000000000000000000000000000000081525062000db860201b60201c565b62000c4a6040518060400160405280600581526020017f4e6f6f68610000000000000000000000000000000000000000000000000000008152506040518060400160405280600a81526020017f39393939393939393939000000000000000000000000000000000000000000008152506040518060400160405280600481526020017f536f6d65000000000000000000000000000000000000000000000000000000008152506040518060400160405280600381526020017f34352500000000000000000000000000000000000000000000000000000000008152506040518060400160405280600381526020017f333025000000000000000000000000000000000000000000000000000000000081525062000db860201b60201c565b505062001604565b600086511162000c6157600080fd5b600085511162000c7057600080fd5b600084511162000c7f57600080fd5b600083511162000c8e57600080fd5b600082511162000c9d57600080fd5b600081511162000cac57600080fd5b600c600081548092919062000cc190620012b1565b9190505550600060066000600c5481526020019081526020016000209050600c5481600001819055508881600101819055508681600301908162000d06919062001160565b508581600201908162000d1a919062001160565b508781600401819055508481600501908162000d37919062001160565b508381600601908162000d4b919062001160565b508281600701908162000d5f919062001160565b508181600801908162000d73919062001160565b507fedde1f77670c495bdd95aa0a5818afb5b25c0110fec0cf231934b4069dbef6a18160405162000da5919062001501565b60405180910390a1505050505050505050565b600085511162000dc757600080fd5b600084511162000dd657600080fd5b600083511162000de557600080fd5b600082511162000df457600080fd5b600081511162000e0357600080fd5b6008600081548092919062000e1890620012b1565b91905055506000600160006008548152602001908152602001600020905060085481600001819055508581600101908162000e54919062001160565b508481600501908162000e68919062001160565b508381600201908162000e7c919062001160565b508281600301908162000e90919062001160565b508181600401908162000ea4919062001160565b507f8a393f24b50f96cb78dcfb57a53c4c8979f03a0c93941ff9576c05c14a9465cf8160405162000ed69190620015e0565b60405180910390a1505050505050565b600081519050919050565b7f4e487b7100000000000000000000000000000000000000000000000000000000600052604160045260246000fd5b7f4e487b7100000000000000000000000000000000000000000000000000000000600052602260045260246000fd5b6000600282049050600182168062000f6857607f821691505b60208210810362000f7e5762000f7d62000f20565b5b50919050565b60008190508160005260206000209050919050565b60006020601f8301049050919050565b600082821b905092915050565b60006008830262000fe87fffffffffffffffffffffffffffffffffffffffffffffffffffffffffffffffff8262000fa9565b62000ff4868362000fa9565b95508019841693508086168417925050509392505050565b6000819050919050565b6000819050919050565b6000620010416200103b62001035846200100c565b62001016565b6200100c565b9050919050565b6000819050919050565b6200105d8362001020565b620010756200106c8262001048565b84845462000fb6565b825550505050565b600090565b6200108c6200107d565b6200109981848462001052565b505050565b5b81811015620010c157620010b560008262001082565b6001810190506200109f565b5050565b601f8211156200111057620010da8162000f84565b620010e58462000f99565b81016020851015620010f5578190505b6200110d620011048562000f99565b8301826200109e565b50505b505050565b600082821c905092915050565b6000620011356000198460080262001115565b1980831691505092915050565b600062001150838362001122565b9150826002028217905092915050565b6200116b8262000ee6565b67ffffffffffffffff81111562001187576200118662000ef1565b5b62001193825462000f4f565b620011a0828285620010c5565b600060209050601f831160018114620011d85760008415620011c3578287015190505b620011cf858262001142565b8655506200123f565b601f198416620011e88662000f84565b60005b828110156200121257848901518255600182019150602085019450602081019050620011eb565b868310156200123257848901516200122e601f89168262001122565b8355505b6001600288020188555050505b505050505050565b7f4e487b7100000000000000000000000000000000000000000000000000000000600052601160045260246000fd5b600062001283826200100c565b915062001290836200100c565b9250828201905080821115620012ab57620012aa62001247565b5b92915050565b6000620012be826200100c565b91507fffffffffffffffffffffffffffffffffffffffffffffffffffffffffffffffff8203620012f357620012f262001247565b5b600182019050919050565b60008160001c9050919050565b6000819050919050565b60006200132c6200132683620012fe565b6200130b565b9050919050565b6200133e816200100c565b82525050565b600082825260208201905092915050565b60008154620013648162000f4f565b62001370818662001344565b945060018216600081146200138e5760018114620013a557620013dc565b60ff198316865281151560200286019350620013dc565b620013b08562000f84565b60005b83811015620013d457815481890152600182019150602081019050620013b3565b808801955050505b50505092915050565b600061012083016000808401549050620013ff8162001315565b6200140e600087018262001333565b5060018401549050620014218162001315565b62001430602087018262001333565b5060028401858303604087015262001449838262001355565b92505060038401858303606087015262001464838262001355565b92505060048401549050620014798162001315565b62001488608087018262001333565b506005840185830360a0870152620014a1838262001355565b9250506006840185830360c0870152620014bc838262001355565b9250506007840185830360e0870152620014d7838262001355565b92505060088401858303610100870152620014f3838262001355565b925050819250505092915050565b600060208201905081810360008301526200151d8184620013e5565b905092915050565b600060c0830160008084015490506200153e8162001315565b6200154d600087018262001333565b5060018401858303602087015262001566838262001355565b92505060028401858303604087015262001581838262001355565b9250506003840185830360608701526200159c838262001355565b925050600484018583036080870152620015b7838262001355565b9250506005840185830360a0870152620015d2838262001355565b925050819250505092915050565b60006020820190508181036000830152620015fc818462001525565b905092915050565b613ed380620016146000396000f3fe608060405234801561001057600080fd5b50600436106101375760003560e01c80638afdd669116100b8578063d708fe5b1161007c578063d708fe5b14610390578063dc1e392c146103ae578063dfd55a2c146103e1578063e80a7eb9146103ff578063ecb22baa1461041d578063f71afe331461043b57610137565b80638afdd669146102bc578063961e89b8146102f15780639b68ade71461030d578063bd45b39714610342578063c5779fd11461036057610137565b8063536954e4116100ff578063536954e4146101fc5780635446032d1461021a57806370c9f1a5146102365780637ee49d911461026857806380507b2a146102a057610137565b806306fdde031461013c57806318c7833f1461015a578063279115ea1461018c578063458a1308146101aa57806350b492ba146101c8575b600080fd5b61014461046b565b6040516101519190612bf0565b60405180910390f35b610174600480360381019061016f9190612c5c565b6104f9565b60405161018393929190612c98565b60405180910390f35b610194610523565b6040516101a19190612ed2565b60405180910390f35b6101b2610991565b6040516101bf9190612ef4565b60405180910390f35b6101e260048036038101906101dd9190612c5c565b610997565b6040516101f3959493929190612f0f565b60405180910390f35b610204610bed565b60405161021191906130e5565b60405180910390f35b610234600480360381019061022f9190613107565b610fb4565b005b610250600480360381019061024b9190612c5c565b611011565b60405161025f9392919061315a565b60405180910390f35b610282600480360381019061027d9190612c5c565b6110c3565b60405161029799989796959493929190613198565b60405180910390f35b6102ba60048036038101906102b59190613384565b611441565b005b6102d660048036038101906102d19190612c5c565b611591565b6040516102e8969594939291906134e2565b60405180910390f35b61030b60048036038101906103069190613566565b611875565b005b61032760048036038101906103229190612c5c565b611990565b604051610339969594939291906134e2565b60405180910390f35b61034a611c74565b6040516103579190612ef4565b60405180910390f35b61037a60048036038101906103759190612c5c565b611c7a565b6040516103879190612ed2565b60405180910390f35b6103986121c2565b6040516103a59190612ef4565b60405180910390f35b6103c860048036038101906103c39190612c5c565b6121c8565b6040516103d8949392919061366d565b60405180910390f35b6103e96121f8565b6040516103f69190612ef4565b60405180910390f35b6104076121fe565b6040516104149190613819565b60405180910390f35b6104256125c5565b6040516104329190612ef4565b60405180910390f35b61045560048036038101906104509190612c5c565b6125cb565b6040516104629190612ed2565b60405180910390f35b600080546104789061386a565b80601f01602080910402602001604051908101604052809291908181526020018280546104a49061386a565b80156104f15780601f106104c6576101008083540402835291602001916104f1565b820191906000526020600020905b8154815290600101906020018083116104d457829003601f168201915b505050505081565b60076020528060005260406000206000915090508060000154908060010154908060020154905083565b6060600080600c5467ffffffffffffffff81111561054457610543613259565b5b60405190808252806020026020018201604052801561057d57816020015b61056a612aa8565b8152602001906001900390816105625790505b50905060005b600c5481101561098857600060018261059c91906138ca565b90506000600660008381526020019081526020016000209050806040518061012001604052908160008201548152602001600182015481526020016002820180546105e69061386a565b80601f01602080910402602001604051908101604052809291908181526020018280546106129061386a565b801561065f5780601f106106345761010080835404028352916020019161065f565b820191906000526020600020905b81548152906001019060200180831161064257829003601f168201915b505050505081526020016003820180546106789061386a565b80601f01602080910402602001604051908101604052809291908181526020018280546106a49061386a565b80156106f15780601f106106c6576101008083540402835291602001916106f1565b820191906000526020600020905b8154815290600101906020018083116106d457829003601f168201915b50505050508152602001600482015481526020016005820180546107149061386a565b80601f01602080910402602001604051908101604052809291908181526020018280546107409061386a565b801561078d5780601f106107625761010080835404028352916020019161078d565b820191906000526020600020905b81548152906001019060200180831161077057829003601f168201915b505050505081526020016006820180546107a69061386a565b80601f01602080910402602001604051908101604052809291908181526020018280546107d29061386a565b801561081f5780601f106107f45761010080835404028352916020019161081f565b820191906000526020600020905b81548152906001019060200180831161080257829003601f168201915b505050505081526020016007820180546108389061386a565b80601f01602080910402602001604051908101604052809291908181526020018280546108649061386a565b80156108b15780601f10610886576101008083540402835291602001916108b1565b820191906000526020600020905b81548152906001019060200180831161089457829003601f168201915b505050505081526020016008820180546108ca9061386a565b80601f01602080910402602001604051908101604052809291908181526020018280546108f69061386a565b80156109435780601f1061091857610100808354040283529160200191610943565b820191906000526020600020905b81548152906001019060200180831161092657829003601f168201915b50505050508152505084868151811061095f5761095e6138fe565b5b602002602001018190525060018561097791906138ca565b945050508080600101915050610583565b50809250505090565b600b5481565b60036020528060005260406000206000915090508060000154908060010180546109c09061386a565b80601f01602080910402602001604051908101604052809291908181526020018280546109ec9061386a565b8015610a395780601f10610a0e57610100808354040283529160200191610a39565b820191906000526020600020905b815481529060010190602001808311610a1c57829003601f168201915b505050505090806002018054610a4e9061386a565b80601f0160208091040260200160405190810160405280929190818152602001828054610a7a9061386a565b8015610ac75780601f10610a9c57610100808354040283529160200191610ac7565b820191906000526020600020905b815481529060010190602001808311610aaa57829003601f168201915b505050505090806003018054610adc9061386a565b80601f0160208091040260200160405190810160405280929190818152602001828054610b089061386a565b8015610b555780601f10610b2a57610100808354040283529160200191610b55565b820191906000526020600020905b815481529060010190602001808311610b3857829003601f168201915b505050505090806004018054610b6a9061386a565b80601f0160208091040260200160405190810160405280929190818152602001828054610b969061386a565b8015610be35780601f10610bb857610100808354040283529160200191610be3565b820191906000526020600020905b815481529060010190602001808311610bc657829003601f168201915b5050505050905085565b606060008060085467ffffffffffffffff811115610c0e57610c0d613259565b5b604051908082528060200260200182016040528015610c4757816020015b610c34612af4565b815260200190600190039081610c2c5790505b50905060005b600854811015610fab576000600182610c6691906138ca565b90506000600160008381526020019081526020016000209050806040518060c001604052908160008201548152602001600182018054610ca59061386a565b80601f0160208091040260200160405190810160405280929190818152602001828054610cd19061386a565b8015610d1e5780601f10610cf357610100808354040283529160200191610d1e565b820191906000526020600020905b815481529060010190602001808311610d0157829003601f168201915b50505050508152602001600282018054610d379061386a565b80601f0160208091040260200160405190810160405280929190818152602001828054610d639061386a565b8015610db05780601f10610d8557610100808354040283529160200191610db0565b820191906000526020600020905b815481529060010190602001808311610d9357829003601f168201915b50505050508152602001600382018054610dc99061386a565b80601f0160208091040260200160405190810160405280929190818152602001828054610df59061386a565b8015610e425780601f10610e1757610100808354040283529160200191610e42565b820191906000526020600020905b815481529060010190602001808311610e2557829003601f168201915b50505050508152602001600482018054610e5b9061386a565b80601f0160208091040260200160405190810160405280929190818152602001828054610e879061386a565b8015610ed45780601f10610ea957610100808354040283529160200191610ed4565b820191906000526020600020905b815481529060010190602001808311610eb757829003601f168201915b50505050508152602001600582018054610eed9061386a565b80601f0160208091040260200160405190810160405280929190818152602001828054610f199061386a565b8015610f665780601f10610f3b57610100808354040283529160200191610f66565b820191906000526020600020905b815481529060010190602001808311610f4957829003601f168201915b505050505081525050848681518110610f8257610f816138fe565b5b6020026020010181905250600185610f9a91906138ca565b945050508080600101915050610c4d565b50809250505090565b600b6000815480929190610fc79061392d565b9190505550600060056000600b5481526020019081526020016000209050600c54816000018190555083816003018190555082816001018190555081816002018190555050505050565b60046020528060005260406000206000915090508060000154908060010154908060020180546110409061386a565b80601f016020809104026020016040519081016040528092919081815260200182805461106c9061386a565b80156110b95780601f1061108e576101008083540402835291602001916110b9565b820191906000526020600020905b81548152906001019060200180831161109c57829003601f168201915b5050505050905083565b60066020528060005260406000206000915090508060000154908060010154908060020180546110f29061386a565b80601f016020809104026020016040519081016040528092919081815260200182805461111e9061386a565b801561116b5780601f106111405761010080835404028352916020019161116b565b820191906000526020600020905b81548152906001019060200180831161114e57829003601f168201915b5050505050908060030180546111809061386a565b80601f01602080910402602001604051908101604052809291908181526020018280546111ac9061386a565b80156111f95780601f106111ce576101008083540402835291602001916111f9565b820191906000526020600020905b8154815290600101906020018083116111dc57829003601f168201915b5050505050908060040154908060050180546112149061386a565b80601f01602080910402602001604051908101604052809291908181526020018280546112409061386a565b801561128d5780601f106112625761010080835404028352916020019161128d565b820191906000526020600020905b81548152906001019060200180831161127057829003601f168201915b5050505050908060060180546112a29061386a565b80601f01602080910402602001604051908101604052809291908181526020018280546112ce9061386a565b801561131b5780601f106112f05761010080835404028352916020019161131b565b820191906000526020600020905b8154815290600101906020018083116112fe57829003601f168201915b5050505050908060070180546113309061386a565b80601f016020809104026020016040519081016040528092919081815260200182805461135c9061386a565b80156113a95780601f1061137e576101008083540402835291602001916113a9565b820191906000526020600020905b81548152906001019060200180831161138c57829003601f168201915b5050505050908060080180546113be9061386a565b80601f01602080910402602001604051908101604052809291908181526020018280546113ea9061386a565b80156114375780601f1061140c57610100808354040283529160200191611437565b820191906000526020600020905b81548152906001019060200180831161141a57829003601f168201915b5050505050905089565b600086511161144f57600080fd5b600085511161145d57600080fd5b600084511161146b57600080fd5b600083511161147957600080fd5b600082511161148757600080fd5b600081511161149557600080fd5b600c60008154809291906114a89061392d565b9190505550600060066000600c5481526020019081526020016000209050600c548160000181905550888160010181905550868160030190816114eb9190613b21565b50858160020190816114fd9190613b21565b50878160040181905550848160050190816115189190613b21565b508381600601908161152a9190613b21565b508281600701908161153c9190613b21565b508181600801908161154e9190613b21565b507fedde1f77670c495bdd95aa0a5818afb5b25c0110fec0cf231934b4069dbef6a18160405161157e9190613dac565b60405180910390a1505050505050505050565b60016020528060005260406000206000915090508060000154908060010180546115ba9061386a565b80601f01602080910402602001604051908101604052809291908181526020018280546115e69061386a565b80156116335780601f1061160857610100808354040283529160200191611633565b820191906000526020600020905b81548152906001019060200180831161161657829003601f168201915b5050505050908060020180546116489061386a565b80601f01602080910402602001604051908101604052809291908181526020018280546116749061386a565b80156116c15780601f10611696576101008083540402835291602001916116c1565b820191906000526020600020905b8154815290600101906020018083116116a457829003601f168201915b5050505050908060030180546116d69061386a565b80601f01602080910402602001604051908101604052809291908181526020018280546117029061386a565b801561174f5780601f106117245761010080835404028352916020019161174f565b820191906000526020600020905b81548152906001019060200180831161173257829003601f168201915b5050505050908060040180546117649061386a565b80601f01602080910402602001604051908101604052809291908181526020018280546117909061386a565b80156117dd5780601f106117b2576101008083540402835291602001916117dd565b820191906000526020600020905b8154815290600101906020018083116117c057829003601f168201915b5050505050908060050180546117f29061386a565b80601f016020809104026020016040519081016040528092919081815260200182805461181e9061386a565b801561186b5780601f106118405761010080835404028352916020019161186b565b820191906000526020600020905b81548152906001019060200180831161184e57829003601f168201915b5050505050905086565b600085511161188357600080fd5b600084511161189157600080fd5b600083511161189f57600080fd5b60008251116118ad57600080fd5b60008151116118bb57600080fd5b600860008154809291906118ce9061392d565b9190505550600060016000600854815260200190815260200160002090506008548160000181905550858160010190816119089190613b21565b508481600501908161191a9190613b21565b508381600201908161192c9190613b21565b508281600301908161193e9190613b21565b50818160040190816119509190613b21565b507f8a393f24b50f96cb78dcfb57a53c4c8979f03a0c93941ff9576c05c14a9465cf816040516119809190613e7b565b60405180910390a1505050505050565b60026020528060005260406000206000915090508060000154908060010180546119b99061386a565b80601f01602080910402602001604051908101604052809291908181526020018280546119e59061386a565b8015611a325780601f10611a0757610100808354040283529160200191611a32565b820191906000526020600020905b815481529060010190602001808311611a1557829003601f168201915b505050505090806002018054611a479061386a565b80601f0160208091040260200160405190810160405280929190818152602001828054611a739061386a565b8015611ac05780601f10611a9557610100808354040283529160200191611ac0565b820191906000526020600020905b815481529060010190602001808311611aa357829003601f168201915b505050505090806003018054611ad59061386a565b80601f0160208091040260200160405190810160405280929190818152602001828054611b019061386a565b8015611b4e5780601f10611b2357610100808354040283529160200191611b4e565b820191906000526020600020905b815481529060010190602001808311611b3157829003601f168201915b505050505090806004018054611b639061386a565b80601f0160208091040260200160405190810160405280929190818152602001828054611b8f9061386a565b8015611bdc5780601f10611bb157610100808354040283529160200191611bdc565b820191906000526020600020905b815481529060010190602001808311611bbf57829003601f168201915b505050505090806005018054611bf19061386a565b80601f0160208091040260200160405190810160405280929190818152602001828054611c1d9061386a565b8015611c6a5780601f10611c3f57610100808354040283529160200191611c6a565b820191906000526020600020905b815481529060010190602001808311611c4d57829003601f168201915b5050505050905086565b60085481565b606060008060005b600c54811015611cde576000600182611c9b91906138ca565b9050600060056000838152602001908152602001600020905086816001015403611ccf57600184611ccc91906138ca565b93505b50508080600101915050611c82565b5060008167ffffffffffffffff811115611cfb57611cfa613259565b5b604051908082528060200260200182016040528015611d3457816020015b611d21612aa8565b815260200190600190039081611d195790505b50905060005b600b548110156121b6576000600182611d5391906138ca565b90506000600560008381526020019081526020016000209050878160010154036121a75760005b600c548110156121a557600060066000600184611d9791906138ca565b81526020019081526020016000209050826003015481600001540361219757611dbe612aa8565b81600001548160000181815250508160010154816020018181525050816003018054611de99061386a565b80601f0160208091040260200160405190810160405280929190818152602001828054611e159061386a565b8015611e625780601f10611e3757610100808354040283529160200191611e62565b820191906000526020600020905b815481529060010190602001808311611e4557829003601f168201915b50505050508160600181905250816002018054611e7e9061386a565b80601f0160208091040260200160405190810160405280929190818152602001828054611eaa9061386a565b8015611ef75780601f10611ecc57610100808354040283529160200191611ef7565b820191906000526020600020905b815481529060010190602001808311611eda57829003601f168201915b505050505081604001819052508360020154816080018181525050816005018054611f219061386a565b80601f0160208091040260200160405190810160405280929190818152602001828054611f4d9061386a565b8015611f9a5780601f10611f6f57610100808354040283529160200191611f9a565b820191906000526020600020905b815481529060010190602001808311611f7d57829003601f168201915b50505050508160a00181905250816006018054611fb69061386a565b80601f0160208091040260200160405190810160405280929190818152602001828054611fe29061386a565b801561202f5780601f106120045761010080835404028352916020019161202f565b820191906000526020600020905b81548152906001019060200180831161201257829003601f168201915b50505050508160c0018190525081600701805461204b9061386a565b80601f01602080910402602001604051908101604052809291908181526020018280546120779061386a565b80156120c45780601f10612099576101008083540402835291602001916120c4565b820191906000526020600020905b8154815290600101906020018083116120a757829003601f168201915b50505050508160e001819052508160080180546120e09061386a565b80601f016020809104026020016040519081016040528092919081815260200182805461210c9061386a565b80156121595780601f1061212e57610100808354040283529160200191612159565b820191906000526020600020905b81548152906001019060200180831161213c57829003601f168201915b505050505081610100018190525080878a8151811061217b5761217a6138fe565b5b602002602001018190525060018961219391906138ca565b9850505b508080600101915050611d7a565b505b50508080600101915050611d3a565b50809350505050919050565b60095481565b60056020528060005260406000206000915090508060000154908060010154908060020154908060030154905084565b600a5481565b606060008060095467ffffffffffffffff81111561221f5761221e613259565b5b60405190808252806020026020018201604052801561225857816020015b612245612b2a565b81526020019060019003908161223d5790505b50905060005b6009548110156125bc57600060018261227791906138ca565b90506000600260008381526020019081526020016000209050806040518060c0016040529081600082015481526020016001820180546122b69061386a565b80601f01602080910402602001604051908101604052809291908181526020018280546122e29061386a565b801561232f5780601f106123045761010080835404028352916020019161232f565b820191906000526020600020905b81548152906001019060200180831161231257829003601f168201915b505050505081526020016002820180546123489061386a565b80601f01602080910402602001604051908101604052809291908181526020018280546123749061386a565b80156123c15780601f10612396576101008083540402835291602001916123c1565b820191906000526020600020905b8154815290600101906020018083116123a457829003601f168201915b505050505081526020016003820180546123da9061386a565b80601f01602080910402602001604051908101604052809291908181526020018280546124069061386a565b80156124535780601f1061242857610100808354040283529160200191612453565b820191906000526020600020905b81548152906001019060200180831161243657829003601f168201915b5050505050815260200160048201805461246c9061386a565b80601f01602080910402602001604051908101604052809291908181526020018280546124989061386a565b80156124e55780601f106124ba576101008083540402835291602001916124e5565b820191906000526020600020905b8154815290600101906020018083116124c857829003601f168201915b505050505081526020016005820180546124fe9061386a565b80601f016020809104026020016040519081016040528092919081815260200182805461252a9061386a565b80156125775780601f1061254c57610100808354040283529160200191612577565b820191906000526020600020905b81548152906001019060200180831161255a57829003601f168201915b505050505081525050848681518110612593576125926138fe565b5b60200260200101819052506001856125ab91906138ca565b94505050808060010191505061225e565b50809250505090565b600c5481565b606060008060005b600c5481101561262f5760006001826125ec91906138ca565b90506000600660008381526020019081526020016000209050868160010154036126205760018461261d91906138ca565b93505b505080806001019150506125d3565b5060008167ffffffffffffffff81111561264c5761264b613259565b5b60405190808252806020026020018201604052801561268557816020015b612672612aa8565b81526020019060019003908161266a5790505b50905060005b600c54811015612a9c5760006001826126a491906138ca565b9050600060066000838152602001908152602001600020905087816001015403612a8d57806040518061012001604052908160008201548152602001600182015481526020016002820180546126f99061386a565b80601f01602080910402602001604051908101604052809291908181526020018280546127259061386a565b80156127725780601f1061274757610100808354040283529160200191612772565b820191906000526020600020905b81548152906001019060200180831161275557829003601f168201915b5050505050815260200160038201805461278b9061386a565b80601f01602080910402602001604051908101604052809291908181526020018280546127b79061386a565b80156128045780601f106127d957610100808354040283529160200191612804565b820191906000526020600020905b8154815290600101906020018083116127e757829003601f168201915b50505050508152602001600482015481526020016005820180546128279061386a565b80601f01602080910402602001604051908101604052809291908181526020018280546128539061386a565b80156128a05780601f10612875576101008083540402835291602001916128a0565b820191906000526020600020905b81548152906001019060200180831161288357829003601f168201915b505050505081526020016006820180546128b99061386a565b80601f01602080910402602001604051908101604052809291908181526020018280546128e59061386a565b80156129325780601f1061290757610100808354040283529160200191612932565b820191906000526020600020905b81548152906001019060200180831161291557829003601f168201915b5050505050815260200160078201805461294b9061386a565b80601f01602080910402602001604051908101604052809291908181526020018280546129779061386a565b80156129c45780601f10612999576101008083540402835291602001916129c4565b820191906000526020600020905b8154815290600101906020018083116129a757829003601f168201915b505050505081526020016008820180546129dd9061386a565b80601f0160208091040260200160405190810160405280929190818152602001828054612a099061386a565b8015612a565780601f10612a2b57610100808354040283529160200191612a56565b820191906000526020600020905b815481529060010190602001808311612a3957829003601f168201915b505050505081525050848781518110612a7257612a716138fe565b5b6020026020010181905250600186612a8a91906138ca565b95505b5050808060010191505061268b565b50809350505050919050565b6040518061012001604052806000815260200160008152602001606081526020016060815260200160008152602001606081526020016060815260200160608152602001606081525090565b6040518060c001604052806000815260200160608152602001606081526020016060815260200160608152602001606081525090565b6040518060c001604052806000815260200160608152602001606081526020016060815260200160608152602001606081525090565b600081519050919050565b600082825260208201905092915050565b60005b83811015612b9a578082015181840152602081019050612b7f565b60008484015250505050565b6000601f19601f8301169050919050565b6000612bc282612b60565b612bcc8185612b6b565b9350612bdc818560208601612b7c565b612be581612ba6565b840191505092915050565b60006020820190508181036000830152612c0a8184612bb7565b905092915050565b6000604051905090565b600080fd5b600080fd5b6000819050919050565b612c3981612c26565b8114612c4457600080fd5b50565b600081359050612c5681612c30565b92915050565b600060208284031215612c7257612c71612c1c565b5b6000612c8084828501612c47565b91505092915050565b612c9281612c26565b82525050565b6000606082019050612cad6000830186612c89565b612cba6020830185612c89565b612cc76040830184612c89565b949350505050565b600081519050919050565b600082825260208201905092915050565b6000819050602082019050919050565b612d0481612c26565b82525050565b600082825260208201905092915050565b6000612d2682612b60565b612d308185612d0a565b9350612d40818560208601612b7c565b612d4981612ba6565b840191505092915050565b600061012083016000830151612d6d6000860182612cfb565b506020830151612d806020860182612cfb565b5060408301518482036040860152612d988282612d1b565b91505060608301518482036060860152612db28282612d1b565b9150506080830151612dc76080860182612cfb565b5060a083015184820360a0860152612ddf8282612d1b565b91505060c083015184820360c0860152612df98282612d1b565b91505060e083015184820360e0860152612e138282612d1b565b915050610100830151848203610100860152612e2f8282612d1b565b9150508091505092915050565b6000612e488383612d54565b905092915050565b6000602082019050919050565b6000612e6882612ccf565b612e728185612cda565b935083602082028501612e8485612ceb565b8060005b85811015612ec05784840389528151612ea18582612e3c565b9450612eac83612e50565b925060208a01995050600181019050612e88565b50829750879550505050505092915050565b60006020820190508181036000830152612eec8184612e5d565b905092915050565b6000602082019050612f096000830184612c89565b92915050565b600060a082019050612f246000830188612c89565b8181036020830152612f368187612bb7565b90508181036040830152612f4a8186612bb7565b90508181036060830152612f5e8185612bb7565b90508181036080830152612f728184612bb7565b90509695505050505050565b600081519050919050565b600082825260208201905092915050565b6000819050602082019050919050565b600060c083016000830151612fc26000860182612cfb565b5060208301518482036020860152612fda8282612d1b565b91505060408301518482036040860152612ff48282612d1b565b9150506060830151848203606086015261300e8282612d1b565b915050608083015184820360808601526130288282612d1b565b91505060a083015184820360a08601526130428282612d1b565b9150508091505092915050565b600061305b8383612faa565b905092915050565b6000602082019050919050565b600061307b82612f7e565b6130858185612f89565b93508360208202850161309785612f9a565b8060005b858110156130d357848403895281516130b4858261304f565b94506130bf83613063565b925060208a0199505060018101905061309b565b50829750879550505050505092915050565b600060208201905081810360008301526130ff8184613070565b905092915050565b6000806000606084860312156131205761311f612c1c565b5b600061312e86828701612c47565b935050602061313f86828701612c47565b925050604061315086828701612c47565b9150509250925092565b600060608201905061316f6000830186612c89565b61317c6020830185612c89565b818103604083015261318e8184612bb7565b9050949350505050565b6000610120820190506131ae600083018c612c89565b6131bb602083018b612c89565b81810360408301526131cd818a612bb7565b905081810360608301526131e18189612bb7565b90506131f06080830188612c89565b81810360a08301526132028187612bb7565b905081810360c08301526132168186612bb7565b905081810360e083015261322a8185612bb7565b905081810361010083015261323f8184612bb7565b90509a9950505050505050505050565b600080fd5b600080fd5b7f4e487b7100000000000000000000000000000000000000000000000000000000600052604160045260246000fd5b61329182612ba6565b810181811067ffffffffffffffff821117156132b0576132af613259565b5b80604052505050565b60006132c3612c12565b90506132cf8282613288565b919050565b600067ffffffffffffffff8211156132ef576132ee613259565b5b6132f882612ba6565b9050602081019050919050565b82818337600083830152505050565b6000613327613322846132d4565b6132b9565b90508281526020810184848401111561334357613342613254565b5b61334e848285613305565b509392505050565b600082601f83011261336b5761336a61324f565b5b813561337b848260208601613314565b91505092915050565b600080600080600080600080610100898b0312156133a5576133a4612c1c565b5b60006133b38b828c01612c47565b98505060206133c48b828c01612c47565b975050604089013567ffffffffffffffff8111156133e5576133e4612c21565b5b6133f18b828c01613356565b965050606089013567ffffffffffffffff81111561341257613411612c21565b5b61341e8b828c01613356565b955050608089013567ffffffffffffffff81111561343f5761343e612c21565b5b61344b8b828c01613356565b94505060a089013567ffffffffffffffff81111561346c5761346b612c21565b5b6134788b828c01613356565b93505060c089013567ffffffffffffffff81111561349957613498612c21565b5b6134a58b828c01613356565b92505060e089013567ffffffffffffffff8111156134c6576134c5612c21565b5b6134d28b828c01613356565b9150509295985092959890939650565b600060c0820190506134f76000830189612c89565b81810360208301526135098188612bb7565b9050818103604083015261351d8187612bb7565b905081810360608301526135318186612bb7565b905081810360808301526135458185612bb7565b905081810360a08301526135598184612bb7565b9050979650505050505050565b600080600080600060a0868803121561358257613581612c1c565b5b600086013567ffffffffffffffff8111156135a05761359f612c21565b5b6135ac88828901613356565b955050602086013567ffffffffffffffff8111156135cd576135cc612c21565b5b6135d988828901613356565b945050604086013567ffffffffffffffff8111156135fa576135f9612c21565b5b61360688828901613356565b935050606086013567ffffffffffffffff81111561362757613626612c21565b5b61363388828901613356565b925050608086013567ffffffffffffffff81111561365457613653612c21565b5b61366088828901613356565b9150509295509295909350565b60006080820190506136826000830187612c89565b61368f6020830186612c89565b61369c6040830185612c89565b6136a96060830184612c89565b95945050505050565b600081519050919050565b600082825260208201905092915050565b6000819050602082019050919050565b600060c0830160008301516136f66000860182612cfb565b506020830151848203602086015261370e8282612d1b565b915050604083015184820360408601526137288282612d1b565b915050606083015184820360608601526137428282612d1b565b9150506080830151848203608086015261375c8282612d1b565b91505060a083015184820360a08601526137768282612d1b565b9150508091505092915050565b600061378f83836136de565b905092915050565b6000602082019050919050565b60006137af826136b2565b6137b981856136bd565b9350836020820285016137cb856136ce565b8060005b8581101561380757848403895281516137e88582613783565b94506137f383613797565b925060208a019950506001810190506137cf565b50829750879550505050505092915050565b6000602082019050818103600083015261383381846137a4565b905092915050565b7f4e487b7100000000000000000000000000000000000000000000000000000000600052602260045260246000fd5b6000600282049050600182168061388257607f821691505b6020821081036138955761389461383b565b5b50919050565b7f4e487b7100000000000000000000000000000000000000000000000000000000600052601160045260246000fd5b60006138d582612c26565b91506138e083612c26565b92508282019050808211156138f8576138f761389b565b5b92915050565b7f4e487b7100000000000000000000000000000000000000000000000000000000600052603260045260246000fd5b600061393882612c26565b91507fffffffffffffffffffffffffffffffffffffffffffffffffffffffffffffffff820361396a5761396961389b565b5b600182019050919050565b60008190508160005260206000209050919050565b60006020601f8301049050919050565b600082821b905092915050565b6000600883026139d77fffffffffffffffffffffffffffffffffffffffffffffffffffffffffffffffff8261399a565b6139e1868361399a565b95508019841693508086168417925050509392505050565b6000819050919050565b6000613a1e613a19613a1484612c26565b6139f9565b612c26565b9050919050565b6000819050919050565b613a3883613a03565b613a4c613a4482613a25565b8484546139a7565b825550505050565b600090565b613a61613a54565b613a6c818484613a2f565b505050565b5b81811015613a9057613a85600082613a59565b600181019050613a72565b5050565b601f821115613ad557613aa681613975565b613aaf8461398a565b81016020851015613abe578190505b613ad2613aca8561398a565b830182613a71565b50505b505050565b600082821c905092915050565b6000613af860001984600802613ada565b1980831691505092915050565b6000613b118383613ae7565b9150826002028217905092915050565b613b2a82612b60565b67ffffffffffffffff811115613b4357613b42613259565b5b613b4d825461386a565b613b58828285613a94565b600060209050601f831160018114613b8b5760008415613b79578287015190505b613b838582613b05565b865550613beb565b601f198416613b9986613975565b60005b82811015613bc157848901518255600182019150602085019450602081019050613b9c565b86831015613bde5784890151613bda601f891682613ae7565b8355505b6001600288020188555050505b505050505050565b60008160001c9050919050565b6000819050919050565b6000613c1d613c1883613bf3565b613c00565b9050919050565b60008154613c318161386a565b613c3b8186612d0a565b94506001821660008114613c565760018114613c6c57613c9f565b60ff198316865281151560200286019350613c9f565b613c7585613975565b60005b83811015613c9757815481890152600182019150602081019050613c78565b808801955050505b50505092915050565b600061012083016000808401549050613cc081613c0a565b613ccd6000870182612cfb565b5060018401549050613cde81613c0a565b613ceb6020870182612cfb565b50600284018583036040870152613d028382613c24565b925050600384018583036060870152613d1b8382613c24565b92505060048401549050613d2e81613c0a565b613d3b6080870182612cfb565b506005840185830360a0870152613d528382613c24565b9250506006840185830360c0870152613d6b8382613c24565b9250506007840185830360e0870152613d848382613c24565b92505060088401858303610100870152613d9e8382613c24565b925050819250505092915050565b60006020820190508181036000830152613dc68184613ca8565b905092915050565b600060c083016000808401549050613de581613c0a565b613df26000870182612cfb565b50600184018583036020870152613e098382613c24565b925050600284018583036040870152613e228382613c24565b925050600384018583036060870152613e3b8382613c24565b925050600484018583036080870152613e548382613c24565b9250506005840185830360a0870152613e6d8382613c24565b925050819250505092915050565b60006020820190508181036000830152613e958184613dce565b90509291505056fea264697066735822122058f4b91fc5aca304465bbcd8cb85beb50e78ee6adc16694e69b374d029051a1564736f6c63430008180033",
  "linkReferences": {},
  "deployedLinkReferences": {}
}