{
  "_format": "hh-sol-artifact-1",
  "contractName": "OpenField",
  "sourceName": "contracts/OpenField.sol",
  "abi": [
    {
      "inputs": [],
      "stateMutability": "nonpayable",
      "type": "constructor"
    },
    {
      "anonymous": false,
      "inputs": [
        {
          "components": [
            {
              "internalType": "uint256",
              "name": "id",
              "type": "uint256"
            },
            {
              "internalType": "string",
              "name": "name",
              "type": "string"
            },
            {
              "internalType": "string",
              "name": "location",
              "type": "string"
            },
            {
              "internalType": "string",
              "name": "longitude",
              "type": "string"
            },
            {
              "internalType": "string",
              "name": "latitude",
              "type": "string"
            },
            {
              "internalType": "string",
              "name": "mobile",
              "type": "string"
            }
          ],
          "indexed": false,
          "internalType": "struct OpenField.Farmer",
          "name": "",
          "type": "tuple"
        }
      ],
      "name": "NewFarmer",
      "type": "event"
    },
    {
      "anonymous": false,
      "inputs": [
        {
          "components": [
            {
              "internalType": "uint256",
              "name": "id",
              "type": "uint256"
            },
            {
              "internalType": "uint256",
              "name": "producer_id",
              "type": "uint256"
            },
            {
              "internalType": "string",
              "name": "producer_name",
              "type": "string"
            },
            {
              "internalType": "string",
              "name": "name",
              "type": "string"
            },
            {
              "internalType": "uint256",
              "name": "quantity",
              "type": "uint256"
            },
            {
              "internalType": "string",
              "name": "ingredient",
              "type": "string"
            },
            {
              "internalType": "string",
              "name": "batchno",
              "type": "string"
            },
            {
              "internalType": "string",
              "name": "manufacture_date",
              "type": "string"
            },
            {
              "internalType": "string",
              "name": "expiry_date",
              "type": "string"
            }
          ],
          "indexed": false,
          "internalType": "struct OpenField.Pesticide",
          "name": "",
          "type": "tuple"
        }
      ],
      "name": "NewPesticide",
      "type": "event"
    },
    {
      "inputs": [
        {
          "internalType": "string",
          "name": "_name",
          "type": "string"
        },
        {
          "internalType": "string",
          "name": "_mob",
          "type": "string"
        },
        {
          "internalType": "string",
          "name": "_location",
          "type": "string"
        },
        {
          "internalType": "string",
          "name": "_longitude",
          "type": "string"
        },
        {
          "internalType": "string",
          "name": "_latitude",
          "type": "string"
        }
      ],
      "name": "addFarmer",
      "outputs": [],
      "stateMutability": "nonpayable",
      "type": "function"
    },
    {
      "inputs": [
        {
          "internalType": "uint256",
          "name": "_producer_id",
          "type": "uint256"
        },
        {
          "internalType": "uint256",
          "name": "_quantity",
          "type": "uint256"
        },
        {
          "internalType": "string",
          "name": "_name",
          "type": "string"
        },
        {
          "internalType": "string",
          "name": "_producer_name",
          "type": "string"
        },
        {
          "internalType": "string",
          "name": "_ingredient",
          "type": "string"
        },
        {
          "internalType": "string",
          "name": "_batchno",
          "type": "string"
        },
        {
          "internalType": "string",
          "name": "_manufacture_date",
          "type": "string"
        },
        {
          "internalType": "string",
          "name": "_expiry_date",
          "type": "string"
        }
      ],
      "name": "addPesticide",
      "outputs": [],
      "stateMutability": "nonpayable",
      "type": "function"
    },
    {
      "inputs": [],
      "name": "cropCount",
      "outputs": [
        {
          "internalType": "uint256",
          "name": "",
          "type": "uint256"
        }
      ],
      "stateMutability": "view",
      "type": "function"
    },
    {
      "inputs": [
        {
          "internalType": "uint256",
          "name": "",
          "type": "uint256"
        }
      ],
      "name": "crops",
      "outputs": [
        {
          "internalType": "uint256",
          "name": "id",
          "type": "uint256"
        },
        {
          "internalType": "uint256",
          "name": "farmer_id",
          "type": "uint256"
        },
        {
          "internalType": "string",
          "name": "name",
          "type": "string"
        }
      ],
      "stateMutability": "view",
      "type": "function"
    },
    {
      "inputs": [
        {
          "internalType": "uint256",
          "name": "",
          "type": "uint256"
        }
      ],
      "name": "distributors",
      "outputs": [
        {
          "internalType": "uint256",
          "name": "id",
          "type": "uint256"
        },
        {
          "internalType": "string",
          "name": "name",
          "type": "string"
        },
        {
          "internalType": "string",
          "name": "location",
          "type": "string"
        },
        {
          "internalType": "string",
          "name": "longitude",
          "type": "string"
        },
        {
          "internalType": "string",
          "name": "latitude",
          "type": "string"
        }
      ],
      "stateMutability": "view",
      "type": "function"
    },
    {
      "inputs": [],
      "name": "farmerCount",
      "outputs": [
        {
          "internalType": "uint256",
          "name": "",
          "type": "uint256"
        }
      ],
      "stateMutability": "view",
      "type": "function"
    },
    {
      "inputs": [
        {
          "internalType": "uint256",
          "name": "",
          "type": "uint256"
        }
      ],
      "name": "farmers",
      "outputs": [
        {
          "internalType": "uint256",
          "name": "id",
          "type": "uint256"
        },
        {
          "internalType": "string",
          "name": "name",
          "type": "string"
        },
        {
          "internalType": "string",
          "name": "location",
          "type": "string"
        },
        {
          "internalType": "string",
          "name": "longitude",
          "type": "string"
        },
        {
          "internalType": "string",
          "name": "latitude",
          "type": "string"
        },
        {
          "internalType": "string",
          "name": "mobile",
          "type": "string"
        }
      ],
      "stateMutability": "view",
      "type": "function"
    },
    {
      "inputs": [],
      "name": "getAllFarmers",
      "outputs": [
        {
          "components": [
            {
              "internalType": "uint256",
              "name": "id",
              "type": "uint256"
            },
            {
              "internalType": "string",
              "name": "name",
              "type": "string"
            },
            {
              "internalType": "string",
              "name": "location",
              "type": "string"
            },
            {
              "internalType": "string",
              "name": "longitude",
              "type": "string"
            },
            {
              "internalType": "string",
              "name": "latitude",
              "type": "string"
            },
            {
              "internalType": "string",
              "name": "mobile",
              "type": "string"
            }
          ],
          "internalType": "struct OpenField.Farmer[]",
          "name": "",
          "type": "tuple[]"
        }
      ],
      "stateMutability": "view",
      "type": "function"
    },
    {
      "inputs": [],
      "name": "getPesticides",
      "outputs": [
        {
          "components": [
            {
              "internalType": "uint256",
              "name": "id",
              "type": "uint256"
            },
            {
              "internalType": "uint256",
              "name": "producer_id",
              "type": "uint256"
            },
            {
              "internalType": "string",
              "name": "producer_name",
              "type": "string"
            },
            {
              "internalType": "string",
              "name": "name",
              "type": "string"
            },
            {
              "internalType": "uint256",
              "name": "quantity",
              "type": "uint256"
            },
            {
              "internalType": "string",
              "name": "ingredient",
              "type": "string"
            },
            {
              "internalType": "string",
              "name": "batchno",
              "type": "string"
            },
            {
              "internalType": "string",
              "name": "manufacture_date",
              "type": "string"
            },
            {
              "internalType": "string",
              "name": "expiry_date",
              "type": "string"
            }
          ],
          "internalType": "struct OpenField.Pesticide[]",
          "name": "",
          "type": "tuple[]"
        }
      ],
      "stateMutability": "view",
      "type": "function"
    },
    {
      "inputs": [
        {
          "internalType": "uint256",
          "name": "_id",
          "type": "uint256"
        }
      ],
      "name": "getProcudersPesticides",
      "outputs": [
        {
          "components": [
            {
              "internalType": "uint256",
              "name": "id",
              "type": "uint256"
            },
            {
              "internalType": "uint256",
              "name": "producer_id",
              "type": "uint256"
            },
            {
              "internalType": "string",
              "name": "producer_name",
              "type": "string"
            },
            {
              "internalType": "string",
              "name": "name",
              "type": "string"
            },
            {
              "internalType": "uint256",
              "name": "quantity",
              "type": "uint256"
            },
            {
              "internalType": "string",
              "name": "ingredient",
              "type": "string"
            },
            {
              "internalType": "string",
              "name": "batchno",
              "type": "string"
            },
            {
              "internalType": "string",
              "name": "manufacture_date",
              "type": "string"
            },
            {
              "internalType": "string",
              "name": "expiry_date",
              "type": "string"
            }
          ],
          "internalType": "struct OpenField.Pesticide[]",
          "name": "",
          "type": "tuple[]"
        }
      ],
      "stateMutability": "view",
      "type": "function"
    },
    {
      "inputs": [],
      "name": "getProducers",
      "outputs": [
        {
          "components": [
            {
              "internalType": "uint256",
              "name": "id",
              "type": "uint256"
            },
            {
              "internalType": "string",
              "name": "name",
              "type": "string"
            },
            {
              "internalType": "string",
              "name": "dealer_name",
              "type": "string"
            }
          ],
          "internalType": "struct OpenField.Producer[]",
          "name": "",
          "type": "tuple[]"
        }
      ],
      "stateMutability": "view",
      "type": "function"
    },
    {
      "inputs": [],
      "name": "name",
      "outputs": [
        {
          "internalType": "string",
          "name": "",
          "type": "string"
        }
      ],
      "stateMutability": "view",
      "type": "function"
    },
    {
      "inputs": [],
      "name": "pesticideCount",
      "outputs": [
        {
          "internalType": "uint256",
          "name": "",
          "type": "uint256"
        }
      ],
      "stateMutability": "view",
      "type": "function"
    },
    {
      "inputs": [],
      "name": "pesticideFarmerCount",
      "outputs": [
        {
          "internalType": "uint256",
          "name": "",
          "type": "uint256"
        }
      ],
      "stateMutability": "view",
      "type": "function"
    },
    {
      "inputs": [
        {
          "internalType": "uint256",
          "name": "",
          "type": "uint256"
        }
      ],
      "name": "pesticides",
      "outputs": [
        {
          "internalType": "uint256",
          "name": "id",
          "type": "uint256"
        },
        {
          "internalType": "uint256",
          "name": "producer_id",
          "type": "uint256"
        },
        {
          "internalType": "string",
          "name": "producer_name",
          "type": "string"
        },
        {
          "internalType": "string",
          "name": "name",
          "type": "string"
        },
        {
          "internalType": "uint256",
          "name": "quantity",
          "type": "uint256"
        },
        {
          "internalType": "string",
          "name": "ingredient",
          "type": "string"
        },
        {
          "internalType": "string",
          "name": "batchno",
          "type": "string"
        },
        {
          "internalType": "string",
          "name": "manufacture_date",
          "type": "string"
        },
        {
          "internalType": "string",
          "name": "expiry_date",
          "type": "string"
        }
      ],
      "stateMutability": "view",
      "type": "function"
    },
    {
      "inputs": [
        {
          "internalType": "uint256",
          "name": "",
          "type": "uint256"
        }
      ],
      "name": "pesticidesDistributor",
      "outputs": [
        {
          "internalType": "uint256",
          "name": "id",
          "type": "uint256"
        },
        {
          "internalType": "uint256",
          "name": "distributor_id",
          "type": "uint256"
        },
        {
          "internalType": "uint256",
          "name": "pesticide_id",
          "type": "uint256"
        }
      ],
      "stateMutability": "view",
      "type": "function"
    },
    {
      "inputs": [
        {
          "internalType": "uint256",
          "name": "",
          "type": "uint256"
        }
      ],
      "name": "pesticidesFarmer",
      "outputs": [
        {
          "internalType": "uint256",
          "name": "id",
          "type": "uint256"
        },
        {
          "internalType": "uint256",
          "name": "farmer_id",
          "type": "uint256"
        },
        {
          "internalType": "uint256",
          "name": "pesticide_id",
          "type": "uint256"
        }
      ],
      "stateMutability": "view",
      "type": "function"
    },
    {
      "inputs": [],
      "name": "producerCount",
      "outputs": [
        {
          "internalType": "uint256",
          "name": "",
          "type": "uint256"
        }
      ],
      "stateMutability": "view",
      "type": "function"
    },
    {
      "inputs": [
        {
          "internalType": "uint256",
          "name": "",
          "type": "uint256"
        }
      ],
      "name": "producers",
      "outputs": [
        {
          "internalType": "uint256",
          "name": "id",
          "type": "uint256"
        },
        {
          "internalType": "string",
          "name": "name",
          "type": "string"
        },
        {
          "internalType": "string",
          "name": "dealer_name",
          "type": "string"
        }
      ],
      "stateMutability": "view",
      "type": "function"
    }
  ],
  "bytecode": "0x6080604052600060085560006009556000600a556000600b556000600c553480156200002a57600080fd5b506040518060400160405280600981526020017f4f70656e4669656c6400000000000000000000000000000000000000000000008152506000908162000071919062000faa565b50600160096000828254620000879190620010c0565b9250508190555060006002600060095481526020019081526020016000209050600181600001819055506040518060400160405280600881526020017f534f6d6520504c54000000000000000000000000000000000000000000000000815250816001019081620000f9919062000faa565b506040518060400160405280600e81526020017f4465616c6572206e616d6565656500000000000000000000000000000000000081525081600201908162000142919062000faa565b50600160096000828254620001589190620010c0565b9250508190555060006002600060095481526020019081526020016000209050600281600001819055506040518060400160405280600381526020017f504c540000000000000000000000000000000000000000000000000000000000815250816001019081620001ca919062000faa565b506040518060400160405280600881526020017f206e616d6565656500000000000000000000000000000000000000000000000081525081600201908162000213919062000faa565b506200036c600160646040518060400160405280601181526020017f46657274696c697a6572206e616d6520310000000000000000000000000000008152506040518060400160405280600981526020017f70726f64756365723100000000000000000000000000000000000000000000008152506040518060400160405280600481526020017f41424344000000000000000000000000000000000000000000000000000000008152506040518060400160405280600481526020017f42303031000000000000000000000000000000000000000000000000000000008152506040518060400160405280600a81526020017f31362f31322f32303032000000000000000000000000000000000000000000008152506040518060400160405280600981526020017f372f30332f32303033000000000000000000000000000000000000000000000081525062000a9c60201b60201c565b620004c4600160646040518060400160405280601181526020017f46657274696c697a6572206e616d6520310000000000000000000000000000008152506040518060400160405280600981526020017f70726f64756365723100000000000000000000000000000000000000000000008152506040518060400160405280600281526020017f63640000000000000000000000000000000000000000000000000000000000008152506040518060400160405280600481526020017f42303031000000000000000000000000000000000000000000000000000000008152506040518060400160405280600a81526020017f31362f31322f32303032000000000000000000000000000000000000000000008152506040518060400160405280600981526020017f372f30332f32303033000000000000000000000000000000000000000000000081525062000a9c60201b60201c565b6200061c600560646040518060400160405280601181526020017f46657274696c697a6572206e616d6520310000000000000000000000000000008152506040518060400160405280600981526020017f70726f64756365723100000000000000000000000000000000000000000000008152506040518060400160405280600481526020017f41424344000000000000000000000000000000000000000000000000000000008152506040518060400160405280600481526020017f42303031000000000000000000000000000000000000000000000000000000008152506040518060400160405280600a81526020017f31362f31322f32303032000000000000000000000000000000000000000000008152506040518060400160405280600981526020017f372f30332f32303033000000000000000000000000000000000000000000000081525062000a9c60201b60201c565b6200073a6040518060400160405280600881526020017f53726565686172690000000000000000000000000000000000000000000000008152506040518060400160405280600a81526020017f39393939393939393939000000000000000000000000000000000000000000008152506040518060400160405280600681526020017f6b616e6e757200000000000000000000000000000000000000000000000000008152506040518060400160405280600381526020017f34352500000000000000000000000000000000000000000000000000000000008152506040518060400160405280600381526020017f323025000000000000000000000000000000000000000000000000000000000081525062000c0260201b60201c565b620008586040518060400160405280600681526020017f41736877696e00000000000000000000000000000000000000000000000000008152506040518060400160405280600a81526020017f39393939393939393939000000000000000000000000000000000000000000008152506040518060400160405280600681526020017f6b6f6c6c616d00000000000000000000000000000000000000000000000000008152506040518060400160405280600381526020017f34352500000000000000000000000000000000000000000000000000000000008152506040518060400160405280600381526020017f353025000000000000000000000000000000000000000000000000000000000081525062000c0260201b60201c565b620009766040518060400160405280600581526020017f41736865720000000000000000000000000000000000000000000000000000008152506040518060400160405280600a81526020017f39393939393939393939000000000000000000000000000000000000000000008152506040518060400160405280600381526020017f69646b00000000000000000000000000000000000000000000000000000000008152506040518060400160405280600381526020017f34352500000000000000000000000000000000000000000000000000000000008152506040518060400160405280600381526020017f313025000000000000000000000000000000000000000000000000000000000081525062000c0260201b60201c565b62000a946040518060400160405280600581526020017f4e6f6f68610000000000000000000000000000000000000000000000000000008152506040518060400160405280600a81526020017f39393939393939393939000000000000000000000000000000000000000000008152506040518060400160405280600481526020017f536f6d65000000000000000000000000000000000000000000000000000000008152506040518060400160405280600381526020017f34352500000000000000000000000000000000000000000000000000000000008152506040518060400160405280600381526020017f333025000000000000000000000000000000000000000000000000000000000081525062000c0260201b60201c565b50506200144e565b600086511162000aab57600080fd5b600085511162000aba57600080fd5b600084511162000ac957600080fd5b600083511162000ad857600080fd5b600082511162000ae757600080fd5b600081511162000af657600080fd5b600c600081548092919062000b0b90620010fb565b9190505550600060066000600c5481526020019081526020016000209050600c5481600001819055508881600101819055508681600301908162000b50919062000faa565b508581600201908162000b64919062000faa565b508781600401819055508481600501908162000b81919062000faa565b508381600601908162000b95919062000faa565b508281600701908162000ba9919062000faa565b508181600801908162000bbd919062000faa565b507fedde1f77670c495bdd95aa0a5818afb5b25c0110fec0cf231934b4069dbef6a18160405162000bef91906200134b565b60405180910390a1505050505050505050565b600085511162000c1157600080fd5b600084511162000c2057600080fd5b600083511162000c2f57600080fd5b600082511162000c3e57600080fd5b600081511162000c4d57600080fd5b6008600081548092919062000c6290620010fb565b91905055506000600160006008548152602001908152602001600020905060085481600001819055508581600101908162000c9e919062000faa565b508481600501908162000cb2919062000faa565b508381600201908162000cc6919062000faa565b508281600301908162000cda919062000faa565b508181600401908162000cee919062000faa565b507f8a393f24b50f96cb78dcfb57a53c4c8979f03a0c93941ff9576c05c14a9465cf8160405162000d2091906200142a565b60405180910390a1505050505050565b600081519050919050565b7f4e487b7100000000000000000000000000000000000000000000000000000000600052604160045260246000fd5b7f4e487b7100000000000000000000000000000000000000000000000000000000600052602260045260246000fd5b6000600282049050600182168062000db257607f821691505b60208210810362000dc85762000dc762000d6a565b5b50919050565b60008190508160005260206000209050919050565b60006020601f8301049050919050565b600082821b905092915050565b60006008830262000e327fffffffffffffffffffffffffffffffffffffffffffffffffffffffffffffffff8262000df3565b62000e3e868362000df3565b95508019841693508086168417925050509392505050565b6000819050919050565b6000819050919050565b600062000e8b62000e8562000e7f8462000e56565b62000e60565b62000e56565b9050919050565b6000819050919050565b62000ea78362000e6a565b62000ebf62000eb68262000e92565b84845462000e00565b825550505050565b600090565b62000ed662000ec7565b62000ee381848462000e9c565b505050565b5b8181101562000f0b5762000eff60008262000ecc565b60018101905062000ee9565b5050565b601f82111562000f5a5762000f248162000dce565b62000f2f8462000de3565b8101602085101562000f3f578190505b62000f5762000f4e8562000de3565b83018262000ee8565b50505b505050565b600082821c905092915050565b600062000f7f6000198460080262000f5f565b1980831691505092915050565b600062000f9a838362000f6c565b9150826002028217905092915050565b62000fb58262000d30565b67ffffffffffffffff81111562000fd15762000fd062000d3b565b5b62000fdd825462000d99565b62000fea82828562000f0f565b600060209050601f8311600181146200102257600084156200100d578287015190505b62001019858262000f8c565b86555062001089565b601f198416620010328662000dce565b60005b828110156200105c5784890151825560018201915060208501945060208101905062001035565b868310156200107c578489015162001078601f89168262000f6c565b8355505b6001600288020188555050505b505050505050565b7f4e487b7100000000000000000000000000000000000000000000000000000000600052601160045260246000fd5b6000620010cd8262000e56565b9150620010da8362000e56565b9250828201905080821115620010f557620010f462001091565b5b92915050565b6000620011088262000e56565b91507fffffffffffffffffffffffffffffffffffffffffffffffffffffffffffffffff82036200113d576200113c62001091565b5b600182019050919050565b60008160001c9050919050565b6000819050919050565b600062001176620011708362001148565b62001155565b9050919050565b620011888162000e56565b82525050565b600082825260208201905092915050565b60008154620011ae8162000d99565b620011ba81866200118e565b94506001821660008114620011d85760018114620011ef5762001226565b60ff19831686528115156020028601935062001226565b620011fa8562000dce565b60005b838110156200121e57815481890152600182019150602081019050620011fd565b808801955050505b50505092915050565b60006101208301600080840154905062001249816200115f565b6200125860008701826200117d565b50600184015490506200126b816200115f565b6200127a60208701826200117d565b506002840185830360408701526200129383826200119f565b925050600384018583036060870152620012ae83826200119f565b92505060048401549050620012c3816200115f565b620012d260808701826200117d565b506005840185830360a0870152620012eb83826200119f565b9250506006840185830360c08701526200130683826200119f565b9250506007840185830360e08701526200132183826200119f565b925050600884018583036101008701526200133d83826200119f565b925050819250505092915050565b600060208201905081810360008301526200136781846200122f565b905092915050565b600060c08301600080840154905062001388816200115f565b6200139760008701826200117d565b50600184018583036020870152620013b083826200119f565b925050600284018583036040870152620013cb83826200119f565b925050600384018583036060870152620013e683826200119f565b9250506004840185830360808701526200140183826200119f565b9250506005840185830360a08701526200141c83826200119f565b925050819250505092915050565b600060208201905081810360008301526200144681846200136f565b905092915050565b6134ac806200145e6000396000f3fe608060405234801561001057600080fd5b50600436106101215760003560e01c80638afdd669116100ad578063dc1e392c11610071578063dc1e392c14610349578063dfd55a2c1461037b578063e80a7eb914610399578063ecb22baa146103b7578063f71afe33146103d557610121565b80638afdd6691461028a578063961e89b8146102bf5780639b68ade7146102db578063bd45b3971461030d578063d708fe5b1461032b57610121565b806350b492ba116100f457806350b492ba146101b2578063536954e4146101e657806370c9f1a5146102045780637ee49d911461023657806380507b2a1461026e57610121565b806306fdde031461012657806318c7833f14610144578063279115ea14610176578063458a130814610194575b600080fd5b61012e610405565b60405161013b919061226a565b60405180910390f35b61015e600480360381019061015991906122d6565b610493565b60405161016d93929190612312565b60405180910390f35b61017e6104bd565b60405161018b919061254c565b60405180910390f35b61019c61092b565b6040516101a9919061256e565b60405180910390f35b6101cc60048036038101906101c791906122d6565b610931565b6040516101dd959493929190612589565b60405180910390f35b6101ee610b87565b6040516101fb919061275f565b60405180910390f35b61021e600480360381019061021991906122d6565b610f4e565b60405161022d93929190612781565b60405180910390f35b610250600480360381019061024b91906122d6565b611000565b604051610265999897969594939291906127bf565b60405180910390f35b610288600480360381019061028391906129ab565b61137e565b005b6102a4600480360381019061029f91906122d6565b6114ce565b6040516102b696959493929190612b09565b60405180910390f35b6102d960048036038101906102d49190612b8d565b6117b2565b005b6102f560048036038101906102f091906122d6565b6118cd565b60405161030493929190612c94565b60405180910390f35b610315611a07565b604051610322919061256e565b60405180910390f35b610333611a0d565b604051610340919061256e565b60405180910390f35b610363600480360381019061035e91906122d6565b611a13565b60405161037293929190612312565b60405180910390f35b610383611a3d565b604051610390919061256e565b60405180910390f35b6103a1611a43565b6040516103ae9190612df2565b60405180910390f35b6103bf611c54565b6040516103cc919061256e565b60405180910390f35b6103ef60048036038101906103ea91906122d6565b611c5a565b6040516103fc919061254c565b60405180910390f35b6000805461041290612e43565b80601f016020809104026020016040519081016040528092919081815260200182805461043e90612e43565b801561048b5780601f106104605761010080835404028352916020019161048b565b820191906000526020600020905b81548152906001019060200180831161046e57829003601f168201915b505050505081565b60076020528060005260406000206000915090508060000154908060010154908060020154905083565b6060600080600c5467ffffffffffffffff8111156104de576104dd612880565b5b60405190808252806020026020018201604052801561051757816020015b610504612137565b8152602001906001900390816104fc5790505b50905060005b600c548110156109225760006001826105369190612ea3565b905060006006600083815260200190815260200160002090508060405180610120016040529081600082015481526020016001820154815260200160028201805461058090612e43565b80601f01602080910402602001604051908101604052809291908181526020018280546105ac90612e43565b80156105f95780601f106105ce576101008083540402835291602001916105f9565b820191906000526020600020905b8154815290600101906020018083116105dc57829003601f168201915b5050505050815260200160038201805461061290612e43565b80601f016020809104026020016040519081016040528092919081815260200182805461063e90612e43565b801561068b5780601f106106605761010080835404028352916020019161068b565b820191906000526020600020905b81548152906001019060200180831161066e57829003601f168201915b50505050508152602001600482015481526020016005820180546106ae90612e43565b80601f01602080910402602001604051908101604052809291908181526020018280546106da90612e43565b80156107275780601f106106fc57610100808354040283529160200191610727565b820191906000526020600020905b81548152906001019060200180831161070a57829003601f168201915b5050505050815260200160068201805461074090612e43565b80601f016020809104026020016040519081016040528092919081815260200182805461076c90612e43565b80156107b95780601f1061078e576101008083540402835291602001916107b9565b820191906000526020600020905b81548152906001019060200180831161079c57829003601f168201915b505050505081526020016007820180546107d290612e43565b80601f01602080910402602001604051908101604052809291908181526020018280546107fe90612e43565b801561084b5780601f106108205761010080835404028352916020019161084b565b820191906000526020600020905b81548152906001019060200180831161082e57829003601f168201915b5050505050815260200160088201805461086490612e43565b80601f016020809104026020016040519081016040528092919081815260200182805461089090612e43565b80156108dd5780601f106108b2576101008083540402835291602001916108dd565b820191906000526020600020905b8154815290600101906020018083116108c057829003601f168201915b5050505050815250508486815181106108f9576108f8612ed7565b5b60200260200101819052506001856109119190612ea3565b94505050808060010191505061051d565b50809250505090565b600b5481565b600360205280600052604060002060009150905080600001549080600101805461095a90612e43565b80601f016020809104026020016040519081016040528092919081815260200182805461098690612e43565b80156109d35780601f106109a8576101008083540402835291602001916109d3565b820191906000526020600020905b8154815290600101906020018083116109b657829003601f168201915b5050505050908060020180546109e890612e43565b80601f0160208091040260200160405190810160405280929190818152602001828054610a1490612e43565b8015610a615780601f10610a3657610100808354040283529160200191610a61565b820191906000526020600020905b815481529060010190602001808311610a4457829003601f168201915b505050505090806003018054610a7690612e43565b80601f0160208091040260200160405190810160405280929190818152602001828054610aa290612e43565b8015610aef5780601f10610ac457610100808354040283529160200191610aef565b820191906000526020600020905b815481529060010190602001808311610ad257829003601f168201915b505050505090806004018054610b0490612e43565b80601f0160208091040260200160405190810160405280929190818152602001828054610b3090612e43565b8015610b7d5780601f10610b5257610100808354040283529160200191610b7d565b820191906000526020600020905b815481529060010190602001808311610b6057829003601f168201915b5050505050905085565b606060008060085467ffffffffffffffff811115610ba857610ba7612880565b5b604051908082528060200260200182016040528015610be157816020015b610bce612183565b815260200190600190039081610bc65790505b50905060005b600854811015610f45576000600182610c009190612ea3565b90506000600160008381526020019081526020016000209050806040518060c001604052908160008201548152602001600182018054610c3f90612e43565b80601f0160208091040260200160405190810160405280929190818152602001828054610c6b90612e43565b8015610cb85780601f10610c8d57610100808354040283529160200191610cb8565b820191906000526020600020905b815481529060010190602001808311610c9b57829003601f168201915b50505050508152602001600282018054610cd190612e43565b80601f0160208091040260200160405190810160405280929190818152602001828054610cfd90612e43565b8015610d4a5780601f10610d1f57610100808354040283529160200191610d4a565b820191906000526020600020905b815481529060010190602001808311610d2d57829003601f168201915b50505050508152602001600382018054610d6390612e43565b80601f0160208091040260200160405190810160405280929190818152602001828054610d8f90612e43565b8015610ddc5780601f10610db157610100808354040283529160200191610ddc565b820191906000526020600020905b815481529060010190602001808311610dbf57829003601f168201915b50505050508152602001600482018054610df590612e43565b80601f0160208091040260200160405190810160405280929190818152602001828054610e2190612e43565b8015610e6e5780601f10610e4357610100808354040283529160200191610e6e565b820191906000526020600020905b815481529060010190602001808311610e5157829003601f168201915b50505050508152602001600582018054610e8790612e43565b80601f0160208091040260200160405190810160405280929190818152602001828054610eb390612e43565b8015610f005780601f10610ed557610100808354040283529160200191610f00565b820191906000526020600020905b815481529060010190602001808311610ee357829003601f168201915b505050505081525050848681518110610f1c57610f1b612ed7565b5b6020026020010181905250600185610f349190612ea3565b945050508080600101915050610be7565b50809250505090565b6004602052806000526040600020600091509050806000015490806001015490806002018054610f7d90612e43565b80601f0160208091040260200160405190810160405280929190818152602001828054610fa990612e43565b8015610ff65780601f10610fcb57610100808354040283529160200191610ff6565b820191906000526020600020905b815481529060010190602001808311610fd957829003601f168201915b5050505050905083565b600660205280600052604060002060009150905080600001549080600101549080600201805461102f90612e43565b80601f016020809104026020016040519081016040528092919081815260200182805461105b90612e43565b80156110a85780601f1061107d576101008083540402835291602001916110a8565b820191906000526020600020905b81548152906001019060200180831161108b57829003601f168201915b5050505050908060030180546110bd90612e43565b80601f01602080910402602001604051908101604052809291908181526020018280546110e990612e43565b80156111365780601f1061110b57610100808354040283529160200191611136565b820191906000526020600020905b81548152906001019060200180831161111957829003601f168201915b50505050509080600401549080600501805461115190612e43565b80601f016020809104026020016040519081016040528092919081815260200182805461117d90612e43565b80156111ca5780601f1061119f576101008083540402835291602001916111ca565b820191906000526020600020905b8154815290600101906020018083116111ad57829003601f168201915b5050505050908060060180546111df90612e43565b80601f016020809104026020016040519081016040528092919081815260200182805461120b90612e43565b80156112585780601f1061122d57610100808354040283529160200191611258565b820191906000526020600020905b81548152906001019060200180831161123b57829003601f168201915b50505050509080600701805461126d90612e43565b80601f016020809104026020016040519081016040528092919081815260200182805461129990612e43565b80156112e65780601f106112bb576101008083540402835291602001916112e6565b820191906000526020600020905b8154815290600101906020018083116112c957829003601f168201915b5050505050908060080180546112fb90612e43565b80601f016020809104026020016040519081016040528092919081815260200182805461132790612e43565b80156113745780601f1061134957610100808354040283529160200191611374565b820191906000526020600020905b81548152906001019060200180831161135757829003601f168201915b5050505050905089565b600086511161138c57600080fd5b600085511161139a57600080fd5b60008451116113a857600080fd5b60008351116113b657600080fd5b60008251116113c457600080fd5b60008151116113d257600080fd5b600c60008154809291906113e590612f06565b9190505550600060066000600c5481526020019081526020016000209050600c5481600001819055508881600101819055508681600301908161142891906130fa565b508581600201908161143a91906130fa565b508781600401819055508481600501908161145591906130fa565b508381600601908161146791906130fa565b508281600701908161147991906130fa565b508181600801908161148b91906130fa565b507fedde1f77670c495bdd95aa0a5818afb5b25c0110fec0cf231934b4069dbef6a1816040516114bb9190613385565b60405180910390a1505050505050505050565b60016020528060005260406000206000915090508060000154908060010180546114f790612e43565b80601f016020809104026020016040519081016040528092919081815260200182805461152390612e43565b80156115705780601f1061154557610100808354040283529160200191611570565b820191906000526020600020905b81548152906001019060200180831161155357829003601f168201915b50505050509080600201805461158590612e43565b80601f01602080910402602001604051908101604052809291908181526020018280546115b190612e43565b80156115fe5780601f106115d3576101008083540402835291602001916115fe565b820191906000526020600020905b8154815290600101906020018083116115e157829003601f168201915b50505050509080600301805461161390612e43565b80601f016020809104026020016040519081016040528092919081815260200182805461163f90612e43565b801561168c5780601f106116615761010080835404028352916020019161168c565b820191906000526020600020905b81548152906001019060200180831161166f57829003601f168201915b5050505050908060040180546116a190612e43565b80601f01602080910402602001604051908101604052809291908181526020018280546116cd90612e43565b801561171a5780601f106116ef5761010080835404028352916020019161171a565b820191906000526020600020905b8154815290600101906020018083116116fd57829003601f168201915b50505050509080600501805461172f90612e43565b80601f016020809104026020016040519081016040528092919081815260200182805461175b90612e43565b80156117a85780601f1061177d576101008083540402835291602001916117a8565b820191906000526020600020905b81548152906001019060200180831161178b57829003601f168201915b5050505050905086565b60008551116117c057600080fd5b60008451116117ce57600080fd5b60008351116117dc57600080fd5b60008251116117ea57600080fd5b60008151116117f857600080fd5b6008600081548092919061180b90612f06565b91905055506000600160006008548152602001908152602001600020905060085481600001819055508581600101908161184591906130fa565b508481600501908161185791906130fa565b508381600201908161186991906130fa565b508281600301908161187b91906130fa565b508181600401908161188d91906130fa565b507f8a393f24b50f96cb78dcfb57a53c4c8979f03a0c93941ff9576c05c14a9465cf816040516118bd9190613454565b60405180910390a1505050505050565b60026020528060005260406000206000915090508060000154908060010180546118f690612e43565b80601f016020809104026020016040519081016040528092919081815260200182805461192290612e43565b801561196f5780601f106119445761010080835404028352916020019161196f565b820191906000526020600020905b81548152906001019060200180831161195257829003601f168201915b50505050509080600201805461198490612e43565b80601f01602080910402602001604051908101604052809291908181526020018280546119b090612e43565b80156119fd5780601f106119d2576101008083540402835291602001916119fd565b820191906000526020600020905b8154815290600101906020018083116119e057829003601f168201915b5050505050905083565b60085481565b60095481565b60056020528060005260406000206000915090508060000154908060010154908060020154905083565b600a5481565b606060008060095467ffffffffffffffff811115611a6457611a63612880565b5b604051908082528060200260200182016040528015611a9d57816020015b611a8a6121b9565b815260200190600190039081611a825790505b50905060005b600954811015611c4b576000600182611abc9190612ea3565b905060006002600083815260200190815260200160002090508060405180606001604052908160008201548152602001600182018054611afb90612e43565b80601f0160208091040260200160405190810160405280929190818152602001828054611b2790612e43565b8015611b745780601f10611b4957610100808354040283529160200191611b74565b820191906000526020600020905b815481529060010190602001808311611b5757829003601f168201915b50505050508152602001600282018054611b8d90612e43565b80601f0160208091040260200160405190810160405280929190818152602001828054611bb990612e43565b8015611c065780601f10611bdb57610100808354040283529160200191611c06565b820191906000526020600020905b815481529060010190602001808311611be957829003601f168201915b505050505081525050848681518110611c2257611c21612ed7565b5b6020026020010181905250600185611c3a9190612ea3565b945050508080600101915050611aa3565b50809250505090565b600c5481565b606060008060005b600c54811015611cbe576000600182611c7b9190612ea3565b9050600060066000838152602001908152602001600020905086816001015403611caf57600184611cac9190612ea3565b93505b50508080600101915050611c62565b5060008167ffffffffffffffff811115611cdb57611cda612880565b5b604051908082528060200260200182016040528015611d1457816020015b611d01612137565b815260200190600190039081611cf95790505b50905060005b600c5481101561212b576000600182611d339190612ea3565b905060006006600083815260200190815260200160002090508781600101540361211c5780604051806101200160405290816000820154815260200160018201548152602001600282018054611d8890612e43565b80601f0160208091040260200160405190810160405280929190818152602001828054611db490612e43565b8015611e015780601f10611dd657610100808354040283529160200191611e01565b820191906000526020600020905b815481529060010190602001808311611de457829003601f168201915b50505050508152602001600382018054611e1a90612e43565b80601f0160208091040260200160405190810160405280929190818152602001828054611e4690612e43565b8015611e935780601f10611e6857610100808354040283529160200191611e93565b820191906000526020600020905b815481529060010190602001808311611e7657829003601f168201915b5050505050815260200160048201548152602001600582018054611eb690612e43565b80601f0160208091040260200160405190810160405280929190818152602001828054611ee290612e43565b8015611f2f5780601f10611f0457610100808354040283529160200191611f2f565b820191906000526020600020905b815481529060010190602001808311611f1257829003601f168201915b50505050508152602001600682018054611f4890612e43565b80601f0160208091040260200160405190810160405280929190818152602001828054611f7490612e43565b8015611fc15780601f10611f9657610100808354040283529160200191611fc1565b820191906000526020600020905b815481529060010190602001808311611fa457829003601f168201915b50505050508152602001600782018054611fda90612e43565b80601f016020809104026020016040519081016040528092919081815260200182805461200690612e43565b80156120535780601f1061202857610100808354040283529160200191612053565b820191906000526020600020905b81548152906001019060200180831161203657829003601f168201915b5050505050815260200160088201805461206c90612e43565b80601f016020809104026020016040519081016040528092919081815260200182805461209890612e43565b80156120e55780601f106120ba576101008083540402835291602001916120e5565b820191906000526020600020905b8154815290600101906020018083116120c857829003601f168201915b50505050508152505084878151811061210157612100612ed7565b5b60200260200101819052506001866121199190612ea3565b95505b50508080600101915050611d1a565b50809350505050919050565b6040518061012001604052806000815260200160008152602001606081526020016060815260200160008152602001606081526020016060815260200160608152602001606081525090565b6040518060c001604052806000815260200160608152602001606081526020016060815260200160608152602001606081525090565b60405180606001604052806000815260200160608152602001606081525090565b600081519050919050565b600082825260208201905092915050565b60005b838110156122145780820151818401526020810190506121f9565b60008484015250505050565b6000601f19601f8301169050919050565b600061223c826121da565b61224681856121e5565b93506122568185602086016121f6565b61225f81612220565b840191505092915050565b600060208201905081810360008301526122848184612231565b905092915050565b6000604051905090565b600080fd5b600080fd5b6000819050919050565b6122b3816122a0565b81146122be57600080fd5b50565b6000813590506122d0816122aa565b92915050565b6000602082840312156122ec576122eb612296565b5b60006122fa848285016122c1565b91505092915050565b61230c816122a0565b82525050565b60006060820190506123276000830186612303565b6123346020830185612303565b6123416040830184612303565b949350505050565b600081519050919050565b600082825260208201905092915050565b6000819050602082019050919050565b61237e816122a0565b82525050565b600082825260208201905092915050565b60006123a0826121da565b6123aa8185612384565b93506123ba8185602086016121f6565b6123c381612220565b840191505092915050565b6000610120830160008301516123e76000860182612375565b5060208301516123fa6020860182612375565b50604083015184820360408601526124128282612395565b9150506060830151848203606086015261242c8282612395565b91505060808301516124416080860182612375565b5060a083015184820360a08601526124598282612395565b91505060c083015184820360c08601526124738282612395565b91505060e083015184820360e086015261248d8282612395565b9150506101008301518482036101008601526124a98282612395565b9150508091505092915050565b60006124c283836123ce565b905092915050565b6000602082019050919050565b60006124e282612349565b6124ec8185612354565b9350836020820285016124fe85612365565b8060005b8581101561253a578484038952815161251b85826124b6565b9450612526836124ca565b925060208a01995050600181019050612502565b50829750879550505050505092915050565b6000602082019050818103600083015261256681846124d7565b905092915050565b60006020820190506125836000830184612303565b92915050565b600060a08201905061259e6000830188612303565b81810360208301526125b08187612231565b905081810360408301526125c48186612231565b905081810360608301526125d88185612231565b905081810360808301526125ec8184612231565b90509695505050505050565b600081519050919050565b600082825260208201905092915050565b6000819050602082019050919050565b600060c08301600083015161263c6000860182612375565b50602083015184820360208601526126548282612395565b9150506040830151848203604086015261266e8282612395565b915050606083015184820360608601526126888282612395565b915050608083015184820360808601526126a28282612395565b91505060a083015184820360a08601526126bc8282612395565b9150508091505092915050565b60006126d58383612624565b905092915050565b6000602082019050919050565b60006126f5826125f8565b6126ff8185612603565b93508360208202850161271185612614565b8060005b8581101561274d578484038952815161272e85826126c9565b9450612739836126dd565b925060208a01995050600181019050612715565b50829750879550505050505092915050565b6000602082019050818103600083015261277981846126ea565b905092915050565b60006060820190506127966000830186612303565b6127a36020830185612303565b81810360408301526127b58184612231565b9050949350505050565b6000610120820190506127d5600083018c612303565b6127e2602083018b612303565b81810360408301526127f4818a612231565b905081810360608301526128088189612231565b90506128176080830188612303565b81810360a08301526128298187612231565b905081810360c083015261283d8186612231565b905081810360e08301526128518185612231565b90508181036101008301526128668184612231565b90509a9950505050505050505050565b600080fd5b600080fd5b7f4e487b7100000000000000000000000000000000000000000000000000000000600052604160045260246000fd5b6128b882612220565b810181811067ffffffffffffffff821117156128d7576128d6612880565b5b80604052505050565b60006128ea61228c565b90506128f682826128af565b919050565b600067ffffffffffffffff82111561291657612915612880565b5b61291f82612220565b9050602081019050919050565b82818337600083830152505050565b600061294e612949846128fb565b6128e0565b90508281526020810184848401111561296a5761296961287b565b5b61297584828561292c565b509392505050565b600082601f83011261299257612991612876565b5b81356129a284826020860161293b565b91505092915050565b600080600080600080600080610100898b0312156129cc576129cb612296565b5b60006129da8b828c016122c1565b98505060206129eb8b828c016122c1565b975050604089013567ffffffffffffffff811115612a0c57612a0b61229b565b5b612a188b828c0161297d565b965050606089013567ffffffffffffffff811115612a3957612a3861229b565b5b612a458b828c0161297d565b955050608089013567ffffffffffffffff811115612a6657612a6561229b565b5b612a728b828c0161297d565b94505060a089013567ffffffffffffffff811115612a9357612a9261229b565b5b612a9f8b828c0161297d565b93505060c089013567ffffffffffffffff811115612ac057612abf61229b565b5b612acc8b828c0161297d565b92505060e089013567ffffffffffffffff811115612aed57612aec61229b565b5b612af98b828c0161297d565b9150509295985092959890939650565b600060c082019050612b1e6000830189612303565b8181036020830152612b308188612231565b90508181036040830152612b448187612231565b90508181036060830152612b588186612231565b90508181036080830152612b6c8185612231565b905081810360a0830152612b808184612231565b9050979650505050505050565b600080600080600060a08688031215612ba957612ba8612296565b5b600086013567ffffffffffffffff811115612bc757612bc661229b565b5b612bd38882890161297d565b955050602086013567ffffffffffffffff811115612bf457612bf361229b565b5b612c008882890161297d565b945050604086013567ffffffffffffffff811115612c2157612c2061229b565b5b612c2d8882890161297d565b935050606086013567ffffffffffffffff811115612c4e57612c4d61229b565b5b612c5a8882890161297d565b925050608086013567ffffffffffffffff811115612c7b57612c7a61229b565b5b612c878882890161297d565b9150509295509295909350565b6000606082019050612ca96000830186612303565b8181036020830152612cbb8185612231565b90508181036040830152612ccf8184612231565b9050949350505050565b600081519050919050565b600082825260208201905092915050565b6000819050602082019050919050565b6000606083016000830151612d1d6000860182612375565b5060208301518482036020860152612d358282612395565b91505060408301518482036040860152612d4f8282612395565b9150508091505092915050565b6000612d688383612d05565b905092915050565b6000602082019050919050565b6000612d8882612cd9565b612d928185612ce4565b935083602082028501612da485612cf5565b8060005b85811015612de05784840389528151612dc18582612d5c565b9450612dcc83612d70565b925060208a01995050600181019050612da8565b50829750879550505050505092915050565b60006020820190508181036000830152612e0c8184612d7d565b905092915050565b7f4e487b7100000000000000000000000000000000000000000000000000000000600052602260045260246000fd5b60006002820490506001821680612e5b57607f821691505b602082108103612e6e57612e6d612e14565b5b50919050565b7f4e487b7100000000000000000000000000000000000000000000000000000000600052601160045260246000fd5b6000612eae826122a0565b9150612eb9836122a0565b9250828201905080821115612ed157612ed0612e74565b5b92915050565b7f4e487b7100000000000000000000000000000000000000000000000000000000600052603260045260246000fd5b6000612f11826122a0565b91507fffffffffffffffffffffffffffffffffffffffffffffffffffffffffffffffff8203612f4357612f42612e74565b5b600182019050919050565b60008190508160005260206000209050919050565b60006020601f8301049050919050565b600082821b905092915050565b600060088302612fb07fffffffffffffffffffffffffffffffffffffffffffffffffffffffffffffffff82612f73565b612fba8683612f73565b95508019841693508086168417925050509392505050565b6000819050919050565b6000612ff7612ff2612fed846122a0565b612fd2565b6122a0565b9050919050565b6000819050919050565b61301183612fdc565b61302561301d82612ffe565b848454612f80565b825550505050565b600090565b61303a61302d565b613045818484613008565b505050565b5b818110156130695761305e600082613032565b60018101905061304b565b5050565b601f8211156130ae5761307f81612f4e565b61308884612f63565b81016020851015613097578190505b6130ab6130a385612f63565b83018261304a565b50505b505050565b600082821c905092915050565b60006130d1600019846008026130b3565b1980831691505092915050565b60006130ea83836130c0565b9150826002028217905092915050565b613103826121da565b67ffffffffffffffff81111561311c5761311b612880565b5b6131268254612e43565b61313182828561306d565b600060209050601f8311600181146131645760008415613152578287015190505b61315c85826130de565b8655506131c4565b601f19841661317286612f4e565b60005b8281101561319a57848901518255600182019150602085019450602081019050613175565b868310156131b757848901516131b3601f8916826130c0565b8355505b6001600288020188555050505b505050505050565b60008160001c9050919050565b6000819050919050565b60006131f66131f1836131cc565b6131d9565b9050919050565b6000815461320a81612e43565b6132148186612384565b9450600182166000811461322f576001811461324557613278565b60ff198316865281151560200286019350613278565b61324e85612f4e565b60005b8381101561327057815481890152600182019150602081019050613251565b808801955050505b50505092915050565b600061012083016000808401549050613299816131e3565b6132a66000870182612375565b50600184015490506132b7816131e3565b6132c46020870182612375565b506002840185830360408701526132db83826131fd565b9250506003840185830360608701526132f483826131fd565b92505060048401549050613307816131e3565b6133146080870182612375565b506005840185830360a087015261332b83826131fd565b9250506006840185830360c087015261334483826131fd565b9250506007840185830360e087015261335d83826131fd565b9250506008840185830361010087015261337783826131fd565b925050819250505092915050565b6000602082019050818103600083015261339f8184613281565b905092915050565b600060c0830160008084015490506133be816131e3565b6133cb6000870182612375565b506001840185830360208701526133e283826131fd565b9250506002840185830360408701526133fb83826131fd565b92505060038401858303606087015261341483826131fd565b92505060048401858303608087015261342d83826131fd565b9250506005840185830360a087015261344683826131fd565b925050819250505092915050565b6000602082019050818103600083015261346e81846133a7565b90509291505056fea26469706673582212200815617364b5fb062837ed73915f5b8cc16fac02099e504fc5cefaedef845ce364736f6c63430008180033",
  "linkReferences": {},
  "deployedLinkReferences": {}
}