{"contracts/OpenField.sol":{"OpenField":{"abi":[{"inputs":[],"stateMutability":"nonpayable","type":"constructor"},{"anonymous":false,"inputs":[{"components":[{"internalType":"uint256","name":"id","type":"uint256"},{"internalType":"string","name":"name","type":"string"},{"internalType":"string","name":"location","type":"string"},{"internalType":"string","name":"longitude","type":"string"},{"internalType":"string","name":"latitude","type":"string"},{"internalType":"string","name":"mobile","type":"string"}],"indexed":false,"internalType":"struct OpenField.Farmer","name":"","type":"tuple"}],"name":"NewFarmer","type":"event"},{"anonymous":false,"inputs":[{"components":[{"internalType":"uint256","name":"id","type":"uint256"},{"internalType":"uint256","name":"producer_id","type":"uint256"},{"internalType":"string","name":"producer_name","type":"string"},{"internalType":"string","name":"name","type":"string"},{"internalType":"uint256","name":"quantity","type":"uint256"},{"internalType":"string","name":"ingredient","type":"string"},{"internalType":"string","name":"batchno","type":"string"},{"internalType":"string","name":"manufacture_date","type":"string"},{"internalType":"string","name":"expiry_date","type":"string"}],"indexed":false,"internalType":"struct OpenField.Pesticide","name":"","type":"tuple"}],"name":"NewPesticide","type":"event"},{"inputs":[{"internalType":"string","name":"_name","type":"string"},{"internalType":"string","name":"_mob","type":"string"},{"internalType":"string","name":"_location","type":"string"},{"internalType":"string","name":"_longitude","type":"string"},{"internalType":"string","name":"_latitude","type":"string"}],"name":"addFarmer","outputs":[],"stateMutability":"nonpayable","type":"function"},{"inputs":[{"internalType":"uint256","name":"_producer_id","type":"uint256"},{"internalType":"uint256","name":"_quantity","type":"uint256"},{"internalType":"string","name":"_name","type":"string"},{"internalType":"string","name":"_producer_name","type":"string"},{"internalType":"string","name":"_ingredient","type":"string"},{"internalType":"string","name":"_batchno","type":"string"},{"internalType":"string","name":"_manufacture_date","type":"string"},{"internalType":"string","name":"_expiry_date","type":"string"}],"name":"addPesticide","outputs":[],"stateMutability":"nonpayable","type":"function"},{"inputs":[{"internalType":"uint256","name":"_pest_id","type":"uint256"},{"internalType":"uint256","name":"_farmer_id","type":"uint256"},{"internalType":"uint256","name":"_qtd","type":"uint256"}],"name":"addPesticideFarmer","outputs":[],"stateMutability":"nonpayable","type":"function"},{"inputs":[],"name":"cropCount","outputs":[{"internalType":"uint256","name":"","type":"uint256"}],"stateMutability":"view","type":"function"},{"inputs":[{"internalType":"uint256","name":"","type":"uint256"}],"name":"crops","outputs":[{"internalType":"uint256","name":"id","type":"uint256"},{"internalType":"uint256","name":"farmer_id","type":"uint256"},{"internalType":"string","name":"name","type":"string"}],"stateMutability":"view","type":"function"},{"inputs":[{"internalType":"uint256","name":"","type":"uint256"}],"name":"distributors","outputs":[{"internalType":"uint256","name":"id","type":"uint256"},{"internalType":"string","name":"name","type":"string"},{"internalType":"string","name":"location","type":"string"},{"internalType":"string","name":"longitude","type":"string"},{"internalType":"string","name":"latitude","type":"string"}],"stateMutability":"view","type":"function"},{"inputs":[],"name":"farmerCount","outputs":[{"internalType":"uint256","name":"","type":"uint256"}],"stateMutability":"view","type":"function"},{"inputs":[{"internalType":"uint256","name":"","type":"uint256"}],"name":"farmers","outputs":[{"internalType":"uint256","name":"id","type":"uint256"},{"internalType":"string","name":"name","type":"string"},{"internalType":"string","name":"location","type":"string"},{"internalType":"string","name":"longitude","type":"string"},{"internalType":"string","name":"latitude","type":"string"},{"internalType":"string","name":"mobile","type":"string"}],"stateMutability":"view","type":"function"},{"inputs":[],"name":"getAllFarmers","outputs":[{"components":[{"internalType":"uint256","name":"id","type":"uint256"},{"internalType":"string","name":"name","type":"string"},{"internalType":"string","name":"location","type":"string"},{"internalType":"string","name":"longitude","type":"string"},{"internalType":"string","name":"latitude","type":"string"},{"internalType":"string","name":"mobile","type":"string"}],"internalType":"struct OpenField.Farmer[]","name":"","type":"tuple[]"}],"stateMutability":"view","type":"function"},{"inputs":[{"internalType":"uint256","name":"_id","type":"uint256"}],"name":"getFarmersPesticidesById","outputs":[{"components":[{"internalType":"uint256","name":"id","type":"uint256"},{"internalType":"uint256","name":"producer_id","type":"uint256"},{"internalType":"string","name":"producer_name","type":"string"},{"internalType":"string","name":"name","type":"string"},{"internalType":"uint256","name":"quantity","type":"uint256"},{"internalType":"string","name":"ingredient","type":"string"},{"internalType":"string","name":"batchno","type":"string"},{"internalType":"string","name":"manufacture_date","type":"string"},{"internalType":"string","name":"expiry_date","type":"string"}],"internalType":"struct OpenField.Pesticide[]","name":"","type":"tuple[]"}],"stateMutability":"view","type":"function"},{"inputs":[],"name":"getPesticides","outputs":[{"components":[{"internalType":"uint256","name":"id","type":"uint256"},{"internalType":"uint256","name":"producer_id","type":"uint256"},{"internalType":"string","name":"producer_name","type":"string"},{"internalType":"string","name":"name","type":"string"},{"internalType":"uint256","name":"quantity","type":"uint256"},{"internalType":"string","name":"ingredient","type":"string"},{"internalType":"string","name":"batchno","type":"string"},{"internalType":"string","name":"manufacture_date","type":"string"},{"internalType":"string","name":"expiry_date","type":"string"}],"internalType":"struct OpenField.Pesticide[]","name":"","type":"tuple[]"}],"stateMutability":"view","type":"function"},{"inputs":[{"internalType":"uint256","name":"_id","type":"uint256"}],"name":"getProcudersPesticides","outputs":[{"components":[{"internalType":"uint256","name":"id","type":"uint256"},{"internalType":"uint256","name":"producer_id","type":"uint256"},{"internalType":"string","name":"producer_name","type":"string"},{"internalType":"string","name":"name","type":"string"},{"internalType":"uint256","name":"quantity","type":"uint256"},{"internalType":"string","name":"ingredient","type":"string"},{"internalType":"string","name":"batchno","type":"string"},{"internalType":"string","name":"manufacture_date","type":"string"},{"internalType":"string","name":"expiry_date","type":"string"}],"internalType":"struct OpenField.Pesticide[]","name":"","type":"tuple[]"}],"stateMutability":"view","type":"function"},{"inputs":[],"name":"getProducers","outputs":[{"components":[{"internalType":"uint256","name":"id","type":"uint256"},{"internalType":"string","name":"name","type":"string"},{"internalType":"string","name":"dealer_name","type":"string"},{"internalType":"string","name":"location","type":"string"},{"internalType":"string","name":"longitude","type":"string"},{"internalType":"string","name":"latitude","type":"string"}],"internalType":"struct OpenField.Producer[]","name":"","type":"tuple[]"}],"stateMutability":"view","type":"function"},{"inputs":[],"name":"name","outputs":[{"internalType":"string","name":"","type":"string"}],"stateMutability":"view","type":"function"},{"inputs":[],"name":"pesticideCount","outputs":[{"internalType":"uint256","name":"","type":"uint256"}],"stateMutability":"view","type":"function"},{"inputs":[],"name":"pesticideFarmerCount","outputs":[{"internalType":"uint256","name":"","type":"uint256"}],"stateMutability":"view","type":"function"},{"inputs":[{"internalType":"uint256","name":"","type":"uint256"}],"name":"pesticides","outputs":[{"internalType":"uint256","name":"id","type":"uint256"},{"internalType":"uint256","name":"producer_id","type":"uint256"},{"internalType":"string","name":"producer_name","type":"string"},{"internalType":"string","name":"name","type":"string"},{"internalType":"uint256","name":"quantity","type":"uint256"},{"internalType":"string","name":"ingredient","type":"string"},{"internalType":"string","name":"batchno","type":"string"},{"internalType":"string","name":"manufacture_date","type":"string"},{"internalType":"string","name":"expiry_date","type":"string"}],"stateMutability":"view","type":"function"},{"inputs":[{"internalType":"uint256","name":"","type":"uint256"}],"name":"pesticidesDistributor","outputs":[{"internalType":"uint256","name":"id","type":"uint256"},{"internalType":"uint256","name":"distributor_id","type":"uint256"},{"internalType":"uint256","name":"pesticide_id","type":"uint256"}],"stateMutability":"view","type":"function"},{"inputs":[{"internalType":"uint256","name":"","type":"uint256"}],"name":"pesticidesFarmer","outputs":[{"internalType":"uint256","name":"id","type":"uint256"},{"internalType":"uint256","name":"farmer_id","type":"uint256"},{"internalType":"uint256","name":"qtd","type":"uint256"},{"internalType":"uint256","name":"pesticide_id","type":"uint256"}],"stateMutability":"view","type":"function"},{"inputs":[],"name":"producerCount","outputs":[{"internalType":"uint256","name":"","type":"uint256"}],"stateMutability":"view","type":"function"},{"inputs":[{"internalType":"uint256","name":"","type":"uint256"}],"name":"producers","outputs":[{"internalType":"uint256","name":"id","type":"uint256"},{"internalType":"string","name":"name","type":"string"},{"internalType":"string","name":"dealer_name","type":"string"},{"internalType":"string","name":"location","type":"string"},{"internalType":"string","name":"longitude","type":"string"},{"internalType":"string","name":"latitude","type":"string"}],"stateMutability":"view","type":"function"}],"evm":{"bytecode":{"linkReferences":{},"object":"6080604052600060085560006009556000600a556000600b556000600c553480156200002a57600080fd5b506040518060400160405280600981526020017f4f70656e4669656c640000000000000000000000000000000000000000000000815250600090816200007191906200176a565b5060016009600082825462000087919062001880565b9250508190555060006002600060095481526020019081526020016000209050600181600001819055506040518060400160405280600f81526020017f436f726f6d616e204c696d697465640000000000000000000000000000000000815250816001019081620000f991906200176a565b506040518060400160405280600581526020017f616b6973680000000000000000000000000000000000000000000000000000008152508160020190816200014291906200176a565b506040518060400160405280600881526020017f42656e676c7572750000000000000000000000000000000000000000000000008152508160030190816200018b91906200176a565b506040518060400160405280600381526020017f3436250000000000000000000000000000000000000000000000000000000000815250816004019081620001d491906200176a565b506040518060400160405280600381526020017f33362500000000000000000000000000000000000000000000000000000000008152508160050190816200021d91906200176a565b5060016009600082825462000233919062001880565b9250508190555060006002600060095481526020019081526020016000209050600281600001819055506040518060400160405280600c81526020017f4348414b204c696d697465640000000000000000000000000000000000000000815250816001019081620002a591906200176a565b506040518060400160405280600681526020017f20616d7275680000000000000000000000000000000000000000000000000000815250816002019081620002ee91906200176a565b506040518060400160405280600e81526020017f416e6468726120707261646573680000000000000000000000000000000000008152508160030190816200033791906200176a565b506040518060400160405280600381526020017f35302500000000000000000000000000000000000000000000000000000000008152508160040190816200038091906200176a565b506040518060400160405280600381526020017f3238250000000000000000000000000000000000000000000000000000000000815250816005019081620003c991906200176a565b50620005226001605a6040518060400160405280601081526020017f416d6d6f6e69756d206e697472617465000000000000000000000000000000008152506040518060400160405280600f81526020017f436f726f6d616e204c696d6974656400000000000000000000000000000000008152506040518060400160405280600881526020017f616d6d6f6e69756d0000000000000000000000000000000000000000000000008152506040518060400160405280600481526020017f42303031000000000000000000000000000000000000000000000000000000008152506040518060400160405280600981526020017f312f31322f3230303200000000000000000000000000000000000000000000008152506040518060400160405280600981526020017f372f30332f3230303300000000000000000000000000000000000000000000008152506200125c60201b60201c565b6200067a6001601e6040518060400160405280600a81526020017f50686f73706875727573000000000000000000000000000000000000000000008152506040518060400160405280600f81526020017f436f726f6d616e204c696d6974656400000000000000000000000000000000008152506040518060400160405280600a81526020017f70686f73706875727573000000000000000000000000000000000000000000008152506040518060400160405280600481526020017f42303032000000000000000000000000000000000000000000000000000000008152506040518060400160405280600a81526020017f31362f31322f32303032000000000000000000000000000000000000000000008152506040518060400160405280600981526020017f372f30332f3230303300000000000000000000000000000000000000000000008152506200125c60201b60201c565b620007d2600160286040518060400160405280600f81526020017f537570657250686f7370687572757300000000000000000000000000000000008152506040518060400160405280600f81526020017f436f726f6d616e204c696d6974656400000000000000000000000000000000008152506040518060400160405280600a81526020017f70686f73706875727573000000000000000000000000000000000000000000008152506040518060400160405280600481526020017f42303033000000000000000000000000000000000000000000000000000000008152506040518060400160405280600981526020017f362f31322f3230303200000000000000000000000000000000000000000000008152506040518060400160405280600981526020017f382f30372f3230303300000000000000000000000000000000000000000000008152506200125c60201b60201c565b6200092a600260506040518060400160405280600f81526020017f526f636b2070686f7370616861746500000000000000000000000000000000008152506040518060400160405280600c81526020017f4348414b204c696d6974656400000000000000000000000000000000000000008152506040518060400160405280600981526020017f70686f73706861746500000000000000000000000000000000000000000000008152506040518060400160405280600481526020017f42303039000000000000000000000000000000000000000000000000000000008152506040518060400160405280600981526020017f32322f312f3230303200000000000000000000000000000000000000000000008152506040518060400160405280600981526020017f372f30332f3230303300000000000000000000000000000000000000000000008152506200125c60201b60201c565b62000a82600260506040518060400160405280601081526020017f416d6f6e69756d2063686c6f72696465000000000000000000000000000000008152506040518060400160405280600c81526020017f4348414b204c696d6974656400000000000000000000000000000000000000008152506040518060400160405280600781526020017f416d6f6e69756d000000000000000000000000000000000000000000000000008152506040518060400160405280600481526020017f42303130000000000000000000000000000000000000000000000000000000008152506040518060400160405280600981526020017f31392f312f3230303200000000000000000000000000000000000000000000008152506040518060400160405280600981526020017f372f30392f3230303300000000000000000000000000000000000000000000008152506200125c60201b60201c565b62000ba06040518060400160405280600881526020017f53726565686172690000000000000000000000000000000000000000000000008152506040518060400160405280600a81526020017f37353639383435333235000000000000000000000000000000000000000000008152506040518060400160405280600681526020017f6b616e6e757200000000000000000000000000000000000000000000000000008152506040518060400160405280600381526020017f35352500000000000000000000000000000000000000000000000000000000008152506040518060400160405280600381526020017f3230250000000000000000000000000000000000000000000000000000000000815250620013c260201b60201c565b62000cbe6040518060400160405280600581526020017f416b6173680000000000000000000000000000000000000000000000000000008152506040518060400160405280600a81526020017f39373736383531323435000000000000000000000000000000000000000000008152506040518060400160405280600881526020017f686172696b6f64650000000000000000000000000000000000000000000000008152506040518060400160405280600381526020017f34352500000000000000000000000000000000000000000000000000000000008152506040518060400160405280600381526020017f3233250000000000000000000000000000000000000000000000000000000000815250620013c260201b60201c565b62000ddc6040518060400160405280600481526020017f416c616e000000000000000000000000000000000000000000000000000000008152506040518060400160405280600a81526020017f37383635333339353435000000000000000000000000000000000000000000008152506040518060400160405280600a81526020017f6574616e746869747461000000000000000000000000000000000000000000008152506040518060400160405280600381526020017f34322500000000000000000000000000000000000000000000000000000000008152506040518060400160405280600381526020017f3137250000000000000000000000000000000000000000000000000000000000815250620013c260201b60201c565b62000efa6040518060400160405280600481526020017f48657961000000000000000000000000000000000000000000000000000000008152506040518060400160405280600a81526020017f39343436373735353538000000000000000000000000000000000000000000008152506040518060400160405280600e81526020017f416e6468726120707261646573680000000000000000000000000000000000008152506040518060400160405280600381526020017f34352500000000000000000000000000000000000000000000000000000000008152506040518060400160405280600381526020017f3230250000000000000000000000000000000000000000000000000000000000815250620013c260201b60201c565b620010186040518060400160405280600681526020017f41736877696e00000000000000000000000000000000000000000000000000008152506040518060400160405280600a81526020017f36373739383835343831000000000000000000000000000000000000000000008152506040518060400160405280600b81526020017f4368656e6e61692c20544e0000000000000000000000000000000000000000008152506040518060400160405280600381526020017f34352500000000000000000000000000000000000000000000000000000000008152506040518060400160405280600381526020017f3530250000000000000000000000000000000000000000000000000000000000815250620013c260201b60201c565b620011366040518060400160405280600581526020017f41736865720000000000000000000000000000000000000000000000000000008152506040518060400160405280600b81526020017f37343436393838333235350000000000000000000000000000000000000000008152506040518060400160405280600981526020017f54656c616e67616e6100000000000000000000000000000000000000000000008152506040518060400160405280600381526020017f34352500000000000000000000000000000000000000000000000000000000008152506040518060400160405280600381526020017f3130250000000000000000000000000000000000000000000000000000000000815250620013c260201b60201c565b620012546040518060400160405280600581526020017f4e6f6f68610000000000000000000000000000000000000000000000000000008152506040518060400160405280600a81526020017f39363635353838343432000000000000000000000000000000000000000000008152506040518060400160405280600d81526020017f4879646572616261642c204150000000000000000000000000000000000000008152506040518060400160405280600381526020017f34352500000000000000000000000000000000000000000000000000000000008152506040518060400160405280600381526020017f3330250000000000000000000000000000000000000000000000000000000000815250620013c260201b60201c565b505062001c0e565b60008651116200126b57600080fd5b60008551116200127a57600080fd5b60008451116200128957600080fd5b60008351116200129857600080fd5b6000825111620012a757600080fd5b6000815111620012b657600080fd5b600c6000815480929190620012cb90620018bb565b9190505550600060066000600c5481526020019081526020016000209050600c548160000181905550888160010181905550868160030190816200131091906200176a565b50858160020190816200132491906200176a565b50878160040181905550848160050190816200134191906200176a565b50838160060190816200135591906200176a565b50828160070190816200136991906200176a565b50818160080190816200137d91906200176a565b507fedde1f77670c495bdd95aa0a5818afb5b25c0110fec0cf231934b4069dbef6a181604051620013af919062001b0b565b60405180910390a1505050505050505050565b6000855111620013d157600080fd5b6000845111620013e057600080fd5b6000835111620013ef57600080fd5b6000825111620013fe57600080fd5b60008151116200140d57600080fd5b600860008154809291906200142290620018bb565b9190505550600060016000600854815260200190815260200160002090506008548160000181905550858160010190816200145e91906200176a565b50848160050190816200147291906200176a565b50838160020190816200148691906200176a565b50828160030190816200149a91906200176a565b5081816004019081620014ae91906200176a565b507f8a393f24b50f96cb78dcfb57a53c4c8979f03a0c93941ff9576c05c14a9465cf81604051620014e0919062001bea565b60405180910390a1505050505050565b600081519050919050565b7f4e487b7100000000000000000000000000000000000000000000000000000000600052604160045260246000fd5b7f4e487b7100000000000000000000000000000000000000000000000000000000600052602260045260246000fd5b600060028204905060018216806200157257607f821691505b6020821081036200158857620015876200152a565b5b50919050565b60008190508160005260206000209050919050565b60006020601f8301049050919050565b600082821b905092915050565b600060088302620015f27fffffffffffffffffffffffffffffffffffffffffffffffffffffffffffffffff82620015b3565b620015fe8683620015b3565b95508019841693508086168417925050509392505050565b6000819050919050565b6000819050919050565b60006200164b620016456200163f8462001616565b62001620565b62001616565b9050919050565b6000819050919050565b62001667836200162a565b6200167f620016768262001652565b848454620015c0565b825550505050565b600090565b6200169662001687565b620016a38184846200165c565b505050565b5b81811015620016cb57620016bf6000826200168c565b600181019050620016a9565b5050565b601f8211156200171a57620016e4816200158e565b620016ef84620015a3565b81016020851015620016ff578190505b620017176200170e85620015a3565b830182620016a8565b50505b505050565b600082821c905092915050565b60006200173f600019846008026200171f565b1980831691505092915050565b60006200175a83836200172c565b9150826002028217905092915050565b6200177582620014f0565b67ffffffffffffffff811115620017915762001790620014fb565b5b6200179d825462001559565b620017aa828285620016cf565b600060209050601f831160018114620017e25760008415620017cd578287015190505b620017d985826200174c565b86555062001849565b601f198416620017f2866200158e565b60005b828110156200181c57848901518255600182019150602085019450602081019050620017f5565b868310156200183c578489015162001838601f8916826200172c565b8355505b6001600288020188555050505b505050505050565b7f4e487b7100000000000000000000000000000000000000000000000000000000600052601160045260246000fd5b60006200188d8262001616565b91506200189a8362001616565b9250828201905080821115620018b557620018b462001851565b5b92915050565b6000620018c88262001616565b91507fffffffffffffffffffffffffffffffffffffffffffffffffffffffffffffffff8203620018fd57620018fc62001851565b5b600182019050919050565b60008160001c9050919050565b6000819050919050565b600062001936620019308362001908565b62001915565b9050919050565b620019488162001616565b82525050565b600082825260208201905092915050565b600081546200196e8162001559565b6200197a81866200194e565b94506001821660008114620019985760018114620019af57620019e6565b60ff198316865281151560200286019350620019e6565b620019ba856200158e565b60005b83811015620019de57815481890152600182019150602081019050620019bd565b808801955050505b50505092915050565b60006101208301600080840154905062001a09816200191f565b62001a1860008701826200193d565b506001840154905062001a2b816200191f565b62001a3a60208701826200193d565b5060028401858303604087015262001a5383826200195f565b92505060038401858303606087015262001a6e83826200195f565b9250506004840154905062001a83816200191f565b62001a9260808701826200193d565b506005840185830360a087015262001aab83826200195f565b9250506006840185830360c087015262001ac683826200195f565b9250506007840185830360e087015262001ae183826200195f565b9250506008840185830361010087015262001afd83826200195f565b925050819250505092915050565b6000602082019050818103600083015262001b278184620019ef565b905092915050565b600060c08301600080840154905062001b48816200191f565b62001b5760008701826200193d565b5060018401858303602087015262001b7083826200195f565b92505060028401858303604087015262001b8b83826200195f565b92505060038401858303606087015262001ba683826200195f565b92505060048401858303608087015262001bc183826200195f565b9250506005840185830360a087015262001bdc83826200195f565b925050819250505092915050565b6000602082019050818103600083015262001c06818462001b2f565b905092915050565b613ed38062001c1e6000396000f3fe608060405234801561001057600080fd5b50600436106101375760003560e01c80638afdd669116100b8578063d708fe5b1161007c578063d708fe5b14610390578063dc1e392c146103ae578063dfd55a2c146103e1578063e80a7eb9146103ff578063ecb22baa1461041d578063f71afe331461043b57610137565b80638afdd669146102bc578063961e89b8146102f15780639b68ade71461030d578063bd45b39714610342578063c5779fd11461036057610137565b8063536954e4116100ff578063536954e4146101fc5780635446032d1461021a57806370c9f1a5146102365780637ee49d911461026857806380507b2a146102a057610137565b806306fdde031461013c57806318c7833f1461015a578063279115ea1461018c578063458a1308146101aa57806350b492ba146101c8575b600080fd5b61014461046b565b6040516101519190612bf0565b60405180910390f35b610174600480360381019061016f9190612c5c565b6104f9565b60405161018393929190612c98565b60405180910390f35b610194610523565b6040516101a19190612ed2565b60405180910390f35b6101b2610991565b6040516101bf9190612ef4565b60405180910390f35b6101e260048036038101906101dd9190612c5c565b610997565b6040516101f3959493929190612f0f565b60405180910390f35b610204610bed565b60405161021191906130e5565b60405180910390f35b610234600480360381019061022f9190613107565b610fb4565b005b610250600480360381019061024b9190612c5c565b611011565b60405161025f9392919061315a565b60405180910390f35b610282600480360381019061027d9190612c5c565b6110c3565b60405161029799989796959493929190613198565b60405180910390f35b6102ba60048036038101906102b59190613384565b611441565b005b6102d660048036038101906102d19190612c5c565b611591565b6040516102e8969594939291906134e2565b60405180910390f35b61030b60048036038101906103069190613566565b611875565b005b61032760048036038101906103229190612c5c565b611990565b604051610339969594939291906134e2565b60405180910390f35b61034a611c74565b6040516103579190612ef4565b60405180910390f35b61037a60048036038101906103759190612c5c565b611c7a565b6040516103879190612ed2565b60405180910390f35b6103986121c2565b6040516103a59190612ef4565b60405180910390f35b6103c860048036038101906103c39190612c5c565b6121c8565b6040516103d8949392919061366d565b60405180910390f35b6103e96121f8565b6040516103f69190612ef4565b60405180910390f35b6104076121fe565b6040516104149190613819565b60405180910390f35b6104256125c5565b6040516104329190612ef4565b60405180910390f35b61045560048036038101906104509190612c5c565b6125cb565b6040516104629190612ed2565b60405180910390f35b600080546104789061386a565b80601f01602080910402602001604051908101604052809291908181526020018280546104a49061386a565b80156104f15780601f106104c6576101008083540402835291602001916104f1565b820191906000526020600020905b8154815290600101906020018083116104d457829003601f168201915b505050505081565b60076020528060005260406000206000915090508060000154908060010154908060020154905083565b6060600080600c5467ffffffffffffffff81111561054457610543613259565b5b60405190808252806020026020018201604052801561057d57816020015b61056a612aa8565b8152602001906001900390816105625790505b50905060005b600c5481101561098857600060018261059c91906138ca565b90506000600660008381526020019081526020016000209050806040518061012001604052908160008201548152602001600182015481526020016002820180546105e69061386a565b80601f01602080910402602001604051908101604052809291908181526020018280546106129061386a565b801561065f5780601f106106345761010080835404028352916020019161065f565b820191906000526020600020905b81548152906001019060200180831161064257829003601f168201915b505050505081526020016003820180546106789061386a565b80601f01602080910402602001604051908101604052809291908181526020018280546106a49061386a565b80156106f15780601f106106c6576101008083540402835291602001916106f1565b820191906000526020600020905b8154815290600101906020018083116106d457829003601f168201915b50505050508152602001600482015481526020016005820180546107149061386a565b80601f01602080910402602001604051908101604052809291908181526020018280546107409061386a565b801561078d5780601f106107625761010080835404028352916020019161078d565b820191906000526020600020905b81548152906001019060200180831161077057829003601f168201915b505050505081526020016006820180546107a69061386a565b80601f01602080910402602001604051908101604052809291908181526020018280546107d29061386a565b801561081f5780601f106107f45761010080835404028352916020019161081f565b820191906000526020600020905b81548152906001019060200180831161080257829003601f168201915b505050505081526020016007820180546108389061386a565b80601f01602080910402602001604051908101604052809291908181526020018280546108649061386a565b80156108b15780601f10610886576101008083540402835291602001916108b1565b820191906000526020600020905b81548152906001019060200180831161089457829003601f168201915b505050505081526020016008820180546108ca9061386a565b80601f01602080910402602001604051908101604052809291908181526020018280546108f69061386a565b80156109435780601f1061091857610100808354040283529160200191610943565b820191906000526020600020905b81548152906001019060200180831161092657829003601f168201915b50505050508152505084868151811061095f5761095e6138fe565b5b602002602001018190525060018561097791906138ca565b945050508080600101915050610583565b50809250505090565b600b5481565b60036020528060005260406000206000915090508060000154908060010180546109c09061386a565b80601f01602080910402602001604051908101604052809291908181526020018280546109ec9061386a565b8015610a395780601f10610a0e57610100808354040283529160200191610a39565b820191906000526020600020905b815481529060010190602001808311610a1c57829003601f168201915b505050505090806002018054610a4e9061386a565b80601f0160208091040260200160405190810160405280929190818152602001828054610a7a9061386a565b8015610ac75780601f10610a9c57610100808354040283529160200191610ac7565b820191906000526020600020905b815481529060010190602001808311610aaa57829003601f168201915b505050505090806003018054610adc9061386a565b80601f0160208091040260200160405190810160405280929190818152602001828054610b089061386a565b8015610b555780601f10610b2a57610100808354040283529160200191610b55565b820191906000526020600020905b815481529060010190602001808311610b3857829003601f168201915b505050505090806004018054610b6a9061386a565b80601f0160208091040260200160405190810160405280929190818152602001828054610b969061386a565b8015610be35780601f10610bb857610100808354040283529160200191610be3565b820191906000526020600020905b815481529060010190602001808311610bc657829003601f168201915b5050505050905085565b606060008060085467ffffffffffffffff811115610c0e57610c0d613259565b5b604051908082528060200260200182016040528015610c4757816020015b610c34612af4565b815260200190600190039081610c2c5790505b50905060005b600854811015610fab576000600182610c6691906138ca565b90506000600160008381526020019081526020016000209050806040518060c001604052908160008201548152602001600182018054610ca59061386a565b80601f0160208091040260200160405190810160405280929190818152602001828054610cd19061386a565b8015610d1e5780601f10610cf357610100808354040283529160200191610d1e565b820191906000526020600020905b815481529060010190602001808311610d0157829003601f168201915b50505050508152602001600282018054610d379061386a565b80601f0160208091040260200160405190810160405280929190818152602001828054610d639061386a565b8015610db05780601f10610d8557610100808354040283529160200191610db0565b820191906000526020600020905b815481529060010190602001808311610d9357829003601f168201915b50505050508152602001600382018054610dc99061386a565b80601f0160208091040260200160405190810160405280929190818152602001828054610df59061386a565b8015610e425780601f10610e1757610100808354040283529160200191610e42565b820191906000526020600020905b815481529060010190602001808311610e2557829003601f168201915b50505050508152602001600482018054610e5b9061386a565b80601f0160208091040260200160405190810160405280929190818152602001828054610e879061386a565b8015610ed45780601f10610ea957610100808354040283529160200191610ed4565b820191906000526020600020905b815481529060010190602001808311610eb757829003601f168201915b50505050508152602001600582018054610eed9061386a565b80601f0160208091040260200160405190810160405280929190818152602001828054610f199061386a565b8015610f665780601f10610f3b57610100808354040283529160200191610f66565b820191906000526020600020905b815481529060010190602001808311610f4957829003601f168201915b505050505081525050848681518110610f8257610f816138fe565b5b6020026020010181905250600185610f9a91906138ca565b945050508080600101915050610c4d565b50809250505090565b600b6000815480929190610fc79061392d565b9190505550600060056000600b5481526020019081526020016000209050600c54816000018190555083816003018190555082816001018190555081816002018190555050505050565b60046020528060005260406000206000915090508060000154908060010154908060020180546110409061386a565b80601f016020809104026020016040519081016040528092919081815260200182805461106c9061386a565b80156110b95780601f1061108e576101008083540402835291602001916110b9565b820191906000526020600020905b81548152906001019060200180831161109c57829003601f168201915b5050505050905083565b60066020528060005260406000206000915090508060000154908060010154908060020180546110f29061386a565b80601f016020809104026020016040519081016040528092919081815260200182805461111e9061386a565b801561116b5780601f106111405761010080835404028352916020019161116b565b820191906000526020600020905b81548152906001019060200180831161114e57829003601f168201915b5050505050908060030180546111809061386a565b80601f01602080910402602001604051908101604052809291908181526020018280546111ac9061386a565b80156111f95780601f106111ce576101008083540402835291602001916111f9565b820191906000526020600020905b8154815290600101906020018083116111dc57829003601f168201915b5050505050908060040154908060050180546112149061386a565b80601f01602080910402602001604051908101604052809291908181526020018280546112409061386a565b801561128d5780601f106112625761010080835404028352916020019161128d565b820191906000526020600020905b81548152906001019060200180831161127057829003601f168201915b5050505050908060060180546112a29061386a565b80601f01602080910402602001604051908101604052809291908181526020018280546112ce9061386a565b801561131b5780601f106112f05761010080835404028352916020019161131b565b820191906000526020600020905b8154815290600101906020018083116112fe57829003601f168201915b5050505050908060070180546113309061386a565b80601f016020809104026020016040519081016040528092919081815260200182805461135c9061386a565b80156113a95780601f1061137e576101008083540402835291602001916113a9565b820191906000526020600020905b81548152906001019060200180831161138c57829003601f168201915b5050505050908060080180546113be9061386a565b80601f01602080910402602001604051908101604052809291908181526020018280546113ea9061386a565b80156114375780601f1061140c57610100808354040283529160200191611437565b820191906000526020600020905b81548152906001019060200180831161141a57829003601f168201915b5050505050905089565b600086511161144f57600080fd5b600085511161145d57600080fd5b600084511161146b57600080fd5b600083511161147957600080fd5b600082511161148757600080fd5b600081511161149557600080fd5b600c60008154809291906114a89061392d565b9190505550600060066000600c5481526020019081526020016000209050600c548160000181905550888160010181905550868160030190816114eb9190613b21565b50858160020190816114fd9190613b21565b50878160040181905550848160050190816115189190613b21565b508381600601908161152a9190613b21565b508281600701908161153c9190613b21565b508181600801908161154e9190613b21565b507fedde1f77670c495bdd95aa0a5818afb5b25c0110fec0cf231934b4069dbef6a18160405161157e9190613dac565b60405180910390a1505050505050505050565b60016020528060005260406000206000915090508060000154908060010180546115ba9061386a565b80601f01602080910402602001604051908101604052809291908181526020018280546115e69061386a565b80156116335780601f1061160857610100808354040283529160200191611633565b820191906000526020600020905b81548152906001019060200180831161161657829003601f168201915b5050505050908060020180546116489061386a565b80601f01602080910402602001604051908101604052809291908181526020018280546116749061386a565b80156116c15780601f10611696576101008083540402835291602001916116c1565b820191906000526020600020905b8154815290600101906020018083116116a457829003601f168201915b5050505050908060030180546116d69061386a565b80601f01602080910402602001604051908101604052809291908181526020018280546117029061386a565b801561174f5780601f106117245761010080835404028352916020019161174f565b820191906000526020600020905b81548152906001019060200180831161173257829003601f168201915b5050505050908060040180546117649061386a565b80601f01602080910402602001604051908101604052809291908181526020018280546117909061386a565b80156117dd5780601f106117b2576101008083540402835291602001916117dd565b820191906000526020600020905b8154815290600101906020018083116117c057829003601f168201915b5050505050908060050180546117f29061386a565b80601f016020809104026020016040519081016040528092919081815260200182805461181e9061386a565b801561186b5780601f106118405761010080835404028352916020019161186b565b820191906000526020600020905b81548152906001019060200180831161184e57829003601f168201915b5050505050905086565b600085511161188357600080fd5b600084511161189157600080fd5b600083511161189f57600080fd5b60008251116118ad57600080fd5b60008151116118bb57600080fd5b600860008154809291906118ce9061392d565b9190505550600060016000600854815260200190815260200160002090506008548160000181905550858160010190816119089190613b21565b508481600501908161191a9190613b21565b508381600201908161192c9190613b21565b508281600301908161193e9190613b21565b50818160040190816119509190613b21565b507f8a393f24b50f96cb78dcfb57a53c4c8979f03a0c93941ff9576c05c14a9465cf816040516119809190613e7b565b60405180910390a1505050505050565b60026020528060005260406000206000915090508060000154908060010180546119b99061386a565b80601f01602080910402602001604051908101604052809291908181526020018280546119e59061386a565b8015611a325780601f10611a0757610100808354040283529160200191611a32565b820191906000526020600020905b815481529060010190602001808311611a1557829003601f168201915b505050505090806002018054611a479061386a565b80601f0160208091040260200160405190810160405280929190818152602001828054611a739061386a565b8015611ac05780601f10611a9557610100808354040283529160200191611ac0565b820191906000526020600020905b815481529060010190602001808311611aa357829003601f168201915b505050505090806003018054611ad59061386a565b80601f0160208091040260200160405190810160405280929190818152602001828054611b019061386a565b8015611b4e5780601f10611b2357610100808354040283529160200191611b4e565b820191906000526020600020905b815481529060010190602001808311611b3157829003601f168201915b505050505090806004018054611b639061386a565b80601f0160208091040260200160405190810160405280929190818152602001828054611b8f9061386a565b8015611bdc5780601f10611bb157610100808354040283529160200191611bdc565b820191906000526020600020905b815481529060010190602001808311611bbf57829003601f168201915b505050505090806005018054611bf19061386a565b80601f0160208091040260200160405190810160405280929190818152602001828054611c1d9061386a565b8015611c6a5780601f10611c3f57610100808354040283529160200191611c6a565b820191906000526020600020905b815481529060010190602001808311611c4d57829003601f168201915b5050505050905086565b60085481565b606060008060005b600c54811015611cde576000600182611c9b91906138ca565b9050600060056000838152602001908152602001600020905086816001015403611ccf57600184611ccc91906138ca565b93505b50508080600101915050611c82565b5060008167ffffffffffffffff811115611cfb57611cfa613259565b5b604051908082528060200260200182016040528015611d3457816020015b611d21612aa8565b815260200190600190039081611d195790505b50905060005b600b548110156121b6576000600182611d5391906138ca565b90506000600560008381526020019081526020016000209050878160010154036121a75760005b600c548110156121a557600060066000600184611d9791906138ca565b81526020019081526020016000209050826003015481600001540361219757611dbe612aa8565b81600001548160000181815250508160010154816020018181525050816003018054611de99061386a565b80601f0160208091040260200160405190810160405280929190818152602001828054611e159061386a565b8015611e625780601f10611e3757610100808354040283529160200191611e62565b820191906000526020600020905b815481529060010190602001808311611e4557829003601f168201915b50505050508160600181905250816002018054611e7e9061386a565b80601f0160208091040260200160405190810160405280929190818152602001828054611eaa9061386a565b8015611ef75780601f10611ecc57610100808354040283529160200191611ef7565b820191906000526020600020905b815481529060010190602001808311611eda57829003601f168201915b505050505081604001819052508360020154816080018181525050816005018054611f219061386a565b80601f0160208091040260200160405190810160405280929190818152602001828054611f4d9061386a565b8015611f9a5780601f10611f6f57610100808354040283529160200191611f9a565b820191906000526020600020905b815481529060010190602001808311611f7d57829003601f168201915b50505050508160a00181905250816006018054611fb69061386a565b80601f0160208091040260200160405190810160405280929190818152602001828054611fe29061386a565b801561202f5780601f106120045761010080835404028352916020019161202f565b820191906000526020600020905b81548152906001019060200180831161201257829003601f168201915b50505050508160c0018190525081600701805461204b9061386a565b80601f01602080910402602001604051908101604052809291908181526020018280546120779061386a565b80156120c45780601f10612099576101008083540402835291602001916120c4565b820191906000526020600020905b8154815290600101906020018083116120a757829003601f168201915b50505050508160e001819052508160080180546120e09061386a565b80601f016020809104026020016040519081016040528092919081815260200182805461210c9061386a565b80156121595780601f1061212e57610100808354040283529160200191612159565b820191906000526020600020905b81548152906001019060200180831161213c57829003601f168201915b505050505081610100018190525080878a8151811061217b5761217a6138fe565b5b602002602001018190525060018961219391906138ca565b9850505b508080600101915050611d7a565b505b50508080600101915050611d3a565b50809350505050919050565b60095481565b60056020528060005260406000206000915090508060000154908060010154908060020154908060030154905084565b600a5481565b606060008060095467ffffffffffffffff81111561221f5761221e613259565b5b60405190808252806020026020018201604052801561225857816020015b612245612b2a565b81526020019060019003908161223d5790505b50905060005b6009548110156125bc57600060018261227791906138ca565b90506000600260008381526020019081526020016000209050806040518060c0016040529081600082015481526020016001820180546122b69061386a565b80601f01602080910402602001604051908101604052809291908181526020018280546122e29061386a565b801561232f5780601f106123045761010080835404028352916020019161232f565b820191906000526020600020905b81548152906001019060200180831161231257829003601f168201915b505050505081526020016002820180546123489061386a565b80601f01602080910402602001604051908101604052809291908181526020018280546123749061386a565b80156123c15780601f10612396576101008083540402835291602001916123c1565b820191906000526020600020905b8154815290600101906020018083116123a457829003601f168201915b505050505081526020016003820180546123da9061386a565b80601f01602080910402602001604051908101604052809291908181526020018280546124069061386a565b80156124535780601f1061242857610100808354040283529160200191612453565b820191906000526020600020905b81548152906001019060200180831161243657829003601f168201915b5050505050815260200160048201805461246c9061386a565b80601f01602080910402602001604051908101604052809291908181526020018280546124989061386a565b80156124e55780601f106124ba576101008083540402835291602001916124e5565b820191906000526020600020905b8154815290600101906020018083116124c857829003601f168201915b505050505081526020016005820180546124fe9061386a565b80601f016020809104026020016040519081016040528092919081815260200182805461252a9061386a565b80156125775780601f1061254c57610100808354040283529160200191612577565b820191906000526020600020905b81548152906001019060200180831161255a57829003601f168201915b505050505081525050848681518110612593576125926138fe565b5b60200260200101819052506001856125ab91906138ca565b94505050808060010191505061225e565b50809250505090565b600c5481565b606060008060005b600c5481101561262f5760006001826125ec91906138ca565b90506000600660008381526020019081526020016000209050868160010154036126205760018461261d91906138ca565b93505b505080806001019150506125d3565b5060008167ffffffffffffffff81111561264c5761264b613259565b5b60405190808252806020026020018201604052801561268557816020015b612672612aa8565b81526020019060019003908161266a5790505b50905060005b600c54811015612a9c5760006001826126a491906138ca565b9050600060066000838152602001908152602001600020905087816001015403612a8d57806040518061012001604052908160008201548152602001600182015481526020016002820180546126f99061386a565b80601f01602080910402602001604051908101604052809291908181526020018280546127259061386a565b80156127725780601f1061274757610100808354040283529160200191612772565b820191906000526020600020905b81548152906001019060200180831161275557829003601f168201915b5050505050815260200160038201805461278b9061386a565b80601f01602080910402602001604051908101604052809291908181526020018280546127b79061386a565b80156128045780601f106127d957610100808354040283529160200191612804565b820191906000526020600020905b8154815290600101906020018083116127e757829003601f168201915b50505050508152602001600482015481526020016005820180546128279061386a565b80601f01602080910402602001604051908101604052809291908181526020018280546128539061386a565b80156128a05780601f10612875576101008083540402835291602001916128a0565b820191906000526020600020905b81548152906001019060200180831161288357829003601f168201915b505050505081526020016006820180546128b99061386a565b80601f01602080910402602001604051908101604052809291908181526020018280546128e59061386a565b80156129325780601f1061290757610100808354040283529160200191612932565b820191906000526020600020905b81548152906001019060200180831161291557829003601f168201915b5050505050815260200160078201805461294b9061386a565b80601f01602080910402602001604051908101604052809291908181526020018280546129779061386a565b80156129c45780601f10612999576101008083540402835291602001916129c4565b820191906000526020600020905b8154815290600101906020018083116129a757829003601f168201915b505050505081526020016008820180546129dd9061386a565b80601f0160208091040260200160405190810160405280929190818152602001828054612a099061386a565b8015612a565780601f10612a2b57610100808354040283529160200191612a56565b820191906000526020600020905b815481529060010190602001808311612a3957829003601f168201915b505050505081525050848781518110612a7257612a716138fe565b5b6020026020010181905250600186612a8a91906138ca565b95505b5050808060010191505061268b565b50809350505050919050565b6040518061012001604052806000815260200160008152602001606081526020016060815260200160008152602001606081526020016060815260200160608152602001606081525090565b6040518060c001604052806000815260200160608152602001606081526020016060815260200160608152602001606081525090565b6040518060c001604052806000815260200160608152602001606081526020016060815260200160608152602001606081525090565b600081519050919050565b600082825260208201905092915050565b60005b83811015612b9a578082015181840152602081019050612b7f565b60008484015250505050565b6000601f19601f8301169050919050565b6000612bc282612b60565b612bcc8185612b6b565b9350612bdc818560208601612b7c565b612be581612ba6565b840191505092915050565b60006020820190508181036000830152612c0a8184612bb7565b905092915050565b6000604051905090565b600080fd5b600080fd5b6000819050919050565b612c3981612c26565b8114612c4457600080fd5b50565b600081359050612c5681612c30565b92915050565b600060208284031215612c7257612c71612c1c565b5b6000612c8084828501612c47565b91505092915050565b612c9281612c26565b82525050565b6000606082019050612cad6000830186612c89565b612cba6020830185612c89565b612cc76040830184612c89565b949350505050565b600081519050919050565b600082825260208201905092915050565b6000819050602082019050919050565b612d0481612c26565b82525050565b600082825260208201905092915050565b6000612d2682612b60565b612d308185612d0a565b9350612d40818560208601612b7c565b612d4981612ba6565b840191505092915050565b600061012083016000830151612d6d6000860182612cfb565b506020830151612d806020860182612cfb565b5060408301518482036040860152612d988282612d1b565b91505060608301518482036060860152612db28282612d1b565b9150506080830151612dc76080860182612cfb565b5060a083015184820360a0860152612ddf8282612d1b565b91505060c083015184820360c0860152612df98282612d1b565b91505060e083015184820360e0860152612e138282612d1b565b915050610100830151848203610100860152612e2f8282612d1b565b9150508091505092915050565b6000612e488383612d54565b905092915050565b6000602082019050919050565b6000612e6882612ccf565b612e728185612cda565b935083602082028501612e8485612ceb565b8060005b85811015612ec05784840389528151612ea18582612e3c565b9450612eac83612e50565b925060208a01995050600181019050612e88565b50829750879550505050505092915050565b60006020820190508181036000830152612eec8184612e5d565b905092915050565b6000602082019050612f096000830184612c89565b92915050565b600060a082019050612f246000830188612c89565b8181036020830152612f368187612bb7565b90508181036040830152612f4a8186612bb7565b90508181036060830152612f5e8185612bb7565b90508181036080830152612f728184612bb7565b90509695505050505050565b600081519050919050565b600082825260208201905092915050565b6000819050602082019050919050565b600060c083016000830151612fc26000860182612cfb565b5060208301518482036020860152612fda8282612d1b565b91505060408301518482036040860152612ff48282612d1b565b9150506060830151848203606086015261300e8282612d1b565b915050608083015184820360808601526130288282612d1b565b91505060a083015184820360a08601526130428282612d1b565b9150508091505092915050565b600061305b8383612faa565b905092915050565b6000602082019050919050565b600061307b82612f7e565b6130858185612f89565b93508360208202850161309785612f9a565b8060005b858110156130d357848403895281516130b4858261304f565b94506130bf83613063565b925060208a0199505060018101905061309b565b50829750879550505050505092915050565b600060208201905081810360008301526130ff8184613070565b905092915050565b6000806000606084860312156131205761311f612c1c565b5b600061312e86828701612c47565b935050602061313f86828701612c47565b925050604061315086828701612c47565b9150509250925092565b600060608201905061316f6000830186612c89565b61317c6020830185612c89565b818103604083015261318e8184612bb7565b9050949350505050565b6000610120820190506131ae600083018c612c89565b6131bb602083018b612c89565b81810360408301526131cd818a612bb7565b905081810360608301526131e18189612bb7565b90506131f06080830188612c89565b81810360a08301526132028187612bb7565b905081810360c08301526132168186612bb7565b905081810360e083015261322a8185612bb7565b905081810361010083015261323f8184612bb7565b90509a9950505050505050505050565b600080fd5b600080fd5b7f4e487b7100000000000000000000000000000000000000000000000000000000600052604160045260246000fd5b61329182612ba6565b810181811067ffffffffffffffff821117156132b0576132af613259565b5b80604052505050565b60006132c3612c12565b90506132cf8282613288565b919050565b600067ffffffffffffffff8211156132ef576132ee613259565b5b6132f882612ba6565b9050602081019050919050565b82818337600083830152505050565b6000613327613322846132d4565b6132b9565b90508281526020810184848401111561334357613342613254565b5b61334e848285613305565b509392505050565b600082601f83011261336b5761336a61324f565b5b813561337b848260208601613314565b91505092915050565b600080600080600080600080610100898b0312156133a5576133a4612c1c565b5b60006133b38b828c01612c47565b98505060206133c48b828c01612c47565b975050604089013567ffffffffffffffff8111156133e5576133e4612c21565b5b6133f18b828c01613356565b965050606089013567ffffffffffffffff81111561341257613411612c21565b5b61341e8b828c01613356565b955050608089013567ffffffffffffffff81111561343f5761343e612c21565b5b61344b8b828c01613356565b94505060a089013567ffffffffffffffff81111561346c5761346b612c21565b5b6134788b828c01613356565b93505060c089013567ffffffffffffffff81111561349957613498612c21565b5b6134a58b828c01613356565b92505060e089013567ffffffffffffffff8111156134c6576134c5612c21565b5b6134d28b828c01613356565b9150509295985092959890939650565b600060c0820190506134f76000830189612c89565b81810360208301526135098188612bb7565b9050818103604083015261351d8187612bb7565b905081810360608301526135318186612bb7565b905081810360808301526135458185612bb7565b905081810360a08301526135598184612bb7565b9050979650505050505050565b600080600080600060a0868803121561358257613581612c1c565b5b600086013567ffffffffffffffff8111156135a05761359f612c21565b5b6135ac88828901613356565b955050602086013567ffffffffffffffff8111156135cd576135cc612c21565b5b6135d988828901613356565b945050604086013567ffffffffffffffff8111156135fa576135f9612c21565b5b61360688828901613356565b935050606086013567ffffffffffffffff81111561362757613626612c21565b5b61363388828901613356565b925050608086013567ffffffffffffffff81111561365457613653612c21565b5b61366088828901613356565b9150509295509295909350565b60006080820190506136826000830187612c89565b61368f6020830186612c89565b61369c6040830185612c89565b6136a96060830184612c89565b95945050505050565b600081519050919050565b600082825260208201905092915050565b6000819050602082019050919050565b600060c0830160008301516136f66000860182612cfb565b506020830151848203602086015261370e8282612d1b565b915050604083015184820360408601526137288282612d1b565b915050606083015184820360608601526137428282612d1b565b9150506080830151848203608086015261375c8282612d1b565b91505060a083015184820360a08601526137768282612d1b565b9150508091505092915050565b600061378f83836136de565b905092915050565b6000602082019050919050565b60006137af826136b2565b6137b981856136bd565b9350836020820285016137cb856136ce565b8060005b8581101561380757848403895281516137e88582613783565b94506137f383613797565b925060208a019950506001810190506137cf565b50829750879550505050505092915050565b6000602082019050818103600083015261383381846137a4565b905092915050565b7f4e487b7100000000000000000000000000000000000000000000000000000000600052602260045260246000fd5b6000600282049050600182168061388257607f821691505b6020821081036138955761389461383b565b5b50919050565b7f4e487b7100000000000000000000000000000000000000000000000000000000600052601160045260246000fd5b60006138d582612c26565b91506138e083612c26565b92508282019050808211156138f8576138f761389b565b5b92915050565b7f4e487b7100000000000000000000000000000000000000000000000000000000600052603260045260246000fd5b600061393882612c26565b91507fffffffffffffffffffffffffffffffffffffffffffffffffffffffffffffffff820361396a5761396961389b565b5b600182019050919050565b60008190508160005260206000209050919050565b60006020601f8301049050919050565b600082821b905092915050565b6000600883026139d77fffffffffffffffffffffffffffffffffffffffffffffffffffffffffffffffff8261399a565b6139e1868361399a565b95508019841693508086168417925050509392505050565b6000819050919050565b6000613a1e613a19613a1484612c26565b6139f9565b612c26565b9050919050565b6000819050919050565b613a3883613a03565b613a4c613a4482613a25565b8484546139a7565b825550505050565b600090565b613a61613a54565b613a6c818484613a2f565b505050565b5b81811015613a9057613a85600082613a59565b600181019050613a72565b5050565b601f821115613ad557613aa681613975565b613aaf8461398a565b81016020851015613abe578190505b613ad2613aca8561398a565b830182613a71565b50505b505050565b600082821c905092915050565b6000613af860001984600802613ada565b1980831691505092915050565b6000613b118383613ae7565b9150826002028217905092915050565b613b2a82612b60565b67ffffffffffffffff811115613b4357613b42613259565b5b613b4d825461386a565b613b58828285613a94565b600060209050601f831160018114613b8b5760008415613b79578287015190505b613b838582613b05565b865550613beb565b601f198416613b9986613975565b60005b82811015613bc157848901518255600182019150602085019450602081019050613b9c565b86831015613bde5784890151613bda601f891682613ae7565b8355505b6001600288020188555050505b505050505050565b60008160001c9050919050565b6000819050919050565b6000613c1d613c1883613bf3565b613c00565b9050919050565b60008154613c318161386a565b613c3b8186612d0a565b94506001821660008114613c565760018114613c6c57613c9f565b60ff198316865281151560200286019350613c9f565b613c7585613975565b60005b83811015613c9757815481890152600182019150602081019050613c78565b808801955050505b50505092915050565b600061012083016000808401549050613cc081613c0a565b613ccd6000870182612cfb565b5060018401549050613cde81613c0a565b613ceb6020870182612cfb565b50600284018583036040870152613d028382613c24565b925050600384018583036060870152613d1b8382613c24565b92505060048401549050613d2e81613c0a565b613d3b6080870182612cfb565b506005840185830360a0870152613d528382613c24565b9250506006840185830360c0870152613d6b8382613c24565b9250506007840185830360e0870152613d848382613c24565b92505060088401858303610100870152613d9e8382613c24565b925050819250505092915050565b60006020820190508181036000830152613dc68184613ca8565b905092915050565b600060c083016000808401549050613de581613c0a565b613df26000870182612cfb565b50600184018583036020870152613e098382613c24565b925050600284018583036040870152613e228382613c24565b925050600384018583036060870152613e3b8382613c24565b925050600484018583036080870152613e548382613c24565b9250506005840185830360a0870152613e6d8382613c24565b925050819250505092915050565b60006020820190508181036000830152613e958184613dce565b90509291505056fea2646970667358221220ba7e555fa0c5eee5a7bb7e2a4cdffc973f054345af9c8727b014c6e185f17b9164736f6c63430008180033","opcodes":"PUSH1 0x80 PUSH1 0x40 MSTORE PUSH1 0x0 PUSH1 0x8 SSTORE PUSH1 0x0 PUSH1 0x9 SSTORE PUSH1 0x0 PUSH1 0xA SSTORE PUSH1 0x0 PUSH1 0xB SSTORE PUSH1 0x0 PUSH1 0xC SSTORE CALLVALUE DUP1 ISZERO PUSH3 0x2A JUMPI PUSH1 0x0 DUP1 REVERT JUMPDEST POP PUSH1 0x40 MLOAD DUP1 PUSH1 0x40 ADD PUSH1 0x40 MSTORE DUP1 PUSH1 0x9 DUP2 MSTORE PUSH1 0x20 ADD PUSH32 0x4F70656E4669656C640000000000000000000000000000000000000000000000 DUP2 MSTORE POP PUSH1 0x0 SWAP1 DUP2 PUSH3 0x71 SWAP2 SWAP1 PUSH3 0x176A JUMP JUMPDEST POP PUSH1 0x1 PUSH1 0x9 PUSH1 0x0 DUP3 DUP3 SLOAD PUSH3 0x87 SWAP2 SWAP1 PUSH3 0x1880 JUMP JUMPDEST SWAP3 POP POP DUP2 SWAP1 SSTORE POP PUSH1 0x0 PUSH1 0x2 PUSH1 0x0 PUSH1 0x9 SLOAD DUP2 MSTORE PUSH1 0x20 ADD SWAP1 DUP2 MSTORE PUSH1 0x20 ADD PUSH1 0x0 KECCAK256 SWAP1 POP PUSH1 0x1 DUP2 PUSH1 0x0 ADD DUP2 SWAP1 SSTORE POP PUSH1 0x40 MLOAD DUP1 PUSH1 0x40 ADD PUSH1 0x40 MSTORE DUP1 PUSH1 0xF DUP2 MSTORE PUSH1 0x20 ADD PUSH32 0x436F726F6D616E204C696D697465640000000000000000000000000000000000 DUP2 MSTORE POP DUP2 PUSH1 0x1 ADD SWAP1 DUP2 PUSH3 0xF9 SWAP2 SWAP1 PUSH3 0x176A JUMP JUMPDEST POP PUSH1 0x40 MLOAD DUP1 PUSH1 0x40 ADD PUSH1 0x40 MSTORE DUP1 PUSH1 0x5 DUP2 MSTORE PUSH1 0x20 ADD PUSH32 0x616B697368000000000000000000000000000000000000000000000000000000 DUP2 MSTORE POP DUP2 PUSH1 0x2 ADD SWAP1 DUP2 PUSH3 0x142 SWAP2 SWAP1 PUSH3 0x176A JUMP JUMPDEST POP PUSH1 0x40 MLOAD DUP1 PUSH1 0x40 ADD PUSH1 0x40 MSTORE DUP1 PUSH1 0x8 DUP2 MSTORE PUSH1 0x20 ADD PUSH32 0x42656E676C757275000000000000000000000000000000000000000000000000 DUP2 MSTORE POP DUP2 PUSH1 0x3 ADD SWAP1 DUP2 PUSH3 0x18B SWAP2 SWAP1 PUSH3 0x176A JUMP JUMPDEST POP PUSH1 0x40 MLOAD DUP1 PUSH1 0x40 ADD PUSH1 0x40 MSTORE DUP1 PUSH1 0x3 DUP2 MSTORE PUSH1 0x20 ADD PUSH32 0x3436250000000000000000000000000000000000000000000000000000000000 DUP2 MSTORE POP DUP2 PUSH1 0x4 ADD SWAP1 DUP2 PUSH3 0x1D4 SWAP2 SWAP1 PUSH3 0x176A JUMP JUMPDEST POP PUSH1 0x40 MLOAD DUP1 PUSH1 0x40 ADD PUSH1 0x40 MSTORE DUP1 PUSH1 0x3 DUP2 MSTORE PUSH1 0x20 ADD PUSH32 0x3336250000000000000000000000000000000000000000000000000000000000 DUP2 MSTORE POP DUP2 PUSH1 0x5 ADD SWAP1 DUP2 PUSH3 0x21D SWAP2 SWAP1 PUSH3 0x176A JUMP JUMPDEST POP PUSH1 0x1 PUSH1 0x9 PUSH1 0x0 DUP3 DUP3 SLOAD PUSH3 0x233 SWAP2 SWAP1 PUSH3 0x1880 JUMP JUMPDEST SWAP3 POP POP DUP2 SWAP1 SSTORE POP PUSH1 0x0 PUSH1 0x2 PUSH1 0x0 PUSH1 0x9 SLOAD DUP2 MSTORE PUSH1 0x20 ADD SWAP1 DUP2 MSTORE PUSH1 0x20 ADD PUSH1 0x0 KECCAK256 SWAP1 POP PUSH1 0x2 DUP2 PUSH1 0x0 ADD DUP2 SWAP1 SSTORE POP PUSH1 0x40 MLOAD DUP1 PUSH1 0x40 ADD PUSH1 0x40 MSTORE DUP1 PUSH1 0xC DUP2 MSTORE PUSH1 0x20 ADD PUSH32 0x4348414B204C696D697465640000000000000000000000000000000000000000 DUP2 MSTORE POP DUP2 PUSH1 0x1 ADD SWAP1 DUP2 PUSH3 0x2A5 SWAP2 SWAP1 PUSH3 0x176A JUMP JUMPDEST POP PUSH1 0x40 MLOAD DUP1 PUSH1 0x40 ADD PUSH1 0x40 MSTORE DUP1 PUSH1 0x6 DUP2 MSTORE PUSH1 0x20 ADD PUSH32 0x20616D7275680000000000000000000000000000000000000000000000000000 DUP2 MSTORE POP DUP2 PUSH1 0x2 ADD SWAP1 DUP2 PUSH3 0x2EE SWAP2 SWAP1 PUSH3 0x176A JUMP JUMPDEST POP PUSH1 0x40 MLOAD DUP1 PUSH1 0x40 ADD PUSH1 0x40 MSTORE DUP1 PUSH1 0xE DUP2 MSTORE PUSH1 0x20 ADD PUSH32 0x416E646872612070726164657368000000000000000000000000000000000000 DUP2 MSTORE POP DUP2 PUSH1 0x3 ADD SWAP1 DUP2 PUSH3 0x337 SWAP2 SWAP1 PUSH3 0x176A JUMP JUMPDEST POP PUSH1 0x40 MLOAD DUP1 PUSH1 0x40 ADD PUSH1 0x40 MSTORE DUP1 PUSH1 0x3 DUP2 MSTORE PUSH1 0x20 ADD PUSH32 0x3530250000000000000000000000000000000000000000000000000000000000 DUP2 MSTORE POP DUP2 PUSH1 0x4 ADD SWAP1 DUP2 PUSH3 0x380 SWAP2 SWAP1 PUSH3 0x176A JUMP JUMPDEST POP PUSH1 0x40 MLOAD DUP1 PUSH1 0x40 ADD PUSH1 0x40 MSTORE DUP1 PUSH1 0x3 DUP2 MSTORE PUSH1 0x20 ADD PUSH32 0x3238250000000000000000000000000000000000000000000000000000000000 DUP2 MSTORE POP DUP2 PUSH1 0x5 ADD SWAP1 DUP2 PUSH3 0x3C9 SWAP2 SWAP1 PUSH3 0x176A JUMP JUMPDEST POP PUSH3 0x522 PUSH1 0x1 PUSH1 0x5A PUSH1 0x40 MLOAD DUP1 PUSH1 0x40 ADD PUSH1 0x40 MSTORE DUP1 PUSH1 0x10 DUP2 MSTORE PUSH1 0x20 ADD PUSH32 0x416D6D6F6E69756D206E69747261746500000000000000000000000000000000 DUP2 MSTORE POP PUSH1 0x40 MLOAD DUP1 PUSH1 0x40 ADD PUSH1 0x40 MSTORE DUP1 PUSH1 0xF DUP2 MSTORE PUSH1 0x20 ADD PUSH32 0x436F726F6D616E204C696D697465640000000000000000000000000000000000 DUP2 MSTORE POP PUSH1 0x40 MLOAD DUP1 PUSH1 0x40 ADD PUSH1 0x40 MSTORE DUP1 PUSH1 0x8 DUP2 MSTORE PUSH1 0x20 ADD PUSH32 0x616D6D6F6E69756D000000000000000000000000000000000000000000000000 DUP2 MSTORE POP PUSH1 0x40 MLOAD DUP1 PUSH1 0x40 ADD PUSH1 0x40 MSTORE DUP1 PUSH1 0x4 DUP2 MSTORE PUSH1 0x20 ADD PUSH32 0x4230303100000000000000000000000000000000000000000000000000000000 DUP2 MSTORE POP PUSH1 0x40 MLOAD DUP1 PUSH1 0x40 ADD PUSH1 0x40 MSTORE DUP1 PUSH1 0x9 DUP2 MSTORE PUSH1 0x20 ADD PUSH32 0x312F31322F323030320000000000000000000000000000000000000000000000 DUP2 MSTORE POP PUSH1 0x40 MLOAD DUP1 PUSH1 0x40 ADD PUSH1 0x40 MSTORE DUP1 PUSH1 0x9 DUP2 MSTORE PUSH1 0x20 ADD PUSH32 0x372F30332F323030330000000000000000000000000000000000000000000000 DUP2 MSTORE POP PUSH3 0x125C PUSH1 0x20 SHL PUSH1 0x20 SHR JUMP JUMPDEST PUSH3 0x67A PUSH1 0x1 PUSH1 0x1E PUSH1 0x40 MLOAD DUP1 PUSH1 0x40 ADD PUSH1 0x40 MSTORE DUP1 PUSH1 0xA DUP2 MSTORE PUSH1 0x20 ADD PUSH32 0x50686F7370687572757300000000000000000000000000000000000000000000 DUP2 MSTORE POP PUSH1 0x40 MLOAD DUP1 PUSH1 0x40 ADD PUSH1 0x40 MSTORE DUP1 PUSH1 0xF DUP2 MSTORE PUSH1 0x20 ADD PUSH32 0x436F726F6D616E204C696D697465640000000000000000000000000000000000 DUP2 MSTORE POP PUSH1 0x40 MLOAD DUP1 PUSH1 0x40 ADD PUSH1 0x40 MSTORE DUP1 PUSH1 0xA DUP2 MSTORE PUSH1 0x20 ADD PUSH32 0x70686F7370687572757300000000000000000000000000000000000000000000 DUP2 MSTORE POP PUSH1 0x40 MLOAD DUP1 PUSH1 0x40 ADD PUSH1 0x40 MSTORE DUP1 PUSH1 0x4 DUP2 MSTORE PUSH1 0x20 ADD PUSH32 0x4230303200000000000000000000000000000000000000000000000000000000 DUP2 MSTORE POP PUSH1 0x40 MLOAD DUP1 PUSH1 0x40 ADD PUSH1 0x40 MSTORE DUP1 PUSH1 0xA DUP2 MSTORE PUSH1 0x20 ADD PUSH32 0x31362F31322F3230303200000000000000000000000000000000000000000000 DUP2 MSTORE POP PUSH1 0x40 MLOAD DUP1 PUSH1 0x40 ADD PUSH1 0x40 MSTORE DUP1 PUSH1 0x9 DUP2 MSTORE PUSH1 0x20 ADD PUSH32 0x372F30332F323030330000000000000000000000000000000000000000000000 DUP2 MSTORE POP PUSH3 0x125C PUSH1 0x20 SHL PUSH1 0x20 SHR JUMP JUMPDEST PUSH3 0x7D2 PUSH1 0x1 PUSH1 0x28 PUSH1 0x40 MLOAD DUP1 PUSH1 0x40 ADD PUSH1 0x40 MSTORE DUP1 PUSH1 0xF DUP2 MSTORE PUSH1 0x20 ADD PUSH32 0x537570657250686F737068757275730000000000000000000000000000000000 DUP2 MSTORE POP PUSH1 0x40 MLOAD DUP1 PUSH1 0x40 ADD PUSH1 0x40 MSTORE DUP1 PUSH1 0xF DUP2 MSTORE PUSH1 0x20 ADD PUSH32 0x436F726F6D616E204C696D697465640000000000000000000000000000000000 DUP2 MSTORE POP PUSH1 0x40 MLOAD DUP1 PUSH1 0x40 ADD PUSH1 0x40 MSTORE DUP1 PUSH1 0xA DUP2 MSTORE PUSH1 0x20 ADD PUSH32 0x70686F7370687572757300000000000000000000000000000000000000000000 DUP2 MSTORE POP PUSH1 0x40 MLOAD DUP1 PUSH1 0x40 ADD PUSH1 0x40 MSTORE DUP1 PUSH1 0x4 DUP2 MSTORE PUSH1 0x20 ADD PUSH32 0x4230303300000000000000000000000000000000000000000000000000000000 DUP2 MSTORE POP PUSH1 0x40 MLOAD DUP1 PUSH1 0x40 ADD PUSH1 0x40 MSTORE DUP1 PUSH1 0x9 DUP2 MSTORE PUSH1 0x20 ADD PUSH32 0x362F31322F323030320000000000000000000000000000000000000000000000 DUP2 MSTORE POP PUSH1 0x40 MLOAD DUP1 PUSH1 0x40 ADD PUSH1 0x40 MSTORE DUP1 PUSH1 0x9 DUP2 MSTORE PUSH1 0x20 ADD PUSH32 0x382F30372F323030330000000000000000000000000000000000000000000000 DUP2 MSTORE POP PUSH3 0x125C PUSH1 0x20 SHL PUSH1 0x20 SHR JUMP JUMPDEST PUSH3 0x92A PUSH1 0x2 PUSH1 0x50 PUSH1 0x40 MLOAD DUP1 PUSH1 0x40 ADD PUSH1 0x40 MSTORE DUP1 PUSH1 0xF DUP2 MSTORE PUSH1 0x20 ADD PUSH32 0x526F636B2070686F737061686174650000000000000000000000000000000000 DUP2 MSTORE POP PUSH1 0x40 MLOAD DUP1 PUSH1 0x40 ADD PUSH1 0x40 MSTORE DUP1 PUSH1 0xC DUP2 MSTORE PUSH1 0x20 ADD PUSH32 0x4348414B204C696D697465640000000000000000000000000000000000000000 DUP2 MSTORE POP PUSH1 0x40 MLOAD DUP1 PUSH1 0x40 ADD PUSH1 0x40 MSTORE DUP1 PUSH1 0x9 DUP2 MSTORE PUSH1 0x20 ADD PUSH32 0x70686F7370686174650000000000000000000000000000000000000000000000 DUP2 MSTORE POP PUSH1 0x40 MLOAD DUP1 PUSH1 0x40 ADD PUSH1 0x40 MSTORE DUP1 PUSH1 0x4 DUP2 MSTORE PUSH1 0x20 ADD PUSH32 0x4230303900000000000000000000000000000000000000000000000000000000 DUP2 MSTORE POP PUSH1 0x40 MLOAD DUP1 PUSH1 0x40 ADD PUSH1 0x40 MSTORE DUP1 PUSH1 0x9 DUP2 MSTORE PUSH1 0x20 ADD PUSH32 0x32322F312F323030320000000000000000000000000000000000000000000000 DUP2 MSTORE POP PUSH1 0x40 MLOAD DUP1 PUSH1 0x40 ADD PUSH1 0x40 MSTORE DUP1 PUSH1 0x9 DUP2 MSTORE PUSH1 0x20 ADD PUSH32 0x372F30332F323030330000000000000000000000000000000000000000000000 DUP2 MSTORE POP PUSH3 0x125C PUSH1 0x20 SHL PUSH1 0x20 SHR JUMP JUMPDEST PUSH3 0xA82 PUSH1 0x2 PUSH1 0x50 PUSH1 0x40 MLOAD DUP1 PUSH1 0x40 ADD PUSH1 0x40 MSTORE DUP1 PUSH1 0x10 DUP2 MSTORE PUSH1 0x20 ADD PUSH32 0x416D6F6E69756D2063686C6F7269646500000000000000000000000000000000 DUP2 MSTORE POP PUSH1 0x40 MLOAD DUP1 PUSH1 0x40 ADD PUSH1 0x40 MSTORE DUP1 PUSH1 0xC DUP2 MSTORE PUSH1 0x20 ADD PUSH32 0x4348414B204C696D697465640000000000000000000000000000000000000000 DUP2 MSTORE POP PUSH1 0x40 MLOAD DUP1 PUSH1 0x40 ADD PUSH1 0x40 MSTORE DUP1 PUSH1 0x7 DUP2 MSTORE PUSH1 0x20 ADD PUSH32 0x416D6F6E69756D00000000000000000000000000000000000000000000000000 DUP2 MSTORE POP PUSH1 0x40 MLOAD DUP1 PUSH1 0x40 ADD PUSH1 0x40 MSTORE DUP1 PUSH1 0x4 DUP2 MSTORE PUSH1 0x20 ADD PUSH32 0x4230313000000000000000000000000000000000000000000000000000000000 DUP2 MSTORE POP PUSH1 0x40 MLOAD DUP1 PUSH1 0x40 ADD PUSH1 0x40 MSTORE DUP1 PUSH1 0x9 DUP2 MSTORE PUSH1 0x20 ADD PUSH32 0x31392F312F323030320000000000000000000000000000000000000000000000 DUP2 MSTORE POP PUSH1 0x40 MLOAD DUP1 PUSH1 0x40 ADD PUSH1 0x40 MSTORE DUP1 PUSH1 0x9 DUP2 MSTORE PUSH1 0x20 ADD PUSH32 0x372F30392F323030330000000000000000000000000000000000000000000000 DUP2 MSTORE POP PUSH3 0x125C PUSH1 0x20 SHL PUSH1 0x20 SHR JUMP JUMPDEST PUSH3 0xBA0 PUSH1 0x40 MLOAD DUP1 PUSH1 0x40 ADD PUSH1 0x40 MSTORE DUP1 PUSH1 0x8 DUP2 MSTORE PUSH1 0x20 ADD PUSH32 0x5372656568617269000000000000000000000000000000000000000000000000 DUP2 MSTORE POP PUSH1 0x40 MLOAD DUP1 PUSH1 0x40 ADD PUSH1 0x40 MSTORE DUP1 PUSH1 0xA DUP2 MSTORE PUSH1 0x20 ADD PUSH32 0x3735363938343533323500000000000000000000000000000000000000000000 DUP2 MSTORE POP PUSH1 0x40 MLOAD DUP1 PUSH1 0x40 ADD PUSH1 0x40 MSTORE DUP1 PUSH1 0x6 DUP2 MSTORE PUSH1 0x20 ADD PUSH32 0x6B616E6E75720000000000000000000000000000000000000000000000000000 DUP2 MSTORE POP PUSH1 0x40 MLOAD DUP1 PUSH1 0x40 ADD PUSH1 0x40 MSTORE DUP1 PUSH1 0x3 DUP2 MSTORE PUSH1 0x20 ADD PUSH32 0x3535250000000000000000000000000000000000000000000000000000000000 DUP2 MSTORE POP PUSH1 0x40 MLOAD DUP1 PUSH1 0x40 ADD PUSH1 0x40 MSTORE DUP1 PUSH1 0x3 DUP2 MSTORE PUSH1 0x20 ADD PUSH32 0x3230250000000000000000000000000000000000000000000000000000000000 DUP2 MSTORE POP PUSH3 0x13C2 PUSH1 0x20 SHL PUSH1 0x20 SHR JUMP JUMPDEST PUSH3 0xCBE PUSH1 0x40 MLOAD DUP1 PUSH1 0x40 ADD PUSH1 0x40 MSTORE DUP1 PUSH1 0x5 DUP2 MSTORE PUSH1 0x20 ADD PUSH32 0x416B617368000000000000000000000000000000000000000000000000000000 DUP2 MSTORE POP PUSH1 0x40 MLOAD DUP1 PUSH1 0x40 ADD PUSH1 0x40 MSTORE DUP1 PUSH1 0xA DUP2 MSTORE PUSH1 0x20 ADD PUSH32 0x3937373638353132343500000000000000000000000000000000000000000000 DUP2 MSTORE POP PUSH1 0x40 MLOAD DUP1 PUSH1 0x40 ADD PUSH1 0x40 MSTORE DUP1 PUSH1 0x8 DUP2 MSTORE PUSH1 0x20 ADD PUSH32 0x686172696B6F6465000000000000000000000000000000000000000000000000 DUP2 MSTORE POP PUSH1 0x40 MLOAD DUP1 PUSH1 0x40 ADD PUSH1 0x40 MSTORE DUP1 PUSH1 0x3 DUP2 MSTORE PUSH1 0x20 ADD PUSH32 0x3435250000000000000000000000000000000000000000000000000000000000 DUP2 MSTORE POP PUSH1 0x40 MLOAD DUP1 PUSH1 0x40 ADD PUSH1 0x40 MSTORE DUP1 PUSH1 0x3 DUP2 MSTORE PUSH1 0x20 ADD PUSH32 0x3233250000000000000000000000000000000000000000000000000000000000 DUP2 MSTORE POP PUSH3 0x13C2 PUSH1 0x20 SHL PUSH1 0x20 SHR JUMP JUMPDEST PUSH3 0xDDC PUSH1 0x40 MLOAD DUP1 PUSH1 0x40 ADD PUSH1 0x40 MSTORE DUP1 PUSH1 0x4 DUP2 MSTORE PUSH1 0x20 ADD PUSH32 0x416C616E00000000000000000000000000000000000000000000000000000000 DUP2 MSTORE POP PUSH1 0x40 MLOAD DUP1 PUSH1 0x40 ADD PUSH1 0x40 MSTORE DUP1 PUSH1 0xA DUP2 MSTORE PUSH1 0x20 ADD PUSH32 0x3738363533333935343500000000000000000000000000000000000000000000 DUP2 MSTORE POP PUSH1 0x40 MLOAD DUP1 PUSH1 0x40 ADD PUSH1 0x40 MSTORE DUP1 PUSH1 0xA DUP2 MSTORE PUSH1 0x20 ADD PUSH32 0x6574616E74686974746100000000000000000000000000000000000000000000 DUP2 MSTORE POP PUSH1 0x40 MLOAD DUP1 PUSH1 0x40 ADD PUSH1 0x40 MSTORE DUP1 PUSH1 0x3 DUP2 MSTORE PUSH1 0x20 ADD PUSH32 0x3432250000000000000000000000000000000000000000000000000000000000 DUP2 MSTORE POP PUSH1 0x40 MLOAD DUP1 PUSH1 0x40 ADD PUSH1 0x40 MSTORE DUP1 PUSH1 0x3 DUP2 MSTORE PUSH1 0x20 ADD PUSH32 0x3137250000000000000000000000000000000000000000000000000000000000 DUP2 MSTORE POP PUSH3 0x13C2 PUSH1 0x20 SHL PUSH1 0x20 SHR JUMP JUMPDEST PUSH3 0xEFA PUSH1 0x40 MLOAD DUP1 PUSH1 0x40 ADD PUSH1 0x40 MSTORE DUP1 PUSH1 0x4 DUP2 MSTORE PUSH1 0x20 ADD PUSH32 0x4865796100000000000000000000000000000000000000000000000000000000 DUP2 MSTORE POP PUSH1 0x40 MLOAD DUP1 PUSH1 0x40 ADD PUSH1 0x40 MSTORE DUP1 PUSH1 0xA DUP2 MSTORE PUSH1 0x20 ADD PUSH32 0x3934343637373535353800000000000000000000000000000000000000000000 DUP2 MSTORE POP PUSH1 0x40 MLOAD DUP1 PUSH1 0x40 ADD PUSH1 0x40 MSTORE DUP1 PUSH1 0xE DUP2 MSTORE PUSH1 0x20 ADD PUSH32 0x416E646872612070726164657368000000000000000000000000000000000000 DUP2 MSTORE POP PUSH1 0x40 MLOAD DUP1 PUSH1 0x40 ADD PUSH1 0x40 MSTORE DUP1 PUSH1 0x3 DUP2 MSTORE PUSH1 0x20 ADD PUSH32 0x3435250000000000000000000000000000000000000000000000000000000000 DUP2 MSTORE POP PUSH1 0x40 MLOAD DUP1 PUSH1 0x40 ADD PUSH1 0x40 MSTORE DUP1 PUSH1 0x3 DUP2 MSTORE PUSH1 0x20 ADD PUSH32 0x3230250000000000000000000000000000000000000000000000000000000000 DUP2 MSTORE POP PUSH3 0x13C2 PUSH1 0x20 SHL PUSH1 0x20 SHR JUMP JUMPDEST PUSH3 0x1018 PUSH1 0x40 MLOAD DUP1 PUSH1 0x40 ADD PUSH1 0x40 MSTORE DUP1 PUSH1 0x6 DUP2 MSTORE PUSH1 0x20 ADD PUSH32 0x41736877696E0000000000000000000000000000000000000000000000000000 DUP2 MSTORE POP PUSH1 0x40 MLOAD DUP1 PUSH1 0x40 ADD PUSH1 0x40 MSTORE DUP1 PUSH1 0xA DUP2 MSTORE PUSH1 0x20 ADD PUSH32 0x3637373938383534383100000000000000000000000000000000000000000000 DUP2 MSTORE POP PUSH1 0x40 MLOAD DUP1 PUSH1 0x40 ADD PUSH1 0x40 MSTORE DUP1 PUSH1 0xB DUP2 MSTORE PUSH1 0x20 ADD PUSH32 0x4368656E6E61692C20544E000000000000000000000000000000000000000000 DUP2 MSTORE POP PUSH1 0x40 MLOAD DUP1 PUSH1 0x40 ADD PUSH1 0x40 MSTORE DUP1 PUSH1 0x3 DUP2 MSTORE PUSH1 0x20 ADD PUSH32 0x3435250000000000000000000000000000000000000000000000000000000000 DUP2 MSTORE POP PUSH1 0x40 MLOAD DUP1 PUSH1 0x40 ADD PUSH1 0x40 MSTORE DUP1 PUSH1 0x3 DUP2 MSTORE PUSH1 0x20 ADD PUSH32 0x3530250000000000000000000000000000000000000000000000000000000000 DUP2 MSTORE POP PUSH3 0x13C2 PUSH1 0x20 SHL PUSH1 0x20 SHR JUMP JUMPDEST PUSH3 0x1136 PUSH1 0x40 MLOAD DUP1 PUSH1 0x40 ADD PUSH1 0x40 MSTORE DUP1 PUSH1 0x5 DUP2 MSTORE PUSH1 0x20 ADD PUSH32 0x4173686572000000000000000000000000000000000000000000000000000000 DUP2 MSTORE POP PUSH1 0x40 MLOAD DUP1 PUSH1 0x40 ADD PUSH1 0x40 MSTORE DUP1 PUSH1 0xB DUP2 MSTORE PUSH1 0x20 ADD PUSH32 0x3734343639383833323535000000000000000000000000000000000000000000 DUP2 MSTORE POP PUSH1 0x40 MLOAD DUP1 PUSH1 0x40 ADD PUSH1 0x40 MSTORE DUP1 PUSH1 0x9 DUP2 MSTORE PUSH1 0x20 ADD PUSH32 0x54656C616E67616E610000000000000000000000000000000000000000000000 DUP2 MSTORE POP PUSH1 0x40 MLOAD DUP1 PUSH1 0x40 ADD PUSH1 0x40 MSTORE DUP1 PUSH1 0x3 DUP2 MSTORE PUSH1 0x20 ADD PUSH32 0x3435250000000000000000000000000000000000000000000000000000000000 DUP2 MSTORE POP PUSH1 0x40 MLOAD DUP1 PUSH1 0x40 ADD PUSH1 0x40 MSTORE DUP1 PUSH1 0x3 DUP2 MSTORE PUSH1 0x20 ADD PUSH32 0x3130250000000000000000000000000000000000000000000000000000000000 DUP2 MSTORE POP PUSH3 0x13C2 PUSH1 0x20 SHL PUSH1 0x20 SHR JUMP JUMPDEST PUSH3 0x1254 PUSH1 0x40 MLOAD DUP1 PUSH1 0x40 ADD PUSH1 0x40 MSTORE DUP1 PUSH1 0x5 DUP2 MSTORE PUSH1 0x20 ADD PUSH32 0x4E6F6F6861000000000000000000000000000000000000000000000000000000 DUP2 MSTORE POP PUSH1 0x40 MLOAD DUP1 PUSH1 0x40 ADD PUSH1 0x40 MSTORE DUP1 PUSH1 0xA DUP2 MSTORE PUSH1 0x20 ADD PUSH32 0x3936363535383834343200000000000000000000000000000000000000000000 DUP2 MSTORE POP PUSH1 0x40 MLOAD DUP1 PUSH1 0x40 ADD PUSH1 0x40 MSTORE DUP1 PUSH1 0xD DUP2 MSTORE PUSH1 0x20 ADD PUSH32 0x4879646572616261642C20415000000000000000000000000000000000000000 DUP2 MSTORE POP PUSH1 0x40 MLOAD DUP1 PUSH1 0x40 ADD PUSH1 0x40 MSTORE DUP1 PUSH1 0x3 DUP2 MSTORE PUSH1 0x20 ADD PUSH32 0x3435250000000000000000000000000000000000000000000000000000000000 DUP2 MSTORE POP PUSH1 0x40 MLOAD DUP1 PUSH1 0x40 ADD PUSH1 0x40 MSTORE DUP1 PUSH1 0x3 DUP2 MSTORE PUSH1 0x20 ADD PUSH32 0x3330250000000000000000000000000000000000000000000000000000000000 DUP2 MSTORE POP PUSH3 0x13C2 PUSH1 0x20 SHL PUSH1 0x20 SHR JUMP JUMPDEST POP POP PUSH3 0x1C0E JUMP JUMPDEST PUSH1 0x0 DUP7 MLOAD GT PUSH3 0x126B JUMPI PUSH1 0x0 DUP1 REVERT JUMPDEST PUSH1 0x0 DUP6 MLOAD GT PUSH3 0x127A JUMPI PUSH1 0x0 DUP1 REVERT JUMPDEST PUSH1 0x0 DUP5 MLOAD GT PUSH3 0x1289 JUMPI PUSH1 0x0 DUP1 REVERT JUMPDEST PUSH1 0x0 DUP4 MLOAD GT PUSH3 0x1298 JUMPI PUSH1 0x0 DUP1 REVERT JUMPDEST PUSH1 0x0 DUP3 MLOAD GT PUSH3 0x12A7 JUMPI PUSH1 0x0 DUP1 REVERT JUMPDEST PUSH1 0x0 DUP2 MLOAD GT PUSH3 0x12B6 JUMPI PUSH1 0x0 DUP1 REVERT JUMPDEST PUSH1 0xC PUSH1 0x0 DUP2 SLOAD DUP1 SWAP3 SWAP2 SWAP1 PUSH3 0x12CB SWAP1 PUSH3 0x18BB JUMP JUMPDEST SWAP2 SWAP1 POP SSTORE POP PUSH1 0x0 PUSH1 0x6 PUSH1 0x0 PUSH1 0xC SLOAD DUP2 MSTORE PUSH1 0x20 ADD SWAP1 DUP2 MSTORE PUSH1 0x20 ADD PUSH1 0x0 KECCAK256 SWAP1 POP PUSH1 0xC SLOAD DUP2 PUSH1 0x0 ADD DUP2 SWAP1 SSTORE POP DUP9 DUP2 PUSH1 0x1 ADD DUP2 SWAP1 SSTORE POP DUP7 DUP2 PUSH1 0x3 ADD SWAP1 DUP2 PUSH3 0x1310 SWAP2 SWAP1 PUSH3 0x176A JUMP JUMPDEST POP DUP6 DUP2 PUSH1 0x2 ADD SWAP1 DUP2 PUSH3 0x1324 SWAP2 SWAP1 PUSH3 0x176A JUMP JUMPDEST POP DUP8 DUP2 PUSH1 0x4 ADD DUP2 SWAP1 SSTORE POP DUP5 DUP2 PUSH1 0x5 ADD SWAP1 DUP2 PUSH3 0x1341 SWAP2 SWAP1 PUSH3 0x176A JUMP JUMPDEST POP DUP4 DUP2 PUSH1 0x6 ADD SWAP1 DUP2 PUSH3 0x1355 SWAP2 SWAP1 PUSH3 0x176A JUMP JUMPDEST POP DUP3 DUP2 PUSH1 0x7 ADD SWAP1 DUP2 PUSH3 0x1369 SWAP2 SWAP1 PUSH3 0x176A JUMP JUMPDEST POP DUP2 DUP2 PUSH1 0x8 ADD SWAP1 DUP2 PUSH3 0x137D SWAP2 SWAP1 PUSH3 0x176A JUMP JUMPDEST POP PUSH32 0xEDDE1F77670C495BDD95AA0A5818AFB5B25C0110FEC0CF231934B4069DBEF6A1 DUP2 PUSH1 0x40 MLOAD PUSH3 0x13AF SWAP2 SWAP1 PUSH3 0x1B0B JUMP JUMPDEST PUSH1 0x40 MLOAD DUP1 SWAP2 SUB SWAP1 LOG1 POP POP POP POP POP POP POP POP POP JUMP JUMPDEST PUSH1 0x0 DUP6 MLOAD GT PUSH3 0x13D1 JUMPI PUSH1 0x0 DUP1 REVERT JUMPDEST PUSH1 0x0 DUP5 MLOAD GT PUSH3 0x13E0 JUMPI PUSH1 0x0 DUP1 REVERT JUMPDEST PUSH1 0x0 DUP4 MLOAD GT PUSH3 0x13EF JUMPI PUSH1 0x0 DUP1 REVERT JUMPDEST PUSH1 0x0 DUP3 MLOAD GT PUSH3 0x13FE JUMPI PUSH1 0x0 DUP1 REVERT JUMPDEST PUSH1 0x0 DUP2 MLOAD GT PUSH3 0x140D JUMPI PUSH1 0x0 DUP1 REVERT JUMPDEST PUSH1 0x8 PUSH1 0x0 DUP2 SLOAD DUP1 SWAP3 SWAP2 SWAP1 PUSH3 0x1422 SWAP1 PUSH3 0x18BB JUMP JUMPDEST SWAP2 SWAP1 POP SSTORE POP PUSH1 0x0 PUSH1 0x1 PUSH1 0x0 PUSH1 0x8 SLOAD DUP2 MSTORE PUSH1 0x20 ADD SWAP1 DUP2 MSTORE PUSH1 0x20 ADD PUSH1 0x0 KECCAK256 SWAP1 POP PUSH1 0x8 SLOAD DUP2 PUSH1 0x0 ADD DUP2 SWAP1 SSTORE POP DUP6 DUP2 PUSH1 0x1 ADD SWAP1 DUP2 PUSH3 0x145E SWAP2 SWAP1 PUSH3 0x176A JUMP JUMPDEST POP DUP5 DUP2 PUSH1 0x5 ADD SWAP1 DUP2 PUSH3 0x1472 SWAP2 SWAP1 PUSH3 0x176A JUMP JUMPDEST POP DUP4 DUP2 PUSH1 0x2 ADD SWAP1 DUP2 PUSH3 0x1486 SWAP2 SWAP1 PUSH3 0x176A JUMP JUMPDEST POP DUP3 DUP2 PUSH1 0x3 ADD SWAP1 DUP2 PUSH3 0x149A SWAP2 SWAP1 PUSH3 0x176A JUMP JUMPDEST POP DUP2 DUP2 PUSH1 0x4 ADD SWAP1 DUP2 PUSH3 0x14AE SWAP2 SWAP1 PUSH3 0x176A JUMP JUMPDEST POP PUSH32 0x8A393F24B50F96CB78DCFB57A53C4C8979F03A0C93941FF9576C05C14A9465CF DUP2 PUSH1 0x40 MLOAD PUSH3 0x14E0 SWAP2 SWAP1 PUSH3 0x1BEA JUMP JUMPDEST PUSH1 0x40 MLOAD DUP1 SWAP2 SUB SWAP1 LOG1 POP POP POP POP POP POP JUMP JUMPDEST PUSH1 0x0 DUP2 MLOAD SWAP1 POP SWAP2 SWAP1 POP JUMP JUMPDEST PUSH32 0x4E487B7100000000000000000000000000000000000000000000000000000000 PUSH1 0x0 MSTORE PUSH1 0x41 PUSH1 0x4 MSTORE PUSH1 0x24 PUSH1 0x0 REVERT JUMPDEST PUSH32 0x4E487B7100000000000000000000000000000000000000000000000000000000 PUSH1 0x0 MSTORE PUSH1 0x22 PUSH1 0x4 MSTORE PUSH1 0x24 PUSH1 0x0 REVERT JUMPDEST PUSH1 0x0 PUSH1 0x2 DUP3 DIV SWAP1 POP PUSH1 0x1 DUP3 AND DUP1 PUSH3 0x1572 JUMPI PUSH1 0x7F DUP3 AND SWAP2 POP JUMPDEST PUSH1 0x20 DUP3 LT DUP2 SUB PUSH3 0x1588 JUMPI PUSH3 0x1587 PUSH3 0x152A JUMP JUMPDEST JUMPDEST POP SWAP2 SWAP1 POP JUMP JUMPDEST PUSH1 0x0 DUP2 SWAP1 POP DUP2 PUSH1 0x0 MSTORE PUSH1 0x20 PUSH1 0x0 KECCAK256 SWAP1 POP SWAP2 SWAP1 POP JUMP JUMPDEST PUSH1 0x0 PUSH1 0x20 PUSH1 0x1F DUP4 ADD DIV SWAP1 POP SWAP2 SWAP1 POP JUMP JUMPDEST PUSH1 0x0 DUP3 DUP3 SHL SWAP1 POP SWAP3 SWAP2 POP POP JUMP JUMPDEST PUSH1 0x0 PUSH1 0x8 DUP4 MUL PUSH3 0x15F2 PUSH32 0xFFFFFFFFFFFFFFFFFFFFFFFFFFFFFFFFFFFFFFFFFFFFFFFFFFFFFFFFFFFFFFFF DUP3 PUSH3 0x15B3 JUMP JUMPDEST PUSH3 0x15FE DUP7 DUP4 PUSH3 0x15B3 JUMP JUMPDEST SWAP6 POP DUP1 NOT DUP5 AND SWAP4 POP DUP1 DUP7 AND DUP5 OR SWAP3 POP POP POP SWAP4 SWAP3 POP POP POP JUMP JUMPDEST PUSH1 0x0 DUP2 SWAP1 POP SWAP2 SWAP1 POP JUMP JUMPDEST PUSH1 0x0 DUP2 SWAP1 POP SWAP2 SWAP1 POP JUMP JUMPDEST PUSH1 0x0 PUSH3 0x164B PUSH3 0x1645 PUSH3 0x163F DUP5 PUSH3 0x1616 JUMP JUMPDEST PUSH3 0x1620 JUMP JUMPDEST PUSH3 0x1616 JUMP JUMPDEST SWAP1 POP SWAP2 SWAP1 POP JUMP JUMPDEST PUSH1 0x0 DUP2 SWAP1 POP SWAP2 SWAP1 POP JUMP JUMPDEST PUSH3 0x1667 DUP4 PUSH3 0x162A JUMP JUMPDEST PUSH3 0x167F PUSH3 0x1676 DUP3 PUSH3 0x1652 JUMP JUMPDEST DUP5 DUP5 SLOAD PUSH3 0x15C0 JUMP JUMPDEST DUP3 SSTORE POP POP POP POP JUMP JUMPDEST PUSH1 0x0 SWAP1 JUMP JUMPDEST PUSH3 0x1696 PUSH3 0x1687 JUMP JUMPDEST PUSH3 0x16A3 DUP2 DUP5 DUP5 PUSH3 0x165C JUMP JUMPDEST POP POP POP JUMP JUMPDEST JUMPDEST DUP2 DUP2 LT ISZERO PUSH3 0x16CB JUMPI PUSH3 0x16BF PUSH1 0x0 DUP3 PUSH3 0x168C JUMP JUMPDEST PUSH1 0x1 DUP2 ADD SWAP1 POP PUSH3 0x16A9 JUMP JUMPDEST POP POP JUMP JUMPDEST PUSH1 0x1F DUP3 GT ISZERO PUSH3 0x171A JUMPI PUSH3 0x16E4 DUP2 PUSH3 0x158E JUMP JUMPDEST PUSH3 0x16EF DUP5 PUSH3 0x15A3 JUMP JUMPDEST DUP2 ADD PUSH1 0x20 DUP6 LT ISZERO PUSH3 0x16FF JUMPI DUP2 SWAP1 POP JUMPDEST PUSH3 0x1717 PUSH3 0x170E DUP6 PUSH3 0x15A3 JUMP JUMPDEST DUP4 ADD DUP3 PUSH3 0x16A8 JUMP JUMPDEST POP POP JUMPDEST POP POP POP JUMP JUMPDEST PUSH1 0x0 DUP3 DUP3 SHR SWAP1 POP SWAP3 SWAP2 POP POP JUMP JUMPDEST PUSH1 0x0 PUSH3 0x173F PUSH1 0x0 NOT DUP5 PUSH1 0x8 MUL PUSH3 0x171F JUMP JUMPDEST NOT DUP1 DUP4 AND SWAP2 POP POP SWAP3 SWAP2 POP POP JUMP JUMPDEST PUSH1 0x0 PUSH3 0x175A DUP4 DUP4 PUSH3 0x172C JUMP JUMPDEST SWAP2 POP DUP3 PUSH1 0x2 MUL DUP3 OR SWAP1 POP SWAP3 SWAP2 POP POP JUMP JUMPDEST PUSH3 0x1775 DUP3 PUSH3 0x14F0 JUMP JUMPDEST PUSH8 0xFFFFFFFFFFFFFFFF DUP2 GT ISZERO PUSH3 0x1791 JUMPI PUSH3 0x1790 PUSH3 0x14FB JUMP JUMPDEST JUMPDEST PUSH3 0x179D DUP3 SLOAD PUSH3 0x1559 JUMP JUMPDEST PUSH3 0x17AA DUP3 DUP3 DUP6 PUSH3 0x16CF JUMP JUMPDEST PUSH1 0x0 PUSH1 0x20 SWAP1 POP PUSH1 0x1F DUP4 GT PUSH1 0x1 DUP2 EQ PUSH3 0x17E2 JUMPI PUSH1 0x0 DUP5 ISZERO PUSH3 0x17CD JUMPI DUP3 DUP8 ADD MLOAD SWAP1 POP JUMPDEST PUSH3 0x17D9 DUP6 DUP3 PUSH3 0x174C JUMP JUMPDEST DUP7 SSTORE POP PUSH3 0x1849 JUMP JUMPDEST PUSH1 0x1F NOT DUP5 AND PUSH3 0x17F2 DUP7 PUSH3 0x158E JUMP JUMPDEST PUSH1 0x0 JUMPDEST DUP3 DUP2 LT ISZERO PUSH3 0x181C JUMPI DUP5 DUP10 ADD MLOAD DUP3 SSTORE PUSH1 0x1 DUP3 ADD SWAP2 POP PUSH1 0x20 DUP6 ADD SWAP5 POP PUSH1 0x20 DUP2 ADD SWAP1 POP PUSH3 0x17F5 JUMP JUMPDEST DUP7 DUP4 LT ISZERO PUSH3 0x183C JUMPI DUP5 DUP10 ADD MLOAD PUSH3 0x1838 PUSH1 0x1F DUP10 AND DUP3 PUSH3 0x172C JUMP JUMPDEST DUP4 SSTORE POP JUMPDEST PUSH1 0x1 PUSH1 0x2 DUP9 MUL ADD DUP9 SSTORE POP POP POP JUMPDEST POP POP POP POP POP POP JUMP JUMPDEST PUSH32 0x4E487B7100000000000000000000000000000000000000000000000000000000 PUSH1 0x0 MSTORE PUSH1 0x11 PUSH1 0x4 MSTORE PUSH1 0x24 PUSH1 0x0 REVERT JUMPDEST PUSH1 0x0 PUSH3 0x188D DUP3 PUSH3 0x1616 JUMP JUMPDEST SWAP2 POP PUSH3 0x189A DUP4 PUSH3 0x1616 JUMP JUMPDEST SWAP3 POP DUP3 DUP3 ADD SWAP1 POP DUP1 DUP3 GT ISZERO PUSH3 0x18B5 JUMPI PUSH3 0x18B4 PUSH3 0x1851 JUMP JUMPDEST JUMPDEST SWAP3 SWAP2 POP POP JUMP JUMPDEST PUSH1 0x0 PUSH3 0x18C8 DUP3 PUSH3 0x1616 JUMP JUMPDEST SWAP2 POP PUSH32 0xFFFFFFFFFFFFFFFFFFFFFFFFFFFFFFFFFFFFFFFFFFFFFFFFFFFFFFFFFFFFFFFF DUP3 SUB PUSH3 0x18FD JUMPI PUSH3 0x18FC PUSH3 0x1851 JUMP JUMPDEST JUMPDEST PUSH1 0x1 DUP3 ADD SWAP1 POP SWAP2 SWAP1 POP JUMP JUMPDEST PUSH1 0x0 DUP2 PUSH1 0x0 SHR SWAP1 POP SWAP2 SWAP1 POP JUMP JUMPDEST PUSH1 0x0 DUP2 SWAP1 POP SWAP2 SWAP1 POP JUMP JUMPDEST PUSH1 0x0 PUSH3 0x1936 PUSH3 0x1930 DUP4 PUSH3 0x1908 JUMP JUMPDEST PUSH3 0x1915 JUMP JUMPDEST SWAP1 POP SWAP2 SWAP1 POP JUMP JUMPDEST PUSH3 0x1948 DUP2 PUSH3 0x1616 JUMP JUMPDEST DUP3 MSTORE POP POP JUMP JUMPDEST PUSH1 0x0 DUP3 DUP3 MSTORE PUSH1 0x20 DUP3 ADD SWAP1 POP SWAP3 SWAP2 POP POP JUMP JUMPDEST PUSH1 0x0 DUP2 SLOAD PUSH3 0x196E DUP2 PUSH3 0x1559 JUMP JUMPDEST PUSH3 0x197A DUP2 DUP7 PUSH3 0x194E JUMP JUMPDEST SWAP5 POP PUSH1 0x1 DUP3 AND PUSH1 0x0 DUP2 EQ PUSH3 0x1998 JUMPI PUSH1 0x1 DUP2 EQ PUSH3 0x19AF JUMPI PUSH3 0x19E6 JUMP JUMPDEST PUSH1 0xFF NOT DUP4 AND DUP7 MSTORE DUP2 ISZERO ISZERO PUSH1 0x20 MUL DUP7 ADD SWAP4 POP PUSH3 0x19E6 JUMP JUMPDEST PUSH3 0x19BA DUP6 PUSH3 0x158E JUMP JUMPDEST PUSH1 0x0 JUMPDEST DUP4 DUP2 LT ISZERO PUSH3 0x19DE JUMPI DUP2 SLOAD DUP2 DUP10 ADD MSTORE PUSH1 0x1 DUP3 ADD SWAP2 POP PUSH1 0x20 DUP2 ADD SWAP1 POP PUSH3 0x19BD JUMP JUMPDEST DUP1 DUP9 ADD SWAP6 POP POP POP JUMPDEST POP POP POP SWAP3 SWAP2 POP POP JUMP JUMPDEST PUSH1 0x0 PUSH2 0x120 DUP4 ADD PUSH1 0x0 DUP1 DUP5 ADD SLOAD SWAP1 POP PUSH3 0x1A09 DUP2 PUSH3 0x191F JUMP JUMPDEST PUSH3 0x1A18 PUSH1 0x0 DUP8 ADD DUP3 PUSH3 0x193D JUMP JUMPDEST POP PUSH1 0x1 DUP5 ADD SLOAD SWAP1 POP PUSH3 0x1A2B DUP2 PUSH3 0x191F JUMP JUMPDEST PUSH3 0x1A3A PUSH1 0x20 DUP8 ADD DUP3 PUSH3 0x193D JUMP JUMPDEST POP PUSH1 0x2 DUP5 ADD DUP6 DUP4 SUB PUSH1 0x40 DUP8 ADD MSTORE PUSH3 0x1A53 DUP4 DUP3 PUSH3 0x195F JUMP JUMPDEST SWAP3 POP POP PUSH1 0x3 DUP5 ADD DUP6 DUP4 SUB PUSH1 0x60 DUP8 ADD MSTORE PUSH3 0x1A6E DUP4 DUP3 PUSH3 0x195F JUMP JUMPDEST SWAP3 POP POP PUSH1 0x4 DUP5 ADD SLOAD SWAP1 POP PUSH3 0x1A83 DUP2 PUSH3 0x191F JUMP JUMPDEST PUSH3 0x1A92 PUSH1 0x80 DUP8 ADD DUP3 PUSH3 0x193D JUMP JUMPDEST POP PUSH1 0x5 DUP5 ADD DUP6 DUP4 SUB PUSH1 0xA0 DUP8 ADD MSTORE PUSH3 0x1AAB DUP4 DUP3 PUSH3 0x195F JUMP JUMPDEST SWAP3 POP POP PUSH1 0x6 DUP5 ADD DUP6 DUP4 SUB PUSH1 0xC0 DUP8 ADD MSTORE PUSH3 0x1AC6 DUP4 DUP3 PUSH3 0x195F JUMP JUMPDEST SWAP3 POP POP PUSH1 0x7 DUP5 ADD DUP6 DUP4 SUB PUSH1 0xE0 DUP8 ADD MSTORE PUSH3 0x1AE1 DUP4 DUP3 PUSH3 0x195F JUMP JUMPDEST SWAP3 POP POP PUSH1 0x8 DUP5 ADD DUP6 DUP4 SUB PUSH2 0x100 DUP8 ADD MSTORE PUSH3 0x1AFD DUP4 DUP3 PUSH3 0x195F JUMP JUMPDEST SWAP3 POP POP DUP2 SWAP3 POP POP POP SWAP3 SWAP2 POP POP JUMP JUMPDEST PUSH1 0x0 PUSH1 0x20 DUP3 ADD SWAP1 POP DUP2 DUP2 SUB PUSH1 0x0 DUP4 ADD MSTORE PUSH3 0x1B27 DUP2 DUP5 PUSH3 0x19EF JUMP JUMPDEST SWAP1 POP SWAP3 SWAP2 POP POP JUMP JUMPDEST PUSH1 0x0 PUSH1 0xC0 DUP4 ADD PUSH1 0x0 DUP1 DUP5 ADD SLOAD SWAP1 POP PUSH3 0x1B48 DUP2 PUSH3 0x191F JUMP JUMPDEST PUSH3 0x1B57 PUSH1 0x0 DUP8 ADD DUP3 PUSH3 0x193D JUMP JUMPDEST POP PUSH1 0x1 DUP5 ADD DUP6 DUP4 SUB PUSH1 0x20 DUP8 ADD MSTORE PUSH3 0x1B70 DUP4 DUP3 PUSH3 0x195F JUMP JUMPDEST SWAP3 POP POP PUSH1 0x2 DUP5 ADD DUP6 DUP4 SUB PUSH1 0x40 DUP8 ADD MSTORE PUSH3 0x1B8B DUP4 DUP3 PUSH3 0x195F JUMP JUMPDEST SWAP3 POP POP PUSH1 0x3 DUP5 ADD DUP6 DUP4 SUB PUSH1 0x60 DUP8 ADD MSTORE PUSH3 0x1BA6 DUP4 DUP3 PUSH3 0x195F JUMP JUMPDEST SWAP3 POP POP PUSH1 0x4 DUP5 ADD DUP6 DUP4 SUB PUSH1 0x80 DUP8 ADD MSTORE PUSH3 0x1BC1 DUP4 DUP3 PUSH3 0x195F JUMP JUMPDEST SWAP3 POP POP PUSH1 0x5 DUP5 ADD DUP6 DUP4 SUB PUSH1 0xA0 DUP8 ADD MSTORE PUSH3 0x1BDC DUP4 DUP3 PUSH3 0x195F JUMP JUMPDEST SWAP3 POP POP DUP2 SWAP3 POP POP POP SWAP3 SWAP2 POP POP JUMP JUMPDEST PUSH1 0x0 PUSH1 0x20 DUP3 ADD SWAP1 POP DUP2 DUP2 SUB PUSH1 0x0 DUP4 ADD MSTORE PUSH3 0x1C06 DUP2 DUP5 PUSH3 0x1B2F JUMP JUMPDEST SWAP1 POP SWAP3 SWAP2 POP POP JUMP JUMPDEST PUSH2 0x3ED3 DUP1 PUSH3 0x1C1E PUSH1 0x0 CODECOPY PUSH1 0x0 RETURN INVALID PUSH1 0x80 PUSH1 0x40 MSTORE CALLVALUE DUP1 ISZERO PUSH2 0x10 JUMPI PUSH1 0x0 DUP1 REVERT JUMPDEST POP PUSH1 0x4 CALLDATASIZE LT PUSH2 0x137 JUMPI PUSH1 0x0 CALLDATALOAD PUSH1 0xE0 SHR DUP1 PUSH4 0x8AFDD669 GT PUSH2 0xB8 JUMPI DUP1 PUSH4 0xD708FE5B GT PUSH2 0x7C JUMPI DUP1 PUSH4 0xD708FE5B EQ PUSH2 0x390 JUMPI DUP1 PUSH4 0xDC1E392C EQ PUSH2 0x3AE JUMPI DUP1 PUSH4 0xDFD55A2C EQ PUSH2 0x3E1 JUMPI DUP1 PUSH4 0xE80A7EB9 EQ PUSH2 0x3FF JUMPI DUP1 PUSH4 0xECB22BAA EQ PUSH2 0x41D JUMPI DUP1 PUSH4 0xF71AFE33 EQ PUSH2 0x43B JUMPI PUSH2 0x137 JUMP JUMPDEST DUP1 PUSH4 0x8AFDD669 EQ PUSH2 0x2BC JUMPI DUP1 PUSH4 0x961E89B8 EQ PUSH2 0x2F1 JUMPI DUP1 PUSH4 0x9B68ADE7 EQ PUSH2 0x30D JUMPI DUP1 PUSH4 0xBD45B397 EQ PUSH2 0x342 JUMPI DUP1 PUSH4 0xC5779FD1 EQ PUSH2 0x360 JUMPI PUSH2 0x137 JUMP JUMPDEST DUP1 PUSH4 0x536954E4 GT PUSH2 0xFF JUMPI DUP1 PUSH4 0x536954E4 EQ PUSH2 0x1FC JUMPI DUP1 PUSH4 0x5446032D EQ PUSH2 0x21A JUMPI DUP1 PUSH4 0x70C9F1A5 EQ PUSH2 0x236 JUMPI DUP1 PUSH4 0x7EE49D91 EQ PUSH2 0x268 JUMPI DUP1 PUSH4 0x80507B2A EQ PUSH2 0x2A0 JUMPI PUSH2 0x137 JUMP JUMPDEST DUP1 PUSH4 0x6FDDE03 EQ PUSH2 0x13C JUMPI DUP1 PUSH4 0x18C7833F EQ PUSH2 0x15A JUMPI DUP1 PUSH4 0x279115EA EQ PUSH2 0x18C JUMPI DUP1 PUSH4 0x458A1308 EQ PUSH2 0x1AA JUMPI DUP1 PUSH4 0x50B492BA EQ PUSH2 0x1C8 JUMPI JUMPDEST PUSH1 0x0 DUP1 REVERT JUMPDEST PUSH2 0x144 PUSH2 0x46B JUMP JUMPDEST PUSH1 0x40 MLOAD PUSH2 0x151 SWAP2 SWAP1 PUSH2 0x2BF0 JUMP JUMPDEST PUSH1 0x40 MLOAD DUP1 SWAP2 SUB SWAP1 RETURN JUMPDEST PUSH2 0x174 PUSH1 0x4 DUP1 CALLDATASIZE SUB DUP2 ADD SWAP1 PUSH2 0x16F SWAP2 SWAP1 PUSH2 0x2C5C JUMP JUMPDEST PUSH2 0x4F9 JUMP JUMPDEST PUSH1 0x40 MLOAD PUSH2 0x183 SWAP4 SWAP3 SWAP2 SWAP1 PUSH2 0x2C98 JUMP JUMPDEST PUSH1 0x40 MLOAD DUP1 SWAP2 SUB SWAP1 RETURN JUMPDEST PUSH2 0x194 PUSH2 0x523 JUMP JUMPDEST PUSH1 0x40 MLOAD PUSH2 0x1A1 SWAP2 SWAP1 PUSH2 0x2ED2 JUMP JUMPDEST PUSH1 0x40 MLOAD DUP1 SWAP2 SUB SWAP1 RETURN JUMPDEST PUSH2 0x1B2 PUSH2 0x991 JUMP JUMPDEST PUSH1 0x40 MLOAD PUSH2 0x1BF SWAP2 SWAP1 PUSH2 0x2EF4 JUMP JUMPDEST PUSH1 0x40 MLOAD DUP1 SWAP2 SUB SWAP1 RETURN JUMPDEST PUSH2 0x1E2 PUSH1 0x4 DUP1 CALLDATASIZE SUB DUP2 ADD SWAP1 PUSH2 0x1DD SWAP2 SWAP1 PUSH2 0x2C5C JUMP JUMPDEST PUSH2 0x997 JUMP JUMPDEST PUSH1 0x40 MLOAD PUSH2 0x1F3 SWAP6 SWAP5 SWAP4 SWAP3 SWAP2 SWAP1 PUSH2 0x2F0F JUMP JUMPDEST PUSH1 0x40 MLOAD DUP1 SWAP2 SUB SWAP1 RETURN JUMPDEST PUSH2 0x204 PUSH2 0xBED JUMP JUMPDEST PUSH1 0x40 MLOAD PUSH2 0x211 SWAP2 SWAP1 PUSH2 0x30E5 JUMP JUMPDEST PUSH1 0x40 MLOAD DUP1 SWAP2 SUB SWAP1 RETURN JUMPDEST PUSH2 0x234 PUSH1 0x4 DUP1 CALLDATASIZE SUB DUP2 ADD SWAP1 PUSH2 0x22F SWAP2 SWAP1 PUSH2 0x3107 JUMP JUMPDEST PUSH2 0xFB4 JUMP JUMPDEST STOP JUMPDEST PUSH2 0x250 PUSH1 0x4 DUP1 CALLDATASIZE SUB DUP2 ADD SWAP1 PUSH2 0x24B SWAP2 SWAP1 PUSH2 0x2C5C JUMP JUMPDEST PUSH2 0x1011 JUMP JUMPDEST PUSH1 0x40 MLOAD PUSH2 0x25F SWAP4 SWAP3 SWAP2 SWAP1 PUSH2 0x315A JUMP JUMPDEST PUSH1 0x40 MLOAD DUP1 SWAP2 SUB SWAP1 RETURN JUMPDEST PUSH2 0x282 PUSH1 0x4 DUP1 CALLDATASIZE SUB DUP2 ADD SWAP1 PUSH2 0x27D SWAP2 SWAP1 PUSH2 0x2C5C JUMP JUMPDEST PUSH2 0x10C3 JUMP JUMPDEST PUSH1 0x40 MLOAD PUSH2 0x297 SWAP10 SWAP9 SWAP8 SWAP7 SWAP6 SWAP5 SWAP4 SWAP3 SWAP2 SWAP1 PUSH2 0x3198 JUMP JUMPDEST PUSH1 0x40 MLOAD DUP1 SWAP2 SUB SWAP1 RETURN JUMPDEST PUSH2 0x2BA PUSH1 0x4 DUP1 CALLDATASIZE SUB DUP2 ADD SWAP1 PUSH2 0x2B5 SWAP2 SWAP1 PUSH2 0x3384 JUMP JUMPDEST PUSH2 0x1441 JUMP JUMPDEST STOP JUMPDEST PUSH2 0x2D6 PUSH1 0x4 DUP1 CALLDATASIZE SUB DUP2 ADD SWAP1 PUSH2 0x2D1 SWAP2 SWAP1 PUSH2 0x2C5C JUMP JUMPDEST PUSH2 0x1591 JUMP JUMPDEST PUSH1 0x40 MLOAD PUSH2 0x2E8 SWAP7 SWAP6 SWAP5 SWAP4 SWAP3 SWAP2 SWAP1 PUSH2 0x34E2 JUMP JUMPDEST PUSH1 0x40 MLOAD DUP1 SWAP2 SUB SWAP1 RETURN JUMPDEST PUSH2 0x30B PUSH1 0x4 DUP1 CALLDATASIZE SUB DUP2 ADD SWAP1 PUSH2 0x306 SWAP2 SWAP1 PUSH2 0x3566 JUMP JUMPDEST PUSH2 0x1875 JUMP JUMPDEST STOP JUMPDEST PUSH2 0x327 PUSH1 0x4 DUP1 CALLDATASIZE SUB DUP2 ADD SWAP1 PUSH2 0x322 SWAP2 SWAP1 PUSH2 0x2C5C JUMP JUMPDEST PUSH2 0x1990 JUMP JUMPDEST PUSH1 0x40 MLOAD PUSH2 0x339 SWAP7 SWAP6 SWAP5 SWAP4 SWAP3 SWAP2 SWAP1 PUSH2 0x34E2 JUMP JUMPDEST PUSH1 0x40 MLOAD DUP1 SWAP2 SUB SWAP1 RETURN JUMPDEST PUSH2 0x34A PUSH2 0x1C74 JUMP JUMPDEST PUSH1 0x40 MLOAD PUSH2 0x357 SWAP2 SWAP1 PUSH2 0x2EF4 JUMP JUMPDEST PUSH1 0x40 MLOAD DUP1 SWAP2 SUB SWAP1 RETURN JUMPDEST PUSH2 0x37A PUSH1 0x4 DUP1 CALLDATASIZE SUB DUP2 ADD SWAP1 PUSH2 0x375 SWAP2 SWAP1 PUSH2 0x2C5C JUMP JUMPDEST PUSH2 0x1C7A JUMP JUMPDEST PUSH1 0x40 MLOAD PUSH2 0x387 SWAP2 SWAP1 PUSH2 0x2ED2 JUMP JUMPDEST PUSH1 0x40 MLOAD DUP1 SWAP2 SUB SWAP1 RETURN JUMPDEST PUSH2 0x398 PUSH2 0x21C2 JUMP JUMPDEST PUSH1 0x40 MLOAD PUSH2 0x3A5 SWAP2 SWAP1 PUSH2 0x2EF4 JUMP JUMPDEST PUSH1 0x40 MLOAD DUP1 SWAP2 SUB SWAP1 RETURN JUMPDEST PUSH2 0x3C8 PUSH1 0x4 DUP1 CALLDATASIZE SUB DUP2 ADD SWAP1 PUSH2 0x3C3 SWAP2 SWAP1 PUSH2 0x2C5C JUMP JUMPDEST PUSH2 0x21C8 JUMP JUMPDEST PUSH1 0x40 MLOAD PUSH2 0x3D8 SWAP5 SWAP4 SWAP3 SWAP2 SWAP1 PUSH2 0x366D JUMP JUMPDEST PUSH1 0x40 MLOAD DUP1 SWAP2 SUB SWAP1 RETURN JUMPDEST PUSH2 0x3E9 PUSH2 0x21F8 JUMP JUMPDEST PUSH1 0x40 MLOAD PUSH2 0x3F6 SWAP2 SWAP1 PUSH2 0x2EF4 JUMP JUMPDEST PUSH1 0x40 MLOAD DUP1 SWAP2 SUB SWAP1 RETURN JUMPDEST PUSH2 0x407 PUSH2 0x21FE JUMP JUMPDEST PUSH1 0x40 MLOAD PUSH2 0x414 SWAP2 SWAP1 PUSH2 0x3819 JUMP JUMPDEST PUSH1 0x40 MLOAD DUP1 SWAP2 SUB SWAP1 RETURN JUMPDEST PUSH2 0x425 PUSH2 0x25C5 JUMP JUMPDEST PUSH1 0x40 MLOAD PUSH2 0x432 SWAP2 SWAP1 PUSH2 0x2EF4 JUMP JUMPDEST PUSH1 0x40 MLOAD DUP1 SWAP2 SUB SWAP1 RETURN JUMPDEST PUSH2 0x455 PUSH1 0x4 DUP1 CALLDATASIZE SUB DUP2 ADD SWAP1 PUSH2 0x450 SWAP2 SWAP1 PUSH2 0x2C5C JUMP JUMPDEST PUSH2 0x25CB JUMP JUMPDEST PUSH1 0x40 MLOAD PUSH2 0x462 SWAP2 SWAP1 PUSH2 0x2ED2 JUMP JUMPDEST PUSH1 0x40 MLOAD DUP1 SWAP2 SUB SWAP1 RETURN JUMPDEST PUSH1 0x0 DUP1 SLOAD PUSH2 0x478 SWAP1 PUSH2 0x386A JUMP JUMPDEST DUP1 PUSH1 0x1F ADD PUSH1 0x20 DUP1 SWAP2 DIV MUL PUSH1 0x20 ADD PUSH1 0x40 MLOAD SWAP1 DUP2 ADD PUSH1 0x40 MSTORE DUP1 SWAP3 SWAP2 SWAP1 DUP2 DUP2 MSTORE PUSH1 0x20 ADD DUP3 DUP1 SLOAD PUSH2 0x4A4 SWAP1 PUSH2 0x386A JUMP JUMPDEST DUP1 ISZERO PUSH2 0x4F1 JUMPI DUP1 PUSH1 0x1F LT PUSH2 0x4C6 JUMPI PUSH2 0x100 DUP1 DUP4 SLOAD DIV MUL DUP4 MSTORE SWAP2 PUSH1 0x20 ADD SWAP2 PUSH2 0x4F1 JUMP JUMPDEST DUP3 ADD SWAP2 SWAP1 PUSH1 0x0 MSTORE PUSH1 0x20 PUSH1 0x0 KECCAK256 SWAP1 JUMPDEST DUP2 SLOAD DUP2 MSTORE SWAP1 PUSH1 0x1 ADD SWAP1 PUSH1 0x20 ADD DUP1 DUP4 GT PUSH2 0x4D4 JUMPI DUP3 SWAP1 SUB PUSH1 0x1F AND DUP3 ADD SWAP2 JUMPDEST POP POP POP POP POP DUP2 JUMP JUMPDEST PUSH1 0x7 PUSH1 0x20 MSTORE DUP1 PUSH1 0x0 MSTORE PUSH1 0x40 PUSH1 0x0 KECCAK256 PUSH1 0x0 SWAP2 POP SWAP1 POP DUP1 PUSH1 0x0 ADD SLOAD SWAP1 DUP1 PUSH1 0x1 ADD SLOAD SWAP1 DUP1 PUSH1 0x2 ADD SLOAD SWAP1 POP DUP4 JUMP JUMPDEST PUSH1 0x60 PUSH1 0x0 DUP1 PUSH1 0xC SLOAD PUSH8 0xFFFFFFFFFFFFFFFF DUP2 GT ISZERO PUSH2 0x544 JUMPI PUSH2 0x543 PUSH2 0x3259 JUMP JUMPDEST JUMPDEST PUSH1 0x40 MLOAD SWAP1 DUP1 DUP3 MSTORE DUP1 PUSH1 0x20 MUL PUSH1 0x20 ADD DUP3 ADD PUSH1 0x40 MSTORE DUP1 ISZERO PUSH2 0x57D JUMPI DUP2 PUSH1 0x20 ADD JUMPDEST PUSH2 0x56A PUSH2 0x2AA8 JUMP JUMPDEST DUP2 MSTORE PUSH1 0x20 ADD SWAP1 PUSH1 0x1 SWAP1 SUB SWAP1 DUP2 PUSH2 0x562 JUMPI SWAP1 POP JUMPDEST POP SWAP1 POP PUSH1 0x0 JUMPDEST PUSH1 0xC SLOAD DUP2 LT ISZERO PUSH2 0x988 JUMPI PUSH1 0x0 PUSH1 0x1 DUP3 PUSH2 0x59C SWAP2 SWAP1 PUSH2 0x38CA JUMP JUMPDEST SWAP1 POP PUSH1 0x0 PUSH1 0x6 PUSH1 0x0 DUP4 DUP2 MSTORE PUSH1 0x20 ADD SWAP1 DUP2 MSTORE PUSH1 0x20 ADD PUSH1 0x0 KECCAK256 SWAP1 POP DUP1 PUSH1 0x40 MLOAD DUP1 PUSH2 0x120 ADD PUSH1 0x40 MSTORE SWAP1 DUP2 PUSH1 0x0 DUP3 ADD SLOAD DUP2 MSTORE PUSH1 0x20 ADD PUSH1 0x1 DUP3 ADD SLOAD DUP2 MSTORE PUSH1 0x20 ADD PUSH1 0x2 DUP3 ADD DUP1 SLOAD PUSH2 0x5E6 SWAP1 PUSH2 0x386A JUMP JUMPDEST DUP1 PUSH1 0x1F ADD PUSH1 0x20 DUP1 SWAP2 DIV MUL PUSH1 0x20 ADD PUSH1 0x40 MLOAD SWAP1 DUP2 ADD PUSH1 0x40 MSTORE DUP1 SWAP3 SWAP2 SWAP1 DUP2 DUP2 MSTORE PUSH1 0x20 ADD DUP3 DUP1 SLOAD PUSH2 0x612 SWAP1 PUSH2 0x386A JUMP JUMPDEST DUP1 ISZERO PUSH2 0x65F JUMPI DUP1 PUSH1 0x1F LT PUSH2 0x634 JUMPI PUSH2 0x100 DUP1 DUP4 SLOAD DIV MUL DUP4 MSTORE SWAP2 PUSH1 0x20 ADD SWAP2 PUSH2 0x65F JUMP JUMPDEST DUP3 ADD SWAP2 SWAP1 PUSH1 0x0 MSTORE PUSH1 0x20 PUSH1 0x0 KECCAK256 SWAP1 JUMPDEST DUP2 SLOAD DUP2 MSTORE SWAP1 PUSH1 0x1 ADD SWAP1 PUSH1 0x20 ADD DUP1 DUP4 GT PUSH2 0x642 JUMPI DUP3 SWAP1 SUB PUSH1 0x1F AND DUP3 ADD SWAP2 JUMPDEST POP POP POP POP POP DUP2 MSTORE PUSH1 0x20 ADD PUSH1 0x3 DUP3 ADD DUP1 SLOAD PUSH2 0x678 SWAP1 PUSH2 0x386A JUMP JUMPDEST DUP1 PUSH1 0x1F ADD PUSH1 0x20 DUP1 SWAP2 DIV MUL PUSH1 0x20 ADD PUSH1 0x40 MLOAD SWAP1 DUP2 ADD PUSH1 0x40 MSTORE DUP1 SWAP3 SWAP2 SWAP1 DUP2 DUP2 MSTORE PUSH1 0x20 ADD DUP3 DUP1 SLOAD PUSH2 0x6A4 SWAP1 PUSH2 0x386A JUMP JUMPDEST DUP1 ISZERO PUSH2 0x6F1 JUMPI DUP1 PUSH1 0x1F LT PUSH2 0x6C6 JUMPI PUSH2 0x100 DUP1 DUP4 SLOAD DIV MUL DUP4 MSTORE SWAP2 PUSH1 0x20 ADD SWAP2 PUSH2 0x6F1 JUMP JUMPDEST DUP3 ADD SWAP2 SWAP1 PUSH1 0x0 MSTORE PUSH1 0x20 PUSH1 0x0 KECCAK256 SWAP1 JUMPDEST DUP2 SLOAD DUP2 MSTORE SWAP1 PUSH1 0x1 ADD SWAP1 PUSH1 0x20 ADD DUP1 DUP4 GT PUSH2 0x6D4 JUMPI DUP3 SWAP1 SUB PUSH1 0x1F AND DUP3 ADD SWAP2 JUMPDEST POP POP POP POP POP DUP2 MSTORE PUSH1 0x20 ADD PUSH1 0x4 DUP3 ADD SLOAD DUP2 MSTORE PUSH1 0x20 ADD PUSH1 0x5 DUP3 ADD DUP1 SLOAD PUSH2 0x714 SWAP1 PUSH2 0x386A JUMP JUMPDEST DUP1 PUSH1 0x1F ADD PUSH1 0x20 DUP1 SWAP2 DIV MUL PUSH1 0x20 ADD PUSH1 0x40 MLOAD SWAP1 DUP2 ADD PUSH1 0x40 MSTORE DUP1 SWAP3 SWAP2 SWAP1 DUP2 DUP2 MSTORE PUSH1 0x20 ADD DUP3 DUP1 SLOAD PUSH2 0x740 SWAP1 PUSH2 0x386A JUMP JUMPDEST DUP1 ISZERO PUSH2 0x78D JUMPI DUP1 PUSH1 0x1F LT PUSH2 0x762 JUMPI PUSH2 0x100 DUP1 DUP4 SLOAD DIV MUL DUP4 MSTORE SWAP2 PUSH1 0x20 ADD SWAP2 PUSH2 0x78D JUMP JUMPDEST DUP3 ADD SWAP2 SWAP1 PUSH1 0x0 MSTORE PUSH1 0x20 PUSH1 0x0 KECCAK256 SWAP1 JUMPDEST DUP2 SLOAD DUP2 MSTORE SWAP1 PUSH1 0x1 ADD SWAP1 PUSH1 0x20 ADD DUP1 DUP4 GT PUSH2 0x770 JUMPI DUP3 SWAP1 SUB PUSH1 0x1F AND DUP3 ADD SWAP2 JUMPDEST POP POP POP POP POP DUP2 MSTORE PUSH1 0x20 ADD PUSH1 0x6 DUP3 ADD DUP1 SLOAD PUSH2 0x7A6 SWAP1 PUSH2 0x386A JUMP JUMPDEST DUP1 PUSH1 0x1F ADD PUSH1 0x20 DUP1 SWAP2 DIV MUL PUSH1 0x20 ADD PUSH1 0x40 MLOAD SWAP1 DUP2 ADD PUSH1 0x40 MSTORE DUP1 SWAP3 SWAP2 SWAP1 DUP2 DUP2 MSTORE PUSH1 0x20 ADD DUP3 DUP1 SLOAD PUSH2 0x7D2 SWAP1 PUSH2 0x386A JUMP JUMPDEST DUP1 ISZERO PUSH2 0x81F JUMPI DUP1 PUSH1 0x1F LT PUSH2 0x7F4 JUMPI PUSH2 0x100 DUP1 DUP4 SLOAD DIV MUL DUP4 MSTORE SWAP2 PUSH1 0x20 ADD SWAP2 PUSH2 0x81F JUMP JUMPDEST DUP3 ADD SWAP2 SWAP1 PUSH1 0x0 MSTORE PUSH1 0x20 PUSH1 0x0 KECCAK256 SWAP1 JUMPDEST DUP2 SLOAD DUP2 MSTORE SWAP1 PUSH1 0x1 ADD SWAP1 PUSH1 0x20 ADD DUP1 DUP4 GT PUSH2 0x802 JUMPI DUP3 SWAP1 SUB PUSH1 0x1F AND DUP3 ADD SWAP2 JUMPDEST POP POP POP POP POP DUP2 MSTORE PUSH1 0x20 ADD PUSH1 0x7 DUP3 ADD DUP1 SLOAD PUSH2 0x838 SWAP1 PUSH2 0x386A JUMP JUMPDEST DUP1 PUSH1 0x1F ADD PUSH1 0x20 DUP1 SWAP2 DIV MUL PUSH1 0x20 ADD PUSH1 0x40 MLOAD SWAP1 DUP2 ADD PUSH1 0x40 MSTORE DUP1 SWAP3 SWAP2 SWAP1 DUP2 DUP2 MSTORE PUSH1 0x20 ADD DUP3 DUP1 SLOAD PUSH2 0x864 SWAP1 PUSH2 0x386A JUMP JUMPDEST DUP1 ISZERO PUSH2 0x8B1 JUMPI DUP1 PUSH1 0x1F LT PUSH2 0x886 JUMPI PUSH2 0x100 DUP1 DUP4 SLOAD DIV MUL DUP4 MSTORE SWAP2 PUSH1 0x20 ADD SWAP2 PUSH2 0x8B1 JUMP JUMPDEST DUP3 ADD SWAP2 SWAP1 PUSH1 0x0 MSTORE PUSH1 0x20 PUSH1 0x0 KECCAK256 SWAP1 JUMPDEST DUP2 SLOAD DUP2 MSTORE SWAP1 PUSH1 0x1 ADD SWAP1 PUSH1 0x20 ADD DUP1 DUP4 GT PUSH2 0x894 JUMPI DUP3 SWAP1 SUB PUSH1 0x1F AND DUP3 ADD SWAP2 JUMPDEST POP POP POP POP POP DUP2 MSTORE PUSH1 0x20 ADD PUSH1 0x8 DUP3 ADD DUP1 SLOAD PUSH2 0x8CA SWAP1 PUSH2 0x386A JUMP JUMPDEST DUP1 PUSH1 0x1F ADD PUSH1 0x20 DUP1 SWAP2 DIV MUL PUSH1 0x20 ADD PUSH1 0x40 MLOAD SWAP1 DUP2 ADD PUSH1 0x40 MSTORE DUP1 SWAP3 SWAP2 SWAP1 DUP2 DUP2 MSTORE PUSH1 0x20 ADD DUP3 DUP1 SLOAD PUSH2 0x8F6 SWAP1 PUSH2 0x386A JUMP JUMPDEST DUP1 ISZERO PUSH2 0x943 JUMPI DUP1 PUSH1 0x1F LT PUSH2 0x918 JUMPI PUSH2 0x100 DUP1 DUP4 SLOAD DIV MUL DUP4 MSTORE SWAP2 PUSH1 0x20 ADD SWAP2 PUSH2 0x943 JUMP JUMPDEST DUP3 ADD SWAP2 SWAP1 PUSH1 0x0 MSTORE PUSH1 0x20 PUSH1 0x0 KECCAK256 SWAP1 JUMPDEST DUP2 SLOAD DUP2 MSTORE SWAP1 PUSH1 0x1 ADD SWAP1 PUSH1 0x20 ADD DUP1 DUP4 GT PUSH2 0x926 JUMPI DUP3 SWAP1 SUB PUSH1 0x1F AND DUP3 ADD SWAP2 JUMPDEST POP POP POP POP POP DUP2 MSTORE POP POP DUP5 DUP7 DUP2 MLOAD DUP2 LT PUSH2 0x95F JUMPI PUSH2 0x95E PUSH2 0x38FE JUMP JUMPDEST JUMPDEST PUSH1 0x20 MUL PUSH1 0x20 ADD ADD DUP2 SWAP1 MSTORE POP PUSH1 0x1 DUP6 PUSH2 0x977 SWAP2 SWAP1 PUSH2 0x38CA JUMP JUMPDEST SWAP5 POP POP POP DUP1 DUP1 PUSH1 0x1 ADD SWAP2 POP POP PUSH2 0x583 JUMP JUMPDEST POP DUP1 SWAP3 POP POP POP SWAP1 JUMP JUMPDEST PUSH1 0xB SLOAD DUP2 JUMP JUMPDEST PUSH1 0x3 PUSH1 0x20 MSTORE DUP1 PUSH1 0x0 MSTORE PUSH1 0x40 PUSH1 0x0 KECCAK256 PUSH1 0x0 SWAP2 POP SWAP1 POP DUP1 PUSH1 0x0 ADD SLOAD SWAP1 DUP1 PUSH1 0x1 ADD DUP1 SLOAD PUSH2 0x9C0 SWAP1 PUSH2 0x386A JUMP JUMPDEST DUP1 PUSH1 0x1F ADD PUSH1 0x20 DUP1 SWAP2 DIV MUL PUSH1 0x20 ADD PUSH1 0x40 MLOAD SWAP1 DUP2 ADD PUSH1 0x40 MSTORE DUP1 SWAP3 SWAP2 SWAP1 DUP2 DUP2 MSTORE PUSH1 0x20 ADD DUP3 DUP1 SLOAD PUSH2 0x9EC SWAP1 PUSH2 0x386A JUMP JUMPDEST DUP1 ISZERO PUSH2 0xA39 JUMPI DUP1 PUSH1 0x1F LT PUSH2 0xA0E JUMPI PUSH2 0x100 DUP1 DUP4 SLOAD DIV MUL DUP4 MSTORE SWAP2 PUSH1 0x20 ADD SWAP2 PUSH2 0xA39 JUMP JUMPDEST DUP3 ADD SWAP2 SWAP1 PUSH1 0x0 MSTORE PUSH1 0x20 PUSH1 0x0 KECCAK256 SWAP1 JUMPDEST DUP2 SLOAD DUP2 MSTORE SWAP1 PUSH1 0x1 ADD SWAP1 PUSH1 0x20 ADD DUP1 DUP4 GT PUSH2 0xA1C JUMPI DUP3 SWAP1 SUB PUSH1 0x1F AND DUP3 ADD SWAP2 JUMPDEST POP POP POP POP POP SWAP1 DUP1 PUSH1 0x2 ADD DUP1 SLOAD PUSH2 0xA4E SWAP1 PUSH2 0x386A JUMP JUMPDEST DUP1 PUSH1 0x1F ADD PUSH1 0x20 DUP1 SWAP2 DIV MUL PUSH1 0x20 ADD PUSH1 0x40 MLOAD SWAP1 DUP2 ADD PUSH1 0x40 MSTORE DUP1 SWAP3 SWAP2 SWAP1 DUP2 DUP2 MSTORE PUSH1 0x20 ADD DUP3 DUP1 SLOAD PUSH2 0xA7A SWAP1 PUSH2 0x386A JUMP JUMPDEST DUP1 ISZERO PUSH2 0xAC7 JUMPI DUP1 PUSH1 0x1F LT PUSH2 0xA9C JUMPI PUSH2 0x100 DUP1 DUP4 SLOAD DIV MUL DUP4 MSTORE SWAP2 PUSH1 0x20 ADD SWAP2 PUSH2 0xAC7 JUMP JUMPDEST DUP3 ADD SWAP2 SWAP1 PUSH1 0x0 MSTORE PUSH1 0x20 PUSH1 0x0 KECCAK256 SWAP1 JUMPDEST DUP2 SLOAD DUP2 MSTORE SWAP1 PUSH1 0x1 ADD SWAP1 PUSH1 0x20 ADD DUP1 DUP4 GT PUSH2 0xAAA JUMPI DUP3 SWAP1 SUB PUSH1 0x1F AND DUP3 ADD SWAP2 JUMPDEST POP POP POP POP POP SWAP1 DUP1 PUSH1 0x3 ADD DUP1 SLOAD PUSH2 0xADC SWAP1 PUSH2 0x386A JUMP JUMPDEST DUP1 PUSH1 0x1F ADD PUSH1 0x20 DUP1 SWAP2 DIV MUL PUSH1 0x20 ADD PUSH1 0x40 MLOAD SWAP1 DUP2 ADD PUSH1 0x40 MSTORE DUP1 SWAP3 SWAP2 SWAP1 DUP2 DUP2 MSTORE PUSH1 0x20 ADD DUP3 DUP1 SLOAD PUSH2 0xB08 SWAP1 PUSH2 0x386A JUMP JUMPDEST DUP1 ISZERO PUSH2 0xB55 JUMPI DUP1 PUSH1 0x1F LT PUSH2 0xB2A JUMPI PUSH2 0x100 DUP1 DUP4 SLOAD DIV MUL DUP4 MSTORE SWAP2 PUSH1 0x20 ADD SWAP2 PUSH2 0xB55 JUMP JUMPDEST DUP3 ADD SWAP2 SWAP1 PUSH1 0x0 MSTORE PUSH1 0x20 PUSH1 0x0 KECCAK256 SWAP1 JUMPDEST DUP2 SLOAD DUP2 MSTORE SWAP1 PUSH1 0x1 ADD SWAP1 PUSH1 0x20 ADD DUP1 DUP4 GT PUSH2 0xB38 JUMPI DUP3 SWAP1 SUB PUSH1 0x1F AND DUP3 ADD SWAP2 JUMPDEST POP POP POP POP POP SWAP1 DUP1 PUSH1 0x4 ADD DUP1 SLOAD PUSH2 0xB6A SWAP1 PUSH2 0x386A JUMP JUMPDEST DUP1 PUSH1 0x1F ADD PUSH1 0x20 DUP1 SWAP2 DIV MUL PUSH1 0x20 ADD PUSH1 0x40 MLOAD SWAP1 DUP2 ADD PUSH1 0x40 MSTORE DUP1 SWAP3 SWAP2 SWAP1 DUP2 DUP2 MSTORE PUSH1 0x20 ADD DUP3 DUP1 SLOAD PUSH2 0xB96 SWAP1 PUSH2 0x386A JUMP JUMPDEST DUP1 ISZERO PUSH2 0xBE3 JUMPI DUP1 PUSH1 0x1F LT PUSH2 0xBB8 JUMPI PUSH2 0x100 DUP1 DUP4 SLOAD DIV MUL DUP4 MSTORE SWAP2 PUSH1 0x20 ADD SWAP2 PUSH2 0xBE3 JUMP JUMPDEST DUP3 ADD SWAP2 SWAP1 PUSH1 0x0 MSTORE PUSH1 0x20 PUSH1 0x0 KECCAK256 SWAP1 JUMPDEST DUP2 SLOAD DUP2 MSTORE SWAP1 PUSH1 0x1 ADD SWAP1 PUSH1 0x20 ADD DUP1 DUP4 GT PUSH2 0xBC6 JUMPI DUP3 SWAP1 SUB PUSH1 0x1F AND DUP3 ADD SWAP2 JUMPDEST POP POP POP POP POP SWAP1 POP DUP6 JUMP JUMPDEST PUSH1 0x60 PUSH1 0x0 DUP1 PUSH1 0x8 SLOAD PUSH8 0xFFFFFFFFFFFFFFFF DUP2 GT ISZERO PUSH2 0xC0E JUMPI PUSH2 0xC0D PUSH2 0x3259 JUMP JUMPDEST JUMPDEST PUSH1 0x40 MLOAD SWAP1 DUP1 DUP3 MSTORE DUP1 PUSH1 0x20 MUL PUSH1 0x20 ADD DUP3 ADD PUSH1 0x40 MSTORE DUP1 ISZERO PUSH2 0xC47 JUMPI DUP2 PUSH1 0x20 ADD JUMPDEST PUSH2 0xC34 PUSH2 0x2AF4 JUMP JUMPDEST DUP2 MSTORE PUSH1 0x20 ADD SWAP1 PUSH1 0x1 SWAP1 SUB SWAP1 DUP2 PUSH2 0xC2C JUMPI SWAP1 POP JUMPDEST POP SWAP1 POP PUSH1 0x0 JUMPDEST PUSH1 0x8 SLOAD DUP2 LT ISZERO PUSH2 0xFAB JUMPI PUSH1 0x0 PUSH1 0x1 DUP3 PUSH2 0xC66 SWAP2 SWAP1 PUSH2 0x38CA JUMP JUMPDEST SWAP1 POP PUSH1 0x0 PUSH1 0x1 PUSH1 0x0 DUP4 DUP2 MSTORE PUSH1 0x20 ADD SWAP1 DUP2 MSTORE PUSH1 0x20 ADD PUSH1 0x0 KECCAK256 SWAP1 POP DUP1 PUSH1 0x40 MLOAD DUP1 PUSH1 0xC0 ADD PUSH1 0x40 MSTORE SWAP1 DUP2 PUSH1 0x0 DUP3 ADD SLOAD DUP2 MSTORE PUSH1 0x20 ADD PUSH1 0x1 DUP3 ADD DUP1 SLOAD PUSH2 0xCA5 SWAP1 PUSH2 0x386A JUMP JUMPDEST DUP1 PUSH1 0x1F ADD PUSH1 0x20 DUP1 SWAP2 DIV MUL PUSH1 0x20 ADD PUSH1 0x40 MLOAD SWAP1 DUP2 ADD PUSH1 0x40 MSTORE DUP1 SWAP3 SWAP2 SWAP1 DUP2 DUP2 MSTORE PUSH1 0x20 ADD DUP3 DUP1 SLOAD PUSH2 0xCD1 SWAP1 PUSH2 0x386A JUMP JUMPDEST DUP1 ISZERO PUSH2 0xD1E JUMPI DUP1 PUSH1 0x1F LT PUSH2 0xCF3 JUMPI PUSH2 0x100 DUP1 DUP4 SLOAD DIV MUL DUP4 MSTORE SWAP2 PUSH1 0x20 ADD SWAP2 PUSH2 0xD1E JUMP JUMPDEST DUP3 ADD SWAP2 SWAP1 PUSH1 0x0 MSTORE PUSH1 0x20 PUSH1 0x0 KECCAK256 SWAP1 JUMPDEST DUP2 SLOAD DUP2 MSTORE SWAP1 PUSH1 0x1 ADD SWAP1 PUSH1 0x20 ADD DUP1 DUP4 GT PUSH2 0xD01 JUMPI DUP3 SWAP1 SUB PUSH1 0x1F AND DUP3 ADD SWAP2 JUMPDEST POP POP POP POP POP DUP2 MSTORE PUSH1 0x20 ADD PUSH1 0x2 DUP3 ADD DUP1 SLOAD PUSH2 0xD37 SWAP1 PUSH2 0x386A JUMP JUMPDEST DUP1 PUSH1 0x1F ADD PUSH1 0x20 DUP1 SWAP2 DIV MUL PUSH1 0x20 ADD PUSH1 0x40 MLOAD SWAP1 DUP2 ADD PUSH1 0x40 MSTORE DUP1 SWAP3 SWAP2 SWAP1 DUP2 DUP2 MSTORE PUSH1 0x20 ADD DUP3 DUP1 SLOAD PUSH2 0xD63 SWAP1 PUSH2 0x386A JUMP JUMPDEST DUP1 ISZERO PUSH2 0xDB0 JUMPI DUP1 PUSH1 0x1F LT PUSH2 0xD85 JUMPI PUSH2 0x100 DUP1 DUP4 SLOAD DIV MUL DUP4 MSTORE SWAP2 PUSH1 0x20 ADD SWAP2 PUSH2 0xDB0 JUMP JUMPDEST DUP3 ADD SWAP2 SWAP1 PUSH1 0x0 MSTORE PUSH1 0x20 PUSH1 0x0 KECCAK256 SWAP1 JUMPDEST DUP2 SLOAD DUP2 MSTORE SWAP1 PUSH1 0x1 ADD SWAP1 PUSH1 0x20 ADD DUP1 DUP4 GT PUSH2 0xD93 JUMPI DUP3 SWAP1 SUB PUSH1 0x1F AND DUP3 ADD SWAP2 JUMPDEST POP POP POP POP POP DUP2 MSTORE PUSH1 0x20 ADD PUSH1 0x3 DUP3 ADD DUP1 SLOAD PUSH2 0xDC9 SWAP1 PUSH2 0x386A JUMP JUMPDEST DUP1 PUSH1 0x1F ADD PUSH1 0x20 DUP1 SWAP2 DIV MUL PUSH1 0x20 ADD PUSH1 0x40 MLOAD SWAP1 DUP2 ADD PUSH1 0x40 MSTORE DUP1 SWAP3 SWAP2 SWAP1 DUP2 DUP2 MSTORE PUSH1 0x20 ADD DUP3 DUP1 SLOAD PUSH2 0xDF5 SWAP1 PUSH2 0x386A JUMP JUMPDEST DUP1 ISZERO PUSH2 0xE42 JUMPI DUP1 PUSH1 0x1F LT PUSH2 0xE17 JUMPI PUSH2 0x100 DUP1 DUP4 SLOAD DIV MUL DUP4 MSTORE SWAP2 PUSH1 0x20 ADD SWAP2 PUSH2 0xE42 JUMP JUMPDEST DUP3 ADD SWAP2 SWAP1 PUSH1 0x0 MSTORE PUSH1 0x20 PUSH1 0x0 KECCAK256 SWAP1 JUMPDEST DUP2 SLOAD DUP2 MSTORE SWAP1 PUSH1 0x1 ADD SWAP1 PUSH1 0x20 ADD DUP1 DUP4 GT PUSH2 0xE25 JUMPI DUP3 SWAP1 SUB PUSH1 0x1F AND DUP3 ADD SWAP2 JUMPDEST POP POP POP POP POP DUP2 MSTORE PUSH1 0x20 ADD PUSH1 0x4 DUP3 ADD DUP1 SLOAD PUSH2 0xE5B SWAP1 PUSH2 0x386A JUMP JUMPDEST DUP1 PUSH1 0x1F ADD PUSH1 0x20 DUP1 SWAP2 DIV MUL PUSH1 0x20 ADD PUSH1 0x40 MLOAD SWAP1 DUP2 ADD PUSH1 0x40 MSTORE DUP1 SWAP3 SWAP2 SWAP1 DUP2 DUP2 MSTORE PUSH1 0x20 ADD DUP3 DUP1 SLOAD PUSH2 0xE87 SWAP1 PUSH2 0x386A JUMP JUMPDEST DUP1 ISZERO PUSH2 0xED4 JUMPI DUP1 PUSH1 0x1F LT PUSH2 0xEA9 JUMPI PUSH2 0x100 DUP1 DUP4 SLOAD DIV MUL DUP4 MSTORE SWAP2 PUSH1 0x20 ADD SWAP2 PUSH2 0xED4 JUMP JUMPDEST DUP3 ADD SWAP2 SWAP1 PUSH1 0x0 MSTORE PUSH1 0x20 PUSH1 0x0 KECCAK256 SWAP1 JUMPDEST DUP2 SLOAD DUP2 MSTORE SWAP1 PUSH1 0x1 ADD SWAP1 PUSH1 0x20 ADD DUP1 DUP4 GT PUSH2 0xEB7 JUMPI DUP3 SWAP1 SUB PUSH1 0x1F AND DUP3 ADD SWAP2 JUMPDEST POP POP POP POP POP DUP2 MSTORE PUSH1 0x20 ADD PUSH1 0x5 DUP3 ADD DUP1 SLOAD PUSH2 0xEED SWAP1 PUSH2 0x386A JUMP JUMPDEST DUP1 PUSH1 0x1F ADD PUSH1 0x20 DUP1 SWAP2 DIV MUL PUSH1 0x20 ADD PUSH1 0x40 MLOAD SWAP1 DUP2 ADD PUSH1 0x40 MSTORE DUP1 SWAP3 SWAP2 SWAP1 DUP2 DUP2 MSTORE PUSH1 0x20 ADD DUP3 DUP1 SLOAD PUSH2 0xF19 SWAP1 PUSH2 0x386A JUMP JUMPDEST DUP1 ISZERO PUSH2 0xF66 JUMPI DUP1 PUSH1 0x1F LT PUSH2 0xF3B JUMPI PUSH2 0x100 DUP1 DUP4 SLOAD DIV MUL DUP4 MSTORE SWAP2 PUSH1 0x20 ADD SWAP2 PUSH2 0xF66 JUMP JUMPDEST DUP3 ADD SWAP2 SWAP1 PUSH1 0x0 MSTORE PUSH1 0x20 PUSH1 0x0 KECCAK256 SWAP1 JUMPDEST DUP2 SLOAD DUP2 MSTORE SWAP1 PUSH1 0x1 ADD SWAP1 PUSH1 0x20 ADD DUP1 DUP4 GT PUSH2 0xF49 JUMPI DUP3 SWAP1 SUB PUSH1 0x1F AND DUP3 ADD SWAP2 JUMPDEST POP POP POP POP POP DUP2 MSTORE POP POP DUP5 DUP7 DUP2 MLOAD DUP2 LT PUSH2 0xF82 JUMPI PUSH2 0xF81 PUSH2 0x38FE JUMP JUMPDEST JUMPDEST PUSH1 0x20 MUL PUSH1 0x20 ADD ADD DUP2 SWAP1 MSTORE POP PUSH1 0x1 DUP6 PUSH2 0xF9A SWAP2 SWAP1 PUSH2 0x38CA JUMP JUMPDEST SWAP5 POP POP POP DUP1 DUP1 PUSH1 0x1 ADD SWAP2 POP POP PUSH2 0xC4D JUMP JUMPDEST POP DUP1 SWAP3 POP POP POP SWAP1 JUMP JUMPDEST PUSH1 0xB PUSH1 0x0 DUP2 SLOAD DUP1 SWAP3 SWAP2 SWAP1 PUSH2 0xFC7 SWAP1 PUSH2 0x392D JUMP JUMPDEST SWAP2 SWAP1 POP SSTORE POP PUSH1 0x0 PUSH1 0x5 PUSH1 0x0 PUSH1 0xB SLOAD DUP2 MSTORE PUSH1 0x20 ADD SWAP1 DUP2 MSTORE PUSH1 0x20 ADD PUSH1 0x0 KECCAK256 SWAP1 POP PUSH1 0xC SLOAD DUP2 PUSH1 0x0 ADD DUP2 SWAP1 SSTORE POP DUP4 DUP2 PUSH1 0x3 ADD DUP2 SWAP1 SSTORE POP DUP3 DUP2 PUSH1 0x1 ADD DUP2 SWAP1 SSTORE POP DUP2 DUP2 PUSH1 0x2 ADD DUP2 SWAP1 SSTORE POP POP POP POP POP JUMP JUMPDEST PUSH1 0x4 PUSH1 0x20 MSTORE DUP1 PUSH1 0x0 MSTORE PUSH1 0x40 PUSH1 0x0 KECCAK256 PUSH1 0x0 SWAP2 POP SWAP1 POP DUP1 PUSH1 0x0 ADD SLOAD SWAP1 DUP1 PUSH1 0x1 ADD SLOAD SWAP1 DUP1 PUSH1 0x2 ADD DUP1 SLOAD PUSH2 0x1040 SWAP1 PUSH2 0x386A JUMP JUMPDEST DUP1 PUSH1 0x1F ADD PUSH1 0x20 DUP1 SWAP2 DIV MUL PUSH1 0x20 ADD PUSH1 0x40 MLOAD SWAP1 DUP2 ADD PUSH1 0x40 MSTORE DUP1 SWAP3 SWAP2 SWAP1 DUP2 DUP2 MSTORE PUSH1 0x20 ADD DUP3 DUP1 SLOAD PUSH2 0x106C SWAP1 PUSH2 0x386A JUMP JUMPDEST DUP1 ISZERO PUSH2 0x10B9 JUMPI DUP1 PUSH1 0x1F LT PUSH2 0x108E JUMPI PUSH2 0x100 DUP1 DUP4 SLOAD DIV MUL DUP4 MSTORE SWAP2 PUSH1 0x20 ADD SWAP2 PUSH2 0x10B9 JUMP JUMPDEST DUP3 ADD SWAP2 SWAP1 PUSH1 0x0 MSTORE PUSH1 0x20 PUSH1 0x0 KECCAK256 SWAP1 JUMPDEST DUP2 SLOAD DUP2 MSTORE SWAP1 PUSH1 0x1 ADD SWAP1 PUSH1 0x20 ADD DUP1 DUP4 GT PUSH2 0x109C JUMPI DUP3 SWAP1 SUB PUSH1 0x1F AND DUP3 ADD SWAP2 JUMPDEST POP POP POP POP POP SWAP1 POP DUP4 JUMP JUMPDEST PUSH1 0x6 PUSH1 0x20 MSTORE DUP1 PUSH1 0x0 MSTORE PUSH1 0x40 PUSH1 0x0 KECCAK256 PUSH1 0x0 SWAP2 POP SWAP1 POP DUP1 PUSH1 0x0 ADD SLOAD SWAP1 DUP1 PUSH1 0x1 ADD SLOAD SWAP1 DUP1 PUSH1 0x2 ADD DUP1 SLOAD PUSH2 0x10F2 SWAP1 PUSH2 0x386A JUMP JUMPDEST DUP1 PUSH1 0x1F ADD PUSH1 0x20 DUP1 SWAP2 DIV MUL PUSH1 0x20 ADD PUSH1 0x40 MLOAD SWAP1 DUP2 ADD PUSH1 0x40 MSTORE DUP1 SWAP3 SWAP2 SWAP1 DUP2 DUP2 MSTORE PUSH1 0x20 ADD DUP3 DUP1 SLOAD PUSH2 0x111E SWAP1 PUSH2 0x386A JUMP JUMPDEST DUP1 ISZERO PUSH2 0x116B JUMPI DUP1 PUSH1 0x1F LT PUSH2 0x1140 JUMPI PUSH2 0x100 DUP1 DUP4 SLOAD DIV MUL DUP4 MSTORE SWAP2 PUSH1 0x20 ADD SWAP2 PUSH2 0x116B JUMP JUMPDEST DUP3 ADD SWAP2 SWAP1 PUSH1 0x0 MSTORE PUSH1 0x20 PUSH1 0x0 KECCAK256 SWAP1 JUMPDEST DUP2 SLOAD DUP2 MSTORE SWAP1 PUSH1 0x1 ADD SWAP1 PUSH1 0x20 ADD DUP1 DUP4 GT PUSH2 0x114E JUMPI DUP3 SWAP1 SUB PUSH1 0x1F AND DUP3 ADD SWAP2 JUMPDEST POP POP POP POP POP SWAP1 DUP1 PUSH1 0x3 ADD DUP1 SLOAD PUSH2 0x1180 SWAP1 PUSH2 0x386A JUMP JUMPDEST DUP1 PUSH1 0x1F ADD PUSH1 0x20 DUP1 SWAP2 DIV MUL PUSH1 0x20 ADD PUSH1 0x40 MLOAD SWAP1 DUP2 ADD PUSH1 0x40 MSTORE DUP1 SWAP3 SWAP2 SWAP1 DUP2 DUP2 MSTORE PUSH1 0x20 ADD DUP3 DUP1 SLOAD PUSH2 0x11AC SWAP1 PUSH2 0x386A JUMP JUMPDEST DUP1 ISZERO PUSH2 0x11F9 JUMPI DUP1 PUSH1 0x1F LT PUSH2 0x11CE JUMPI PUSH2 0x100 DUP1 DUP4 SLOAD DIV MUL DUP4 MSTORE SWAP2 PUSH1 0x20 ADD SWAP2 PUSH2 0x11F9 JUMP JUMPDEST DUP3 ADD SWAP2 SWAP1 PUSH1 0x0 MSTORE PUSH1 0x20 PUSH1 0x0 KECCAK256 SWAP1 JUMPDEST DUP2 SLOAD DUP2 MSTORE SWAP1 PUSH1 0x1 ADD SWAP1 PUSH1 0x20 ADD DUP1 DUP4 GT PUSH2 0x11DC JUMPI DUP3 SWAP1 SUB PUSH1 0x1F AND DUP3 ADD SWAP2 JUMPDEST POP POP POP POP POP SWAP1 DUP1 PUSH1 0x4 ADD SLOAD SWAP1 DUP1 PUSH1 0x5 ADD DUP1 SLOAD PUSH2 0x1214 SWAP1 PUSH2 0x386A JUMP JUMPDEST DUP1 PUSH1 0x1F ADD PUSH1 0x20 DUP1 SWAP2 DIV MUL PUSH1 0x20 ADD PUSH1 0x40 MLOAD SWAP1 DUP2 ADD PUSH1 0x40 MSTORE DUP1 SWAP3 SWAP2 SWAP1 DUP2 DUP2 MSTORE PUSH1 0x20 ADD DUP3 DUP1 SLOAD PUSH2 0x1240 SWAP1 PUSH2 0x386A JUMP JUMPDEST DUP1 ISZERO PUSH2 0x128D JUMPI DUP1 PUSH1 0x1F LT PUSH2 0x1262 JUMPI PUSH2 0x100 DUP1 DUP4 SLOAD DIV MUL DUP4 MSTORE SWAP2 PUSH1 0x20 ADD SWAP2 PUSH2 0x128D JUMP JUMPDEST DUP3 ADD SWAP2 SWAP1 PUSH1 0x0 MSTORE PUSH1 0x20 PUSH1 0x0 KECCAK256 SWAP1 JUMPDEST DUP2 SLOAD DUP2 MSTORE SWAP1 PUSH1 0x1 ADD SWAP1 PUSH1 0x20 ADD DUP1 DUP4 GT PUSH2 0x1270 JUMPI DUP3 SWAP1 SUB PUSH1 0x1F AND DUP3 ADD SWAP2 JUMPDEST POP POP POP POP POP SWAP1 DUP1 PUSH1 0x6 ADD DUP1 SLOAD PUSH2 0x12A2 SWAP1 PUSH2 0x386A JUMP JUMPDEST DUP1 PUSH1 0x1F ADD PUSH1 0x20 DUP1 SWAP2 DIV MUL PUSH1 0x20 ADD PUSH1 0x40 MLOAD SWAP1 DUP2 ADD PUSH1 0x40 MSTORE DUP1 SWAP3 SWAP2 SWAP1 DUP2 DUP2 MSTORE PUSH1 0x20 ADD DUP3 DUP1 SLOAD PUSH2 0x12CE SWAP1 PUSH2 0x386A JUMP JUMPDEST DUP1 ISZERO PUSH2 0x131B JUMPI DUP1 PUSH1 0x1F LT PUSH2 0x12F0 JUMPI PUSH2 0x100 DUP1 DUP4 SLOAD DIV MUL DUP4 MSTORE SWAP2 PUSH1 0x20 ADD SWAP2 PUSH2 0x131B JUMP JUMPDEST DUP3 ADD SWAP2 SWAP1 PUSH1 0x0 MSTORE PUSH1 0x20 PUSH1 0x0 KECCAK256 SWAP1 JUMPDEST DUP2 SLOAD DUP2 MSTORE SWAP1 PUSH1 0x1 ADD SWAP1 PUSH1 0x20 ADD DUP1 DUP4 GT PUSH2 0x12FE JUMPI DUP3 SWAP1 SUB PUSH1 0x1F AND DUP3 ADD SWAP2 JUMPDEST POP POP POP POP POP SWAP1 DUP1 PUSH1 0x7 ADD DUP1 SLOAD PUSH2 0x1330 SWAP1 PUSH2 0x386A JUMP JUMPDEST DUP1 PUSH1 0x1F ADD PUSH1 0x20 DUP1 SWAP2 DIV MUL PUSH1 0x20 ADD PUSH1 0x40 MLOAD SWAP1 DUP2 ADD PUSH1 0x40 MSTORE DUP1 SWAP3 SWAP2 SWAP1 DUP2 DUP2 MSTORE PUSH1 0x20 ADD DUP3 DUP1 SLOAD PUSH2 0x135C SWAP1 PUSH2 0x386A JUMP JUMPDEST DUP1 ISZERO PUSH2 0x13A9 JUMPI DUP1 PUSH1 0x1F LT PUSH2 0x137E JUMPI PUSH2 0x100 DUP1 DUP4 SLOAD DIV MUL DUP4 MSTORE SWAP2 PUSH1 0x20 ADD SWAP2 PUSH2 0x13A9 JUMP JUMPDEST DUP3 ADD SWAP2 SWAP1 PUSH1 0x0 MSTORE PUSH1 0x20 PUSH1 0x0 KECCAK256 SWAP1 JUMPDEST DUP2 SLOAD DUP2 MSTORE SWAP1 PUSH1 0x1 ADD SWAP1 PUSH1 0x20 ADD DUP1 DUP4 GT PUSH2 0x138C JUMPI DUP3 SWAP1 SUB PUSH1 0x1F AND DUP3 ADD SWAP2 JUMPDEST POP POP POP POP POP SWAP1 DUP1 PUSH1 0x8 ADD DUP1 SLOAD PUSH2 0x13BE SWAP1 PUSH2 0x386A JUMP JUMPDEST DUP1 PUSH1 0x1F ADD PUSH1 0x20 DUP1 SWAP2 DIV MUL PUSH1 0x20 ADD PUSH1 0x40 MLOAD SWAP1 DUP2 ADD PUSH1 0x40 MSTORE DUP1 SWAP3 SWAP2 SWAP1 DUP2 DUP2 MSTORE PUSH1 0x20 ADD DUP3 DUP1 SLOAD PUSH2 0x13EA SWAP1 PUSH2 0x386A JUMP JUMPDEST DUP1 ISZERO PUSH2 0x1437 JUMPI DUP1 PUSH1 0x1F LT PUSH2 0x140C JUMPI PUSH2 0x100 DUP1 DUP4 SLOAD DIV MUL DUP4 MSTORE SWAP2 PUSH1 0x20 ADD SWAP2 PUSH2 0x1437 JUMP JUMPDEST DUP3 ADD SWAP2 SWAP1 PUSH1 0x0 MSTORE PUSH1 0x20 PUSH1 0x0 KECCAK256 SWAP1 JUMPDEST DUP2 SLOAD DUP2 MSTORE SWAP1 PUSH1 0x1 ADD SWAP1 PUSH1 0x20 ADD DUP1 DUP4 GT PUSH2 0x141A JUMPI DUP3 SWAP1 SUB PUSH1 0x1F AND DUP3 ADD SWAP2 JUMPDEST POP POP POP POP POP SWAP1 POP DUP10 JUMP JUMPDEST PUSH1 0x0 DUP7 MLOAD GT PUSH2 0x144F JUMPI PUSH1 0x0 DUP1 REVERT JUMPDEST PUSH1 0x0 DUP6 MLOAD GT PUSH2 0x145D JUMPI PUSH1 0x0 DUP1 REVERT JUMPDEST PUSH1 0x0 DUP5 MLOAD GT PUSH2 0x146B JUMPI PUSH1 0x0 DUP1 REVERT JUMPDEST PUSH1 0x0 DUP4 MLOAD GT PUSH2 0x1479 JUMPI PUSH1 0x0 DUP1 REVERT JUMPDEST PUSH1 0x0 DUP3 MLOAD GT PUSH2 0x1487 JUMPI PUSH1 0x0 DUP1 REVERT JUMPDEST PUSH1 0x0 DUP2 MLOAD GT PUSH2 0x1495 JUMPI PUSH1 0x0 DUP1 REVERT JUMPDEST PUSH1 0xC PUSH1 0x0 DUP2 SLOAD DUP1 SWAP3 SWAP2 SWAP1 PUSH2 0x14A8 SWAP1 PUSH2 0x392D JUMP JUMPDEST SWAP2 SWAP1 POP SSTORE POP PUSH1 0x0 PUSH1 0x6 PUSH1 0x0 PUSH1 0xC SLOAD DUP2 MSTORE PUSH1 0x20 ADD SWAP1 DUP2 MSTORE PUSH1 0x20 ADD PUSH1 0x0 KECCAK256 SWAP1 POP PUSH1 0xC SLOAD DUP2 PUSH1 0x0 ADD DUP2 SWAP1 SSTORE POP DUP9 DUP2 PUSH1 0x1 ADD DUP2 SWAP1 SSTORE POP DUP7 DUP2 PUSH1 0x3 ADD SWAP1 DUP2 PUSH2 0x14EB SWAP2 SWAP1 PUSH2 0x3B21 JUMP JUMPDEST POP DUP6 DUP2 PUSH1 0x2 ADD SWAP1 DUP2 PUSH2 0x14FD SWAP2 SWAP1 PUSH2 0x3B21 JUMP JUMPDEST POP DUP8 DUP2 PUSH1 0x4 ADD DUP2 SWAP1 SSTORE POP DUP5 DUP2 PUSH1 0x5 ADD SWAP1 DUP2 PUSH2 0x1518 SWAP2 SWAP1 PUSH2 0x3B21 JUMP JUMPDEST POP DUP4 DUP2 PUSH1 0x6 ADD SWAP1 DUP2 PUSH2 0x152A SWAP2 SWAP1 PUSH2 0x3B21 JUMP JUMPDEST POP DUP3 DUP2 PUSH1 0x7 ADD SWAP1 DUP2 PUSH2 0x153C SWAP2 SWAP1 PUSH2 0x3B21 JUMP JUMPDEST POP DUP2 DUP2 PUSH1 0x8 ADD SWAP1 DUP2 PUSH2 0x154E SWAP2 SWAP1 PUSH2 0x3B21 JUMP JUMPDEST POP PUSH32 0xEDDE1F77670C495BDD95AA0A5818AFB5B25C0110FEC0CF231934B4069DBEF6A1 DUP2 PUSH1 0x40 MLOAD PUSH2 0x157E SWAP2 SWAP1 PUSH2 0x3DAC JUMP JUMPDEST PUSH1 0x40 MLOAD DUP1 SWAP2 SUB SWAP1 LOG1 POP POP POP POP POP POP POP POP POP JUMP JUMPDEST PUSH1 0x1 PUSH1 0x20 MSTORE DUP1 PUSH1 0x0 MSTORE PUSH1 0x40 PUSH1 0x0 KECCAK256 PUSH1 0x0 SWAP2 POP SWAP1 POP DUP1 PUSH1 0x0 ADD SLOAD SWAP1 DUP1 PUSH1 0x1 ADD DUP1 SLOAD PUSH2 0x15BA SWAP1 PUSH2 0x386A JUMP JUMPDEST DUP1 PUSH1 0x1F ADD PUSH1 0x20 DUP1 SWAP2 DIV MUL PUSH1 0x20 ADD PUSH1 0x40 MLOAD SWAP1 DUP2 ADD PUSH1 0x40 MSTORE DUP1 SWAP3 SWAP2 SWAP1 DUP2 DUP2 MSTORE PUSH1 0x20 ADD DUP3 DUP1 SLOAD PUSH2 0x15E6 SWAP1 PUSH2 0x386A JUMP JUMPDEST DUP1 ISZERO PUSH2 0x1633 JUMPI DUP1 PUSH1 0x1F LT PUSH2 0x1608 JUMPI PUSH2 0x100 DUP1 DUP4 SLOAD DIV MUL DUP4 MSTORE SWAP2 PUSH1 0x20 ADD SWAP2 PUSH2 0x1633 JUMP JUMPDEST DUP3 ADD SWAP2 SWAP1 PUSH1 0x0 MSTORE PUSH1 0x20 PUSH1 0x0 KECCAK256 SWAP1 JUMPDEST DUP2 SLOAD DUP2 MSTORE SWAP1 PUSH1 0x1 ADD SWAP1 PUSH1 0x20 ADD DUP1 DUP4 GT PUSH2 0x1616 JUMPI DUP3 SWAP1 SUB PUSH1 0x1F AND DUP3 ADD SWAP2 JUMPDEST POP POP POP POP POP SWAP1 DUP1 PUSH1 0x2 ADD DUP1 SLOAD PUSH2 0x1648 SWAP1 PUSH2 0x386A JUMP JUMPDEST DUP1 PUSH1 0x1F ADD PUSH1 0x20 DUP1 SWAP2 DIV MUL PUSH1 0x20 ADD PUSH1 0x40 MLOAD SWAP1 DUP2 ADD PUSH1 0x40 MSTORE DUP1 SWAP3 SWAP2 SWAP1 DUP2 DUP2 MSTORE PUSH1 0x20 ADD DUP3 DUP1 SLOAD PUSH2 0x1674 SWAP1 PUSH2 0x386A JUMP JUMPDEST DUP1 ISZERO PUSH2 0x16C1 JUMPI DUP1 PUSH1 0x1F LT PUSH2 0x1696 JUMPI PUSH2 0x100 DUP1 DUP4 SLOAD DIV MUL DUP4 MSTORE SWAP2 PUSH1 0x20 ADD SWAP2 PUSH2 0x16C1 JUMP JUMPDEST DUP3 ADD SWAP2 SWAP1 PUSH1 0x0 MSTORE PUSH1 0x20 PUSH1 0x0 KECCAK256 SWAP1 JUMPDEST DUP2 SLOAD DUP2 MSTORE SWAP1 PUSH1 0x1 ADD SWAP1 PUSH1 0x20 ADD DUP1 DUP4 GT PUSH2 0x16A4 JUMPI DUP3 SWAP1 SUB PUSH1 0x1F AND DUP3 ADD SWAP2 JUMPDEST POP POP POP POP POP SWAP1 DUP1 PUSH1 0x3 ADD DUP1 SLOAD PUSH2 0x16D6 SWAP1 PUSH2 0x386A JUMP JUMPDEST DUP1 PUSH1 0x1F ADD PUSH1 0x20 DUP1 SWAP2 DIV MUL PUSH1 0x20 ADD PUSH1 0x40 MLOAD SWAP1 DUP2 ADD PUSH1 0x40 MSTORE DUP1 SWAP3 SWAP2 SWAP1 DUP2 DUP2 MSTORE PUSH1 0x20 ADD DUP3 DUP1 SLOAD PUSH2 0x1702 SWAP1 PUSH2 0x386A JUMP JUMPDEST DUP1 ISZERO PUSH2 0x174F JUMPI DUP1 PUSH1 0x1F LT PUSH2 0x1724 JUMPI PUSH2 0x100 DUP1 DUP4 SLOAD DIV MUL DUP4 MSTORE SWAP2 PUSH1 0x20 ADD SWAP2 PUSH2 0x174F JUMP JUMPDEST DUP3 ADD SWAP2 SWAP1 PUSH1 0x0 MSTORE PUSH1 0x20 PUSH1 0x0 KECCAK256 SWAP1 JUMPDEST DUP2 SLOAD DUP2 MSTORE SWAP1 PUSH1 0x1 ADD SWAP1 PUSH1 0x20 ADD DUP1 DUP4 GT PUSH2 0x1732 JUMPI DUP3 SWAP1 SUB PUSH1 0x1F AND DUP3 ADD SWAP2 JUMPDEST POP POP POP POP POP SWAP1 DUP1 PUSH1 0x4 ADD DUP1 SLOAD PUSH2 0x1764 SWAP1 PUSH2 0x386A JUMP JUMPDEST DUP1 PUSH1 0x1F ADD PUSH1 0x20 DUP1 SWAP2 DIV MUL PUSH1 0x20 ADD PUSH1 0x40 MLOAD SWAP1 DUP2 ADD PUSH1 0x40 MSTORE DUP1 SWAP3 SWAP2 SWAP1 DUP2 DUP2 MSTORE PUSH1 0x20 ADD DUP3 DUP1 SLOAD PUSH2 0x1790 SWAP1 PUSH2 0x386A JUMP JUMPDEST DUP1 ISZERO PUSH2 0x17DD JUMPI DUP1 PUSH1 0x1F LT PUSH2 0x17B2 JUMPI PUSH2 0x100 DUP1 DUP4 SLOAD DIV MUL DUP4 MSTORE SWAP2 PUSH1 0x20 ADD SWAP2 PUSH2 0x17DD JUMP JUMPDEST DUP3 ADD SWAP2 SWAP1 PUSH1 0x0 MSTORE PUSH1 0x20 PUSH1 0x0 KECCAK256 SWAP1 JUMPDEST DUP2 SLOAD DUP2 MSTORE SWAP1 PUSH1 0x1 ADD SWAP1 PUSH1 0x20 ADD DUP1 DUP4 GT PUSH2 0x17C0 JUMPI DUP3 SWAP1 SUB PUSH1 0x1F AND DUP3 ADD SWAP2 JUMPDEST POP POP POP POP POP SWAP1 DUP1 PUSH1 0x5 ADD DUP1 SLOAD PUSH2 0x17F2 SWAP1 PUSH2 0x386A JUMP JUMPDEST DUP1 PUSH1 0x1F ADD PUSH1 0x20 DUP1 SWAP2 DIV MUL PUSH1 0x20 ADD PUSH1 0x40 MLOAD SWAP1 DUP2 ADD PUSH1 0x40 MSTORE DUP1 SWAP3 SWAP2 SWAP1 DUP2 DUP2 MSTORE PUSH1 0x20 ADD DUP3 DUP1 SLOAD PUSH2 0x181E SWAP1 PUSH2 0x386A JUMP JUMPDEST DUP1 ISZERO PUSH2 0x186B JUMPI DUP1 PUSH1 0x1F LT PUSH2 0x1840 JUMPI PUSH2 0x100 DUP1 DUP4 SLOAD DIV MUL DUP4 MSTORE SWAP2 PUSH1 0x20 ADD SWAP2 PUSH2 0x186B JUMP JUMPDEST DUP3 ADD SWAP2 SWAP1 PUSH1 0x0 MSTORE PUSH1 0x20 PUSH1 0x0 KECCAK256 SWAP1 JUMPDEST DUP2 SLOAD DUP2 MSTORE SWAP1 PUSH1 0x1 ADD SWAP1 PUSH1 0x20 ADD DUP1 DUP4 GT PUSH2 0x184E JUMPI DUP3 SWAP1 SUB PUSH1 0x1F AND DUP3 ADD SWAP2 JUMPDEST POP POP POP POP POP SWAP1 POP DUP7 JUMP JUMPDEST PUSH1 0x0 DUP6 MLOAD GT PUSH2 0x1883 JUMPI PUSH1 0x0 DUP1 REVERT JUMPDEST PUSH1 0x0 DUP5 MLOAD GT PUSH2 0x1891 JUMPI PUSH1 0x0 DUP1 REVERT JUMPDEST PUSH1 0x0 DUP4 MLOAD GT PUSH2 0x189F JUMPI PUSH1 0x0 DUP1 REVERT JUMPDEST PUSH1 0x0 DUP3 MLOAD GT PUSH2 0x18AD JUMPI PUSH1 0x0 DUP1 REVERT JUMPDEST PUSH1 0x0 DUP2 MLOAD GT PUSH2 0x18BB JUMPI PUSH1 0x0 DUP1 REVERT JUMPDEST PUSH1 0x8 PUSH1 0x0 DUP2 SLOAD DUP1 SWAP3 SWAP2 SWAP1 PUSH2 0x18CE SWAP1 PUSH2 0x392D JUMP JUMPDEST SWAP2 SWAP1 POP SSTORE POP PUSH1 0x0 PUSH1 0x1 PUSH1 0x0 PUSH1 0x8 SLOAD DUP2 MSTORE PUSH1 0x20 ADD SWAP1 DUP2 MSTORE PUSH1 0x20 ADD PUSH1 0x0 KECCAK256 SWAP1 POP PUSH1 0x8 SLOAD DUP2 PUSH1 0x0 ADD DUP2 SWAP1 SSTORE POP DUP6 DUP2 PUSH1 0x1 ADD SWAP1 DUP2 PUSH2 0x1908 SWAP2 SWAP1 PUSH2 0x3B21 JUMP JUMPDEST POP DUP5 DUP2 PUSH1 0x5 ADD SWAP1 DUP2 PUSH2 0x191A SWAP2 SWAP1 PUSH2 0x3B21 JUMP JUMPDEST POP DUP4 DUP2 PUSH1 0x2 ADD SWAP1 DUP2 PUSH2 0x192C SWAP2 SWAP1 PUSH2 0x3B21 JUMP JUMPDEST POP DUP3 DUP2 PUSH1 0x3 ADD SWAP1 DUP2 PUSH2 0x193E SWAP2 SWAP1 PUSH2 0x3B21 JUMP JUMPDEST POP DUP2 DUP2 PUSH1 0x4 ADD SWAP1 DUP2 PUSH2 0x1950 SWAP2 SWAP1 PUSH2 0x3B21 JUMP JUMPDEST POP PUSH32 0x8A393F24B50F96CB78DCFB57A53C4C8979F03A0C93941FF9576C05C14A9465CF DUP2 PUSH1 0x40 MLOAD PUSH2 0x1980 SWAP2 SWAP1 PUSH2 0x3E7B JUMP JUMPDEST PUSH1 0x40 MLOAD DUP1 SWAP2 SUB SWAP1 LOG1 POP POP POP POP POP POP JUMP JUMPDEST PUSH1 0x2 PUSH1 0x20 MSTORE DUP1 PUSH1 0x0 MSTORE PUSH1 0x40 PUSH1 0x0 KECCAK256 PUSH1 0x0 SWAP2 POP SWAP1 POP DUP1 PUSH1 0x0 ADD SLOAD SWAP1 DUP1 PUSH1 0x1 ADD DUP1 SLOAD PUSH2 0x19B9 SWAP1 PUSH2 0x386A JUMP JUMPDEST DUP1 PUSH1 0x1F ADD PUSH1 0x20 DUP1 SWAP2 DIV MUL PUSH1 0x20 ADD PUSH1 0x40 MLOAD SWAP1 DUP2 ADD PUSH1 0x40 MSTORE DUP1 SWAP3 SWAP2 SWAP1 DUP2 DUP2 MSTORE PUSH1 0x20 ADD DUP3 DUP1 SLOAD PUSH2 0x19E5 SWAP1 PUSH2 0x386A JUMP JUMPDEST DUP1 ISZERO PUSH2 0x1A32 JUMPI DUP1 PUSH1 0x1F LT PUSH2 0x1A07 JUMPI PUSH2 0x100 DUP1 DUP4 SLOAD DIV MUL DUP4 MSTORE SWAP2 PUSH1 0x20 ADD SWAP2 PUSH2 0x1A32 JUMP JUMPDEST DUP3 ADD SWAP2 SWAP1 PUSH1 0x0 MSTORE PUSH1 0x20 PUSH1 0x0 KECCAK256 SWAP1 JUMPDEST DUP2 SLOAD DUP2 MSTORE SWAP1 PUSH1 0x1 ADD SWAP1 PUSH1 0x20 ADD DUP1 DUP4 GT PUSH2 0x1A15 JUMPI DUP3 SWAP1 SUB PUSH1 0x1F AND DUP3 ADD SWAP2 JUMPDEST POP POP POP POP POP SWAP1 DUP1 PUSH1 0x2 ADD DUP1 SLOAD PUSH2 0x1A47 SWAP1 PUSH2 0x386A JUMP JUMPDEST DUP1 PUSH1 0x1F ADD PUSH1 0x20 DUP1 SWAP2 DIV MUL PUSH1 0x20 ADD PUSH1 0x40 MLOAD SWAP1 DUP2 ADD PUSH1 0x40 MSTORE DUP1 SWAP3 SWAP2 SWAP1 DUP2 DUP2 MSTORE PUSH1 0x20 ADD DUP3 DUP1 SLOAD PUSH2 0x1A73 SWAP1 PUSH2 0x386A JUMP JUMPDEST DUP1 ISZERO PUSH2 0x1AC0 JUMPI DUP1 PUSH1 0x1F LT PUSH2 0x1A95 JUMPI PUSH2 0x100 DUP1 DUP4 SLOAD DIV MUL DUP4 MSTORE SWAP2 PUSH1 0x20 ADD SWAP2 PUSH2 0x1AC0 JUMP JUMPDEST DUP3 ADD SWAP2 SWAP1 PUSH1 0x0 MSTORE PUSH1 0x20 PUSH1 0x0 KECCAK256 SWAP1 JUMPDEST DUP2 SLOAD DUP2 MSTORE SWAP1 PUSH1 0x1 ADD SWAP1 PUSH1 0x20 ADD DUP1 DUP4 GT PUSH2 0x1AA3 JUMPI DUP3 SWAP1 SUB PUSH1 0x1F AND DUP3 ADD SWAP2 JUMPDEST POP POP POP POP POP SWAP1 DUP1 PUSH1 0x3 ADD DUP1 SLOAD PUSH2 0x1AD5 SWAP1 PUSH2 0x386A JUMP JUMPDEST DUP1 PUSH1 0x1F ADD PUSH1 0x20 DUP1 SWAP2 DIV MUL PUSH1 0x20 ADD PUSH1 0x40 MLOAD SWAP1 DUP2 ADD PUSH1 0x40 MSTORE DUP1 SWAP3 SWAP2 SWAP1 DUP2 DUP2 MSTORE PUSH1 0x20 ADD DUP3 DUP1 SLOAD PUSH2 0x1B01 SWAP1 PUSH2 0x386A JUMP JUMPDEST DUP1 ISZERO PUSH2 0x1B4E JUMPI DUP1 PUSH1 0x1F LT PUSH2 0x1B23 JUMPI PUSH2 0x100 DUP1 DUP4 SLOAD DIV MUL DUP4 MSTORE SWAP2 PUSH1 0x20 ADD SWAP2 PUSH2 0x1B4E JUMP JUMPDEST DUP3 ADD SWAP2 SWAP1 PUSH1 0x0 MSTORE PUSH1 0x20 PUSH1 0x0 KECCAK256 SWAP1 JUMPDEST DUP2 SLOAD DUP2 MSTORE SWAP1 PUSH1 0x1 ADD SWAP1 PUSH1 0x20 ADD DUP1 DUP4 GT PUSH2 0x1B31 JUMPI DUP3 SWAP1 SUB PUSH1 0x1F AND DUP3 ADD SWAP2 JUMPDEST POP POP POP POP POP SWAP1 DUP1 PUSH1 0x4 ADD DUP1 SLOAD PUSH2 0x1B63 SWAP1 PUSH2 0x386A JUMP JUMPDEST DUP1 PUSH1 0x1F ADD PUSH1 0x20 DUP1 SWAP2 DIV MUL PUSH1 0x20 ADD PUSH1 0x40 MLOAD SWAP1 DUP2 ADD PUSH1 0x40 MSTORE DUP1 SWAP3 SWAP2 SWAP1 DUP2 DUP2 MSTORE PUSH1 0x20 ADD DUP3 DUP1 SLOAD PUSH2 0x1B8F SWAP1 PUSH2 0x386A JUMP JUMPDEST DUP1 ISZERO PUSH2 0x1BDC JUMPI DUP1 PUSH1 0x1F LT PUSH2 0x1BB1 JUMPI PUSH2 0x100 DUP1 DUP4 SLOAD DIV MUL DUP4 MSTORE SWAP2 PUSH1 0x20 ADD SWAP2 PUSH2 0x1BDC JUMP JUMPDEST DUP3 ADD SWAP2 SWAP1 PUSH1 0x0 MSTORE PUSH1 0x20 PUSH1 0x0 KECCAK256 SWAP1 JUMPDEST DUP2 SLOAD DUP2 MSTORE SWAP1 PUSH1 0x1 ADD SWAP1 PUSH1 0x20 ADD DUP1 DUP4 GT PUSH2 0x1BBF JUMPI DUP3 SWAP1 SUB PUSH1 0x1F AND DUP3 ADD SWAP2 JUMPDEST POP POP POP POP POP SWAP1 DUP1 PUSH1 0x5 ADD DUP1 SLOAD PUSH2 0x1BF1 SWAP1 PUSH2 0x386A JUMP JUMPDEST DUP1 PUSH1 0x1F ADD PUSH1 0x20 DUP1 SWAP2 DIV MUL PUSH1 0x20 ADD PUSH1 0x40 MLOAD SWAP1 DUP2 ADD PUSH1 0x40 MSTORE DUP1 SWAP3 SWAP2 SWAP1 DUP2 DUP2 MSTORE PUSH1 0x20 ADD DUP3 DUP1 SLOAD PUSH2 0x1C1D SWAP1 PUSH2 0x386A JUMP JUMPDEST DUP1 ISZERO PUSH2 0x1C6A JUMPI DUP1 PUSH1 0x1F LT PUSH2 0x1C3F JUMPI PUSH2 0x100 DUP1 DUP4 SLOAD DIV MUL DUP4 MSTORE SWAP2 PUSH1 0x20 ADD SWAP2 PUSH2 0x1C6A JUMP JUMPDEST DUP3 ADD SWAP2 SWAP1 PUSH1 0x0 MSTORE PUSH1 0x20 PUSH1 0x0 KECCAK256 SWAP1 JUMPDEST DUP2 SLOAD DUP2 MSTORE SWAP1 PUSH1 0x1 ADD SWAP1 PUSH1 0x20 ADD DUP1 DUP4 GT PUSH2 0x1C4D JUMPI DUP3 SWAP1 SUB PUSH1 0x1F AND DUP3 ADD SWAP2 JUMPDEST POP POP POP POP POP SWAP1 POP DUP7 JUMP JUMPDEST PUSH1 0x8 SLOAD DUP2 JUMP JUMPDEST PUSH1 0x60 PUSH1 0x0 DUP1 PUSH1 0x0 JUMPDEST PUSH1 0xC SLOAD DUP2 LT ISZERO PUSH2 0x1CDE JUMPI PUSH1 0x0 PUSH1 0x1 DUP3 PUSH2 0x1C9B SWAP2 SWAP1 PUSH2 0x38CA JUMP JUMPDEST SWAP1 POP PUSH1 0x0 PUSH1 0x5 PUSH1 0x0 DUP4 DUP2 MSTORE PUSH1 0x20 ADD SWAP1 DUP2 MSTORE PUSH1 0x20 ADD PUSH1 0x0 KECCAK256 SWAP1 POP DUP7 DUP2 PUSH1 0x1 ADD SLOAD SUB PUSH2 0x1CCF JUMPI PUSH1 0x1 DUP5 PUSH2 0x1CCC SWAP2 SWAP1 PUSH2 0x38CA JUMP JUMPDEST SWAP4 POP JUMPDEST POP POP DUP1 DUP1 PUSH1 0x1 ADD SWAP2 POP POP PUSH2 0x1C82 JUMP JUMPDEST POP PUSH1 0x0 DUP2 PUSH8 0xFFFFFFFFFFFFFFFF DUP2 GT ISZERO PUSH2 0x1CFB JUMPI PUSH2 0x1CFA PUSH2 0x3259 JUMP JUMPDEST JUMPDEST PUSH1 0x40 MLOAD SWAP1 DUP1 DUP3 MSTORE DUP1 PUSH1 0x20 MUL PUSH1 0x20 ADD DUP3 ADD PUSH1 0x40 MSTORE DUP1 ISZERO PUSH2 0x1D34 JUMPI DUP2 PUSH1 0x20 ADD JUMPDEST PUSH2 0x1D21 PUSH2 0x2AA8 JUMP JUMPDEST DUP2 MSTORE PUSH1 0x20 ADD SWAP1 PUSH1 0x1 SWAP1 SUB SWAP1 DUP2 PUSH2 0x1D19 JUMPI SWAP1 POP JUMPDEST POP SWAP1 POP PUSH1 0x0 JUMPDEST PUSH1 0xB SLOAD DUP2 LT ISZERO PUSH2 0x21B6 JUMPI PUSH1 0x0 PUSH1 0x1 DUP3 PUSH2 0x1D53 SWAP2 SWAP1 PUSH2 0x38CA JUMP JUMPDEST SWAP1 POP PUSH1 0x0 PUSH1 0x5 PUSH1 0x0 DUP4 DUP2 MSTORE PUSH1 0x20 ADD SWAP1 DUP2 MSTORE PUSH1 0x20 ADD PUSH1 0x0 KECCAK256 SWAP1 POP DUP8 DUP2 PUSH1 0x1 ADD SLOAD SUB PUSH2 0x21A7 JUMPI PUSH1 0x0 JUMPDEST PUSH1 0xC SLOAD DUP2 LT ISZERO PUSH2 0x21A5 JUMPI PUSH1 0x0 PUSH1 0x6 PUSH1 0x0 PUSH1 0x1 DUP5 PUSH2 0x1D97 SWAP2 SWAP1 PUSH2 0x38CA JUMP JUMPDEST DUP2 MSTORE PUSH1 0x20 ADD SWAP1 DUP2 MSTORE PUSH1 0x20 ADD PUSH1 0x0 KECCAK256 SWAP1 POP DUP3 PUSH1 0x3 ADD SLOAD DUP2 PUSH1 0x0 ADD SLOAD SUB PUSH2 0x2197 JUMPI PUSH2 0x1DBE PUSH2 0x2AA8 JUMP JUMPDEST DUP2 PUSH1 0x0 ADD SLOAD DUP2 PUSH1 0x0 ADD DUP2 DUP2 MSTORE POP POP DUP2 PUSH1 0x1 ADD SLOAD DUP2 PUSH1 0x20 ADD DUP2 DUP2 MSTORE POP POP DUP2 PUSH1 0x3 ADD DUP1 SLOAD PUSH2 0x1DE9 SWAP1 PUSH2 0x386A JUMP JUMPDEST DUP1 PUSH1 0x1F ADD PUSH1 0x20 DUP1 SWAP2 DIV MUL PUSH1 0x20 ADD PUSH1 0x40 MLOAD SWAP1 DUP2 ADD PUSH1 0x40 MSTORE DUP1 SWAP3 SWAP2 SWAP1 DUP2 DUP2 MSTORE PUSH1 0x20 ADD DUP3 DUP1 SLOAD PUSH2 0x1E15 SWAP1 PUSH2 0x386A JUMP JUMPDEST DUP1 ISZERO PUSH2 0x1E62 JUMPI DUP1 PUSH1 0x1F LT PUSH2 0x1E37 JUMPI PUSH2 0x100 DUP1 DUP4 SLOAD DIV MUL DUP4 MSTORE SWAP2 PUSH1 0x20 ADD SWAP2 PUSH2 0x1E62 JUMP JUMPDEST DUP3 ADD SWAP2 SWAP1 PUSH1 0x0 MSTORE PUSH1 0x20 PUSH1 0x0 KECCAK256 SWAP1 JUMPDEST DUP2 SLOAD DUP2 MSTORE SWAP1 PUSH1 0x1 ADD SWAP1 PUSH1 0x20 ADD DUP1 DUP4 GT PUSH2 0x1E45 JUMPI DUP3 SWAP1 SUB PUSH1 0x1F AND DUP3 ADD SWAP2 JUMPDEST POP POP POP POP POP DUP2 PUSH1 0x60 ADD DUP2 SWAP1 MSTORE POP DUP2 PUSH1 0x2 ADD DUP1 SLOAD PUSH2 0x1E7E SWAP1 PUSH2 0x386A JUMP JUMPDEST DUP1 PUSH1 0x1F ADD PUSH1 0x20 DUP1 SWAP2 DIV MUL PUSH1 0x20 ADD PUSH1 0x40 MLOAD SWAP1 DUP2 ADD PUSH1 0x40 MSTORE DUP1 SWAP3 SWAP2 SWAP1 DUP2 DUP2 MSTORE PUSH1 0x20 ADD DUP3 DUP1 SLOAD PUSH2 0x1EAA SWAP1 PUSH2 0x386A JUMP JUMPDEST DUP1 ISZERO PUSH2 0x1EF7 JUMPI DUP1 PUSH1 0x1F LT PUSH2 0x1ECC JUMPI PUSH2 0x100 DUP1 DUP4 SLOAD DIV MUL DUP4 MSTORE SWAP2 PUSH1 0x20 ADD SWAP2 PUSH2 0x1EF7 JUMP JUMPDEST DUP3 ADD SWAP2 SWAP1 PUSH1 0x0 MSTORE PUSH1 0x20 PUSH1 0x0 KECCAK256 SWAP1 JUMPDEST DUP2 SLOAD DUP2 MSTORE SWAP1 PUSH1 0x1 ADD SWAP1 PUSH1 0x20 ADD DUP1 DUP4 GT PUSH2 0x1EDA JUMPI DUP3 SWAP1 SUB PUSH1 0x1F AND DUP3 ADD SWAP2 JUMPDEST POP POP POP POP POP DUP2 PUSH1 0x40 ADD DUP2 SWAP1 MSTORE POP DUP4 PUSH1 0x2 ADD SLOAD DUP2 PUSH1 0x80 ADD DUP2 DUP2 MSTORE POP POP DUP2 PUSH1 0x5 ADD DUP1 SLOAD PUSH2 0x1F21 SWAP1 PUSH2 0x386A JUMP JUMPDEST DUP1 PUSH1 0x1F ADD PUSH1 0x20 DUP1 SWAP2 DIV MUL PUSH1 0x20 ADD PUSH1 0x40 MLOAD SWAP1 DUP2 ADD PUSH1 0x40 MSTORE DUP1 SWAP3 SWAP2 SWAP1 DUP2 DUP2 MSTORE PUSH1 0x20 ADD DUP3 DUP1 SLOAD PUSH2 0x1F4D SWAP1 PUSH2 0x386A JUMP JUMPDEST DUP1 ISZERO PUSH2 0x1F9A JUMPI DUP1 PUSH1 0x1F LT PUSH2 0x1F6F JUMPI PUSH2 0x100 DUP1 DUP4 SLOAD DIV MUL DUP4 MSTORE SWAP2 PUSH1 0x20 ADD SWAP2 PUSH2 0x1F9A JUMP JUMPDEST DUP3 ADD SWAP2 SWAP1 PUSH1 0x0 MSTORE PUSH1 0x20 PUSH1 0x0 KECCAK256 SWAP1 JUMPDEST DUP2 SLOAD DUP2 MSTORE SWAP1 PUSH1 0x1 ADD SWAP1 PUSH1 0x20 ADD DUP1 DUP4 GT PUSH2 0x1F7D JUMPI DUP3 SWAP1 SUB PUSH1 0x1F AND DUP3 ADD SWAP2 JUMPDEST POP POP POP POP POP DUP2 PUSH1 0xA0 ADD DUP2 SWAP1 MSTORE POP DUP2 PUSH1 0x6 ADD DUP1 SLOAD PUSH2 0x1FB6 SWAP1 PUSH2 0x386A JUMP JUMPDEST DUP1 PUSH1 0x1F ADD PUSH1 0x20 DUP1 SWAP2 DIV MUL PUSH1 0x20 ADD PUSH1 0x40 MLOAD SWAP1 DUP2 ADD PUSH1 0x40 MSTORE DUP1 SWAP3 SWAP2 SWAP1 DUP2 DUP2 MSTORE PUSH1 0x20 ADD DUP3 DUP1 SLOAD PUSH2 0x1FE2 SWAP1 PUSH2 0x386A JUMP JUMPDEST DUP1 ISZERO PUSH2 0x202F JUMPI DUP1 PUSH1 0x1F LT PUSH2 0x2004 JUMPI PUSH2 0x100 DUP1 DUP4 SLOAD DIV MUL DUP4 MSTORE SWAP2 PUSH1 0x20 ADD SWAP2 PUSH2 0x202F JUMP JUMPDEST DUP3 ADD SWAP2 SWAP1 PUSH1 0x0 MSTORE PUSH1 0x20 PUSH1 0x0 KECCAK256 SWAP1 JUMPDEST DUP2 SLOAD DUP2 MSTORE SWAP1 PUSH1 0x1 ADD SWAP1 PUSH1 0x20 ADD DUP1 DUP4 GT PUSH2 0x2012 JUMPI DUP3 SWAP1 SUB PUSH1 0x1F AND DUP3 ADD SWAP2 JUMPDEST POP POP POP POP POP DUP2 PUSH1 0xC0 ADD DUP2 SWAP1 MSTORE POP DUP2 PUSH1 0x7 ADD DUP1 SLOAD PUSH2 0x204B SWAP1 PUSH2 0x386A JUMP JUMPDEST DUP1 PUSH1 0x1F ADD PUSH1 0x20 DUP1 SWAP2 DIV MUL PUSH1 0x20 ADD PUSH1 0x40 MLOAD SWAP1 DUP2 ADD PUSH1 0x40 MSTORE DUP1 SWAP3 SWAP2 SWAP1 DUP2 DUP2 MSTORE PUSH1 0x20 ADD DUP3 DUP1 SLOAD PUSH2 0x2077 SWAP1 PUSH2 0x386A JUMP JUMPDEST DUP1 ISZERO PUSH2 0x20C4 JUMPI DUP1 PUSH1 0x1F LT PUSH2 0x2099 JUMPI PUSH2 0x100 DUP1 DUP4 SLOAD DIV MUL DUP4 MSTORE SWAP2 PUSH1 0x20 ADD SWAP2 PUSH2 0x20C4 JUMP JUMPDEST DUP3 ADD SWAP2 SWAP1 PUSH1 0x0 MSTORE PUSH1 0x20 PUSH1 0x0 KECCAK256 SWAP1 JUMPDEST DUP2 SLOAD DUP2 MSTORE SWAP1 PUSH1 0x1 ADD SWAP1 PUSH1 0x20 ADD DUP1 DUP4 GT PUSH2 0x20A7 JUMPI DUP3 SWAP1 SUB PUSH1 0x1F AND DUP3 ADD SWAP2 JUMPDEST POP POP POP POP POP DUP2 PUSH1 0xE0 ADD DUP2 SWAP1 MSTORE POP DUP2 PUSH1 0x8 ADD DUP1 SLOAD PUSH2 0x20E0 SWAP1 PUSH2 0x386A JUMP JUMPDEST DUP1 PUSH1 0x1F ADD PUSH1 0x20 DUP1 SWAP2 DIV MUL PUSH1 0x20 ADD PUSH1 0x40 MLOAD SWAP1 DUP2 ADD PUSH1 0x40 MSTORE DUP1 SWAP3 SWAP2 SWAP1 DUP2 DUP2 MSTORE PUSH1 0x20 ADD DUP3 DUP1 SLOAD PUSH2 0x210C SWAP1 PUSH2 0x386A JUMP JUMPDEST DUP1 ISZERO PUSH2 0x2159 JUMPI DUP1 PUSH1 0x1F LT PUSH2 0x212E JUMPI PUSH2 0x100 DUP1 DUP4 SLOAD DIV MUL DUP4 MSTORE SWAP2 PUSH1 0x20 ADD SWAP2 PUSH2 0x2159 JUMP JUMPDEST DUP3 ADD SWAP2 SWAP1 PUSH1 0x0 MSTORE PUSH1 0x20 PUSH1 0x0 KECCAK256 SWAP1 JUMPDEST DUP2 SLOAD DUP2 MSTORE SWAP1 PUSH1 0x1 ADD SWAP1 PUSH1 0x20 ADD DUP1 DUP4 GT PUSH2 0x213C JUMPI DUP3 SWAP1 SUB PUSH1 0x1F AND DUP3 ADD SWAP2 JUMPDEST POP POP POP POP POP DUP2 PUSH2 0x100 ADD DUP2 SWAP1 MSTORE POP DUP1 DUP8 DUP11 DUP2 MLOAD DUP2 LT PUSH2 0x217B JUMPI PUSH2 0x217A PUSH2 0x38FE JUMP JUMPDEST JUMPDEST PUSH1 0x20 MUL PUSH1 0x20 ADD ADD DUP2 SWAP1 MSTORE POP PUSH1 0x1 DUP10 PUSH2 0x2193 SWAP2 SWAP1 PUSH2 0x38CA JUMP JUMPDEST SWAP9 POP POP JUMPDEST POP DUP1 DUP1 PUSH1 0x1 ADD SWAP2 POP POP PUSH2 0x1D7A JUMP JUMPDEST POP JUMPDEST POP POP DUP1 DUP1 PUSH1 0x1 ADD SWAP2 POP POP PUSH2 0x1D3A JUMP JUMPDEST POP DUP1 SWAP4 POP POP POP POP SWAP2 SWAP1 POP JUMP JUMPDEST PUSH1 0x9 SLOAD DUP2 JUMP JUMPDEST PUSH1 0x5 PUSH1 0x20 MSTORE DUP1 PUSH1 0x0 MSTORE PUSH1 0x40 PUSH1 0x0 KECCAK256 PUSH1 0x0 SWAP2 POP SWAP1 POP DUP1 PUSH1 0x0 ADD SLOAD SWAP1 DUP1 PUSH1 0x1 ADD SLOAD SWAP1 DUP1 PUSH1 0x2 ADD SLOAD SWAP1 DUP1 PUSH1 0x3 ADD SLOAD SWAP1 POP DUP5 JUMP JUMPDEST PUSH1 0xA SLOAD DUP2 JUMP JUMPDEST PUSH1 0x60 PUSH1 0x0 DUP1 PUSH1 0x9 SLOAD PUSH8 0xFFFFFFFFFFFFFFFF DUP2 GT ISZERO PUSH2 0x221F JUMPI PUSH2 0x221E PUSH2 0x3259 JUMP JUMPDEST JUMPDEST PUSH1 0x40 MLOAD SWAP1 DUP1 DUP3 MSTORE DUP1 PUSH1 0x20 MUL PUSH1 0x20 ADD DUP3 ADD PUSH1 0x40 MSTORE DUP1 ISZERO PUSH2 0x2258 JUMPI DUP2 PUSH1 0x20 ADD JUMPDEST PUSH2 0x2245 PUSH2 0x2B2A JUMP JUMPDEST DUP2 MSTORE PUSH1 0x20 ADD SWAP1 PUSH1 0x1 SWAP1 SUB SWAP1 DUP2 PUSH2 0x223D JUMPI SWAP1 POP JUMPDEST POP SWAP1 POP PUSH1 0x0 JUMPDEST PUSH1 0x9 SLOAD DUP2 LT ISZERO PUSH2 0x25BC JUMPI PUSH1 0x0 PUSH1 0x1 DUP3 PUSH2 0x2277 SWAP2 SWAP1 PUSH2 0x38CA JUMP JUMPDEST SWAP1 POP PUSH1 0x0 PUSH1 0x2 PUSH1 0x0 DUP4 DUP2 MSTORE PUSH1 0x20 ADD SWAP1 DUP2 MSTORE PUSH1 0x20 ADD PUSH1 0x0 KECCAK256 SWAP1 POP DUP1 PUSH1 0x40 MLOAD DUP1 PUSH1 0xC0 ADD PUSH1 0x40 MSTORE SWAP1 DUP2 PUSH1 0x0 DUP3 ADD SLOAD DUP2 MSTORE PUSH1 0x20 ADD PUSH1 0x1 DUP3 ADD DUP1 SLOAD PUSH2 0x22B6 SWAP1 PUSH2 0x386A JUMP JUMPDEST DUP1 PUSH1 0x1F ADD PUSH1 0x20 DUP1 SWAP2 DIV MUL PUSH1 0x20 ADD PUSH1 0x40 MLOAD SWAP1 DUP2 ADD PUSH1 0x40 MSTORE DUP1 SWAP3 SWAP2 SWAP1 DUP2 DUP2 MSTORE PUSH1 0x20 ADD DUP3 DUP1 SLOAD PUSH2 0x22E2 SWAP1 PUSH2 0x386A JUMP JUMPDEST DUP1 ISZERO PUSH2 0x232F JUMPI DUP1 PUSH1 0x1F LT PUSH2 0x2304 JUMPI PUSH2 0x100 DUP1 DUP4 SLOAD DIV MUL DUP4 MSTORE SWAP2 PUSH1 0x20 ADD SWAP2 PUSH2 0x232F JUMP JUMPDEST DUP3 ADD SWAP2 SWAP1 PUSH1 0x0 MSTORE PUSH1 0x20 PUSH1 0x0 KECCAK256 SWAP1 JUMPDEST DUP2 SLOAD DUP2 MSTORE SWAP1 PUSH1 0x1 ADD SWAP1 PUSH1 0x20 ADD DUP1 DUP4 GT PUSH2 0x2312 JUMPI DUP3 SWAP1 SUB PUSH1 0x1F AND DUP3 ADD SWAP2 JUMPDEST POP POP POP POP POP DUP2 MSTORE PUSH1 0x20 ADD PUSH1 0x2 DUP3 ADD DUP1 SLOAD PUSH2 0x2348 SWAP1 PUSH2 0x386A JUMP JUMPDEST DUP1 PUSH1 0x1F ADD PUSH1 0x20 DUP1 SWAP2 DIV MUL PUSH1 0x20 ADD PUSH1 0x40 MLOAD SWAP1 DUP2 ADD PUSH1 0x40 MSTORE DUP1 SWAP3 SWAP2 SWAP1 DUP2 DUP2 MSTORE PUSH1 0x20 ADD DUP3 DUP1 SLOAD PUSH2 0x2374 SWAP1 PUSH2 0x386A JUMP JUMPDEST DUP1 ISZERO PUSH2 0x23C1 JUMPI DUP1 PUSH1 0x1F LT PUSH2 0x2396 JUMPI PUSH2 0x100 DUP1 DUP4 SLOAD DIV MUL DUP4 MSTORE SWAP2 PUSH1 0x20 ADD SWAP2 PUSH2 0x23C1 JUMP JUMPDEST DUP3 ADD SWAP2 SWAP1 PUSH1 0x0 MSTORE PUSH1 0x20 PUSH1 0x0 KECCAK256 SWAP1 JUMPDEST DUP2 SLOAD DUP2 MSTORE SWAP1 PUSH1 0x1 ADD SWAP1 PUSH1 0x20 ADD DUP1 DUP4 GT PUSH2 0x23A4 JUMPI DUP3 SWAP1 SUB PUSH1 0x1F AND DUP3 ADD SWAP2 JUMPDEST POP POP POP POP POP DUP2 MSTORE PUSH1 0x20 ADD PUSH1 0x3 DUP3 ADD DUP1 SLOAD PUSH2 0x23DA SWAP1 PUSH2 0x386A JUMP JUMPDEST DUP1 PUSH1 0x1F ADD PUSH1 0x20 DUP1 SWAP2 DIV MUL PUSH1 0x20 ADD PUSH1 0x40 MLOAD SWAP1 DUP2 ADD PUSH1 0x40 MSTORE DUP1 SWAP3 SWAP2 SWAP1 DUP2 DUP2 MSTORE PUSH1 0x20 ADD DUP3 DUP1 SLOAD PUSH2 0x2406 SWAP1 PUSH2 0x386A JUMP JUMPDEST DUP1 ISZERO PUSH2 0x2453 JUMPI DUP1 PUSH1 0x1F LT PUSH2 0x2428 JUMPI PUSH2 0x100 DUP1 DUP4 SLOAD DIV MUL DUP4 MSTORE SWAP2 PUSH1 0x20 ADD SWAP2 PUSH2 0x2453 JUMP JUMPDEST DUP3 ADD SWAP2 SWAP1 PUSH1 0x0 MSTORE PUSH1 0x20 PUSH1 0x0 KECCAK256 SWAP1 JUMPDEST DUP2 SLOAD DUP2 MSTORE SWAP1 PUSH1 0x1 ADD SWAP1 PUSH1 0x20 ADD DUP1 DUP4 GT PUSH2 0x2436 JUMPI DUP3 SWAP1 SUB PUSH1 0x1F AND DUP3 ADD SWAP2 JUMPDEST POP POP POP POP POP DUP2 MSTORE PUSH1 0x20 ADD PUSH1 0x4 DUP3 ADD DUP1 SLOAD PUSH2 0x246C SWAP1 PUSH2 0x386A JUMP JUMPDEST DUP1 PUSH1 0x1F ADD PUSH1 0x20 DUP1 SWAP2 DIV MUL PUSH1 0x20 ADD PUSH1 0x40 MLOAD SWAP1 DUP2 ADD PUSH1 0x40 MSTORE DUP1 SWAP3 SWAP2 SWAP1 DUP2 DUP2 MSTORE PUSH1 0x20 ADD DUP3 DUP1 SLOAD PUSH2 0x2498 SWAP1 PUSH2 0x386A JUMP JUMPDEST DUP1 ISZERO PUSH2 0x24E5 JUMPI DUP1 PUSH1 0x1F LT PUSH2 0x24BA JUMPI PUSH2 0x100 DUP1 DUP4 SLOAD DIV MUL DUP4 MSTORE SWAP2 PUSH1 0x20 ADD SWAP2 PUSH2 0x24E5 JUMP JUMPDEST DUP3 ADD SWAP2 SWAP1 PUSH1 0x0 MSTORE PUSH1 0x20 PUSH1 0x0 KECCAK256 SWAP1 JUMPDEST DUP2 SLOAD DUP2 MSTORE SWAP1 PUSH1 0x1 ADD SWAP1 PUSH1 0x20 ADD DUP1 DUP4 GT PUSH2 0x24C8 JUMPI DUP3 SWAP1 SUB PUSH1 0x1F AND DUP3 ADD SWAP2 JUMPDEST POP POP POP POP POP DUP2 MSTORE PUSH1 0x20 ADD PUSH1 0x5 DUP3 ADD DUP1 SLOAD PUSH2 0x24FE SWAP1 PUSH2 0x386A JUMP JUMPDEST DUP1 PUSH1 0x1F ADD PUSH1 0x20 DUP1 SWAP2 DIV MUL PUSH1 0x20 ADD PUSH1 0x40 MLOAD SWAP1 DUP2 ADD PUSH1 0x40 MSTORE DUP1 SWAP3 SWAP2 SWAP1 DUP2 DUP2 MSTORE PUSH1 0x20 ADD DUP3 DUP1 SLOAD PUSH2 0x252A SWAP1 PUSH2 0x386A JUMP JUMPDEST DUP1 ISZERO PUSH2 0x2577 JUMPI DUP1 PUSH1 0x1F LT PUSH2 0x254C JUMPI PUSH2 0x100 DUP1 DUP4 SLOAD DIV MUL DUP4 MSTORE SWAP2 PUSH1 0x20 ADD SWAP2 PUSH2 0x2577 JUMP JUMPDEST DUP3 ADD SWAP2 SWAP1 PUSH1 0x0 MSTORE PUSH1 0x20 PUSH1 0x0 KECCAK256 SWAP1 JUMPDEST DUP2 SLOAD DUP2 MSTORE SWAP1 PUSH1 0x1 ADD SWAP1 PUSH1 0x20 ADD DUP1 DUP4 GT PUSH2 0x255A JUMPI DUP3 SWAP1 SUB PUSH1 0x1F AND DUP3 ADD SWAP2 JUMPDEST POP POP POP POP POP DUP2 MSTORE POP POP DUP5 DUP7 DUP2 MLOAD DUP2 LT PUSH2 0x2593 JUMPI PUSH2 0x2592 PUSH2 0x38FE JUMP JUMPDEST JUMPDEST PUSH1 0x20 MUL PUSH1 0x20 ADD ADD DUP2 SWAP1 MSTORE POP PUSH1 0x1 DUP6 PUSH2 0x25AB SWAP2 SWAP1 PUSH2 0x38CA JUMP JUMPDEST SWAP5 POP POP POP DUP1 DUP1 PUSH1 0x1 ADD SWAP2 POP POP PUSH2 0x225E JUMP JUMPDEST POP DUP1 SWAP3 POP POP POP SWAP1 JUMP JUMPDEST PUSH1 0xC SLOAD DUP2 JUMP JUMPDEST PUSH1 0x60 PUSH1 0x0 DUP1 PUSH1 0x0 JUMPDEST PUSH1 0xC SLOAD DUP2 LT ISZERO PUSH2 0x262F JUMPI PUSH1 0x0 PUSH1 0x1 DUP3 PUSH2 0x25EC SWAP2 SWAP1 PUSH2 0x38CA JUMP JUMPDEST SWAP1 POP PUSH1 0x0 PUSH1 0x6 PUSH1 0x0 DUP4 DUP2 MSTORE PUSH1 0x20 ADD SWAP1 DUP2 MSTORE PUSH1 0x20 ADD PUSH1 0x0 KECCAK256 SWAP1 POP DUP7 DUP2 PUSH1 0x1 ADD SLOAD SUB PUSH2 0x2620 JUMPI PUSH1 0x1 DUP5 PUSH2 0x261D SWAP2 SWAP1 PUSH2 0x38CA JUMP JUMPDEST SWAP4 POP JUMPDEST POP POP DUP1 DUP1 PUSH1 0x1 ADD SWAP2 POP POP PUSH2 0x25D3 JUMP JUMPDEST POP PUSH1 0x0 DUP2 PUSH8 0xFFFFFFFFFFFFFFFF DUP2 GT ISZERO PUSH2 0x264C JUMPI PUSH2 0x264B PUSH2 0x3259 JUMP JUMPDEST JUMPDEST PUSH1 0x40 MLOAD SWAP1 DUP1 DUP3 MSTORE DUP1 PUSH1 0x20 MUL PUSH1 0x20 ADD DUP3 ADD PUSH1 0x40 MSTORE DUP1 ISZERO PUSH2 0x2685 JUMPI DUP2 PUSH1 0x20 ADD JUMPDEST PUSH2 0x2672 PUSH2 0x2AA8 JUMP JUMPDEST DUP2 MSTORE PUSH1 0x20 ADD SWAP1 PUSH1 0x1 SWAP1 SUB SWAP1 DUP2 PUSH2 0x266A JUMPI SWAP1 POP JUMPDEST POP SWAP1 POP PUSH1 0x0 JUMPDEST PUSH1 0xC SLOAD DUP2 LT ISZERO PUSH2 0x2A9C JUMPI PUSH1 0x0 PUSH1 0x1 DUP3 PUSH2 0x26A4 SWAP2 SWAP1 PUSH2 0x38CA JUMP JUMPDEST SWAP1 POP PUSH1 0x0 PUSH1 0x6 PUSH1 0x0 DUP4 DUP2 MSTORE PUSH1 0x20 ADD SWAP1 DUP2 MSTORE PUSH1 0x20 ADD PUSH1 0x0 KECCAK256 SWAP1 POP DUP8 DUP2 PUSH1 0x1 ADD SLOAD SUB PUSH2 0x2A8D JUMPI DUP1 PUSH1 0x40 MLOAD DUP1 PUSH2 0x120 ADD PUSH1 0x40 MSTORE SWAP1 DUP2 PUSH1 0x0 DUP3 ADD SLOAD DUP2 MSTORE PUSH1 0x20 ADD PUSH1 0x1 DUP3 ADD SLOAD DUP2 MSTORE PUSH1 0x20 ADD PUSH1 0x2 DUP3 ADD DUP1 SLOAD PUSH2 0x26F9 SWAP1 PUSH2 0x386A JUMP JUMPDEST DUP1 PUSH1 0x1F ADD PUSH1 0x20 DUP1 SWAP2 DIV MUL PUSH1 0x20 ADD PUSH1 0x40 MLOAD SWAP1 DUP2 ADD PUSH1 0x40 MSTORE DUP1 SWAP3 SWAP2 SWAP1 DUP2 DUP2 MSTORE PUSH1 0x20 ADD DUP3 DUP1 SLOAD PUSH2 0x2725 SWAP1 PUSH2 0x386A JUMP JUMPDEST DUP1 ISZERO PUSH2 0x2772 JUMPI DUP1 PUSH1 0x1F LT PUSH2 0x2747 JUMPI PUSH2 0x100 DUP1 DUP4 SLOAD DIV MUL DUP4 MSTORE SWAP2 PUSH1 0x20 ADD SWAP2 PUSH2 0x2772 JUMP JUMPDEST DUP3 ADD SWAP2 SWAP1 PUSH1 0x0 MSTORE PUSH1 0x20 PUSH1 0x0 KECCAK256 SWAP1 JUMPDEST DUP2 SLOAD DUP2 MSTORE SWAP1 PUSH1 0x1 ADD SWAP1 PUSH1 0x20 ADD DUP1 DUP4 GT PUSH2 0x2755 JUMPI DUP3 SWAP1 SUB PUSH1 0x1F AND DUP3 ADD SWAP2 JUMPDEST POP POP POP POP POP DUP2 MSTORE PUSH1 0x20 ADD PUSH1 0x3 DUP3 ADD DUP1 SLOAD PUSH2 0x278B SWAP1 PUSH2 0x386A JUMP JUMPDEST DUP1 PUSH1 0x1F ADD PUSH1 0x20 DUP1 SWAP2 DIV MUL PUSH1 0x20 ADD PUSH1 0x40 MLOAD SWAP1 DUP2 ADD PUSH1 0x40 MSTORE DUP1 SWAP3 SWAP2 SWAP1 DUP2 DUP2 MSTORE PUSH1 0x20 ADD DUP3 DUP1 SLOAD PUSH2 0x27B7 SWAP1 PUSH2 0x386A JUMP JUMPDEST DUP1 ISZERO PUSH2 0x2804 JUMPI DUP1 PUSH1 0x1F LT PUSH2 0x27D9 JUMPI PUSH2 0x100 DUP1 DUP4 SLOAD DIV MUL DUP4 MSTORE SWAP2 PUSH1 0x20 ADD SWAP2 PUSH2 0x2804 JUMP JUMPDEST DUP3 ADD SWAP2 SWAP1 PUSH1 0x0 MSTORE PUSH1 0x20 PUSH1 0x0 KECCAK256 SWAP1 JUMPDEST DUP2 SLOAD DUP2 MSTORE SWAP1 PUSH1 0x1 ADD SWAP1 PUSH1 0x20 ADD DUP1 DUP4 GT PUSH2 0x27E7 JUMPI DUP3 SWAP1 SUB PUSH1 0x1F AND DUP3 ADD SWAP2 JUMPDEST POP POP POP POP POP DUP2 MSTORE PUSH1 0x20 ADD PUSH1 0x4 DUP3 ADD SLOAD DUP2 MSTORE PUSH1 0x20 ADD PUSH1 0x5 DUP3 ADD DUP1 SLOAD PUSH2 0x2827 SWAP1 PUSH2 0x386A JUMP JUMPDEST DUP1 PUSH1 0x1F ADD PUSH1 0x20 DUP1 SWAP2 DIV MUL PUSH1 0x20 ADD PUSH1 0x40 MLOAD SWAP1 DUP2 ADD PUSH1 0x40 MSTORE DUP1 SWAP3 SWAP2 SWAP1 DUP2 DUP2 MSTORE PUSH1 0x20 ADD DUP3 DUP1 SLOAD PUSH2 0x2853 SWAP1 PUSH2 0x386A JUMP JUMPDEST DUP1 ISZERO PUSH2 0x28A0 JUMPI DUP1 PUSH1 0x1F LT PUSH2 0x2875 JUMPI PUSH2 0x100 DUP1 DUP4 SLOAD DIV MUL DUP4 MSTORE SWAP2 PUSH1 0x20 ADD SWAP2 PUSH2 0x28A0 JUMP JUMPDEST DUP3 ADD SWAP2 SWAP1 PUSH1 0x0 MSTORE PUSH1 0x20 PUSH1 0x0 KECCAK256 SWAP1 JUMPDEST DUP2 SLOAD DUP2 MSTORE SWAP1 PUSH1 0x1 ADD SWAP1 PUSH1 0x20 ADD DUP1 DUP4 GT PUSH2 0x2883 JUMPI DUP3 SWAP1 SUB PUSH1 0x1F AND DUP3 ADD SWAP2 JUMPDEST POP POP POP POP POP DUP2 MSTORE PUSH1 0x20 ADD PUSH1 0x6 DUP3 ADD DUP1 SLOAD PUSH2 0x28B9 SWAP1 PUSH2 0x386A JUMP JUMPDEST DUP1 PUSH1 0x1F ADD PUSH1 0x20 DUP1 SWAP2 DIV MUL PUSH1 0x20 ADD PUSH1 0x40 MLOAD SWAP1 DUP2 ADD PUSH1 0x40 MSTORE DUP1 SWAP3 SWAP2 SWAP1 DUP2 DUP2 MSTORE PUSH1 0x20 ADD DUP3 DUP1 SLOAD PUSH2 0x28E5 SWAP1 PUSH2 0x386A JUMP JUMPDEST DUP1 ISZERO PUSH2 0x2932 JUMPI DUP1 PUSH1 0x1F LT PUSH2 0x2907 JUMPI PUSH2 0x100 DUP1 DUP4 SLOAD DIV MUL DUP4 MSTORE SWAP2 PUSH1 0x20 ADD SWAP2 PUSH2 0x2932 JUMP JUMPDEST DUP3 ADD SWAP2 SWAP1 PUSH1 0x0 MSTORE PUSH1 0x20 PUSH1 0x0 KECCAK256 SWAP1 JUMPDEST DUP2 SLOAD DUP2 MSTORE SWAP1 PUSH1 0x1 ADD SWAP1 PUSH1 0x20 ADD DUP1 DUP4 GT PUSH2 0x2915 JUMPI DUP3 SWAP1 SUB PUSH1 0x1F AND DUP3 ADD SWAP2 JUMPDEST POP POP POP POP POP DUP2 MSTORE PUSH1 0x20 ADD PUSH1 0x7 DUP3 ADD DUP1 SLOAD PUSH2 0x294B SWAP1 PUSH2 0x386A JUMP JUMPDEST DUP1 PUSH1 0x1F ADD PUSH1 0x20 DUP1 SWAP2 DIV MUL PUSH1 0x20 ADD PUSH1 0x40 MLOAD SWAP1 DUP2 ADD PUSH1 0x40 MSTORE DUP1 SWAP3 SWAP2 SWAP1 DUP2 DUP2 MSTORE PUSH1 0x20 ADD DUP3 DUP1 SLOAD PUSH2 0x2977 SWAP1 PUSH2 0x386A JUMP JUMPDEST DUP1 ISZERO PUSH2 0x29C4 JUMPI DUP1 PUSH1 0x1F LT PUSH2 0x2999 JUMPI PUSH2 0x100 DUP1 DUP4 SLOAD DIV MUL DUP4 MSTORE SWAP2 PUSH1 0x20 ADD SWAP2 PUSH2 0x29C4 JUMP JUMPDEST DUP3 ADD SWAP2 SWAP1 PUSH1 0x0 MSTORE PUSH1 0x20 PUSH1 0x0 KECCAK256 SWAP1 JUMPDEST DUP2 SLOAD DUP2 MSTORE SWAP1 PUSH1 0x1 ADD SWAP1 PUSH1 0x20 ADD DUP1 DUP4 GT PUSH2 0x29A7 JUMPI DUP3 SWAP1 SUB PUSH1 0x1F AND DUP3 ADD SWAP2 JUMPDEST POP POP POP POP POP DUP2 MSTORE PUSH1 0x20 ADD PUSH1 0x8 DUP3 ADD DUP1 SLOAD PUSH2 0x29DD SWAP1 PUSH2 0x386A JUMP JUMPDEST DUP1 PUSH1 0x1F ADD PUSH1 0x20 DUP1 SWAP2 DIV MUL PUSH1 0x20 ADD PUSH1 0x40 MLOAD SWAP1 DUP2 ADD PUSH1 0x40 MSTORE DUP1 SWAP3 SWAP2 SWAP1 DUP2 DUP2 MSTORE PUSH1 0x20 ADD DUP3 DUP1 SLOAD PUSH2 0x2A09 SWAP1 PUSH2 0x386A JUMP JUMPDEST DUP1 ISZERO PUSH2 0x2A56 JUMPI DUP1 PUSH1 0x1F LT PUSH2 0x2A2B JUMPI PUSH2 0x100 DUP1 DUP4 SLOAD DIV MUL DUP4 MSTORE SWAP2 PUSH1 0x20 ADD SWAP2 PUSH2 0x2A56 JUMP JUMPDEST DUP3 ADD SWAP2 SWAP1 PUSH1 0x0 MSTORE PUSH1 0x20 PUSH1 0x0 KECCAK256 SWAP1 JUMPDEST DUP2 SLOAD DUP2 MSTORE SWAP1 PUSH1 0x1 ADD SWAP1 PUSH1 0x20 ADD DUP1 DUP4 GT PUSH2 0x2A39 JUMPI DUP3 SWAP1 SUB PUSH1 0x1F AND DUP3 ADD SWAP2 JUMPDEST POP POP POP POP POP DUP2 MSTORE POP POP DUP5 DUP8 DUP2 MLOAD DUP2 LT PUSH2 0x2A72 JUMPI PUSH2 0x2A71 PUSH2 0x38FE JUMP JUMPDEST JUMPDEST PUSH1 0x20 MUL PUSH1 0x20 ADD ADD DUP2 SWAP1 MSTORE POP PUSH1 0x1 DUP7 PUSH2 0x2A8A SWAP2 SWAP1 PUSH2 0x38CA JUMP JUMPDEST SWAP6 POP JUMPDEST POP POP DUP1 DUP1 PUSH1 0x1 ADD SWAP2 POP POP PUSH2 0x268B JUMP JUMPDEST POP DUP1 SWAP4 POP POP POP POP SWAP2 SWAP1 POP JUMP JUMPDEST PUSH1 0x40 MLOAD DUP1 PUSH2 0x120 ADD PUSH1 0x40 MSTORE DUP1 PUSH1 0x0 DUP2 MSTORE PUSH1 0x20 ADD PUSH1 0x0 DUP2 MSTORE PUSH1 0x20 ADD PUSH1 0x60 DUP2 MSTORE PUSH1 0x20 ADD PUSH1 0x60 DUP2 MSTORE PUSH1 0x20 ADD PUSH1 0x0 DUP2 MSTORE PUSH1 0x20 ADD PUSH1 0x60 DUP2 MSTORE PUSH1 0x20 ADD PUSH1 0x60 DUP2 MSTORE PUSH1 0x20 ADD PUSH1 0x60 DUP2 MSTORE PUSH1 0x20 ADD PUSH1 0x60 DUP2 MSTORE POP SWAP1 JUMP JUMPDEST PUSH1 0x40 MLOAD DUP1 PUSH1 0xC0 ADD PUSH1 0x40 MSTORE DUP1 PUSH1 0x0 DUP2 MSTORE PUSH1 0x20 ADD PUSH1 0x60 DUP2 MSTORE PUSH1 0x20 ADD PUSH1 0x60 DUP2 MSTORE PUSH1 0x20 ADD PUSH1 0x60 DUP2 MSTORE PUSH1 0x20 ADD PUSH1 0x60 DUP2 MSTORE PUSH1 0x20 ADD PUSH1 0x60 DUP2 MSTORE POP SWAP1 JUMP JUMPDEST PUSH1 0x40 MLOAD DUP1 PUSH1 0xC0 ADD PUSH1 0x40 MSTORE DUP1 PUSH1 0x0 DUP2 MSTORE PUSH1 0x20 ADD PUSH1 0x60 DUP2 MSTORE PUSH1 0x20 ADD PUSH1 0x60 DUP2 MSTORE PUSH1 0x20 ADD PUSH1 0x60 DUP2 MSTORE PUSH1 0x20 ADD PUSH1 0x60 DUP2 MSTORE PUSH1 0x20 ADD PUSH1 0x60 DUP2 MSTORE POP SWAP1 JUMP JUMPDEST PUSH1 0x0 DUP2 MLOAD SWAP1 POP SWAP2 SWAP1 POP JUMP JUMPDEST PUSH1 0x0 DUP3 DUP3 MSTORE PUSH1 0x20 DUP3 ADD SWAP1 POP SWAP3 SWAP2 POP POP JUMP JUMPDEST PUSH1 0x0 JUMPDEST DUP4 DUP2 LT ISZERO PUSH2 0x2B9A JUMPI DUP1 DUP3 ADD MLOAD DUP2 DUP5 ADD MSTORE PUSH1 0x20 DUP2 ADD SWAP1 POP PUSH2 0x2B7F JUMP JUMPDEST PUSH1 0x0 DUP5 DUP5 ADD MSTORE POP POP POP POP JUMP JUMPDEST PUSH1 0x0 PUSH1 0x1F NOT PUSH1 0x1F DUP4 ADD AND SWAP1 POP SWAP2 SWAP1 POP JUMP JUMPDEST PUSH1 0x0 PUSH2 0x2BC2 DUP3 PUSH2 0x2B60 JUMP JUMPDEST PUSH2 0x2BCC DUP2 DUP6 PUSH2 0x2B6B JUMP JUMPDEST SWAP4 POP PUSH2 0x2BDC DUP2 DUP6 PUSH1 0x20 DUP7 ADD PUSH2 0x2B7C JUMP JUMPDEST PUSH2 0x2BE5 DUP2 PUSH2 0x2BA6 JUMP JUMPDEST DUP5 ADD SWAP2 POP POP SWAP3 SWAP2 POP POP JUMP JUMPDEST PUSH1 0x0 PUSH1 0x20 DUP3 ADD SWAP1 POP DUP2 DUP2 SUB PUSH1 0x0 DUP4 ADD MSTORE PUSH2 0x2C0A DUP2 DUP5 PUSH2 0x2BB7 JUMP JUMPDEST SWAP1 POP SWAP3 SWAP2 POP POP JUMP JUMPDEST PUSH1 0x0 PUSH1 0x40 MLOAD SWAP1 POP SWAP1 JUMP JUMPDEST PUSH1 0x0 DUP1 REVERT JUMPDEST PUSH1 0x0 DUP1 REVERT JUMPDEST PUSH1 0x0 DUP2 SWAP1 POP SWAP2 SWAP1 POP JUMP JUMPDEST PUSH2 0x2C39 DUP2 PUSH2 0x2C26 JUMP JUMPDEST DUP2 EQ PUSH2 0x2C44 JUMPI PUSH1 0x0 DUP1 REVERT JUMPDEST POP JUMP JUMPDEST PUSH1 0x0 DUP2 CALLDATALOAD SWAP1 POP PUSH2 0x2C56 DUP2 PUSH2 0x2C30 JUMP JUMPDEST SWAP3 SWAP2 POP POP JUMP JUMPDEST PUSH1 0x0 PUSH1 0x20 DUP3 DUP5 SUB SLT ISZERO PUSH2 0x2C72 JUMPI PUSH2 0x2C71 PUSH2 0x2C1C JUMP JUMPDEST JUMPDEST PUSH1 0x0 PUSH2 0x2C80 DUP5 DUP3 DUP6 ADD PUSH2 0x2C47 JUMP JUMPDEST SWAP2 POP POP SWAP3 SWAP2 POP POP JUMP JUMPDEST PUSH2 0x2C92 DUP2 PUSH2 0x2C26 JUMP JUMPDEST DUP3 MSTORE POP POP JUMP JUMPDEST PUSH1 0x0 PUSH1 0x60 DUP3 ADD SWAP1 POP PUSH2 0x2CAD PUSH1 0x0 DUP4 ADD DUP7 PUSH2 0x2C89 JUMP JUMPDEST PUSH2 0x2CBA PUSH1 0x20 DUP4 ADD DUP6 PUSH2 0x2C89 JUMP JUMPDEST PUSH2 0x2CC7 PUSH1 0x40 DUP4 ADD DUP5 PUSH2 0x2C89 JUMP JUMPDEST SWAP5 SWAP4 POP POP POP POP JUMP JUMPDEST PUSH1 0x0 DUP2 MLOAD SWAP1 POP SWAP2 SWAP1 POP JUMP JUMPDEST PUSH1 0x0 DUP3 DUP3 MSTORE PUSH1 0x20 DUP3 ADD SWAP1 POP SWAP3 SWAP2 POP POP JUMP JUMPDEST PUSH1 0x0 DUP2 SWAP1 POP PUSH1 0x20 DUP3 ADD SWAP1 POP SWAP2 SWAP1 POP JUMP JUMPDEST PUSH2 0x2D04 DUP2 PUSH2 0x2C26 JUMP JUMPDEST DUP3 MSTORE POP POP JUMP JUMPDEST PUSH1 0x0 DUP3 DUP3 MSTORE PUSH1 0x20 DUP3 ADD SWAP1 POP SWAP3 SWAP2 POP POP JUMP JUMPDEST PUSH1 0x0 PUSH2 0x2D26 DUP3 PUSH2 0x2B60 JUMP JUMPDEST PUSH2 0x2D30 DUP2 DUP6 PUSH2 0x2D0A JUMP JUMPDEST SWAP4 POP PUSH2 0x2D40 DUP2 DUP6 PUSH1 0x20 DUP7 ADD PUSH2 0x2B7C JUMP JUMPDEST PUSH2 0x2D49 DUP2 PUSH2 0x2BA6 JUMP JUMPDEST DUP5 ADD SWAP2 POP POP SWAP3 SWAP2 POP POP JUMP JUMPDEST PUSH1 0x0 PUSH2 0x120 DUP4 ADD PUSH1 0x0 DUP4 ADD MLOAD PUSH2 0x2D6D PUSH1 0x0 DUP7 ADD DUP3 PUSH2 0x2CFB JUMP JUMPDEST POP PUSH1 0x20 DUP4 ADD MLOAD PUSH2 0x2D80 PUSH1 0x20 DUP7 ADD DUP3 PUSH2 0x2CFB JUMP JUMPDEST POP PUSH1 0x40 DUP4 ADD MLOAD DUP5 DUP3 SUB PUSH1 0x40 DUP7 ADD MSTORE PUSH2 0x2D98 DUP3 DUP3 PUSH2 0x2D1B JUMP JUMPDEST SWAP2 POP POP PUSH1 0x60 DUP4 ADD MLOAD DUP5 DUP3 SUB PUSH1 0x60 DUP7 ADD MSTORE PUSH2 0x2DB2 DUP3 DUP3 PUSH2 0x2D1B JUMP JUMPDEST SWAP2 POP POP PUSH1 0x80 DUP4 ADD MLOAD PUSH2 0x2DC7 PUSH1 0x80 DUP7 ADD DUP3 PUSH2 0x2CFB JUMP JUMPDEST POP PUSH1 0xA0 DUP4 ADD MLOAD DUP5 DUP3 SUB PUSH1 0xA0 DUP7 ADD MSTORE PUSH2 0x2DDF DUP3 DUP3 PUSH2 0x2D1B JUMP JUMPDEST SWAP2 POP POP PUSH1 0xC0 DUP4 ADD MLOAD DUP5 DUP3 SUB PUSH1 0xC0 DUP7 ADD MSTORE PUSH2 0x2DF9 DUP3 DUP3 PUSH2 0x2D1B JUMP JUMPDEST SWAP2 POP POP PUSH1 0xE0 DUP4 ADD MLOAD DUP5 DUP3 SUB PUSH1 0xE0 DUP7 ADD MSTORE PUSH2 0x2E13 DUP3 DUP3 PUSH2 0x2D1B JUMP JUMPDEST SWAP2 POP POP PUSH2 0x100 DUP4 ADD MLOAD DUP5 DUP3 SUB PUSH2 0x100 DUP7 ADD MSTORE PUSH2 0x2E2F DUP3 DUP3 PUSH2 0x2D1B JUMP JUMPDEST SWAP2 POP POP DUP1 SWAP2 POP POP SWAP3 SWAP2 POP POP JUMP JUMPDEST PUSH1 0x0 PUSH2 0x2E48 DUP4 DUP4 PUSH2 0x2D54 JUMP JUMPDEST SWAP1 POP SWAP3 SWAP2 POP POP JUMP JUMPDEST PUSH1 0x0 PUSH1 0x20 DUP3 ADD SWAP1 POP SWAP2 SWAP1 POP JUMP JUMPDEST PUSH1 0x0 PUSH2 0x2E68 DUP3 PUSH2 0x2CCF JUMP JUMPDEST PUSH2 0x2E72 DUP2 DUP6 PUSH2 0x2CDA JUMP JUMPDEST SWAP4 POP DUP4 PUSH1 0x20 DUP3 MUL DUP6 ADD PUSH2 0x2E84 DUP6 PUSH2 0x2CEB JUMP JUMPDEST DUP1 PUSH1 0x0 JUMPDEST DUP6 DUP2 LT ISZERO PUSH2 0x2EC0 JUMPI DUP5 DUP5 SUB DUP10 MSTORE DUP2 MLOAD PUSH2 0x2EA1 DUP6 DUP3 PUSH2 0x2E3C JUMP JUMPDEST SWAP5 POP PUSH2 0x2EAC DUP4 PUSH2 0x2E50 JUMP JUMPDEST SWAP3 POP PUSH1 0x20 DUP11 ADD SWAP10 POP POP PUSH1 0x1 DUP2 ADD SWAP1 POP PUSH2 0x2E88 JUMP JUMPDEST POP DUP3 SWAP8 POP DUP8 SWAP6 POP POP POP POP POP POP SWAP3 SWAP2 POP POP JUMP JUMPDEST PUSH1 0x0 PUSH1 0x20 DUP3 ADD SWAP1 POP DUP2 DUP2 SUB PUSH1 0x0 DUP4 ADD MSTORE PUSH2 0x2EEC DUP2 DUP5 PUSH2 0x2E5D JUMP JUMPDEST SWAP1 POP SWAP3 SWAP2 POP POP JUMP JUMPDEST PUSH1 0x0 PUSH1 0x20 DUP3 ADD SWAP1 POP PUSH2 0x2F09 PUSH1 0x0 DUP4 ADD DUP5 PUSH2 0x2C89 JUMP JUMPDEST SWAP3 SWAP2 POP POP JUMP JUMPDEST PUSH1 0x0 PUSH1 0xA0 DUP3 ADD SWAP1 POP PUSH2 0x2F24 PUSH1 0x0 DUP4 ADD DUP9 PUSH2 0x2C89 JUMP JUMPDEST DUP2 DUP2 SUB PUSH1 0x20 DUP4 ADD MSTORE PUSH2 0x2F36 DUP2 DUP8 PUSH2 0x2BB7 JUMP JUMPDEST SWAP1 POP DUP2 DUP2 SUB PUSH1 0x40 DUP4 ADD MSTORE PUSH2 0x2F4A DUP2 DUP7 PUSH2 0x2BB7 JUMP JUMPDEST SWAP1 POP DUP2 DUP2 SUB PUSH1 0x60 DUP4 ADD MSTORE PUSH2 0x2F5E DUP2 DUP6 PUSH2 0x2BB7 JUMP JUMPDEST SWAP1 POP DUP2 DUP2 SUB PUSH1 0x80 DUP4 ADD MSTORE PUSH2 0x2F72 DUP2 DUP5 PUSH2 0x2BB7 JUMP JUMPDEST SWAP1 POP SWAP7 SWAP6 POP POP POP POP POP POP JUMP JUMPDEST PUSH1 0x0 DUP2 MLOAD SWAP1 POP SWAP2 SWAP1 POP JUMP JUMPDEST PUSH1 0x0 DUP3 DUP3 MSTORE PUSH1 0x20 DUP3 ADD SWAP1 POP SWAP3 SWAP2 POP POP JUMP JUMPDEST PUSH1 0x0 DUP2 SWAP1 POP PUSH1 0x20 DUP3 ADD SWAP1 POP SWAP2 SWAP1 POP JUMP JUMPDEST PUSH1 0x0 PUSH1 0xC0 DUP4 ADD PUSH1 0x0 DUP4 ADD MLOAD PUSH2 0x2FC2 PUSH1 0x0 DUP7 ADD DUP3 PUSH2 0x2CFB JUMP JUMPDEST POP PUSH1 0x20 DUP4 ADD MLOAD DUP5 DUP3 SUB PUSH1 0x20 DUP7 ADD MSTORE PUSH2 0x2FDA DUP3 DUP3 PUSH2 0x2D1B JUMP JUMPDEST SWAP2 POP POP PUSH1 0x40 DUP4 ADD MLOAD DUP5 DUP3 SUB PUSH1 0x40 DUP7 ADD MSTORE PUSH2 0x2FF4 DUP3 DUP3 PUSH2 0x2D1B JUMP JUMPDEST SWAP2 POP POP PUSH1 0x60 DUP4 ADD MLOAD DUP5 DUP3 SUB PUSH1 0x60 DUP7 ADD MSTORE PUSH2 0x300E DUP3 DUP3 PUSH2 0x2D1B JUMP JUMPDEST SWAP2 POP POP PUSH1 0x80 DUP4 ADD MLOAD DUP5 DUP3 SUB PUSH1 0x80 DUP7 ADD MSTORE PUSH2 0x3028 DUP3 DUP3 PUSH2 0x2D1B JUMP JUMPDEST SWAP2 POP POP PUSH1 0xA0 DUP4 ADD MLOAD DUP5 DUP3 SUB PUSH1 0xA0 DUP7 ADD MSTORE PUSH2 0x3042 DUP3 DUP3 PUSH2 0x2D1B JUMP JUMPDEST SWAP2 POP POP DUP1 SWAP2 POP POP SWAP3 SWAP2 POP POP JUMP JUMPDEST PUSH1 0x0 PUSH2 0x305B DUP4 DUP4 PUSH2 0x2FAA JUMP JUMPDEST SWAP1 POP SWAP3 SWAP2 POP POP JUMP JUMPDEST PUSH1 0x0 PUSH1 0x20 DUP3 ADD SWAP1 POP SWAP2 SWAP1 POP JUMP JUMPDEST PUSH1 0x0 PUSH2 0x307B DUP3 PUSH2 0x2F7E JUMP JUMPDEST PUSH2 0x3085 DUP2 DUP6 PUSH2 0x2F89 JUMP JUMPDEST SWAP4 POP DUP4 PUSH1 0x20 DUP3 MUL DUP6 ADD PUSH2 0x3097 DUP6 PUSH2 0x2F9A JUMP JUMPDEST DUP1 PUSH1 0x0 JUMPDEST DUP6 DUP2 LT ISZERO PUSH2 0x30D3 JUMPI DUP5 DUP5 SUB DUP10 MSTORE DUP2 MLOAD PUSH2 0x30B4 DUP6 DUP3 PUSH2 0x304F JUMP JUMPDEST SWAP5 POP PUSH2 0x30BF DUP4 PUSH2 0x3063 JUMP JUMPDEST SWAP3 POP PUSH1 0x20 DUP11 ADD SWAP10 POP POP PUSH1 0x1 DUP2 ADD SWAP1 POP PUSH2 0x309B JUMP JUMPDEST POP DUP3 SWAP8 POP DUP8 SWAP6 POP POP POP POP POP POP SWAP3 SWAP2 POP POP JUMP JUMPDEST PUSH1 0x0 PUSH1 0x20 DUP3 ADD SWAP1 POP DUP2 DUP2 SUB PUSH1 0x0 DUP4 ADD MSTORE PUSH2 0x30FF DUP2 DUP5 PUSH2 0x3070 JUMP JUMPDEST SWAP1 POP SWAP3 SWAP2 POP POP JUMP JUMPDEST PUSH1 0x0 DUP1 PUSH1 0x0 PUSH1 0x60 DUP5 DUP7 SUB SLT ISZERO PUSH2 0x3120 JUMPI PUSH2 0x311F PUSH2 0x2C1C JUMP JUMPDEST JUMPDEST PUSH1 0x0 PUSH2 0x312E DUP7 DUP3 DUP8 ADD PUSH2 0x2C47 JUMP JUMPDEST SWAP4 POP POP PUSH1 0x20 PUSH2 0x313F DUP7 DUP3 DUP8 ADD PUSH2 0x2C47 JUMP JUMPDEST SWAP3 POP POP PUSH1 0x40 PUSH2 0x3150 DUP7 DUP3 DUP8 ADD PUSH2 0x2C47 JUMP JUMPDEST SWAP2 POP POP SWAP3 POP SWAP3 POP SWAP3 JUMP JUMPDEST PUSH1 0x0 PUSH1 0x60 DUP3 ADD SWAP1 POP PUSH2 0x316F PUSH1 0x0 DUP4 ADD DUP7 PUSH2 0x2C89 JUMP JUMPDEST PUSH2 0x317C PUSH1 0x20 DUP4 ADD DUP6 PUSH2 0x2C89 JUMP JUMPDEST DUP2 DUP2 SUB PUSH1 0x40 DUP4 ADD MSTORE PUSH2 0x318E DUP2 DUP5 PUSH2 0x2BB7 JUMP JUMPDEST SWAP1 POP SWAP5 SWAP4 POP POP POP POP JUMP JUMPDEST PUSH1 0x0 PUSH2 0x120 DUP3 ADD SWAP1 POP PUSH2 0x31AE PUSH1 0x0 DUP4 ADD DUP13 PUSH2 0x2C89 JUMP JUMPDEST PUSH2 0x31BB PUSH1 0x20 DUP4 ADD DUP12 PUSH2 0x2C89 JUMP JUMPDEST DUP2 DUP2 SUB PUSH1 0x40 DUP4 ADD MSTORE PUSH2 0x31CD DUP2 DUP11 PUSH2 0x2BB7 JUMP JUMPDEST SWAP1 POP DUP2 DUP2 SUB PUSH1 0x60 DUP4 ADD MSTORE PUSH2 0x31E1 DUP2 DUP10 PUSH2 0x2BB7 JUMP JUMPDEST SWAP1 POP PUSH2 0x31F0 PUSH1 0x80 DUP4 ADD DUP9 PUSH2 0x2C89 JUMP JUMPDEST DUP2 DUP2 SUB PUSH1 0xA0 DUP4 ADD MSTORE PUSH2 0x3202 DUP2 DUP8 PUSH2 0x2BB7 JUMP JUMPDEST SWAP1 POP DUP2 DUP2 SUB PUSH1 0xC0 DUP4 ADD MSTORE PUSH2 0x3216 DUP2 DUP7 PUSH2 0x2BB7 JUMP JUMPDEST SWAP1 POP DUP2 DUP2 SUB PUSH1 0xE0 DUP4 ADD MSTORE PUSH2 0x322A DUP2 DUP6 PUSH2 0x2BB7 JUMP JUMPDEST SWAP1 POP DUP2 DUP2 SUB PUSH2 0x100 DUP4 ADD MSTORE PUSH2 0x323F DUP2 DUP5 PUSH2 0x2BB7 JUMP JUMPDEST SWAP1 POP SWAP11 SWAP10 POP POP POP POP POP POP POP POP POP POP JUMP JUMPDEST PUSH1 0x0 DUP1 REVERT JUMPDEST PUSH1 0x0 DUP1 REVERT JUMPDEST PUSH32 0x4E487B7100000000000000000000000000000000000000000000000000000000 PUSH1 0x0 MSTORE PUSH1 0x41 PUSH1 0x4 MSTORE PUSH1 0x24 PUSH1 0x0 REVERT JUMPDEST PUSH2 0x3291 DUP3 PUSH2 0x2BA6 JUMP JUMPDEST DUP2 ADD DUP2 DUP2 LT PUSH8 0xFFFFFFFFFFFFFFFF DUP3 GT OR ISZERO PUSH2 0x32B0 JUMPI PUSH2 0x32AF PUSH2 0x3259 JUMP JUMPDEST JUMPDEST DUP1 PUSH1 0x40 MSTORE POP POP POP JUMP JUMPDEST PUSH1 0x0 PUSH2 0x32C3 PUSH2 0x2C12 JUMP JUMPDEST SWAP1 POP PUSH2 0x32CF DUP3 DUP3 PUSH2 0x3288 JUMP JUMPDEST SWAP2 SWAP1 POP JUMP JUMPDEST PUSH1 0x0 PUSH8 0xFFFFFFFFFFFFFFFF DUP3 GT ISZERO PUSH2 0x32EF JUMPI PUSH2 0x32EE PUSH2 0x3259 JUMP JUMPDEST JUMPDEST PUSH2 0x32F8 DUP3 PUSH2 0x2BA6 JUMP JUMPDEST SWAP1 POP PUSH1 0x20 DUP2 ADD SWAP1 POP SWAP2 SWAP1 POP JUMP JUMPDEST DUP3 DUP2 DUP4 CALLDATACOPY PUSH1 0x0 DUP4 DUP4 ADD MSTORE POP POP POP JUMP JUMPDEST PUSH1 0x0 PUSH2 0x3327 PUSH2 0x3322 DUP5 PUSH2 0x32D4 JUMP JUMPDEST PUSH2 0x32B9 JUMP JUMPDEST SWAP1 POP DUP3 DUP2 MSTORE PUSH1 0x20 DUP2 ADD DUP5 DUP5 DUP5 ADD GT ISZERO PUSH2 0x3343 JUMPI PUSH2 0x3342 PUSH2 0x3254 JUMP JUMPDEST JUMPDEST PUSH2 0x334E DUP5 DUP3 DUP6 PUSH2 0x3305 JUMP JUMPDEST POP SWAP4 SWAP3 POP POP POP JUMP JUMPDEST PUSH1 0x0 DUP3 PUSH1 0x1F DUP4 ADD SLT PUSH2 0x336B JUMPI PUSH2 0x336A PUSH2 0x324F JUMP JUMPDEST JUMPDEST DUP2 CALLDATALOAD PUSH2 0x337B DUP5 DUP3 PUSH1 0x20 DUP7 ADD PUSH2 0x3314 JUMP JUMPDEST SWAP2 POP POP SWAP3 SWAP2 POP POP JUMP JUMPDEST PUSH1 0x0 DUP1 PUSH1 0x0 DUP1 PUSH1 0x0 DUP1 PUSH1 0x0 DUP1 PUSH2 0x100 DUP10 DUP12 SUB SLT ISZERO PUSH2 0x33A5 JUMPI PUSH2 0x33A4 PUSH2 0x2C1C JUMP JUMPDEST JUMPDEST PUSH1 0x0 PUSH2 0x33B3 DUP12 DUP3 DUP13 ADD PUSH2 0x2C47 JUMP JUMPDEST SWAP9 POP POP PUSH1 0x20 PUSH2 0x33C4 DUP12 DUP3 DUP13 ADD PUSH2 0x2C47 JUMP JUMPDEST SWAP8 POP POP PUSH1 0x40 DUP10 ADD CALLDATALOAD PUSH8 0xFFFFFFFFFFFFFFFF DUP2 GT ISZERO PUSH2 0x33E5 JUMPI PUSH2 0x33E4 PUSH2 0x2C21 JUMP JUMPDEST JUMPDEST PUSH2 0x33F1 DUP12 DUP3 DUP13 ADD PUSH2 0x3356 JUMP JUMPDEST SWAP7 POP POP PUSH1 0x60 DUP10 ADD CALLDATALOAD PUSH8 0xFFFFFFFFFFFFFFFF DUP2 GT ISZERO PUSH2 0x3412 JUMPI PUSH2 0x3411 PUSH2 0x2C21 JUMP JUMPDEST JUMPDEST PUSH2 0x341E DUP12 DUP3 DUP13 ADD PUSH2 0x3356 JUMP JUMPDEST SWAP6 POP POP PUSH1 0x80 DUP10 ADD CALLDATALOAD PUSH8 0xFFFFFFFFFFFFFFFF DUP2 GT ISZERO PUSH2 0x343F JUMPI PUSH2 0x343E PUSH2 0x2C21 JUMP JUMPDEST JUMPDEST PUSH2 0x344B DUP12 DUP3 DUP13 ADD PUSH2 0x3356 JUMP JUMPDEST SWAP5 POP POP PUSH1 0xA0 DUP10 ADD CALLDATALOAD PUSH8 0xFFFFFFFFFFFFFFFF DUP2 GT ISZERO PUSH2 0x346C JUMPI PUSH2 0x346B PUSH2 0x2C21 JUMP JUMPDEST JUMPDEST PUSH2 0x3478 DUP12 DUP3 DUP13 ADD PUSH2 0x3356 JUMP JUMPDEST SWAP4 POP POP PUSH1 0xC0 DUP10 ADD CALLDATALOAD PUSH8 0xFFFFFFFFFFFFFFFF DUP2 GT ISZERO PUSH2 0x3499 JUMPI PUSH2 0x3498 PUSH2 0x2C21 JUMP JUMPDEST JUMPDEST PUSH2 0x34A5 DUP12 DUP3 DUP13 ADD PUSH2 0x3356 JUMP JUMPDEST SWAP3 POP POP PUSH1 0xE0 DUP10 ADD CALLDATALOAD PUSH8 0xFFFFFFFFFFFFFFFF DUP2 GT ISZERO PUSH2 0x34C6 JUMPI PUSH2 0x34C5 PUSH2 0x2C21 JUMP JUMPDEST JUMPDEST PUSH2 0x34D2 DUP12 DUP3 DUP13 ADD PUSH2 0x3356 JUMP JUMPDEST SWAP2 POP POP SWAP3 SWAP6 SWAP9 POP SWAP3 SWAP6 SWAP9 SWAP1 SWAP4 SWAP7 POP JUMP JUMPDEST PUSH1 0x0 PUSH1 0xC0 DUP3 ADD SWAP1 POP PUSH2 0x34F7 PUSH1 0x0 DUP4 ADD DUP10 PUSH2 0x2C89 JUMP JUMPDEST DUP2 DUP2 SUB PUSH1 0x20 DUP4 ADD MSTORE PUSH2 0x3509 DUP2 DUP9 PUSH2 0x2BB7 JUMP JUMPDEST SWAP1 POP DUP2 DUP2 SUB PUSH1 0x40 DUP4 ADD MSTORE PUSH2 0x351D DUP2 DUP8 PUSH2 0x2BB7 JUMP JUMPDEST SWAP1 POP DUP2 DUP2 SUB PUSH1 0x60 DUP4 ADD MSTORE PUSH2 0x3531 DUP2 DUP7 PUSH2 0x2BB7 JUMP JUMPDEST SWAP1 POP DUP2 DUP2 SUB PUSH1 0x80 DUP4 ADD MSTORE PUSH2 0x3545 DUP2 DUP6 PUSH2 0x2BB7 JUMP JUMPDEST SWAP1 POP DUP2 DUP2 SUB PUSH1 0xA0 DUP4 ADD MSTORE PUSH2 0x3559 DUP2 DUP5 PUSH2 0x2BB7 JUMP JUMPDEST SWAP1 POP SWAP8 SWAP7 POP POP POP POP POP POP POP JUMP JUMPDEST PUSH1 0x0 DUP1 PUSH1 0x0 DUP1 PUSH1 0x0 PUSH1 0xA0 DUP7 DUP9 SUB SLT ISZERO PUSH2 0x3582 JUMPI PUSH2 0x3581 PUSH2 0x2C1C JUMP JUMPDEST JUMPDEST PUSH1 0x0 DUP7 ADD CALLDATALOAD PUSH8 0xFFFFFFFFFFFFFFFF DUP2 GT ISZERO PUSH2 0x35A0 JUMPI PUSH2 0x359F PUSH2 0x2C21 JUMP JUMPDEST JUMPDEST PUSH2 0x35AC DUP9 DUP3 DUP10 ADD PUSH2 0x3356 JUMP JUMPDEST SWAP6 POP POP PUSH1 0x20 DUP7 ADD CALLDATALOAD PUSH8 0xFFFFFFFFFFFFFFFF DUP2 GT ISZERO PUSH2 0x35CD JUMPI PUSH2 0x35CC PUSH2 0x2C21 JUMP JUMPDEST JUMPDEST PUSH2 0x35D9 DUP9 DUP3 DUP10 ADD PUSH2 0x3356 JUMP JUMPDEST SWAP5 POP POP PUSH1 0x40 DUP7 ADD CALLDATALOAD PUSH8 0xFFFFFFFFFFFFFFFF DUP2 GT ISZERO PUSH2 0x35FA JUMPI PUSH2 0x35F9 PUSH2 0x2C21 JUMP JUMPDEST JUMPDEST PUSH2 0x3606 DUP9 DUP3 DUP10 ADD PUSH2 0x3356 JUMP JUMPDEST SWAP4 POP POP PUSH1 0x60 DUP7 ADD CALLDATALOAD PUSH8 0xFFFFFFFFFFFFFFFF DUP2 GT ISZERO PUSH2 0x3627 JUMPI PUSH2 0x3626 PUSH2 0x2C21 JUMP JUMPDEST JUMPDEST PUSH2 0x3633 DUP9 DUP3 DUP10 ADD PUSH2 0x3356 JUMP JUMPDEST SWAP3 POP POP PUSH1 0x80 DUP7 ADD CALLDATALOAD PUSH8 0xFFFFFFFFFFFFFFFF DUP2 GT ISZERO PUSH2 0x3654 JUMPI PUSH2 0x3653 PUSH2 0x2C21 JUMP JUMPDEST JUMPDEST PUSH2 0x3660 DUP9 DUP3 DUP10 ADD PUSH2 0x3356 JUMP JUMPDEST SWAP2 POP POP SWAP3 SWAP6 POP SWAP3 SWAP6 SWAP1 SWAP4 POP JUMP JUMPDEST PUSH1 0x0 PUSH1 0x80 DUP3 ADD SWAP1 POP PUSH2 0x3682 PUSH1 0x0 DUP4 ADD DUP8 PUSH2 0x2C89 JUMP JUMPDEST PUSH2 0x368F PUSH1 0x20 DUP4 ADD DUP7 PUSH2 0x2C89 JUMP JUMPDEST PUSH2 0x369C PUSH1 0x40 DUP4 ADD DUP6 PUSH2 0x2C89 JUMP JUMPDEST PUSH2 0x36A9 PUSH1 0x60 DUP4 ADD DUP5 PUSH2 0x2C89 JUMP JUMPDEST SWAP6 SWAP5 POP POP POP POP POP JUMP JUMPDEST PUSH1 0x0 DUP2 MLOAD SWAP1 POP SWAP2 SWAP1 POP JUMP JUMPDEST PUSH1 0x0 DUP3 DUP3 MSTORE PUSH1 0x20 DUP3 ADD SWAP1 POP SWAP3 SWAP2 POP POP JUMP JUMPDEST PUSH1 0x0 DUP2 SWAP1 POP PUSH1 0x20 DUP3 ADD SWAP1 POP SWAP2 SWAP1 POP JUMP JUMPDEST PUSH1 0x0 PUSH1 0xC0 DUP4 ADD PUSH1 0x0 DUP4 ADD MLOAD PUSH2 0x36F6 PUSH1 0x0 DUP7 ADD DUP3 PUSH2 0x2CFB JUMP JUMPDEST POP PUSH1 0x20 DUP4 ADD MLOAD DUP5 DUP3 SUB PUSH1 0x20 DUP7 ADD MSTORE PUSH2 0x370E DUP3 DUP3 PUSH2 0x2D1B JUMP JUMPDEST SWAP2 POP POP PUSH1 0x40 DUP4 ADD MLOAD DUP5 DUP3 SUB PUSH1 0x40 DUP7 ADD MSTORE PUSH2 0x3728 DUP3 DUP3 PUSH2 0x2D1B JUMP JUMPDEST SWAP2 POP POP PUSH1 0x60 DUP4 ADD MLOAD DUP5 DUP3 SUB PUSH1 0x60 DUP7 ADD MSTORE PUSH2 0x3742 DUP3 DUP3 PUSH2 0x2D1B JUMP JUMPDEST SWAP2 POP POP PUSH1 0x80 DUP4 ADD MLOAD DUP5 DUP3 SUB PUSH1 0x80 DUP7 ADD MSTORE PUSH2 0x375C DUP3 DUP3 PUSH2 0x2D1B JUMP JUMPDEST SWAP2 POP POP PUSH1 0xA0 DUP4 ADD MLOAD DUP5 DUP3 SUB PUSH1 0xA0 DUP7 ADD MSTORE PUSH2 0x3776 DUP3 DUP3 PUSH2 0x2D1B JUMP JUMPDEST SWAP2 POP POP DUP1 SWAP2 POP POP SWAP3 SWAP2 POP POP JUMP JUMPDEST PUSH1 0x0 PUSH2 0x378F DUP4 DUP4 PUSH2 0x36DE JUMP JUMPDEST SWAP1 POP SWAP3 SWAP2 POP POP JUMP JUMPDEST PUSH1 0x0 PUSH1 0x20 DUP3 ADD SWAP1 POP SWAP2 SWAP1 POP JUMP JUMPDEST PUSH1 0x0 PUSH2 0x37AF DUP3 PUSH2 0x36B2 JUMP JUMPDEST PUSH2 0x37B9 DUP2 DUP6 PUSH2 0x36BD JUMP JUMPDEST SWAP4 POP DUP4 PUSH1 0x20 DUP3 MUL DUP6 ADD PUSH2 0x37CB DUP6 PUSH2 0x36CE JUMP JUMPDEST DUP1 PUSH1 0x0 JUMPDEST DUP6 DUP2 LT ISZERO PUSH2 0x3807 JUMPI DUP5 DUP5 SUB DUP10 MSTORE DUP2 MLOAD PUSH2 0x37E8 DUP6 DUP3 PUSH2 0x3783 JUMP JUMPDEST SWAP5 POP PUSH2 0x37F3 DUP4 PUSH2 0x3797 JUMP JUMPDEST SWAP3 POP PUSH1 0x20 DUP11 ADD SWAP10 POP POP PUSH1 0x1 DUP2 ADD SWAP1 POP PUSH2 0x37CF JUMP JUMPDEST POP DUP3 SWAP8 POP DUP8 SWAP6 POP POP POP POP POP POP SWAP3 SWAP2 POP POP JUMP JUMPDEST PUSH1 0x0 PUSH1 0x20 DUP3 ADD SWAP1 POP DUP2 DUP2 SUB PUSH1 0x0 DUP4 ADD MSTORE PUSH2 0x3833 DUP2 DUP5 PUSH2 0x37A4 JUMP JUMPDEST SWAP1 POP SWAP3 SWAP2 POP POP JUMP JUMPDEST PUSH32 0x4E487B7100000000000000000000000000000000000000000000000000000000 PUSH1 0x0 MSTORE PUSH1 0x22 PUSH1 0x4 MSTORE PUSH1 0x24 PUSH1 0x0 REVERT JUMPDEST PUSH1 0x0 PUSH1 0x2 DUP3 DIV SWAP1 POP PUSH1 0x1 DUP3 AND DUP1 PUSH2 0x3882 JUMPI PUSH1 0x7F DUP3 AND SWAP2 POP JUMPDEST PUSH1 0x20 DUP3 LT DUP2 SUB PUSH2 0x3895 JUMPI PUSH2 0x3894 PUSH2 0x383B JUMP JUMPDEST JUMPDEST POP SWAP2 SWAP1 POP JUMP JUMPDEST PUSH32 0x4E487B7100000000000000000000000000000000000000000000000000000000 PUSH1 0x0 MSTORE PUSH1 0x11 PUSH1 0x4 MSTORE PUSH1 0x24 PUSH1 0x0 REVERT JUMPDEST PUSH1 0x0 PUSH2 0x38D5 DUP3 PUSH2 0x2C26 JUMP JUMPDEST SWAP2 POP PUSH2 0x38E0 DUP4 PUSH2 0x2C26 JUMP JUMPDEST SWAP3 POP DUP3 DUP3 ADD SWAP1 POP DUP1 DUP3 GT ISZERO PUSH2 0x38F8 JUMPI PUSH2 0x38F7 PUSH2 0x389B JUMP JUMPDEST JUMPDEST SWAP3 SWAP2 POP POP JUMP JUMPDEST PUSH32 0x4E487B7100000000000000000000000000000000000000000000000000000000 PUSH1 0x0 MSTORE PUSH1 0x32 PUSH1 0x4 MSTORE PUSH1 0x24 PUSH1 0x0 REVERT JUMPDEST PUSH1 0x0 PUSH2 0x3938 DUP3 PUSH2 0x2C26 JUMP JUMPDEST SWAP2 POP PUSH32 0xFFFFFFFFFFFFFFFFFFFFFFFFFFFFFFFFFFFFFFFFFFFFFFFFFFFFFFFFFFFFFFFF DUP3 SUB PUSH2 0x396A JUMPI PUSH2 0x3969 PUSH2 0x389B JUMP JUMPDEST JUMPDEST PUSH1 0x1 DUP3 ADD SWAP1 POP SWAP2 SWAP1 POP JUMP JUMPDEST PUSH1 0x0 DUP2 SWAP1 POP DUP2 PUSH1 0x0 MSTORE PUSH1 0x20 PUSH1 0x0 KECCAK256 SWAP1 POP SWAP2 SWAP1 POP JUMP JUMPDEST PUSH1 0x0 PUSH1 0x20 PUSH1 0x1F DUP4 ADD DIV SWAP1 POP SWAP2 SWAP1 POP JUMP JUMPDEST PUSH1 0x0 DUP3 DUP3 SHL SWAP1 POP SWAP3 SWAP2 POP POP JUMP JUMPDEST PUSH1 0x0 PUSH1 0x8 DUP4 MUL PUSH2 0x39D7 PUSH32 0xFFFFFFFFFFFFFFFFFFFFFFFFFFFFFFFFFFFFFFFFFFFFFFFFFFFFFFFFFFFFFFFF DUP3 PUSH2 0x399A JUMP JUMPDEST PUSH2 0x39E1 DUP7 DUP4 PUSH2 0x399A JUMP JUMPDEST SWAP6 POP DUP1 NOT DUP5 AND SWAP4 POP DUP1 DUP7 AND DUP5 OR SWAP3 POP POP POP SWAP4 SWAP3 POP POP POP JUMP JUMPDEST PUSH1 0x0 DUP2 SWAP1 POP SWAP2 SWAP1 POP JUMP JUMPDEST PUSH1 0x0 PUSH2 0x3A1E PUSH2 0x3A19 PUSH2 0x3A14 DUP5 PUSH2 0x2C26 JUMP JUMPDEST PUSH2 0x39F9 JUMP JUMPDEST PUSH2 0x2C26 JUMP JUMPDEST SWAP1 POP SWAP2 SWAP1 POP JUMP JUMPDEST PUSH1 0x0 DUP2 SWAP1 POP SWAP2 SWAP1 POP JUMP JUMPDEST PUSH2 0x3A38 DUP4 PUSH2 0x3A03 JUMP JUMPDEST PUSH2 0x3A4C PUSH2 0x3A44 DUP3 PUSH2 0x3A25 JUMP JUMPDEST DUP5 DUP5 SLOAD PUSH2 0x39A7 JUMP JUMPDEST DUP3 SSTORE POP POP POP POP JUMP JUMPDEST PUSH1 0x0 SWAP1 JUMP JUMPDEST PUSH2 0x3A61 PUSH2 0x3A54 JUMP JUMPDEST PUSH2 0x3A6C DUP2 DUP5 DUP5 PUSH2 0x3A2F JUMP JUMPDEST POP POP POP JUMP JUMPDEST JUMPDEST DUP2 DUP2 LT ISZERO PUSH2 0x3A90 JUMPI PUSH2 0x3A85 PUSH1 0x0 DUP3 PUSH2 0x3A59 JUMP JUMPDEST PUSH1 0x1 DUP2 ADD SWAP1 POP PUSH2 0x3A72 JUMP JUMPDEST POP POP JUMP JUMPDEST PUSH1 0x1F DUP3 GT ISZERO PUSH2 0x3AD5 JUMPI PUSH2 0x3AA6 DUP2 PUSH2 0x3975 JUMP JUMPDEST PUSH2 0x3AAF DUP5 PUSH2 0x398A JUMP JUMPDEST DUP2 ADD PUSH1 0x20 DUP6 LT ISZERO PUSH2 0x3ABE JUMPI DUP2 SWAP1 POP JUMPDEST PUSH2 0x3AD2 PUSH2 0x3ACA DUP6 PUSH2 0x398A JUMP JUMPDEST DUP4 ADD DUP3 PUSH2 0x3A71 JUMP JUMPDEST POP POP JUMPDEST POP POP POP JUMP JUMPDEST PUSH1 0x0 DUP3 DUP3 SHR SWAP1 POP SWAP3 SWAP2 POP POP JUMP JUMPDEST PUSH1 0x0 PUSH2 0x3AF8 PUSH1 0x0 NOT DUP5 PUSH1 0x8 MUL PUSH2 0x3ADA JUMP JUMPDEST NOT DUP1 DUP4 AND SWAP2 POP POP SWAP3 SWAP2 POP POP JUMP JUMPDEST PUSH1 0x0 PUSH2 0x3B11 DUP4 DUP4 PUSH2 0x3AE7 JUMP JUMPDEST SWAP2 POP DUP3 PUSH1 0x2 MUL DUP3 OR SWAP1 POP SWAP3 SWAP2 POP POP JUMP JUMPDEST PUSH2 0x3B2A DUP3 PUSH2 0x2B60 JUMP JUMPDEST PUSH8 0xFFFFFFFFFFFFFFFF DUP2 GT ISZERO PUSH2 0x3B43 JUMPI PUSH2 0x3B42 PUSH2 0x3259 JUMP JUMPDEST JUMPDEST PUSH2 0x3B4D DUP3 SLOAD PUSH2 0x386A JUMP JUMPDEST PUSH2 0x3B58 DUP3 DUP3 DUP6 PUSH2 0x3A94 JUMP JUMPDEST PUSH1 0x0 PUSH1 0x20 SWAP1 POP PUSH1 0x1F DUP4 GT PUSH1 0x1 DUP2 EQ PUSH2 0x3B8B JUMPI PUSH1 0x0 DUP5 ISZERO PUSH2 0x3B79 JUMPI DUP3 DUP8 ADD MLOAD SWAP1 POP JUMPDEST PUSH2 0x3B83 DUP6 DUP3 PUSH2 0x3B05 JUMP JUMPDEST DUP7 SSTORE POP PUSH2 0x3BEB JUMP JUMPDEST PUSH1 0x1F NOT DUP5 AND PUSH2 0x3B99 DUP7 PUSH2 0x3975 JUMP JUMPDEST PUSH1 0x0 JUMPDEST DUP3 DUP2 LT ISZERO PUSH2 0x3BC1 JUMPI DUP5 DUP10 ADD MLOAD DUP3 SSTORE PUSH1 0x1 DUP3 ADD SWAP2 POP PUSH1 0x20 DUP6 ADD SWAP5 POP PUSH1 0x20 DUP2 ADD SWAP1 POP PUSH2 0x3B9C JUMP JUMPDEST DUP7 DUP4 LT ISZERO PUSH2 0x3BDE JUMPI DUP5 DUP10 ADD MLOAD PUSH2 0x3BDA PUSH1 0x1F DUP10 AND DUP3 PUSH2 0x3AE7 JUMP JUMPDEST DUP4 SSTORE POP JUMPDEST PUSH1 0x1 PUSH1 0x2 DUP9 MUL ADD DUP9 SSTORE POP POP POP JUMPDEST POP POP POP POP POP POP JUMP JUMPDEST PUSH1 0x0 DUP2 PUSH1 0x0 SHR SWAP1 POP SWAP2 SWAP1 POP JUMP JUMPDEST PUSH1 0x0 DUP2 SWAP1 POP SWAP2 SWAP1 POP JUMP JUMPDEST PUSH1 0x0 PUSH2 0x3C1D PUSH2 0x3C18 DUP4 PUSH2 0x3BF3 JUMP JUMPDEST PUSH2 0x3C00 JUMP JUMPDEST SWAP1 POP SWAP2 SWAP1 POP JUMP JUMPDEST PUSH1 0x0 DUP2 SLOAD PUSH2 0x3C31 DUP2 PUSH2 0x386A JUMP JUMPDEST PUSH2 0x3C3B DUP2 DUP7 PUSH2 0x2D0A JUMP JUMPDEST SWAP5 POP PUSH1 0x1 DUP3 AND PUSH1 0x0 DUP2 EQ PUSH2 0x3C56 JUMPI PUSH1 0x1 DUP2 EQ PUSH2 0x3C6C JUMPI PUSH2 0x3C9F JUMP JUMPDEST PUSH1 0xFF NOT DUP4 AND DUP7 MSTORE DUP2 ISZERO ISZERO PUSH1 0x20 MUL DUP7 ADD SWAP4 POP PUSH2 0x3C9F JUMP JUMPDEST PUSH2 0x3C75 DUP6 PUSH2 0x3975 JUMP JUMPDEST PUSH1 0x0 JUMPDEST DUP4 DUP2 LT ISZERO PUSH2 0x3C97 JUMPI DUP2 SLOAD DUP2 DUP10 ADD MSTORE PUSH1 0x1 DUP3 ADD SWAP2 POP PUSH1 0x20 DUP2 ADD SWAP1 POP PUSH2 0x3C78 JUMP JUMPDEST DUP1 DUP9 ADD SWAP6 POP POP POP JUMPDEST POP POP POP SWAP3 SWAP2 POP POP JUMP JUMPDEST PUSH1 0x0 PUSH2 0x120 DUP4 ADD PUSH1 0x0 DUP1 DUP5 ADD SLOAD SWAP1 POP PUSH2 0x3CC0 DUP2 PUSH2 0x3C0A JUMP JUMPDEST PUSH2 0x3CCD PUSH1 0x0 DUP8 ADD DUP3 PUSH2 0x2CFB JUMP JUMPDEST POP PUSH1 0x1 DUP5 ADD SLOAD SWAP1 POP PUSH2 0x3CDE DUP2 PUSH2 0x3C0A JUMP JUMPDEST PUSH2 0x3CEB PUSH1 0x20 DUP8 ADD DUP3 PUSH2 0x2CFB JUMP JUMPDEST POP PUSH1 0x2 DUP5 ADD DUP6 DUP4 SUB PUSH1 0x40 DUP8 ADD MSTORE PUSH2 0x3D02 DUP4 DUP3 PUSH2 0x3C24 JUMP JUMPDEST SWAP3 POP POP PUSH1 0x3 DUP5 ADD DUP6 DUP4 SUB PUSH1 0x60 DUP8 ADD MSTORE PUSH2 0x3D1B DUP4 DUP3 PUSH2 0x3C24 JUMP JUMPDEST SWAP3 POP POP PUSH1 0x4 DUP5 ADD SLOAD SWAP1 POP PUSH2 0x3D2E DUP2 PUSH2 0x3C0A JUMP JUMPDEST PUSH2 0x3D3B PUSH1 0x80 DUP8 ADD DUP3 PUSH2 0x2CFB JUMP JUMPDEST POP PUSH1 0x5 DUP5 ADD DUP6 DUP4 SUB PUSH1 0xA0 DUP8 ADD MSTORE PUSH2 0x3D52 DUP4 DUP3 PUSH2 0x3C24 JUMP JUMPDEST SWAP3 POP POP PUSH1 0x6 DUP5 ADD DUP6 DUP4 SUB PUSH1 0xC0 DUP8 ADD MSTORE PUSH2 0x3D6B DUP4 DUP3 PUSH2 0x3C24 JUMP JUMPDEST SWAP3 POP POP PUSH1 0x7 DUP5 ADD DUP6 DUP4 SUB PUSH1 0xE0 DUP8 ADD MSTORE PUSH2 0x3D84 DUP4 DUP3 PUSH2 0x3C24 JUMP JUMPDEST SWAP3 POP POP PUSH1 0x8 DUP5 ADD DUP6 DUP4 SUB PUSH2 0x100 DUP8 ADD MSTORE PUSH2 0x3D9E DUP4 DUP3 PUSH2 0x3C24 JUMP JUMPDEST SWAP3 POP POP DUP2 SWAP3 POP POP POP SWAP3 SWAP2 POP POP JUMP JUMPDEST PUSH1 0x0 PUSH1 0x20 DUP3 ADD SWAP1 POP DUP2 DUP2 SUB PUSH1 0x0 DUP4 ADD MSTORE PUSH2 0x3DC6 DUP2 DUP5 PUSH2 0x3CA8 JUMP JUMPDEST SWAP1 POP SWAP3 SWAP2 POP POP JUMP JUMPDEST PUSH1 0x0 PUSH1 0xC0 DUP4 ADD PUSH1 0x0 DUP1 DUP5 ADD SLOAD SWAP1 POP PUSH2 0x3DE5 DUP2 PUSH2 0x3C0A JUMP JUMPDEST PUSH2 0x3DF2 PUSH1 0x0 DUP8 ADD DUP3 PUSH2 0x2CFB JUMP JUMPDEST POP PUSH1 0x1 DUP5 ADD DUP6 DUP4 SUB PUSH1 0x20 DUP8 ADD MSTORE PUSH2 0x3E09 DUP4 DUP3 PUSH2 0x3C24 JUMP JUMPDEST SWAP3 POP POP PUSH1 0x2 DUP5 ADD DUP6 DUP4 SUB PUSH1 0x40 DUP8 ADD MSTORE PUSH2 0x3E22 DUP4 DUP3 PUSH2 0x3C24 JUMP JUMPDEST SWAP3 POP POP PUSH1 0x3 DUP5 ADD DUP6 DUP4 SUB PUSH1 0x60 DUP8 ADD MSTORE PUSH2 0x3E3B DUP4 DUP3 PUSH2 0x3C24 JUMP JUMPDEST SWAP3 POP POP PUSH1 0x4 DUP5 ADD DUP6 DUP4 SUB PUSH1 0x80 DUP8 ADD MSTORE PUSH2 0x3E54 DUP4 DUP3 PUSH2 0x3C24 JUMP JUMPDEST SWAP3 POP POP PUSH1 0x5 DUP5 ADD DUP6 DUP4 SUB PUSH1 0xA0 DUP8 ADD MSTORE PUSH2 0x3E6D DUP4 DUP3 PUSH2 0x3C24 JUMP JUMPDEST SWAP3 POP POP DUP2 SWAP3 POP POP POP SWAP3 SWAP2 POP POP JUMP JUMPDEST PUSH1 0x0 PUSH1 0x20 DUP3 ADD SWAP1 POP DUP2 DUP2 SUB PUSH1 0x0 DUP4 ADD MSTORE PUSH2 0x3E95 DUP2 DUP5 PUSH2 0x3DCE JUMP JUMPDEST SWAP1 POP SWAP3 SWAP2 POP POP JUMP INVALID LOG2 PUSH5 0x6970667358 0x22 SLT KECCAK256 0xBA PUSH31 0x555FA0C5EEE5A7BB7E2A4CDFFC973F054345AF9C8727B014C6E185F17B9164 PUSH20 0x6F6C634300081800330000000000000000000000 "},"methodIdentifiers":{"addFarmer(string,string,string,string,string)":"961e89b8","addPesticide(uint256,uint256,string,string,string,string,string,string)":"80507b2a","addPesticideFarmer(uint256,uint256,uint256)":"5446032d","cropCount()":"dfd55a2c","crops(uint256)":"70c9f1a5","distributors(uint256)":"50b492ba","farmerCount()":"bd45b397","farmers(uint256)":"8afdd669","getAllFarmers()":"536954e4","getFarmersPesticidesById(uint256)":"c5779fd1","getPesticides()":"279115ea","getProcudersPesticides(uint256)":"f71afe33","getProducers()":"e80a7eb9","name()":"06fdde03","pesticideCount()":"ecb22baa","pesticideFarmerCount()":"458a1308","pesticides(uint256)":"7ee49d91","pesticidesDistributor(uint256)":"18c7833f","pesticidesFarmer(uint256)":"dc1e392c","producerCount()":"d708fe5b","producers(uint256)":"9b68ade7"}}}}}